:100000000C946A000C9492000C9492000C94920050
:100010000C9492000C9492000C9492000C94920018
:100020000C9492000C9492000C9492000C94920008
:100030000C9492000C9492000C9492000C949200F8
:100040000C946E0D0C9492000C944A0C0C94240C9D
:100050000C9492000C9492000C9492000C949200D8
:100060000C9439090C9492007C3C3E5E2B3D3F2F52
:100070005B5D3B2C2A225C0000000000250028006C
:100080002B0000000000240027002A0000000000D0
:1000900023002600290004040404040404040202CA
:1000A00002020202030303030303010204081020F7
:1000B0004080010204081020010204081020000002
:1000C0000008000201000003040700000000000017
:1000D00000004E1E11241FBECFEFD8E0DEBFCDBF03
:1000E00026E0A4E5B2E001C01D92AE35B207E1F70B
:1000F00012E0A0E0B1E0ECEAF1E402C005900D925C
:10010000A435B107D9F710E0CAE6D0E004C02197C2
:10011000FE010E94801FC936D107C9F70E947F1ACD
:100120000C94D4200C940000DC015996ED91FC91C4
:100130005A973097B9F083899489A589B689428501
:10014000538564857585841B950BA60BB70B8115AC
:1001500020E89207A105B10538F08FEF9FE7A0E0F6
:10016000B0E0089580E090E00895CF93DF931F9270
:10017000CDB7DEB76983DC01ED91FC910280F3819C
:10018000E02D41E050E0BE016F5F7F4F09950F9079
:10019000DF91CF91089585ED8093BC008091BC00E4
:1001A00084FDFCCF1092E004089540917602262F42
:1001B00030E0240F311D21323105DCF42091E004C0
:1001C0002430C9F4FC0180E090E0861758F43091A7
:1001D00076022191DC01AC5ABD4FA30FB11D2C93C7
:1001E0000196F3CF80917602680F6093760280E0EB
:1001F000089581E0089582E008950895E091AC02A9
:100200008091AB02E81730F4F0E0E65CF94F8081B2
:1002100090E008958FEF9FEF08959091AC02809148
:10022000AB02981750F4E92FF0E0E65CF94F20811B
:1002300030E09F5F9093AC0202C02FEF3FEFC90107
:1002400008958091AB0290E02091AC02821B91094D
:100250000895CF92DF92EF92FF920F931F93CF9367
:10026000DF937C01262F972F8A018091E104882358
:1002700091F0C62FD72F6E01C40ED51ECC15DD050B
:1002800071F06991D701ED91FC910190F081E02D21
:10029000C7010995F3CF642F822F0E94D500C801B2
:1002A000DF91CF911F910F91FF90EF90DF90CF9052
:1002B0000895CF93DF931F92CDB7DEB76983209166
:1002C000E1042223D1F020910405203240F021E006
:1002D00030E0FC013383228380E090E015C0809100
:1002E000E204E82FF0E0ED51FB4F998190838F5F9E
:1002F0008093E2048093040505C061E0CE0101967D
:100300000E94D50081E090E00F90DF91CF91089599
:10031000089580E090E00895DC011C96ED91FC9139
:100320001D97208116968C91922F982381E009F4D5
:1003300080E00895FC01A085B18586819C916111C2
:1003400009C0892B8C93A089B1899C918681809565
:10035000892308C0809589238C93A089B1899C91B9
:100360008681892B8C930895FC01A285B3858781B2
:100370009C9161110CC0892B8C93A289B3899C91AB
:100380008781809589238C9320E63AEE17C080956B
:1003900089238C93A289B3899C918781892B8C9323
:1003A000A685B785978120E63AEE8C91892331F4B2
:1003B0002115310519F021503109F7CF81E0232BA8
:1003C00009F480E0089580E0089580E0089580E0D9
:1003D0000895089580E0089580E0089584E00895E8
:1003E000CF93DF931F92CDB7DEB74983DC01ED9148
:1003F000FC910088F189E02D21E0AE014F5F5F4F55
:1004000009950F90DF91CF9108950F93CF93DF93CC
:100410001F92CDB7DEB72983DC01ED91FC910484F6
:10042000F585E02D01E09E012F5F3F4F09950F906C
:10043000DF91CF910F9108950F931F93CF93DF9387
:10044000EC01062F142FE881F9810280F381E02D61
:1004500009958DA3FE01E00FF11D968D292F2095A2
:100460002823122B982B212F292347896E89CE010F
:100470000296DF91CF911F910F910C940502CF93BB
:10048000DF931F92CDB7DEB71982DC01ED91FC91AD
:100490000684F785E02D21E0AE014F5F5F4F09959F
:1004A00089810F90DF91CF9108950F93CF93DF93C0
:1004B0001F92CDB7DEB71982DC01ED91FC91028469
:1004C000F385E02D01E09E012F5F3F4F0995898163
:1004D0000F90DF91CF910F910895FC01818D928D46
:1004E000009711F00C9445110895CF93DF93EC0120
:1004F000898D9A8D009739F481E090E09B838A83FF
:1005000080E090E00BC0FC01138212820E9419125D
:10051000E98DFA8D22813381232B71F7DF91CF9101
:1005200008950F931F93CF93DF93EC01162F61E093
:1005300070E080E090E00E94280DCE01810F911DB7
:100540008C01FC0147896E89CE0102960E945502FA
:10055000F801968D8923DF91CF911F910F91089516
:100560000F93CF93DF93E90181E08093E1046093DF
:1005700003051092E20410920405642F8DEE95E0BD
:100580000E945901402F50E0BE018DEE95E00E947F
:10059000290181E00E94C41391E0811190E0892F2C
:1005A000DF91CF910F91089581E08093E1046093F2
:1005B00003051092E204109204050E94C41391E016
:1005C000811190E0892F0895CA0131E03093E10450
:1005D000609303051092E20410920405422F50E04C
:1005E000BC018DEE95E00E94290181E00E94C413B8
:1005F00091E0811190E0892F0895EF92FF920F937F
:100600001F93CF93DF93C62F122FE32E81E08093A9
:10061000E104609303051092E20410920405642F34
:100620008DEE95E00E94590180E00E94C413602F76
:10063000013208F060E28C2F0E9491191092AC02F6
:100640008093AB02882301F1F12EC12FDE2D1C2FE8
:100650001F199091AB028091AC02981741F01017CE
:1006600030F48DEE95E00E940D018993F0CF9091CA
:10067000AB028091AC02981729F08DEE95E00E94B4
:100680000D01F5CF81E0101380E0DF91CF911F9134
:100690000F91FF90EF900895CF92DF92FF920F930A
:1006A0001F93CF93DF9300D0CDB7DEB7862F122FE5
:1006B000622F213208F060E249835A830E94911927
:1006C0001092AC028093AB0249815A81882309F1D0
:1006D000F42E6A010C2D0F199091AB028091AC029F
:1006E000981751F0011740F48DEE95E00E940D012E
:1006F000F60181936F01EECF9091AB028091AC0235
:10070000981729F08DEE95E00E940D01F5CF81E05C
:10071000011380E00F900F90DF91CF911F910F9107
:10072000FF90DF90CF9008958F929F92AF92BF92EB
:10073000CF92DF92EF92FF920F931F93CF93DF93AD
:1007400000D000D0CDB7DEB77C0180E2689F6001A9
:100750001124960128543D4FD9011B969C9191710B
:1007600021F0842F827409F097C0142FF701628B57
:100770008091000190910101A0910201B0910301CB
:1007800086879787A08BB18BF601E854FD4F44898B
:10079000558960E070E0BA0155274427D701579684
:1007A0004D935D936D937C935A97828D938DA0E0CA
:1007B000B0E0482B592B6A2B7B2BD70157964D93D2
:1007C0005D936D937C935A97D9011B968C91887198
:1007D00059F4848D958DA68DB78DF701838B948BFD
:1007E000A58BB68B81E012C0803109F055C097010E
:1007F0002D5E3F4FD7015B968D919C915C970E9437
:10080000250F882309F448C084E0F7018583812FF0
:100810008F70D70114968C931497F7011682178264
:10082000108611861A961D921D921D921C921D977C
:1008300016FF34C015968C91813071F511FF2CC0D4
:10084000F7014389548965897689452B462B472BC7
:1008500009F461C040E050E0BA01C7010E94831171
:100860008823D1F0F7018788908CA18CB28CC38C3F
:10087000D48C82E090E0A0E0B0E0F6018083918328
:10088000A283B3839E012F5F3F4FB501A401C60130
:100890000E94A10E811104C080E03DC081E03BC0F8
:1008A00000E010E09801B501A401C6010E94010E0C
:1008B000882391F389809A80AB80BC80D6015796BB
:1008C0008C91803129F088EF9FEFAFEFBFE004C03B
:1008D00088EF9FEFA0E0B0E088169906AA06BB0655
:1008E00088F2D70157961D921D921D921C925A971D
:1008F000F701138A148A158A168A84818068848392
:10090000C7010E944511882339F240E050E0BA0146
:10091000C7010E9483110F900F900F900F90DF91ED
:10092000CF911F910F91FF90EF90DF90CF90BF90EC
:10093000AF909F908F900895CF93DF93EC010E942A
:100940004511882311F01D8281E0DF91CF91089538
:100950003F924F925F926F927F928F929F92AF924F
:10096000BF92CF92DF92EF92FF920F931F93CF939C
:10097000DF93CDB7DEB72C970FB6F894DEBF0FBE6E
:10098000CDBF5C01DC015B968D909C905C971696C8
:10099000CD90DD90ED90FC901997C114D104E10445
:1009A000F10439F0BFEFCB1ADB0AEB0AFB0A312C5A
:1009B00007C0F401C080D180E280F38033243394F7
:1009C000F40181859285A385B4859C01AD012F5FDB
:1009D0003F4F4F4F5F4F29873A874B875C872601F0
:1009E00037011D821E821F821886F401818592853F
:1009F000A385B4852D813E814F81588528173907FD
:100A00004A075B0708F063C089859A85AB85BC857A
:100A10008C159D05AE05BF0550F482E0C82ED12C83
:100A2000E12CF12C92E0492E512C612C712C9E016D
:100A30002F5F3F4FB701A601C4010E94A10E88237A
:100A400009F445C089819A81AB81BC81892B8A2BAD
:100A50008B2B41F0260137019FEF491A590A690A89
:100A6000790A05C0C414D504E604F70491F02D8179
:100A70003E814F8158852F5F3F4F4F4F5F4F2D83F2
:100A80003E834F8358873FEFC31AD30AE30AF30A22
:100A9000ACCF0FEF1FEF2FEF3FE0B301A201C40176
:100AA0000E94010E882399F0D50116964D915D9113
:100AB0006D917C911997411551056105710549F0BA
:100AC00093018201C4010E94010E811102C080E0E5
:100AD0002AC0D50116964D925D926D927C9219971F
:100AE000332051F0D301C2010196A11DB11DF401C3
:100AF00080839183A283B383F5018789908DA18D33
:100B0000B28D892B8A2B8B2B69F4D50157964D9288
:100B10005D926D927C925A9714968C91149780688E
:100B200014968C9381E02C960FB6F894DEBF0FBE1E
:100B3000CDBFDF91CF911F910F91FF90EF90DF908C
:100B4000CF90BF90AF909F908F907F906F905F906D
:100B50004F903F9008958FB7F89480919C028FBF7B
:100B6000089561E0FC0184810E94A50C80919B02A4
:100B7000811110929B0208958EBD00000DB407FEF6
:100B8000FDCF8EB508958FEF0C94BC050F931F9386
:100B9000CF93DF93EB010E94620D8B010E94C3058E
:100BA0008F3F49F00E94620D601B710B6C177D072F
:100BB000A8F380E001C081E0DF91CF911F910F91F8
:100BC0000895CF93DF93EC018E81882389F08F8184
:100BD00098859C012F5F3F4F38872F83823092404A
:100BE00018F40E94C305F3CFCE010E94B1051E8206
:100BF000DF91CF9108958CBD9DBD0895CF93DF9374
:100C0000EC0180919B02811109C081E080939B02DD
:100C10008091A2059091A3050E94FB0560E08C8164
:100C2000DF91CF910C94A50CCF92DF92FF920F939E
:100C30001F93CF93DF9300D000D0CDB7DEB76C0108
:100C4000F62E29833A834B835C830E94E105C6011B
:100C50000E94FE056CE271E0C6010E94C6058F2D60
:100C600080640E94BC0508E110E05C814B813A8100
:100C70002981DA01C901002E04C0B695A795979580
:100C800087950A94D2F729833A834B835C830E9429
:100C9000BC050850110929813A814B815C81083FCC
:100CA0008FEF180731F7FF2029F0E8E0FE1204C0AB
:100CB00087E803C085E901C08FEF0E94BC0510E002
:100CC0000E94C305F601828787FF04C01F3F11F011
:100CD0001F5FF6CF0F900F900F900F90DF91CF9185
:100CE0001F910F91FF90DF90CF900895AF92BF9228
:100CF000CF92DF92EF92FF920F931F93CF93DF93E8
:100D0000EC016901C801820F931F8130924008F005
:100D100070C08E81882371F088819981AA81BB81FE
:100D2000481759076A077B0729F48F819885C816E9
:100D3000D906B0F5488359836A837B838B858330DA
:100D400039F089E0440F551F661F771F8A95D1F748
:100D50009A01AB0161E1CE010E941406882319F0CB
:100D600083E08D8346C00E94620D5B010E94C30533
:100D70008A878F3F49F40E94620D6A197B096D32A0
:100D80007140A0F38FE003C08E3F31F08DE08D8382
:100D9000CE010E94B1052DC018861F8281E08E838E
:100DA0008F8198858C159D0540F40E94C3058F8125
:100DB0009885019698878F83F3CF6701E00EF11E27
:100DC000CE14DF0431F00E94C305F60181936F0158
:100DD000F7CF8F819885080F191F18870F83898592
:100DE000882319F00115124048F0CE010E94E10558
:100DF00005C0CE010E94B10580E001C081E0DF9115
:100E0000CF911F910F91FF90EF90DF90CF90BF9007
:100E1000AF900895EF92FF920F931F93CF93DF93BC
:100E2000EC017901411551056105710511F482E16B
:100E30003CC08B85833039F089E0440F551F661F15
:100E4000771F8A95D1F79A01AB0168E1CE010E9424
:100E50001406882311F084E028C08EEF0E94BC05A0
:100E600087018EEFF81AF80181918F010E94BC056D
:100E70000E151F05C1F78FEF0E94BC058FEF0E9472
:100E8000BC050E94C3058A878F71853031F081E1EE
:100E90008D83CE010E94B10509C068E572E0CE01E4
:100EA0000E94C605811107C085E18D83CE010E9495
:100EB000B10580E013C020E030E0A9016DE0CE0173
:100EC0000E941406811104C00E94C305882311F0FA
:100ED00084E1EBCFCE010E94B10581E0DF91CF919B
:100EE0001F910F91FF90EF900895FC01DB01129686
:100EF0008D919C911397938382838EE291E09183ED
:100F0000808314968C911497848315968C911597F1
:100F1000858316964D915D916D917C9119974683CD
:100F20005783608771871A964D915D916D917C9181
:100F30001D9742875387648775871E964D915D91F3
:100F40006D917C91519746875787608B718B529634
:100F50008C915297828B53964D915D916D917C91BE
:100F60005697438B548B658B768B57964D915D913D
:100F70006D917C915A97478B508F618F728F5B96E2
:100F80008D919C915C97948F838F0895EF92FF923F
:100F90000F931F93CF93DF93EC017B018A011B8298
:100FA0001A8288EE93E0A0E0B0E08C839D83AE834C
:100FB000BF8382E891E0998388838DE190E00E946D
:100FC000861F9A8F898F009779F02DE1F701DC0158
:100FD00001900D922A95E1F74CE050E0B801CE0166
:100FE0000C960E94C520188EDF91CF911F910F9112
:100FF000FF90EF9008952F923F924F925F926F92E1
:101000007F928F929F92AF92BF92CF92DF92EF9298
:10101000FF920F931F93CF93DF9300D0CDB7DEB72E
:10102000FC018581882309F4D9C0848180FFD6C062
:1010300021E02A834389548965897689828593854D
:10104000A485B585481759076A077B0709F41A82F2
:101050006F013A81832F90E0DE0111964D013F012F
:10106000B6E06B0E711C892B09F47DC0D6011A966F
:101070004D915D916D917C911D975A01B1E0BB221C
:10108000F60125811A012B0189E056944794379483
:1010900027948A95D1F7838D948D223061F4FC01D9
:1010A000828D938DA48DB58DBC01CD01620D731D14
:1010B000841D951D45C0DC0114961C911150122110
:1010C000A114B104D1F4111118C0452B462B472BA4
:1010D00051F4F6018789908DA18DB28D8683978317
:1010E000A087B1870AC046815781608571859301C9
:1010F0000E94A10E882309F471C0F601238D348D5E
:1011000086819781A085B1850297A109B109AC01BB
:10111000BD01F901058404C0440F551F661F771FE8
:101120000A94D2F786859785A089B189840F951F87
:10113000A61FB71FBC01CD01610F711D811D911D3F
:10114000D60114962C9126FF14C000910001109135
:10115000010120910201309103016017710782079C
:10116000930751F506C0FA81FF23C1F1898190E010
:1011700037C040E00E94B80D882381F1F501E854A2
:10118000FD4FD401CF010196E817F90719F021911D
:101190002D93FACFEFEF8E1A9E0AF6018285938582
:1011A000A485B5850196A11DB11D82879387A4876B
:1011B000B58780E090E057CF740101E010E0950121
:1011C000AB01BC018091B8049091B9040E947606ED
:1011D000882321F0BFEF8B1A9B0ADFCF8FEF9FEFA1
:1011E0000F900F90DF91CF911F910F91FF90EF9093
:1011F000DF90CF90BF90AF909F908F907F906F9037
:101200005F904F903F902F900895FC01818D928DBB
:10121000009711F00C94FB078FEF9FEF08950F9349
:101220001F93CF93DF93FC01818D928D0097B9F0CE
:10123000EF010E94FB078C010F3F8FEF180791F021
:10124000898D9A8DFC014285538564857585415051
:101250005109610971090E948311C80105C080E02C
:1012600090E002C08FEF9FEFDF91CF911F910F9120
:1012700008951F920F920FB60F9211242F933F9350
:101280004F935F936F937F938F939F93AF93BF938E
:10129000EF93FF938091B900887F803609F49CC05A
:1012A00068F5883209F45BC090F4803109F454C0C9
:1012B00038F4882309F4F6C0883009F44DC0F6C02C
:1012C000883109F44CC0803209F45DC0EFC080342D
:1012D00009F468C048F4803309F455C0883309F034
:1012E000E5C08093DE04D8C0803509F44FC088354E
:1012F00009F45DC0883409F0D9C0D6C0883909F432
:10130000C7C0A8F4883709F467C038F4883609F4F0
:1013100063C0803709F460C0C9C0883809F4B8C018
:10132000803909F45FC0803809F0C0C05BC0803BE1
:1013300009F486C038F4803A09F466C0883A09F4A2
:101340007FC0B4C0803C09F4A7C0883C09F4A4C0A5
:10135000883B09F48AC0AAC08091BB0410C0909158
:10136000DD048091DC04981770F5E091DD0481E0E4
:101370008E0F8093DD04F0E0E454FB4F8081809376
:10138000BB0085EC86C08093DE048EC0E091DD0456
:1013900081E08E0F8093DD048091BB00F0E0E45487
:1013A000FB4F80839091DD048091DC046EC0E0915E
:1013B000DD0481E08E0F8093DD048091BB00F0E0BE
:1013C000E454FB4F80838091DF0481116DC081E084
:1013D0008093BA0484EA61C083E08093E0041092B1
:1013E0009A02CFCF80919A02803208F051C0E091EA
:1013F0009A0281E08E0F80939A028091BB00F0E008
:10140000E658FD4F8083BDCF85EC8093BC001092E1
:10141000E00480919A02803230F4E0919A02F0E088
:10142000E658FD4F108260919A0270E0E0917802D8
:10143000F09179028AE792E0099510929A0236C0FB
:1014400084E08093E0041092770210927602E0919B
:101450007402F0917502099580917602811105C0A0
:1014600081E08093760210925402E091770281E04D
:101470008E0F80937702F0E0EC5AFD4F80818093CD
:10148000BB009091770280917602981708F479CF8B
:1014900085E88093BC000AC085EC8093BC00109264
:1014A000E00404C01092DE040E94CB00FF91EF9193
:1014B000BF91AF919F918F917F916F915F914F916C
:1014C0003F912F910F900FBE0F901F901895109283
:1014D000E00481E08093DF041092BA0461E082E1CD
:1014E0000E94A50C61E083E10E94A50CE9EBF0E00D
:1014F00080818E7F808380818D7F808388E480934C
:10150000B80085E48093BC000895A8EEB3E09A018A
:10151000AB010E94101F9B01AC0160E074E284EFFC
:1015200090E00E944A1FDA01C9014097A109B10960
:10153000B695A795979587958093B8001092AC02C1
:101540001092AB021092E204109204050C94670A08
:101550000F931F93CF93DF93EC018C010E5F1F4F0E
:1015600044E650E060E070E0C8010E94850A42E075
:101570006E89C8010E9455028DA386FF07C0282FDF
:101580002F7B42E06E89C8010E9405024EE06E8901
:10159000C8010E9455028DA3982F9F7D39F0282FF6
:1015A00020724EE06E89C8010E9405024FE06E89EC
:1015B000C8010E945502282F8DA3837811F423FDC2
:1015C0000BC0247728604FE06E89C801DF91CF916E
:1015D0001F910F910C940502DF91CF911F910F91F4
:1015E0000895FC01538D448D252F30E0842F90E029
:1015F000821B930B541710F0CF960895019708950E
:10160000FC01918D828D981761F0828DDF01A80F0A
:10161000B11D5D968C91928D9F5F9F73928F90E02C
:1016200008958FEF9FEF0895FC01918D828D98179B
:1016300031F0828DE80FF11D858D90E008958FEFD8
:101640009FEF0895FC01918D228D892F90E0805CA1
:101650009F4F821B91098F7399270895FC01848DF8
:10166000DF01A80FB11DA35ABF4F2C91848D90E0CC
:1016700001968F739927848FA689B7892C93A089A7
:10168000B1898C9180648C93938D848D981306C05E
:101690000288F389E02D80818F7D80830895EF9209
:1016A000FF920F931F93CF93DF93EC0181E0888F1C
:1016B0009B8D8C8D981305C0E889F989808185FD03
:1016C00024C0F62E0B8D10E00F5F1F4F0F731127F4
:1016D000E02E8C8DE8120CC00FB607FCFACFE8891B
:1016E000F989808185FFF5CFCE010E942E0BF1CFC5
:1016F0008B8DFE01E80FF11DE35AFF4FF0820B8F37
:10170000EA89FB898081806207C0EE89FF89608356
:10171000E889F98980818064808381E090E0DF91AD
:10172000CF911F910F91FF90EF900895CF93DF938A
:10173000EC01888D8823C9F0EA89FB89808185FDC9
:1017400005C0A889B9898C9186FD0FC00FB607FC2A
:10175000F5CF808185FFF2CFA889B9898C9185FF6B
:10176000EDCFCE010E942E0BE7CFDF91CF910895F0
:1017700080E090E0892B29F00E94BA1381110C942B
:10178000000008953FB7F8948091A7029091A802B5
:10179000A091A902B091AA0226B5A89B05C02F3F2F
:1017A00019F00196A11DB11D3FBFBA2FA92F982F87
:1017B0008827820F911DA11DB11DBC01CD0142E002
:1017C000660F771F881F991F4A95D1F708950E94C9
:1017D000B32080919D028823A9F14091000150918E
:1017E0000101609102017091030128EB32E08091C8
:1017F000B8049091B9040E940A07811102C080E0E8
:10180000089540919E0250919F026091A0027091B4
:10181000A102411551056105710591F028EB32E0F7
:101820008091B8049091B9040E940A07882339F383
:1018300010929E0210929F021092A0021092A1029A
:1018400010929D0281E008951F920F920FB60F92A1
:1018500011242F933F934F935F936F937F938F93B5
:101860009F93AF93BF93EF93FF9385E095E00E9422
:101870002E0BFF91EF91BF91AF919F918F917F912F
:101880006F915F914F913F912F910F900FBE0F90ED
:101890001F9018951F920F920FB60F9211242F933D
:1018A0008F939F93EF93FF93E0911505F0911605A9
:1018B0008081E0911B05F0911C0582FD12C0908192
:1018C00080911E058F5F8F7320911F05821751F045
:1018D000E0911E05F0E0EB5FFA4F958F80931E05B7
:1018E00001C08081FF91EF919F918F912F910F9077
:1018F0000FBE0F901F901895833081F028F481302F
:1019000099F08230A1F008958730A9F08830B9F0BD
:101910008430D1F4809180008F7D03C0809180005D
:101920008F7780938000089584B58F7702C084B547
:101930008F7D84BD08958091B0008F7703C0809122
:10194000B0008F7D8093B00008951F93CF93DF93F5
:10195000282F30E0F901E254FF4F8491F901E65558
:10196000FF4FD491F901EA56FF4FC491CC23C9F03F
:10197000162F81110E947C0CEC2FF0E0EE0FFF1F60
:10198000E858FF4FA591B4918FB7F894111105C095
:101990009C91ED2FE095E92302C0EC91ED2BEC93A7
:1019A0008FBFDF91CF911F910895CF93DF9390E088
:1019B000FC01E655FF4F2491FC01EA56FF4F84914C
:1019C000882361F190E0880F991FFC01EE57FF4FCB
:1019D000C591D491FC01E858FF4FA591B4916111D4
:1019E00009C09FB7F8948881209582238883EC9161
:1019F0002E230BC0623061F49FB7F8943881822F98
:101A0000809583238883EC912E2B2C939FBF06C057
:101A10008FB7F894E8812E2B28838FBFDF91CF9169
:101A200008958E3008F08E508770806480937C001B
:101A300080917A00806480937A0080917A0086FD9C
:101A4000FCCF809178002091790090E0922B08954E
:101A50008F929F92AF92BF92CF92DF92EF92FF92BE
:101A60006B017C010E94C20B4B015C01C114D104CB
:101A7000E104F104F1F00E94C20BDC01CB018819F2
:101A80009909AA09BB09883E9340A105B10570F3E5
:101A900021E0C21AD108E108F10888EE880E83E03F
:101AA000981EA11CB11CC114D104E104F10419F762
:101AB000DDCFFF90EF90DF90CF90BF90AF909F90E1
:101AC0008F9008952FB7F8946091A3027091A402AB
:101AD0008091A5029091A6022FBF08951F920F92A8
:101AE0000FB60F9211242F933F938F939F93AF9331
:101AF000BF938091A3029091A402A091A502B091FE
:101B0000A6023091A20223E0230F2D3720F4019684
:101B1000A11DB11D05C026E8230F0296A11DB11D10
:101B20002093A2028093A3029093A402A093A50203
:101B3000B093A6028091A7029091A802A091A90259
:101B4000B091AA020196A11DB11D8093A7029093A6
:101B5000A802A093A902B093AA02BF91AF919F914E
:101B60008F913F912F910F900FBE0F901F9018955E
:101B70008F929F92AF92BF92EF92FF920F931F931B
:101B8000CF934B015C01C42F809100019091010122
:101B9000A0910201B091030188159905AA05BB0522
:101BA00001F10E94E90B811102C080E020C088EBA6
:101BB000E82E82E0F82E00E012E020E030E0B501EF
:101BC000A4018091B8049091B9040E9476068823FC
:101BD00061F38092000190920101A0920201B09203
:101BE000030180919D02C82BC0939D0281E0CF919B
:101BF0001F910F91FF90EF90BF90AF909F908F90AB
:101C000008954F925F926F927F928F929F92AF92C0
:101C1000BF92CF92DF92EF92FF920F931F93CF93D9
:101C2000DF93EC016A017B01280139014230510543
:101C30006105710510F480E073C089859A85AB85D4
:101C4000BC850196A11DB11D84179507A607B7078E
:101C500090F38B889C88AD88BE888F89803129F469
:101C6000BB27AF2D9E2D8D2D09C0DB01CA0147E09A
:101C7000B695A795979587954A95D1F7880E991EA1
:101C8000AA1EBB1E8091000190910101A09102014A
:101C9000B091030188169906AA06BB0679F48F89CC
:101CA0008031A1F4DD24EE24FF24C601880F991FA2
:101CB000FC01E854FD4F5182408219C040E0C5014B
:101CC000B4010E94B80D8111EACFB5CFE894C7F8EE
:101CD000DD24EE24FF24C601880F991F880F991F69
:101CE000FC01E854FD4F40825182628273828091F0
:101CF0009D02816080939D028A89823080F08D816F
:101D00009E81AF81B885880E991EAA1EBB1E809247
:101D10009E0290929F02A092A002B092A10281E046
:101D2000DF91CF911F910F91FF90EF90DF90CF90B7
:101D3000BF90AF909F908F907F906F905F904F90EB
:101D400008958F929F92AF92BF92CF92DF92EF92BF
:101D5000FF920F931F93CF93DF93FC0181859285B0
:101D6000A385B4850196A11DB11D84179507A6070B
:101D7000B70710F480E05CC083899489A589B6898F
:101D8000C789C03129F4852E962EA72EBB2409C001
:101D90004A015B01C7E0B694A79497948794CA95CB
:101DA000D1F7E9016A017B018F01BC01CD01680D0A
:101DB000791D8A1D9B1D8090000190900101A090CB
:101DC0000201B0900301681579058A059B0599F415
:101DD000F80187898031A9F4B701A6015527662744
:101DE0007727440F551FFA01E854FD4F80819181F8
:101DF000A0E0B0E018C040E00E94B80D8111E8CF2B
:101E0000B9CFB701A6014F77552766277727440F2B
:101E1000551F440F551FFA01E854FD4F80819181F1
:101E2000A281B381BF7088839983AA83BB8381E039
:101E3000DF91CF911F910F91FF90EF90DF90CF90A6
:101E4000BF90AF909F908F9008954F925F926F9246
:101E50007F92AF92BF92CF92DF92EF92FF920F9359
:101E60001F93CF93DF9300D000D0CDB7DEB78C01A6
:101E700049835A836B837C835901C12CD12C760111
:101E8000412C82E0582E612C712C49815A816B8142
:101E90007C819E012F5F3F4FC8010E94A10E8823C5
:101EA00051F1D301C201F801058404C0880F991FC4
:101EB000AA1FBB1F0A94D2F7C80ED91EEA1EFB1E2A
:101EC00049815A816B817C818789803129F088EF33
:101ED0009FEFAFEFBFE004C088EF9FEFA0E0B0E05E
:101EE000481759076A077B0780F2F501C082D18243
:101EF000E282F38281E00F900F900F900F90DF91BC
:101F0000CF911F910F91FF90EF90DF90CF90BF90F6
:101F1000AF907F906F905F904F9008954F925F9237
:101F20006F927F92AF92BF92CF92DF92EF92FF9229
:101F30000F931F93CF93DF93CDB7DEB72B970FB6D9
:101F4000F894DEBF0FBECDBF7C01CE0101966C01BF
:101F5000FC0190E28BE08C0D91938E13FDCFDA01A2
:101F600030E047E09D91992339F19E3219F0E8E67F
:101F7000F0E00AC04A3009F472C138E04AE0F2CF1A
:101F80003196891709F46BC184918111F9CF4317F8
:101F900008F465C18FED890F8E3508F060C181E0CE
:101FA000830FF601E30FF11D3FE9390F3A3108F4D1
:101FB00090529083382FD6CF8981803209F44FC157
:101FC000B22E8B01DB015B968D919C915C97F701A2
:101FD000948F838F16961D921D921D921C921997B5
:101FE000FB011286138614861586712CF8018285F2
:101FF0009385A485B5854389548965897689841735
:102000009507A607B70708F061C025E0B695A79524
:10201000979587952A95D1F7F82FFF706F2ED801E5
:1020200015968C91823008F41AC1C8010E94FB07F2
:1020300097FD15C1F80182859385A485B5854F96D6
:10204000A11DB11D82879387A487B587F0E26F9E9B
:10205000C0011124BC0168547D4F6115710509F45C
:10206000FEC0DB012C91222319F0253EC1F427C0CC
:1020700071100EC0F701628A409100015091010178
:10208000609102017091030146875787608B718BC5
:10209000FC01E854FD4F8081811113C015C04BE055
:1020A00050E0C6010E94B820892B09F09FCF8B2DEC
:1020B0008073803309F4D3C04B2D662DCCC07720BC
:1020C000C9F27724739492CF772473948B2D827105
:1020D000823109F0C4C07720D1F0D7011E966D91EE
:1020E0007D918D919C91519741E00E94B80D88237C
:1020F00009F4B5C0F7016289F0E26F9FB0011124C5
:1021000068547D4F6115710509F079C0A8C0D801E8
:1021100015968C91823009F4A2C0C8010E94A804CF
:10212000882309F49CC0D8015B96ED91FC915C97E3
:1021300016964D905D906D907C901997B2E04B1A79
:10214000510861087108058404C0440C551C661CC4
:10215000771C0A94D2F786859785A089B189480EA5
:10216000591E6A1E7B1EA480E1E04E1A51086108C8
:102170007108AA2009F10E94E90B882309F46FC0B5
:10218000E8EBF2E0119224E0E83BF207D9F7D30143
:10219000C2018A0D911DA11DB11D80930001909374
:1021A0000101A0930201B093030180919D0281601F
:1021B00080939D02AA94DDCFD8015B96ED91FC91AE
:1021C0005C9780E092E0A0E0B0E0058404C0880F56
:1021D000991FAA1FBB1F0A94D2F7F801438954899B
:1021E00065897689840F951FA61FB71F838B948BF3
:1021F000A58BB68BD70152961C9268EB72E080E2F9
:10220000FB0111928A95E9F78BE0F601DB01019061
:102210000D928A95E1F781E298E2DB0151969C9359
:102220008E93509720E038E01F963C932E931E9794
:1022300053969C938E93529759969C938E9358974E
:1022400057963C932E9356970E94E90B882339F0BA
:102250004B2DF7016289C7010E94940301C080E001
:102260002B960FB6F894DEBF0FBECDBFDF91CF9196
:102270001F910F91FF90EF90DF90CF90BF90AF90A4
:102280007F906F905F904F900895CF93DF93EC0114
:102290008D818823A1F18C8187FF2DC06E857F857C
:1022A0008889998941E00E94B80D882341F1EA8923
:1022B00080E2E89FF0011124DF01A854BD4F109780
:1022C000F1F08D81823050F44B895C896D897E8973
:1022D0005C964D935D936D937C935F978F89988DFA
:1022E000A98DBA8DE854FD4F938F828FB58BA48B47
:1022F0008C818F778C83DF91CF910C94E90B80E0F8
:10230000DF91CF9108958F929F92AF92BF92CF921B
:10231000DF92EF92FF920F931F93CF93DF93EC0125
:102320008D81811102C080E077C00B891C892D89C5
:102330003E890417150726073707A8F36A017B01B2
:10234000823029F4CA86DB86EC86FD860DC0C11476
:10235000D104E104F10451F41E821F82188619860B
:102360001A861B861C861D8681E056C08A849B8443
:10237000AC84BD84EB8DFC8D258530E0275F3F4F1D
:10238000B501A4014150510961097109022E04C02F
:1023900076956795579547950A94D2F7D701C60168
:1023A0000197A109B10904C0B695A795979587959E
:1023B0002A95D2F784179507A607B70720F0892832
:1023C0008A288B2849F44F89588D698D7A8D4E83E0
:1023D0005F836887798704C0841B950BA60BB70BB6
:1023E0004C015D018E010A5F1F4F81149104A1040D
:1023F000B10409F4A7CF4E815F8168857985980182
:102400008B8D9C8D0E94A10E91E0891A9108A108E4
:10241000B1088111EACF87CFDF91CF911F910F9142
:10242000FF90EF90DF90CF90BF90AF909F908F90F4
:1024300008952F923F924F925F926F927F928F9268
:102440009F92AF92BF92CF92DF92EF92FF920F9343
:102450001F93CF93DF9300D000D0CDB7DEB78C01B0
:102460005B011A01DC0115968C9115978130C9F436
:1024700014968C9181FF15C082FF1BC0F80143891F
:1024800054896589768982859385A485B585841765
:102490009507A607B70769F0C8010E94831181114B
:1024A00008C081E090E0F8019383828380E090E0AF
:1024B00039C1610183C0D8015B968D919C915C9775
:1024C000FC01248121502A013B0139E07694679474
:1024D000579447943A95D1F7722E74207A01F1E01F
:1024E000FF22772009F476C080E092E08E199F09E0
:1024F00046018C159D0508F44C01D8015B962D9181
:102500003C915C9716968D919D910D90BC91A02D5C
:102510000297A109B109F901058404C0880F991F28
:10252000AA1FBB1F0A94D2F7468557856089718917
:10253000840F951FA61FB71F9C01AD01270D311DEC
:10254000411D511D29013A01811432E0930609F021
:1025500088C08091000190910101A0910201B09189
:10256000030184159505A605B70559F48FEF9FEF74
:10257000DC018093000190930101A0930201B093CC
:1025800003019501B301A2018091B8049091B904AF
:102590000E940A07882309F484CF9EEFB91AC8184D
:1025A000D908F80182859385A485B585880D991D84
:1025B000A11DB11D82879387A487B587D8011A967C
:1025C0004D915D916D917C911D97C114D10409F0DD
:1025D00072CF87C0E114F10409F086CF16964D91B1
:1025E0005D916D917C9119974115510561057105BA
:1025F00059F457968D919D910D90BC91A02D009707
:10260000A105B10541F521C09E012F5F3F4F0E94FA
:10261000A10E882309F44BCF89819A81AB81BC81BB
:10262000F801238D348DF9012789203129F048EFF5
:102630005FEF6FEF7FE004C048EF5FEF60E070E0B6
:1026400084179507A607B70730F0C8010E94A804B1
:1026500081114ACF26CFF80186839783A087B1875F
:1026600043CFE114F10429F5D8011A964D915D91FB
:102670006D917C911D9753968D919D910D90BC917C
:10268000A02D481759076A077B0798F00E94E90BAD
:10269000882309F406CF4092000150920101609214
:1026A00002017092030180919D02816080939D02DE
:1026B00008C041E0C301B2010E94B80D882309F4AB
:1026C000F0CED501F701E854FD4FCF01880D991DDB
:1026D000E817F90719F02D912193FACFA80CB91C2E
:1026E0005ECF53968D919D910D90BC91A02D841736
:1026F0009507A607B70740F4F801438B548B658B09
:10270000768B848180688483D80114968C9183FDB4
:1027100002C0C10107C0C8010E944511882309F405
:10272000C0CEF7CF0F900F900F900F90DF91CF9109
:102730001F910F91FF90EF90DF90CF90BF90AF90DF
:102740009F908F907F906F905F904F903F902F90D1
:102750000895CF93DF931F92CDB7DEB7698341E031
:1027600050E0BE016F5F7F4F0E9419120F90DF9102
:10277000CF91089585E095E00E94220B21E0892BFE
:1027800009F420E0822F0895382F209104059091BC
:102790000305213208F049C08091E0048111FCCF8B
:1027A00042E04093E0043093DF043FEF3093DE04D7
:1027B0001092DD042093DC04A3EEB4E04CEB54E073
:1027C000FA013E2F341B321718F43D913193F9CFA3
:1027D0001092BB042091BB04990F922B9093BB04E1
:1027E0009091BA04913061F41092BA049091BB04B4
:1027F0009093BB009091BC0093FDF8CF95EC01C085
:1028000095EE9093BC009091E0049230E1F39091AA
:10281000DE049F3F79F08091DE04803241F08091A8
:10282000DE04803331F084E005C081E003C082E043
:1028300001C083E01092E204109204051092E104BA
:1028400008958F929F92AF92BF92CF92DF92EF92B4
:10285000FF92CF93DF93C82F84EA95E09093B90459
:102860008093B804CC2369F1C53010F080E00DC12D
:1028700040E060E070E0CB010E94B80D8823B1F326
:1028800020E1C29FC001112488559D4FFC01E254F4
:10289000FE4F20812F7751F73C9640815181628114
:1028A0007381443651056105710500F33497C0808A
:1028B000D180E280F380C114D104E104F10421F459
:1028C000D5CFC12CD12C760140E0C701B6010E94C2
:1028D000B80D882359F28091C3029091C4028115EA
:1028E000924021F6A091C802AA2309F4BFCF6091BB
:1028F000C6027091C7026115710509F4B7CF209126
:10290000C502222309F4B2CFA093C2052093B405D7
:1029100080E030E0E1E0F0E0C82FAF01082E02C017
:10292000440F551F0A94E2F72417350741F0982FFA
:102930008F5F983089F789E08093BD0597CF8093AA
:10294000BD052091CE023091CF022115310519F03D
:1029500040E050E008C02091DC023091DD0240915F
:10296000DE025091DF022093B5053093B605409307
:10297000B7055093B80546015701860E971EA11C56
:10298000B11C8092C3059092C405A092C505B09277
:10299000C605E091C902F091CA02F093C905E0931F
:1029A000C805B0E00E94101F860E971EA81EB91E13
:1029B0008092CA059092CB05A092CC05B092CD052D
:1029C00085E0EE0FFF1F8A95E1F7E150FE4FEF2FF4
:1029D000FF27E6958E0E9F1EA11CB11C8092BE059E
:1029E0009092BF05A092C005B092C1052091CB0284
:1029F0003091CC022115310521F0A90160E070E091
:102A000008C04091D8025091D9026091DA027091C9
:102A1000DB02D701C60188199909AA09BB09840FED
:102A2000951FA61FB71F04C0B695A79597958795C4
:102A3000CA95D2F78093B9059093BA05A093BB05C8
:102A4000B093BC05853F2FE09207A105B10510F4B6
:102A50008CE018C0853F9F4FA105B10510F480E1BF
:102A600011C08091E4029091E502A091E602B0913C
:102A7000E7028093CA059093CB05A093CC05B09351
:102A8000CD0580E28093C70581E0DF91CF91FF9073
:102A9000EF90DF90CF90BF90AF909F908F90089570
:102AA000CF92DF92EF92FF920F931F93CF93DF931A
:102AB000C82FD62F042F11E080911306821310E047
:102AC0000E94620DC0901406D0901506E090160684
:102AD000F0901706A70196010E944A1FF694E7940A
:102AE000D794C7946C157D058E059F0508F442C0E8
:102AF000D23009F442C028F4DD2351F0D13011F175
:102B000015C1D33009F467C0D43009F4B1C00EC187
:102B1000E0910406F0910506E00FF11D111105C0CA
:102B2000C73008F0C6E0C05D01C0C0E2C083FEC08F
:102B3000D33008F04CC0DD2309F4EEC0D13009F0E9
:102B4000F5C010E0C43608F0C3E6202F30E0E09175
:102B50000406F0910506E20FF31F111106C08C2F39
:102B60006AE00E942A1F805D01C080E280832F5F9F
:102B70003F4FC1C0D230E1F610E0C73008F0C6E0E8
:102B8000202F30E0E0910406F0910506E20FF31FDC
:102B9000111108C0A0910806B0910906AC0FB11D33
:102BA0008C9101C080E280832F5F3F4FE09104064B
:102BB000F0910506E20FF31F111153C0A091080612
:102BC000B0910906AC0FB11D11968C914BC0D3305A
:102BD00009F04AC010E0C73308F0C6E3E02FF0E088
:102BE000A0910406B09105069D012E0F3F1F111103
:102BF00009C080910A0690910B068C0F911DDC0193
:102C00008C9101C080E2D9018C93A0910406B0910F
:102C10000506CF0101969D01280F391F11110AC029
:102C200080910A0690910B068C0F911DDC01119684
:102C30008C9101C080E2D9018C939F012E5F3F4FA0
:102C4000E0910406F0910506E20FF31F111109C08F
:102C5000A0910A06B0910B06AC0FB11D12968C9193
:102C600001C080E2808362C0D43009F05FC010E010
:102C7000C43608F0C3E6202F30E0E0910406F0915E
:102C80000506E20FF31F11110AC08091180690E0AB
:102C900001976AE070E00E94361F605D01C060E24B
:102CA0006083E0910406F0910506C9010196E80FE2
:102CB000F91F11110AC08091180690E001976AE08F
:102CC00070E00E94361F805D01C080E28083E09149
:102CD0000406F0910506C9010296E80FF91F1111CB
:102CE00006C08C2F6AE00E942A1F805D01C080E22E
:102CF00080832D5F3F4FE0910406F0910506E20FBF
:102D0000F31F111106C08C2F6AE00E942A1F905DEC
:102D100001C090E290830AC0C73008F0C6E0E0919D
:102D20000406F0910506E00FF11DFDCEDF91CF9175
:102D30001F910F91FF90EF90DF90CF900895CF9368
:102D4000DF93C9EFD5E089859A85DC01ED91FC918F
:102D50000280F381E02D60E00995982F9695969575
:102D600096959E71292F220F220F920F8F70890F37
:102D70008B8B888389859A85DC01ED91FC9102809B
:102D8000F381E02D61E00995982F9695969596959B
:102D90009E71292F220F220F920F8F70890F8C8B1B
:102DA000898389859A85DC01ED91FC910280F3810C
:102DB000E02D62E00995982F9695969596959E71CF
:102DC000292F220F220F920F8F70890F8D8B8B83EB
:102DD00089859A85DC01ED91FC910280F381E02DDB
:102DE00063E00995982F9695969596959E71292F53
:102DF000220F220F920F8F70890F8E8B8D83898502
:102E00009A85DC01ED91FC910280F381E02D64E074
:102E10000995982F9695969596959E71292F220F34
:102E2000220F920F8F70890F8F8B8F8389859A85E0
:102E3000DC01ED91FC910280F381E02D65E00995C4
:102E4000982F9695969596959E71292F220F220F71
:102E5000920F8F70890F888F888789859A85DC010A
:102E6000ED91FC910280F381E02D66E00995282F19
:102E70002F7021508695869586958E71982F990F83
:102E8000990F890F820F898F8E830E94620D6AA32A
:102E90007BA38CA39DA3DF91CF910895CF92DF9266
:102EA000EF92FF920F931F93CF93DF936C017A0100
:102EB0008B01C0E0D0E0CE15DF0589F0D8016D911F
:102EC0008D01D601ED91FC910190F081E02DC601BC
:102ED0000995892B11F47E0102C02196ECCFC70120
:102EE000DF91CF911F910F91FF90EF90DF90CF90E6
:102EF00008954F925F926F927F928F929F92AF92BE
:102F0000BF92CF92DF92EF92FF920F931F93CF93D6
:102F1000DF938C01C0901B06D0901C06E0901D062C
:102F2000F0901E060E94620D6C157D058E059F05B2
:102F300040F410921B0610921C0610921D0610926F
:102F40001E062091190630911A062115310519F433
:102F50000E949F16B1C080911B0690911C06A09103
:102F60001D06B0911E060097A105B10589F36C01FD
:102F70007D01C20ED31EE11CF11C0E94620D6C1576
:102F80007D058E059F0520F70E94620DC0901B06EF
:102F9000D0901C06E0901D06F0901E066C197D096D
:102FA0008E099F0928EE33E040E050E00E944A1F5E
:102FB000C0911006D0911106C23009F0A2C18D2F28
:102FC00090E083709927892B09F495C17CE1F72E55
:102FD00080910C0629013A01480E511C611C711C9C
:102FE000C301B2012CE3822E912CA12CB12CA5019E
:102FF00094010E944A1F6093F90580910D062901F2
:103000003A01480E511C611C711CC301B201A5019B
:1030100094010E944A1F6093FA0580910E0659019F
:103020006A01A80EB11CC11CD11CC601B50128E162
:1030300030E040E050E00E944A1F6093FC05809120
:103040001206820F873008F059C18093FF058091E6
:103050000F0629013A01480E511C611C711CC30165
:10306000B2014F2D50E09A012F5F3F4F032E000C0D
:10307000440B550B0E944A1F620F6093FE05CA0164
:10308000B9016C0F711D811D911D2DE030E040E0F4
:1030900050E00E944A1F620F60930006CA01B90106
:1030A0006D0F711D811D911D24E630E040E050E060
:1030B0000E944A1F609301062091FC05822F6CE05C
:1030C0000E942A1F911101C09CE09093FB0591E0A2
:1030D0002C3008F490E09093FD05F8010190002059
:1030E000E9F731979F01201B310BC1E0C20FA0917E
:1030F0000606B091070690E0492F50E042175307AB
:1031000038F5FD0101900020E9F731977F01EA1AB7
:10311000FB0A80E0400F511F682F70E06E157F059D
:10312000A8F46A0F7B1FFA01D081FB016081D613DE
:103130000BC0882349F08A3010F4CF5F05C08C3073
:1031400010F4CE5F01C0CD5F8F5FE6CF9F5FD4CF1D
:1031500080910406909105060E941B208C2F90E020
:103160000E94861F9093050680930406C0E0D0E07D
:103170008D2F90E0F80101900020E9F73197E01BD6
:10318000F10B8E179F0708F09AC0F801E80FF91F9E
:103190009081E0910606F09107068081981308C09F
:1031A00027E04C2F60E08091FF050E94501584C0FD
:1031B0008181981307C08091FD0528E04C2F62E0C3
:1031C000880F0AC0828198130BC08091FD05880F7B
:1031D00028E04C2F62E08C5F0E945015CE5F6DC0DE
:1031E0008381981306C024E04C2F61E08091FE0596
:1031F000F3CF8481981306C023E04C2F61E08091C7
:10320000FB05EACF8581981306C023E04C2F61E0CF
:103210008091FC05E1CF8681981306C022E04C2FF7
:1032200061E08091FA05D8CF8781981306C025E028
:103230004C2F61E080910006CFCF8085981306C0A7
:1032400021E04C2F61E08091F905C6CF818598136C
:1032500006C026E04C2F61E080910106BDCF82853B
:10326000981308C08091000690E00696982F990F59
:1032700025E008C0838598130CC08091FF05982F26
:10328000990F27E04C2F63E0890F0E945015CD5F06
:1032900014C08485981309C026E04C2F64E0809107
:1032A00001060E945015CC5F08C0E0910406F09121
:1032B0000506EC0FF11D9083CF5FDF5F59CFE091E2
:1032C0000406F0910506EC0FF11D108280910406B2
:1032D00090910506DF91CF911F910F91FF90EF9094
:1032E000DF90CF90BF90AF909F908F907F906F9026
:1032F0005F904F9008956DE1F62E6ACE1092FF0513
:10330000A6CE8C2F90E061E070E0C83010F460E051
:1033100070E0860F971F817099279EE1F92EF80EB5
:1033200057CE9091E0049111FCCF91E09093E0048E
:103330009093DF042FEF2093DE041092DD04260F1C
:103340002093DC049093BB049091BB04880F892BDD
:103350008093BB048091BA04813061F41092BA0466
:103360008091BB048093BB008091BC0083FDF8CFAB
:1033700085EC01C085EE8093BC008091E004813033
:10338000E1F38091DD04861710F46091DD04ACEB6D
:10339000B4E02AE336E0F9018E2F821B861718F479
:1033A0008D918193F9CF862F08956115710579F07C
:1033B000FB0101900020E9F73197AF01461B570B45
:1033C000DC01ED91FC910280F381E02D099480E015
:1033D00090E008954F925F926F927F92EF92FF92EA
:1033E0000F931F93CF93DF93CDB7DEB7A1970FB69F
:1033F000F894DEBF0FBECDBF7C01FA01CB0119A24C
:10340000223008F42AE08E010F5D1F4F422E512C0E
:10341000612C712CBF01A30192010E944A1FF90186
:10342000CA01015011096A3014F4605D01C0695C81
:10343000D8016C93232B242B252B61F7B801C701EE
:103440000E94D519A1960FB6F894DEBF0FBECDBF6E
:10345000DF91CF911F910F91FF90EF907F906F9030
:103460005F904F900895CF92DF92EF92FF920F936B
:103470001F93CF93DF93EC016A017B01E881F9810F
:103480000190F081E02D6DE209958C0144275527CC
:10349000BA014C195D096E097F092AE0CE010E942C
:1034A000EA19800F911FDF91CF911F910F91FF902B
:1034B000EF90DF90CF900895AC01990F660B770BDA
:1034C00077FF04C08FE196E00C94331A2AE08FE175
:1034D00096E00C94EA190F931F93CF93DF93EC01BE
:1034E0000E94D5198C016DEF71E0CE010E94D519B3
:1034F000800F911FDF91CF911F910F910895CF936E
:10350000DF93CDB7DEB7C257D1090FB6F894DEBF4F
:103510000FBECDBF789484B5826084BD84B58160D0
:1035200084BD85B5826085BD85B5816085BD80918E
:103530006E00816080936E00109281008091810006
:1035400082608093810080918100816080938100FE
:10355000809180008160809380008091B1008460C0
:103560008093B1008091B00081608093B000809121
:103570007A00846080937A0080917A0082608093E0
:103580007A0080917A00816080937A0080917A003D
:10359000806880937A001092C10080910206909119
:1035A0000306DC01ED91FC910190F081E02D09957D
:1035B0008FEF91E00E9479171092AC021092AB024B
:1035C0001092E204109204050E94670A60E083E012
:1035D0000E94D50C61E085E00E94D50C61E086E098
:1035E0000E94D50C61E087E00E94D50CE0911505A2
:1035F000F091160582E08083E0911105F0911205AB
:103600001082E0911305F09114058FEC80831092E5
:103610001D05E0911905F0911A0586E08083E0917F
:103620001705F0911805808180618083E09117056E
:10363000F0911805808188608083E0911705F091F2
:103640001805808180688083E0911705F091180546
:1036500080818F7D80836EEA71E085E095E00E9435
:103660006B1A1092AF051092AD051092AA05109238
:10367000A9058AE08093A8050E94620D8B0161E094
:103680008091A8050E94D50C61E08091A8050E9458
:10369000A50CFFB6F8948091AD02811127C0E0EA35
:1036A000F0E08491E4EBF0E09491E82FF0E0EE0F8D
:1036B000FF1FEE57FF4FA591B491EC91E92321F440
:1036C00061E08AE00E94A50C61E08AE00E94D50CCE
:1036D0008CB580618CBD8CB580648CBD61E08DE063
:1036E0000E94D50C61E08BE00E94D50C8091AD0268
:1036F0008F5F8093AD02FFBE82E58093A20510929A
:10370000A3058091A2059091A3050E94FB05EAE024
:10371000FE2E8FEF0E94BC05FA94F110FACF84EAD6
:1037200095E00E94FE0520E030E0A90160E084EA17
:1037300095E00E941406F82E8093AE05E1E08E1706
:1037400049F00E94620D601B710B613D774058F398
:1037500081E056C02AEA31E040E050E068E084EAC7
:1037600095E00E94140682FF03C0F092AF0510C0DE
:1037700074E0F72E0E94C3058093AE05FA94F11011
:10378000F9CF8A3A11F082E03BC082E08093AF0526
:103790008091AF05823021F0C12CD12C760105C07B
:1037A000C12CD12CE12C60E4F62E20E030E0A90100
:1037B00067E384EA95E00E941406A701960169E296
:1037C00084EA95E00E9414068093AE05882349F0B0
:1037D0000E94620D601B710B613D774030F388E001
:1037E0000FC08091AF05823001F520E030E0A901E3
:1037F0006AE384EA95E00E941406882341F086E09B
:103800008093A90584EA95E00E94B1058FC00E94CB
:10381000C305807C803C19F483E08093AF050E944F
:10382000C3050E94C3050E94C30584EA95E00E9477
:10383000B10580E58093A2051092A30581E00E9466
:103840002114882329F08091D305882341F06EC08C
:1038500080E00E942114882309F468C0F4CF80918D
:10386000C705803109F582E08093D3051092E50504
:103870001092E6051092E7051092E8058091C805C0
:103880009091C905A0E0B0E055E0880F991FAA1FEC
:10389000BB1F5A95D1F78093E1059093E205A09361
:1038A000E305B093E4051EC0803209F03FC083E019
:1038B0008093D3054091CA055091CB056091CC050A
:1038C0007091CD054093E5055093E6056093E705BB
:1038D0007093E80521EE35E080EB95E00E94250F1E
:1038E000882321F180EB95E09093EA058093E90528
:1038F00081E08093D2051092D4051092D5051092E4
:10390000D6051092D7051092D8051092D9051092BD
:10391000DA051092DB051092DC051092DD0510929D
:10392000DE051092DF051092E0050CC06BEB71E034
:103930008FE196E00E946B1A6BEB71E085E095E0F9
:103940000E946B1A0EE211E098EE492E93E0592E78
:10395000612C712C88E590E08C0F9D1F0C967C01EA
:1039600021ECC22E20E0D22E3DEAA32E30E0B32E71
:1039700049E9842E40E0942E6EEC75E0CE0101966C
:103980000E947507BE016F5F7F4FCE01CB960E94EC
:10399000750719A218A21F8F0E8F1BA221968FAD3B
:1039A0002197811112C06C961FAE1EAE6C97A09627
:1039B0004CAE5DAE6EAE7FAEA097E3961FAE1EAE70
:1039C000E397A5961FAEA59735C0825023E14DEC35
:1039D00051E0823048F46EEC75E0CE014E960E94C4
:1039E0008E0F81110EC0DFCFBE01655C7F4FCE010F
:1039F0004E960E948E0F8823B1F2CE01CB960E9484
:103A00009C0449A95AA96BA97CA9CE014E960E9493
:103A10008311BE01625E7F4FCE0101960E94750741
:103A20004DEC51E0BE016F5F7F4FCE01885A9F4F32
:103A30000E94C6076C968EAD9FAD6C979093220640
:103A400080932106A0968CAD9DADAEADBFADA09785
:103A50008093230690932406A0932506B093260610
:103A6000A4968CAD9DADAEADBFADA4978093270657
:103A700090932806A0932906B0932A06F701ABE29B
:103A8000B6E08DE001900D928A95E1F7E3968EAD58
:103A90009FADE3979093390680933806F6018491A1
:103AA000F5012490F40134903320A1F081110E949B
:103AB0007C0CE32DF0E0EE0FFF1FE457FF4FA591C4
:103AC000B4918C91282231E020E009F430E0832F7A
:103AD000922F02C080E090E09093B7028093B602EC
:103AE0000197D9F46AED71E085E095E00E946B1AC8
:103AF00088EE91E00E947917BC018FE196E00E9468
:103B0000D5196AED71E08FE196E00E946B1A64EFBF
:103B100071E080E090E00E94280D83EF91E00E9428
:103B20007917BC0185E095E00E946B1A64EF71E0A3
:103B300080E090E00E94280D8FEF91E00E947917BD
:103B40008091F90590E09093B5028093B402892B9F
:103B500009F08FC065EF71E085E095E00E946B1A77
:103B600061E085E00E94A50C61E086E00E94A50C62
:103B700061E087E00E94A50C64E670E080E090E0E0
:103B80000E94280D80E00E94110D9093B302809353
:103B9000B20281E00E94110D9093B1028093B002B5
:103BA00082E00E94110D9093AF028093AE0288EEE6
:103BB00091E00E947917BC0185E095E00E946B1AA4
:103BC0004091B2025091B302052E000C660B770BA8
:103BD00077FF05C085E095E00E94331A05C02AE012
:103BE00085E095E00E94EA196DEF71E085E095E0CF
:103BF0000E94D51988EE91E00E947917BC018FE1EF
:103C000096E00E94D51960E072E08FE196E00E9494
:103C1000D5198091B2029091B3020E945C1A60E0C3
:103C200072E08FE196E00E94D5198091B0029091E8
:103C3000B1020E945C1A60E072E08FE196E00E949F
:103C4000D5198091AE029091AF020E945C1A60E09B
:103C500072E08FE196E00E946B1A60E085E00E94BE
:103C6000A50C60E086E00E94A50C60E087E00E9461
:103C7000A50C8091380690913906009761F00E945A
:103C80009C0480913806909139060E941B20109266
:103C90003906109238060E94B80B6ECECF92DF9292
:103CA000EF92FF92CF93DF93E5E0F5E0138212826B
:103CB00088EEC82E83E0D82EE12CF12CC482D58268
:103CC000E682F7828CE191E09183808385EC90E03D
:103CD0009587848784EC90E09787868780EC90E0D6
:103CE000918B808B81EC90E0938B828B82EC90E0C7
:103CF000958B848B86EC90E0978B868B118E128E41
:103D0000138E148EE2EAF5E080E580831182E4EA06
:103D1000F5E0158216821186138682E090E0A0E01D
:103D2000B0E084879587A687B78713A215A614A647
:103D30008EE291E093A782A717A6EDEEF5E013823D
:103D40001282C482D582E682F7828AE391E091836F
:103D50008083EFE1F6E013821282C482D582E6828C
:103D6000F78282E891E091838083128E118E14860F
:103D7000C9EFD5E01882198281E08A831B821C82F8
:103D80008D831E828F83188681E090E00E94861FBB
:103D90009C878B8783E092E09E878D8781E192E00C
:103DA000988B8F878AE192E09A8B898B1A8ECB8EC3
:103DB000DC8EED8EFE8E85E18F8F19A218A21AA2DD
:103DC0001BA21CA21DA286E290E00E94861F28E78B
:103DD00031E0FC01318320832CE431E03383228302
:103DE0002FEF2483258328E6268B27E0EAE0F1E005
:103DF000DC01579601900D922A95E1F727E0E1E169
:103E0000F1E0DC015E9601900D922A95E1F79A8728
:103E10008987DF91CF91FF90EF90DF90CF90089549
:103E20000E941B1FA59F900DB49F900DA49F800D15
:103E3000911D11240895A29FB001B39FC001A39FBB
:103E4000700D811D1124911DB29F700D811D1124D3
:103E5000911D0895991B79E004C0991F961708F0E9
:103E6000961B881F7A95C9F78095089597FB072EB2
:103E700016F4009407D077FD09D00E946C1F07FC50
:103E800005D03EF4909581959F4F0895709561956A
:103E90007F4F0895A1E21A2EAA1BBB1BFD010DC086
:103EA000AA1FBB1FEE1FFF1FA217B307E407F507EA
:103EB00020F0A21BB30BE40BF50B661F771F881FC6
:103EC000991F1A9469F760957095809590959B015C
:103ED000AC01BD01CF010895AA1BBB1B51E107C076
:103EE000AA1FBB1FA617B70710F0A61BB70B881F8A
:103EF000991F5A95A9F780959095BC01CD01089519
:103F0000EE0FFF1F0590F491E02D0994CF93DF93FE
:103F10008230910510F482E090E0E0915C06F0912F
:103F20005D0620E030E0C0E0D0E0309711F1408144
:103F3000518148175907C0F04817590761F4828129
:103F40009381209719F09B838A832BC090935D0601
:103F500080935C0626C02115310519F042175307DE
:103F600018F49A01BE01DF01EF010280F381E02D18
:103F7000DCCF2115310509F1281B390B243031051F
:103F800090F412968D919C9113976115710521F013
:103F9000FB019383828304C090935D0680935C064B
:103FA000FD01329644C0FD01E20FF31F819391930E
:103FB000225031092D933C933AC020915A063091FA
:103FC0005B06232B41F420910601309107013093C9
:103FD0005B0620935A0620910401309105012115BA
:103FE000310541F42DB73EB74091080150910901C8
:103FF000241B350BE0915A06F0915B06E217F3079C
:10400000A0F42E1B3F0B2817390778F0AC014E5F48
:104010005F4F2417350748F04E0F5F1F50935B0624
:1040200040935A068193919302C0E0E0F0E0CF0103
:10403000DF91CF9108950F931F93CF93DF93009754
:1040400009F48CC0FC0132971382128200915C0645
:1040500010915D060115110581F420813181820FD7
:10406000931F20915A0630915B062817390779F57E
:10407000F0935B06E0935A0671C0D80140E050E02F
:10408000AE17BF0750F412962D913C911397AD01D6
:104090002115310509F1D901F3CF9D01DA013383EF
:1040A000228360817181860F971F8217930769F4BD
:1040B000EC0128813981260F371F2E5F3F4F318356
:1040C00020838A819B8193838283452B29F4F093FB
:1040D0005D06E0935C0642C01396FC93EE93129744
:1040E000ED01499159919E01240F351FE217F30705
:1040F00071F480819181840F951F029611969C9393
:104100008E938281938113969C938E931297E0E015
:10411000F0E0D80112968D919C911397009719F0B9
:10412000F8018C01F6CF8D919C9198012E5F3F4F45
:10413000820F931F20915A0630915B06281739078A
:1041400069F4309729F410925D0610925C0602C063
:104150001382128210935B0600935A06DF91CF916F
:104160001F910F91089581E090E0F8940C94D42071
:10417000FB01DC0104C08D910190801921F44150B4
:104180005040C8F7881B990B0895FB01DC01415092
:10419000504048F001900D920020C9F701C01D92D7
:0C41A00041505040E0F70895F894FFCF24
:1041AC00FFFFFFFF00005E06800000010204050611
:1041BC00037F7F3F3F1FFF07000000004F0B4E1790
:1041CC00F10A960B220B000B140B00000000A91334
:1041DC004E1789018801000000005901290189014D
:1041EC00FD0021010D01FE0000000000850A5502B2
:1041FC0005023F02F001FD02B0024C03E402EE01A5
:10420C00D402EC01EA01E901E701E501E301B401A3
:10421C009A018C0100000000A80A91021C02000007
:10422C000000B500750289016D02940005090F09A3
:10423C0000000000E70B4E1789018801E70BE70B24
:10424C00E70B00000000E70B4E17890188016F7027
:10425C00656E206D7920706F72740053442D63610C
:10426C007264206E6F7420666F756E640069617283
:10427C006475696E6F2E747874003B3B3B205761FC
:10428C00746572696E673B00642D6D2D593B204837
:10429C003A693A73006F6B2074696D65000D0A0002
:1042AC003B2000776141646848696D73794D4459CE
:1042BC0000616D706D414D504D0053756E4D6F6EBC
:1042CC005475655765645468754672695361744AD0
:1042DC00616E4665624D61724170724D61794A75CD
:1042EC006E4A756C4175675365704F63744E6F768B
:0442FC0044656300B2
:107E0000112484B714BE81FFF0D085E080938100F7
:107E100082E08093C00088E18093C10086E0809377
:107E2000C20080E18093C4008EE0C9D0259A86E02C
:107E300020E33CEF91E0309385002093840096BBD3
:107E4000B09BFECF1D9AA8958150A9F7CC24DD24C4
:107E500088248394B5E0AB2EA1E19A2EF3E0BF2EE7
:107E6000A2D0813461F49FD0082FAFD0023811F036
:107E7000013811F484E001C083E08DD089C08234E0
:107E800011F484E103C0853419F485E0A6D080C0E4
:107E9000853579F488D0E82EFF2485D0082F10E0AE
:107EA000102F00270E291F29000F111F8ED06801E7
:107EB0006FC0863521F484E090D080E0DECF843638
:107EC00009F040C070D06FD0082F6DD080E0C81688
:107ED00080E7D80618F4F601B7BEE895C0E0D1E017
:107EE00062D089930C17E1F7F0E0CF16F0E7DF06D8
:107EF00018F0F601B7BEE89568D007B600FCFDCFD4
:107F0000A601A0E0B1E02C9130E011968C91119780
:107F100090E0982F8827822B932B1296FA010C0160
:107F200087BEE89511244E5F5F4FF1E0A038BF0790
:107F300051F7F601A7BEE89507B600FCFDCF97BE46
:107F4000E89526C08437B1F42ED02DD0F82E2BD052
:107F50003CD0F601EF2C8F010F5F1F4F84911BD097
:107F6000EA94F801C1F70894C11CD11CFA94CF0C13
:107F7000D11C0EC0853739F428D08EE10CD085E9AC
:107F80000AD08FE07ACF813511F488E018D01DD067
:107F900080E101D065CF982F8091C00085FFFCCF94
:107FA0009093C60008958091C00087FFFCCF809118
:107FB000C00084FD01C0A8958091C6000895E0E648
:107FC000F0E098E1908380830895EDDF803219F02E
:107FD00088E0F5DFFFCF84E1DECF1F93182FE3DFCA
:107FE0001150E9F7F2DF1F91089580E0E8DFEE27F6
:047FF000FF270994CA
:027FFE00040479
:0400000300007E007B
:00000001FF