:100000000C946A000C9492000C9492000C94920050
:100010000C9492000C9492000C9492000C94920018
:100020000C9492000C9492000C9492000C94920008
:100030000C9492000C9492000C9492000C949200F8
:100040000C94520D0C9492000C942E0C0C94080CF1
:100050000C9492000C9492000C9492000C949200D8
:100060000C949D090C9492000000000024002700CD
:100070002A000000000023002600290004040404D4
:100080000404040402020202020203030303030342
:10009000010204081020408001020408102001021F
:1000A00004081020000000080002010000030407FB
:1000B00000000000000000007C3C3E5E2B3D3F2F16
:1000C0005B5D3B2C2A225C0000000000250028001C
:1000D0002B00381F11241FBECFEFD8E0DEBFCDBFED
:1000E00026E0AEE7B2E001C01D92A439B207E1F705
:1000F00012E0A0E0B1E0EEE9F3E402C005900D9259
:10010000AE37B107D9F710E0CAE6D0E004C02197B6
:10011000FE010E947920C936D107C9F70E94D31A7F
:100120000C94CD210C940000DC015996ED91FC91CA
:100130005A973097B9F083899489A589B689428501
:10014000538564857585841B950BA60BB70B8115AC
:1001500020E89207A105B10538F08FEF9FE7A0E0F6
:10016000B0E0089580E090E00895CF93DF931F9270
:10017000CDB7DEB76983DC01ED91FC910280F3819C
:10018000E02D41E050E0BE016F5F7F4F09950F9079
:10019000DF91CF91089585ED8093BC008091BC00E4
:1001A00084FDFCCF1092280308954091A002262FD1
:1001B00030E0240F311D21323105DCF42091280379
:1001C0002430C9F4FC0180E090E0861758F43091A7
:1001D000A0022191DC01A258BD4FA30FB11D2C93A9
:1001E0000196F3CF8091A002680F6093A00280E097
:1001F000089581E0089582E008950895E0912C0328
:1002000080912B03E81730F4F0E0E259FB4F808136
:1002100090E008958FEF9FEF089590912C038091C7
:100220002B03981750F4E92FF0E0E259FB4F20819F
:1002300030E09F5F90932C0302C02FEF3FEFC90186
:10024000089580912B0390E020912C03821B91094B
:100250000895CF92DF92EF92FF920F931F93CF9367
:10026000DF937C01262F972F8A0180910403882336
:1002700091F0C62FD72F6E01C40ED51ECC15DD050B
:1002800071F06991D701ED91FC910190F081E02D21
:10029000C7010995F3CF642F822F0E94D500C801B2
:1002A000DF91CF911F910F91FF90EF90DF90CF9052
:1002B0000895CF93DF931F92CDB7DEB76983209166
:1002C00004032223D1F020912903203240F021E0C1
:1002D00030E0FC013383228380E090E015C0809100
:1002E0002A03E82FF0E0EB5FFC4F998190838F5F4A
:1002F00080932A038093290305C061E0CE01019613
:100300000E94D50081E090E00F90DF91CF91089599
:10031000089580E090E00895DC011C96ED91FC9139
:100320001D97208116968C91922F982381E009F4D5
:1003300080E00895FC01A085B18586819C916111C2
:1003400009C0892B8C93A089B1899C918681809565
:10035000892308C0809589238C93A089B1899C91B9
:100360008681892B8C930895FC01A285B3858781B2
:100370009C9161110CC0892B8C93A289B3899C91AB
:100380008781809589238C9320E63AEE17C080956B
:1003900089238C93A289B3899C918781892B8C9323
:1003A000A685B785978120E63AEE8C91892331F4B2
:1003B0002115310519F021503109F7CF81E0232BA8
:1003C00009F480E0089580E0089580E0089580E0D9
:1003D0000895089580E0089580E0089584E00895E8
:1003E000CF93DF931F92CDB7DEB74983DC01ED9148
:1003F000FC910088F189E02D21E0AE014F5F5F4F55
:1004000009950F90DF91CF9108950F93CF93DF93CC
:100410001F92CDB7DEB72983DC01ED91FC910484F6
:10042000F585E02D01E09E012F5F3F4F09950F906C
:10043000DF91CF910F9108950F931F93CF93DF9387
:10044000EC01062F142FE881F9810280F381E02D61
:1004500009958DA3FE01E00FF11D968D292F2095A2
:100460002823122B982B212F292347896E89CE010F
:100470000296DF91CF911F910F910C940502CF93BB
:10048000DF931F92CDB7DEB71982DC01ED91FC91AD
:100490000684F785E02D21E0AE014F5F5F4F09959F
:1004A00089810F90DF91CF9108950F93CF93DF93C0
:1004B0001F92CDB7DEB71982DC01ED91FC91028469
:1004C000F385E02D01E09E012F5F3F4F0995898163
:1004D0000F90DF91CF910F910895FC01818D928D46
:1004E000009711F00C947D110895CF93DF93EC01E8
:1004F000898D9A8D009739F481E090E09B838A83FF
:1005000080E090E00BC0FC01138212820E94511225
:10051000E98DFA8D22813381232B71F7DF91CF9101
:1005200008950F931F93CF93DF93EC01162F61E093
:1005300070E080E090E00E940C0DCE01810F911DD3
:100540008C01FC0147896E89CE0102960E945502FA
:10055000F801968D8923DF91CF911F910F91089516
:1005600081E0809304036093250310922A03109284
:1005700029030E94181491E0811190E0892F0895B9
:10058000CA0131E0309304036093250310922A03DB
:1005900010922903422F50E0BC0185E194E00E94B3
:1005A000290181E00E94181491E0811190E0892FC7
:1005B00008950F93CF93DF93E90181E080930403C3
:1005C0006093250310922A0310922903642F85E17A
:1005D00094E00E945901402F50E0BE0185E194E073
:1005E0000E94290181E00E94181491E0811190E09D
:1005F000892FDF91CF910F910895EF92FF920F9382
:100600001F93CF93DF93C62F122FE32E81E08093A9
:1006100004036093250310922A0310922903642F88
:1006200085E194E00E94590180E00E941814602F37
:10063000013208F060E28C2F0E94E51910922C0321
:1006400080932B03882301F1F12EC12FDE2D1C2F67
:100650001F1990912B0380912C03981741F01017CC
:1006600030F485E194E00E940D018993F0CF9091E0
:100670002B0380912C03981729F085E194E00E94C8
:100680000D01F5CF81E0101380E0DF91CF911F9134
:100690000F91FF90EF900895CF92DF92FF920F930A
:1006A0001F93CF93DF9300D0CDB7DEB7862F122FE5
:1006B000622F213208F060E249835A830E94E519D3
:1006C00010922C0380932B0349815A81882309F1CE
:1006D000F42E6A010C2D0F1990912B0380912C039D
:1006E000981751F0011740F485E194E00E940D0144
:1006F000F60181936F01EECF90912B0380912C0333
:10070000981729F085E194E00E940D01F5CF81E072
:10071000011380E00F900F90DF91CF911F910F9107
:10072000FF90DF90CF900895A8EEB3E09A01AB015F
:100730000E9409209B01AC0160E074E284EF90E02C
:100740000E944320DA01C9014097A109B109B69579
:10075000A795979587958093B8000C94F2130F9303
:100760001F93CF93DF93EC018C010E5F1F4F44E684
:1007700050E060E070E0C8010E94940342E06E899E
:10078000C8010E9455028DA386FF07C0282F2F7B2A
:1007900042E06E89C8010E9405024EE06E89C801E0
:1007A0000E9455028DA3982F9F7D39F0282F20722B
:1007B0004EE06E89C8010E9405024FE06E89C801B3
:1007C0000E945502282F8DA3837811F423FD0BC0BE
:1007D000247728604FE06E89C801DF91CF911F9187
:1007E0000F910C940502DF91CF911F910F91089505
:1007F0008F929F92AF92BF92CF92DF92EF92FF9231
:100800000F931F93CF93DF9300D000D0CDB7DEB707
:100810007C0180E2689F60011124960122573B4FC2
:10082000D9011B969C91917121F0842F827409F05B
:1008300097C0142FF701628B809100019091010104
:10084000A0910201B091030186879787A08BB18B9D
:10085000F601E257FB4F4489558960E070E0BA0128
:1008600055274427D70157964D935D936D937C93FD
:100870005A97828D938DA0E0B0E0482B592B6A2BBC
:100880007B2BD70157964D935D936D937C935A972D
:10089000D9011B968C91887159F4848D958DA68D04
:1008A000B78DF701838B948BA58BB68B81E012C03B
:1008B000803109F055C097012D5E3F4FD7015B96FF
:1008C0008D919C915C970E945D0F882309F448C02C
:1008D00084E0F7018583812F8F70D70114968C9364
:1008E0001497F70116821782108611861A961D92A8
:1008F0001D921D921C921D9716FF34C015968C9167
:10090000813071F511FF2CC0F70143895489658945
:100910007689452B462B472B09F461C040E050E017
:10092000BA01C7010E94BB118823D1F0F701878863
:10093000908CA18CB28CC38CD48C82E090E0A0E02F
:10094000B0E0F60180839183A283B3839E012F5F81
:100950003F4FB501A401C6010E94D90E811104C008
:1009600080E03DC081E03BC000E010E09801B501AF
:10097000A401C6010E94390E882391F389809A80D0
:10098000AB80BC80D60157968C91803129F088EFDE
:100990009FEFAFEFBFE004C088EF9FEFA0E0B0E0B3
:1009A00088169906AA06BB0688F2D70157961D92AB
:1009B0001D921D921C925A97F701138A148A158A68
:1009C000168A848180688483C7010E947D118823F0
:1009D00039F240E050E0BA01C7010E94BB110F900C
:1009E0000F900F900F90DF91CF911F910F91FF907B
:1009F000EF90DF90CF90BF90AF909F908F90089531
:100A0000CF93DF93EC010E947D11882311F01D82AA
:100A100081E0DF91CF9108953F924F925F926F9264
:100A20007F928F929F92AF92BF92CF92DF92EF927E
:100A3000FF920F931F93CF93DF93CDB7DEB72C9721
:100A40000FB6F894DEBF0FBECDBF5C01DC015B9634
:100A50008D909C905C971696CD90DD90ED90FC90DB
:100A60001997C114D104E104F10439F0BFEFCB1A96
:100A7000DB0AEB0AFB0A312C07C0F401C080D180ED
:100A8000E280F38033243394F40181859285A38539
:100A9000B4859C01AD012F5F3F4F4F4F5F4F2987BA
:100AA0003A874B875C87260137011D821E821F8291
:100AB0001886F40181859285A385B4852D813E81B8
:100AC0004F815885281739074A075B0708F063C02C
:100AD00089859A85AB85BC858C159D05AE05BF05BE
:100AE00050F482E0C82ED12CE12CF12C92E0492E5A
:100AF000512C612C712C9E012F5F3F4FB701A60135
:100B0000C4010E94D90E882309F445C089819A81C5
:100B1000AB81BC81892B8A2B8B2B41F026013701BD
:100B20009FEF491A590A690A790A05C0C414D50405
:100B3000E604F70491F02D813E814F8158852F5FA7
:100B40003F4F4F4F5F4F2D833E834F8358873FEF7B
:100B5000C31AD30AE30AF30AACCF0FEF1FEF2FEF4C
:100B60003FE0B301A201C4010E94390E882399F02D
:100B7000D50116964D915D916D917C911997411516
:100B800051056105710549F093018201C4010E947C
:100B9000390E811102C080E02AC0D50116964D920F
:100BA0005D926D927C921997332051F0D301C2016E
:100BB0000196A11DB11DF40180839183A283B383AB
:100BC000F5018789908DA18DB28D892B8A2B8B2B76
:100BD00069F4D50157964D925D926D927C925A9729
:100BE00014968C911497806814968C9381E02C96BF
:100BF0000FB6F894DEBF0FBECDBFDF91CF911F912E
:100C00000F91FF90EF90DF90CF90BF90AF909F90AB
:100C10008F907F906F905F904F903F9008958FB727
:100C2000F8948091C6028FBF089561E0FC01848131
:100C30000E94890C8091C50281111092C50208950D
:100C40008EBD00000DB407FEFDCF8EB508958FEF69
:100C50000C9420060F931F93CF93DF93EB010E9418
:100C6000460D8B010E9427068F3F49F00E94460DDA
:100C7000601B710B6C177D07A8F380E001C081E059
:100C8000DF91CF911F910F910895CF93DF93EC01E6
:100C90008E81882389F08F8198859C012F5F3F4F3B
:100CA00038872F838230924018F40E942706F3CFB2
:100CB000CE010E9415061E82DF91CF9108958CBD52
:100CC0009DBD0895CF93DF93EC018091C502811102
:100CD00009C081E08093C5028091CA039091CB0343
:100CE0000E945F0660E08C81DF91CF910C94890CAB
:100CF000CF92DF92FF920F931F93CF93DF9300D099
:100D000000D0CDB7DEB76C01F62E29833A834B8332
:100D10005C830E944506C6010E9462066CE271E097
:100D2000C6010E942A068F2D80640E94200608E1D9
:100D300010E05C814B813A812981DA01C901002EE2
:100D400004C0B695A795979587950A94D2F72983FD
:100D50003A834B835C830E94200608501109298145
:100D60003A814B815C81083F8FEF180731F7FF20F4
:100D700029F0E8E0FE1204C087E803C085E901C05D
:100D80008FEF0E94200610E00E942706F60182875E
:100D900087FF04C01F3F11F01F5FF6CF0F900F9029
:100DA0000F900F90DF91CF911F910F91FF90DF90E7
:100DB000CF900895AF92BF92CF92DF92EF92FF92C1
:100DC0000F931F93CF93DF93EC016901C801820F4A
:100DD000931F8130924008F070C08E81882371F09B
:100DE00088819981AA81BB81481759076A077B07C7
:100DF00029F48F819885C816D906B0F548835983A0
:100E00006A837B838B85833039F089E0440F551FDB
:100E1000661F771F8A95D1F79A01AB0161E1CE0178
:100E20000E947806882319F083E08D8346C00E94D3
:100E3000460D5B010E9427068A878F3F49F40E9476
:100E4000460D6A197B096D327140A0F38FE003C033
:100E50008E3F31F08DE08D83CE010E9415062DC0AE
:100E600018861F8281E08E838F8198858C159D0561
:100E700040F40E9427068F819885019698878F837A
:100E8000F3CF6701E00EF11ECE14DF0431F00E94B3
:100E90002706F60181936F01F7CF8F819885080FA0
:100EA000191F18870F838985882319F001151240AF
:100EB00048F0CE010E94450605C0CE010E941506ED
:100EC00080E001C081E0DF91CF911F910F91FF90F1
:100ED000EF90DF90CF90BF90AF900895EF92FF9288
:100EE0000F931F93CF93DF93EC01790141155105C7
:100EF0006105710511F482E13CC08B85833039F0C6
:100F000089E0440F551F661F771F8A95D1F79A0114
:100F1000AB0168E1CE010E947806882311F084E0DD
:100F200028C08EEF0E94200687018EEFF81AF80184
:100F300081918F010E9420060E151F05C1F78FEFCA
:100F40000E9420068FEF0E9420060E9427068A87B3
:100F50008F71853031F081E18D83CE010E941506BD
:100F600009C068E572E0CE010E942A06811107C01F
:100F700085E18D83CE010E94150680E013C020E03C
:100F800030E0A9016DE0CE010E947806811104C015
:100F90000E942706882311F084E1EBCFCE010E9446
:100FA000150681E0DF91CF911F910F91FF90EF9097
:100FB0000895FC01DB0112968D919C911397938308
:100FC000828387E391E09183808314968C911497B8
:100FD000848315968C911597858316964D915D9116
:100FE0006D917C91199746835783608771871A9614
:100FF0004D915D916D917C911D97428753876487D8
:1010000075871E964D915D916D917C9151974687A4
:101010005787608B718B52968C915297828B539627
:101020004D915D916D917C915697438B548B658B5F
:10103000768B57964D915D916D917C915A97478B28
:10104000508F618F728F5B968D919C915C97948F7E
:10105000838F0895EF92FF920F931F93CF93DF93A7
:10106000EC017B018A011B821A8288EE93E0A0E0EA
:10107000B0E08C839D83AE83BF8387E991E0998341
:1010800088838DE190E00E947F209A8F898F00975E
:1010900079F02DE1F701DC0101900D922A95E1F73D
:1010A0004CE050E0B801CE010C960E94BE21188E93
:1010B000DF91CF911F910F91FF90EF9008952F92A4
:1010C0003F924F925F926F927F928F929F92AF92D8
:1010D000BF92CF92DF92EF92FF920F931F93CF9325
:1010E000DF9300D0CDB7DEB7FC018581882309F4FA
:1010F000D9C0848180FFD6C021E02A8343895489E6
:101100006589768982859385A485B58548175907B1
:101110006A077B0709F41A826F013A81832F90E0F6
:10112000DE0111964D013F01B6E06B0E711C892B5B
:1011300009F47DC0D6011A964D915D916D917C9117
:101140001D975A01B1E0BB22F60125811A012B013E
:1011500089E056944794379427948A95D1F7838DE4
:10116000948D223061F4FC01828D938DA48DB58D18
:10117000BC01CD01620D731D841D951D45C0DC01B0
:1011800014961C9111501221A114B104D1F4111123
:1011900018C0452B462B472B51F4F6018789908DBB
:1011A000A18DB28D86839783A087B1870AC04681BF
:1011B00057816085718593010E94D90E882309F4B7
:1011C00071C0F601238D348D86819781A085B1850C
:1011D0000297A109B109AC01BD01F901058404C060
:1011E000440F551F661F771F0A94D2F7868597858F
:1011F000A089B189840F951FA61FB71FBC01CD011F
:10120000610F711D811D911DD60114962C9126FF31
:1012100014C0009100011091010120910201309150
:101220000301601771078207930751F506C0FA8121
:10123000FF23C1F1898190E037C040E00E94F00DAA
:10124000882381F1F501E257FB4FD401CF010196CC
:10125000E817F90719F021912D93FACFEFEF8E1AC5
:101260009E0AF60182859385A485B5850196A11D08
:10127000B11D82879387A487B58780E090E057CF20
:10128000740101E010E09501AB01BC0180918E0674
:1012900090918F060E94DA06882321F0BFEF8B1A07
:1012A0009B0ADFCF8FEF9FEF0F900F90DF91CF91D1
:1012B0001F910F91FF90EF90DF90CF90BF90AF9074
:1012C0009F908F907F906F905F904F903F902F9066
:1012D0000895FC01818D928D009711F00C945F08A8
:1012E0008FEF9FEF08950F931F93CF93DF93FC0130
:1012F000818D928D0097B9F0EF010E945F088C01FB
:101300000F3F8FEF180791F0898D9A8DFC01428570
:1013100053856485758541505109610971090E94A1
:10132000BB11C80105C080E090E002C08FEF9FEFC5
:10133000DF91CF911F910F9108951F920F920FB6D9
:101340000F9211242F933F934F935F936F937F934B
:101350008F939F93AF93BF93EF93FF938091B900C7
:10136000887F803609F49CC068F5883209F45BC038
:1013700090F4803109F454C038F4882309F4F6C09D
:10138000883009F44DC0F6C0883109F44CC0803271
:1013900009F45DC0EFC0803409F468C048F48033BC
:1013A00009F455C0883309F0E5C080930303D8C021
:1013B000803509F44FC0883509F45DC0883409F0E0
:1013C000D9C0D6C0883909F4C7C0A8F4883709F451
:1013D00067C038F4883609F463C0803709F460C008
:1013E000C9C0883809F4B8C0803909F45FC08038B2
:1013F00009F0C0C05BC0803B09F486C038F4803A75
:1014000009F466C0883A09F47FC0B4C0803C09F48E
:10141000A7C0883C09F4A4C0883B09F48AC0AAC0CC
:101420008091E00210C0909102038091010398170F
:1014300070F5E091020381E08E0F80930203F0E0EB
:10144000EF51FD4F80818093BB0085EC86C0809377
:1014500003038EC0E091020381E08E0F80930203AC
:101460008091BB00F0E0EF51FD4F8083909102032B
:10147000809101036EC0E091020381E08E0F8093A2
:1014800002038091BB00F0E0EF51FD4F808380911B
:10149000270381116DC081E08093260384EA61C037
:1014A00083E0809328031092C402CFCF8091C402BE
:1014B000803208F051C0E091C40281E08E0F809329
:1014C000C4028091BB00F0E0EC55FD4F8083BDCF9E
:1014D00085EC8093BC00109228038091C402803276
:1014E00030F4E091C402F0E0EC55FD4F10826091C1
:1014F000C40270E0E091A202F091A30284EA92E0BB
:1015000009951092C40236C084E08093280310929B
:10151000A1021092A002E0919E02F0919F02099513
:101520008091A002811105C081E08093A0021092F9
:101530007E02E091A10281E08E0F8093A102F0E093
:10154000E258FD4F80818093BB009091A102809171
:10155000A002981708F479CF85E88093BC000AC0F0
:1015600085EC8093BC001092280304C01092030302
:101570000E94CB00FF91EF91BF91AF919F918F910E
:101580007F916F915F914F913F912F910F900FBE7F
:101590000F901F901895FC01538D448D252F30E03E
:1015A000842F90E0821B930B541710F0CF96089570
:1015B00001970895FC01918D828D981761F0828DBD
:1015C000DF01A80FB11D5D968C91928D9F5F9F7377
:1015D000928F90E008958FEF9FEF0895FC01918D19
:1015E000828D981731F0828DE80FF11D858D90E086
:1015F00008958FEF9FEF0895FC01918D228D892F23
:1016000090E0805C9F4F821B91098F73992708950A
:101610008DE293E00E94FC0A21E0892B09F420E08E
:10162000822F0895FC01848DDF01A80FB11DA35AFC
:10163000BF4F2C91848D90E001968F739927848FF2
:10164000A689B7892C93A089B1898C9180648C93E9
:10165000938D848D981306C00288F389E02D8081D4
:101660008F7D80830895EF92FF920F931F93CF9306
:10167000DF93EC0181E0888F9B8D8C8D981305C0E2
:10168000E889F989808185FD24C0F62E0B8D10E054
:101690000F5F1F4F0F731127E02E8C8DE8120CC0C7
:1016A0000FB607FCFACFE889F989808185FFF5CF6D
:1016B000CE010E94120BF1CF8B8DFE01E80FF11DC0
:1016C000E35AFF4FF0820B8FEA89FB8980818062A9
:1016D00007C0EE89FF896083E889F9898081806489
:1016E000808381E090E0DF91CF911F910F91FF9077
:1016F000EF900895CF93DF93EC01888D8823C9F094
:10170000EA89FB89808185FD05C0A889B9898C910A
:1017100086FD0FC00FB607FCF5CF808185FFF2CFA5
:10172000A889B9898C9185FFEDCFCE010E94120B5B
:10173000E7CFDF91CF91089580E090E0892B29F0E9
:101740000E94080B81110C94000008953FB7F89493
:101750008091DC029091DD02A091DE02B091DF0267
:1017600026B5A89B05C02F3F19F00196A11DB11DFC
:101770003FBFBA2FA92F982F8827820F911DA11D37
:10178000B11DBC01CD0142E0660F771F881F991F74
:101790004A95D1F708950E94AC218091D202882306
:1017A000A9F14091000150910101609102017091F5
:1017B00003012EE834E080918E0690918F060E94FE
:1017C0006E07811102C080E008954091D3025091CC
:1017D000D4026091D5027091D60241155105610580
:1017E000710591F02EE834E080918E0690918F067D
:1017F0000E946E07882339F31092D3021092D4020C
:101800001092D5021092D6021092D20281E0089571
:101810001F920F920FB60F9211242F933F934F9365
:101820005F936F937F938F939F93AF93BF93EF9348
:10183000FF938DE293E00E94120BFF91EF91BF9115
:10184000AF919F918F917F916F915F914F913F9158
:101850002F910F900FBE0F901F9018951F920F920F
:101860000FB60F9211242F938F939F93EF93FF93B3
:10187000E0913D03F0913E038081E0914303F091BC
:10188000440382FD12C09081809146038F5F8F7365
:1018900020914703821751F0E0914603F0E0E35DA9
:1018A000FC4F958F8093460301C08081FF91EF919B
:1018B0009F918F912F910F900FBE0F901F901895B1
:1018C000833081F028F4813099F08230A1F00895BE
:1018D0008730A9F08830B9F08430D1F4809180004D
:1018E0008F7D03C0809180008F7780938000089562
:1018F00084B58F7702C084B58F7D84BD08958091B3
:10190000B0008F7703C08091B0008F7D8093B000CE
:1019100008951F93CF93DF93282F30E0F901EC5502
:10192000FF4F8491F901E057FF4FD491F901E4583A
:10193000FF4FC491CC23C9F0162F81110E94600C77
:10194000EC2FF0E0EE0FFF1FE853FF4FA591B4918D
:101950008FB7F894111105C09C91ED2FE095E92304
:1019600002C0EC91ED2BEC938FBFDF91CF911F91D3
:101970000895CF93DF9390E0FC01E057FF4F24914F
:10198000FC01E458FF4F8491882361F190E0880FB7
:10199000991FFC01E859FF4FC591D491FC01E85310
:1019A000FF4FA591B491611109C09FB7F894888148
:1019B000209582238883EC912E230BC0623061F442
:1019C0009FB7F8943881822F809583238883EC9188
:1019D0002E2B2C939FBF06C08FB7F894E8812E2B37
:1019E00028838FBFDF91CF9108958E3008F08E50FD
:1019F0008770806480937C0080917A0080648093FB
:101A00007A0080917A0086FDFCCF80917800209149
:101A1000790090E0922B08958F929F92AF92BF929F
:101A2000CF92DF92EF92FF926B017C010E94A60B96
:101A30004B015C01C114D104E104F104F1F00E94F6
:101A4000A60BDC01CB0188199909AA09BB09883EBC
:101A50009340A105B10570F321E0C21AD108E10855
:101A6000F10888EE880E83E0981EA11CB11CC114F9
:101A7000D104E104F10419F7DDCFFF90EF90DF907E
:101A8000CF90BF90AF909F908F9008952FB7F8940C
:101A90006091D8027091D9028091DA029091DB02B4
:101AA0002FBF08951F920F920FB60F9211242F93FC
:101AB0003F938F939F93AF93BF938091D802909160
:101AC000D902A091DA02B091DB023091D70223E073
:101AD000230F2D3720F40196A11DB11D05C026E866
:101AE000230F0296A11DB11D2093D7028093D80227
:101AF0009093D902A093DA02B093DB028091DC02CA
:101B00009091DD02A091DE02B091DF020196A11D4D
:101B1000B11D8093DC029093DD02A093DE02B093AE
:101B2000DF02BF91AF919F918F913F912F910F90C5
:101B30000FBE0F901F901895FC01248131E0309367
:101B400004032093250310922A031092290383850E
:101B5000682B85E194E00E94590181E00C941814EF
:101B60000F931F93CF938C01C62F0E949C0D6C2F57
:101B70006460C8010E949C0D6C2F6B7FC8010E949D
:101B80009C0D83EC90E00197F1F7CF911F910F919D
:101B90000895FF920F931F93CF93DF931F92CDB7BA
:101BA000DEB78C01F62E962F907F692F642BC8012B
:101BB00049830E94B00D80E1F89EB0011124498153
:101BC000642BC8010F90DF91CF911F910F91FF906F
:101BD0000C94B00D41E00E94C90D81E090E00895A1
:101BE0008F929F92AF92BF92EF92FF920F931F93AB
:101BF000CF934B015C01C42F8091000190910101B2
:101C0000A0910201B091030188159905AA05BB05B1
:101C100001F10E94CD0B811102C080E020C08EE84E
:101C2000E82E84E0F82E00E012E020E030E0B5017C
:101C3000A40180918E0690918F060E94DA06882377
:101C400061F38092000190920101A0920201B09292
:101C500003018091D202C82BC093D20281E0CF91C0
:101C60001F910F91FF90EF90BF90AF909F908F903A
:101C700008954F925F926F927F928F929F92AF9250
:101C8000BF92CF92DF92EF92FF920F931F93CF9369
:101C9000DF93EC016A017B012801390142305105D3
:101CA0006105710510F480E073C089859A85AB8564
:101CB000BC850196A11DB11D84179507A607B7071E
:101CC00090F38B889C88AD88BE888F89803129F4F9
:101CD000BB27AF2D9E2D8D2D09C0DB01CA0147E02A
:101CE000B695A795979587954A95D1F7880E991E31
:101CF000AA1EBB1E8091000190910101A0910201DA
:101D0000B091030188169906AA06BB0679F48F895B
:101D10008031A1F4DD24EE24FF24C601880F991F31
:101D2000FC01E257FB4F5182408219C040E0C501DF
:101D3000B4010E94F00D8111EACFB5CFE894C7F845
:101D4000DD24EE24FF24C601880F991F880F991FF8
:101D5000FC01E257FB4F4082518262827382809184
:101D6000D20281608093D2028A89823080F08D8194
:101D70009E81AF81B885880E991EAA1EBB1E8092D7
:101D8000D3029092D402A092D502B092D60281E002
:101D9000DF91CF911F910F91FF90EF90DF90CF9047
:101DA000BF90AF909F908F907F906F905F904F907B
:101DB00008958F929F92AF92BF92CF92DF92EF924F
:101DC000FF920F931F93CF93DF93FC018185928540
:101DD000A385B4850196A11DB11D84179507A6079B
:101DE000B70710F480E05CC083899489A589B6891F
:101DF000C789C03129F4852E962EA72EBB2409C091
:101E00004A015B01C7E0B694A79497948794CA955A
:101E1000D1F7E9016A017B018F01BC01CD01680D99
:101E2000791D8A1D9B1D8090000190900101A0905A
:101E30000201B0900301681579058A059B0599F4A4
:101E4000F80187898031A9F4B701A60155276627D3
:101E50007727440F551FFA01E257FB4F808191818C
:101E6000A0E0B0E018C040E00E94F00D8111E8CF82
:101E7000B9CFB701A6014F77552766277727440FBB
:101E8000551F440F551FFA01E257FB4F8081918186
:101E9000A281B381BF7088839983AA83BB8381E0C9
:101EA000DF91CF911F910F91FF90EF90DF90CF9036
:101EB000BF90AF909F908F9008954F925F926F92D6
:101EC0007F92AF92BF92CF92DF92EF92FF920F93E9
:101ED0001F93CF93DF9300D000D0CDB7DEB78C0136
:101EE00049835A836B837C835901C12CD12C7601A1
:101EF000412C82E0582E612C712C49815A816B81D2
:101F00007C819E012F5F3F4FC8010E94D90E88231C
:101F100051F1D301C201F801058404C0880F991F53
:101F2000AA1FBB1F0A94D2F7C80ED91EEA1EFB1EB9
:101F300049815A816B817C818789803129F088EFC2
:101F40009FEFAFEFBFE004C088EF9FEFA0E0B0E0ED
:101F5000481759076A077B0780F2F501C082D182D2
:101F6000E282F38281E00F900F900F900F90DF914B
:101F7000CF911F910F91FF90EF90DF90CF90BF9086
:101F8000AF907F906F905F904F9008954F925F92C7
:101F90006F927F92AF92BF92CF92DF92EF92FF92B9
:101FA0000F931F93CF93DF93CDB7DEB72B970FB669
:101FB000F894DEBF0FBECDBF7C01CE0101966C014F
:101FC000FC0190E28BE08C0D91938E13FDCFDA0132
:101FD00030E047E09D91992339F19E3219F0E8EB0A
:101FE000F0E00AC04A3009F472C138E04AE0F2CFAA
:101FF0003196891709F46BC184918111F9CF431788
:1020000008F465C18FED890F8E3508F060C181E05D
:10201000830FF601E30FF11D3FE9390F3A3108F460
:1020200090529083382FD6CF8981803209F44FC1E6
:10203000B22E8B01DB015B968D919C915C97F70131
:10204000948F838F16961D921D921D921C92199744
:10205000FB011286138614861586712CF801828581
:102060009385A485B58543895489658976898417C4
:102070009507A607B70708F061C025E0B695A795B4
:10208000979587952A95D1F7F82FFF706F2ED80175
:1020900015968C91823008F41AC1C8010E945F081D
:1020A00097FD15C1F80182859385A485B5854F9666
:1020B000A11DB11D82879387A487B587F0E26F9E2B
:1020C000C0011124BC0162577B4F6115710509F4F1
:1020D000FEC0DB012C91222319F0253EC1F427C05C
:1020E00071100EC0F701628A409100015091010108
:1020F000609102017091030146875787608B718B55
:10210000FC01E257FB4F8081811113C015C04BE0E9
:1021100050E0C6010E94B121892B09F09FCF8B2D81
:102120008073803309F4D3C04B2D662DCCC077204B
:10213000C9F27724739492CF772473948B2D827194
:10214000823109F0C4C07720D1F0D7011E966D917D
:102150007D918D919C91519741E00E94F00D8823D3
:1021600009F4B5C0F7016289F0E26F9FB001112454
:1021700062577B4F6115710509F079C0A8C0D8017D
:1021800015968C91823009F4A2C0C8010E940C05FA
:10219000882309F49CC0D8015B96ED91FC915C9773
:1021A00016964D905D906D907C901997B2E04B1A09
:1021B000510861087108058404C0440C551C661C54
:1021C000771C0A94D2F786859785A089B189480E35
:1021D000591E6A1E7B1EA480E1E04E1A5108610858
:1021E0007108AA2009F10E94CD0B882309F46FC061
:1021F000EEE8F4E0119226E0EE38F207D9F7D301C9
:10220000C2018A0D911DA11DB11D80930001909303
:102210000101A0930201B09303018091D202816079
:102220008093D202AA94DDCFD8015B96ED91FC9108
:102230005C9780E092E0A0E0B0E0058404C0880FE5
:10224000991FAA1FBB1F0A94D2F7F801438954892A
:1022500065897689840F951FA61FB71F838B948B82
:10226000A58BB68BD70152961C926EE874E080E283
:10227000FB0111928A95E9F78BE0F601DB010190F1
:102280000D928A95E1F781E298E2DB0151969C93E9
:102290008E93509720E038E01F963C932E931E9724
:1022A00053969C938E93529759969C938E935897DE
:1022B00057963C932E9356970E94CD0B882339F066
:1022C0004B2DF7016289C7010E94F80301C080E02D
:1022D0002B960FB6F894DEBF0FBECDBFDF91CF9126
:1022E0001F910F91FF90EF90DF90CF90BF90AF9034
:1022F0007F906F905F904F900895CF93DF93EC01A4
:102300008D818823A1F18C8187FF2DC06E857F850B
:102310008889998941E00E94F00D882341F1EA897A
:1023200080E2E89FF0011124DF01A257BB4F109714
:10233000F1F08D81823050F44B895C896D897E8902
:102340005C964D935D936D937C935F978F89988D89
:10235000A98DBA8DE257FB4F938F828FB58BA48BDB
:102360008C818F778C83DF91CF910C94CD0B80E0A3
:10237000DF91CF9108958F929F92AF92BF92CF92AB
:10238000DF92EF92FF920F931F93CF93DF93EC01B5
:102390008D81811102C080E077C00B891C892D8955
:1023A0003E890417150726073707A8F36A017B0142
:1023B000823029F4CA86DB86EC86FD860DC0C11406
:1023C000D104E104F10451F41E821F82188619869B
:1023D0001A861B861C861D8681E056C08A849B84D3
:1023E000AC84BD84EB8DFC8D258530E0275F3F4FAD
:1023F000B501A4014150510961097109022E04C0BF
:1024000076956795579547950A94D2F7D701C601F7
:102410000197A109B10904C0B695A795979587952D
:102420002A95D2F784179507A607B70720F08928C1
:102430008A288B2849F44F89588D698D7A8D4E836F
:102440005F836887798704C0841B950BA60BB70B45
:102450004C015D018E010A5F1F4F81149104A1049C
:10246000B10409F4A7CF4E815F8168857985980111
:102470008B8D9C8D0E94D90E91E0891A9108A1083C
:10248000B1088111EACF87CFDF91CF911F910F91D2
:10249000FF90EF90DF90CF90BF90AF909F908F9084
:1024A00008952F923F924F925F926F927F928F92F8
:1024B0009F92AF92BF92CF92DF92EF92FF920F93D3
:1024C0001F93CF93DF9300D000D0CDB7DEB78C0140
:1024D0005B011A01DC0115968C9115978130C9F4C6
:1024E00014968C9181FF15C082FF1BC0F8014389AF
:1024F00054896589768982859385A485B5858417F5
:102500009507A607B70769F0C8010E94BB118111A2
:1025100008C081E090E0F8019383828380E090E03E
:1025200039C1610183C0D8015B968D919C915C9704
:10253000FC01248121502A013B0139E07694679403
:10254000579447943A95D1F7722E74207A01F1E0AE
:10255000FF22772009F476C080E092E08E199F096F
:1025600046018C159D0508F44C01D8015B962D9110
:102570003C915C9716968D919D910D90BC91A02DEC
:102580000297A109B109F901058404C0880F991FB8
:10259000AA1FBB1F0A94D2F74685578560897189A7
:1025A000840F951FA61FB71F9C01AD01270D311D7C
:1025B000411D511D29013A01811432E0930609F0B1
:1025C00088C08091000190910101A0910201B09119
:1025D000030184159505A605B70559F48FEF9FEF04
:1025E000DC018093000190930101A0930201B0935C
:1025F00003019501B301A20180918E0690918F068F
:102600000E946E07882309F484CF9EEFB91AC81878
:10261000D908F80182859385A485B585880D991D13
:10262000A11DB11D82879387A487B587D8011A960B
:102630004D915D916D917C911D97C114D10409F06C
:1026400072CF87C0E114F10409F086CF16964D9140
:102650005D916D917C911997411551056105710549
:1026600059F457968D919D910D90BC91A02D009796
:10267000A105B10541F521C09E012F5F3F4F0E948A
:10268000D90E882309F44BCF89819A81AB81BC8113
:10269000F801238D348DF9012789203129F048EF85
:1026A0005FEF6FEF7FE004C048EF5FEF60E070E046
:1026B00084179507A607B70730F0C8010E940C05DC
:1026C00081114ACF26CFF80186839783A087B187EF
:1026D00043CFE114F10429F5D8011A964D915D918B
:1026E0006D917C911D9753968D919D910D90BC910C
:1026F000A02D481759076A077B0798F00E94CD0B59
:10270000882309F406CF40920001509201016092A3
:102710000201709203018091D20281608093D20203
:1027200008C041E0C301B2010E94F00D882309F402
:10273000F0CED501F701E257FB4FCF01880D991D6F
:10274000E817F90719F02D912193FACFA80CB91CBD
:102750005ECF53968D919D910D90BC91A02D8417C5
:102760009507A607B70740F4F801438B548B658B98
:10277000768B848180688483D80114968C9183FD44
:1027800002C0C10107C0C8010E947D11882309F45D
:10279000C0CEF7CF0F900F900F900F90DF91CF9199
:1027A0001F910F91FF90EF90DF90CF90BF90AF906F
:1027B0009F908F907F906F905F904F903F902F9061
:1027C0000895CF93DF931F92CDB7DEB7698341E0C1
:1027D00050E0BE016F5F7F4F0E9451120F90DF915A
:1027E000CF91089510922C0310922B0310922A037C
:1027F000109229031092280381E0809327031092FE
:10280000260361E082E10E94890C61E083E10E947D
:10281000890CE9EBF0E080818E7F808380818D7F61
:10282000808388E48093B80085E48093BC00089599
:10283000382F2091290390912503213208F049C0B7
:10284000809128038111FCCF42E04093280330930C
:1028500027033FEF309303031092020320930103F9
:10286000A5E0B3E041EE52E0FA013E2F341B3217EF
:1028700018F43D913193F9CF1092E0022091E002DB
:10288000990F922B9093E00290912603913061F47E
:10289000109226039091E0029093BB009091BC00AF
:1028A00093FDF8CF95EC01C095EE9093BC0090910C
:1028B00028039230E1F3909103039F3F79F08091D8
:1028C0000303803241F080910303803331F084E0D0
:1028D00005C081E003C082E001C083E010922A03BA
:1028E00010922903109204030895CF92DF92EF9281
:1028F000FF920F931F93CF93DF93C82FD62F042FF0
:1029000011E080914704821310E00E94460DC090B0
:102910004804D0904904E0904A04F0904B04A70189
:1029200096010E944320F694E794D794C7946C15BF
:102930007D058E059F0508F442C0D23009F442C0DF
:1029400028F4DD2351F0D13011F115C1D33009F451
:1029500067C0D43009F4B1C00EC1E0913804F091E1
:102960003904E00FF11D111105C0C73008F0C6E0B1
:10297000C05D01C0C0E2C083FEC0D33008F04CC0CF
:10298000DD2309F4EEC0D13009F0F5C010E0C43603
:1029900008F0C3E6202F30E0E0913804F0913904CC
:1029A000E20FF31F111106C08C2F6AE00E94232052
:1029B000805D01C080E280832F5F3F4FC1C0D23075
:1029C000E1F610E0C73008F0C6E0202F30E0E091DB
:1029D0003804F0913904E20FF31F111108C0A091DF
:1029E0003C04B0913D04AC0FB11D8C9101C080E25C
:1029F00080832F5F3F4FE0913804F0913904E20F5C
:102A0000F31F111153C0A0913C04B0913D04AC0FD1
:102A1000B11D11968C914BC0D33009F04AC010E023
:102A2000C73308F0C6E3E02FF0E0A0913804B0917E
:102A300039049D012E0F3F1F111109C080913E04E2
:102A400090913F048C0F911DDC018C9101C080E2BC
:102A5000D9018C93A0913804B0913904CF0101962B
:102A60009D01280F391F11110AC080913E049091D9
:102A70003F048C0F911DDC0111968C9101C080E206
:102A8000D9018C939F012E5F3F4FE0913804F09164
:102A90003904E20FF31F111109C0A0913E04B09157
:102AA0003F04AC0FB11D12968C9101C080E280836F
:102AB00062C0D43009F05FC010E0C43608F0C3E64D
:102AC000202F30E0E0913804F0913904E20FF31F39
:102AD00011110AC080914C0490E001976AE070E007
:102AE0000E942F20605D01C060E26083E0913804A5
:102AF000F0913904C9010196E80FF91F11110AC0BC
:102B000080914C0490E001976AE070E00E942F20D1
:102B1000805D01C080E28083E0913804F091390447
:102B2000C9010296E80FF91F111106C08C2F6AE047
:102B30000E942320805D01C080E280832D5F3F4F93
:102B4000E0913804F0913904E20FF31F111106C02F
:102B50008C2F6AE00E942320905D01C090E2908358
:102B60000AC0C73008F0C6E0E0913804F09139049B
:102B7000E00FF11DFDCEDF91CF911F910F91FF90DE
:102B8000EF90DF90CF900895CF93DF93CDE2D4E024
:102B900089859A85DC01ED91FC910280F381E02D1D
:102BA00060E00995982F9695969596959E71292F98
:102BB000220F220F920F8F70890F8B8B888389854C
:102BC0009A85DC01ED91FC910280F381E02D61E0BA
:102BD0000995982F9695969596959E71292F220F77
:102BE000220F920F8F70890F8C8B898389859A852C
:102BF000DC01ED91FC910280F381E02D62E009950A
:102C0000982F9695969596959E71292F220F220FB3
:102C1000920F8F70890F8D8B8B8389859A85DC014C
:102C2000ED91FC910280F381E02D63E00995982FEE
:102C30009695969596959E71292F220F220F920FA9
:102C40008F70890F8E8B8D8389859A85DC01ED913C
:102C5000FC910280F381E02D64E00995982F969510
:102C6000969596959E71292F220F220F920F8F70A5
:102C7000890F8F8B8F8389859A85DC01ED91FC917B
:102C80000280F381E02D65E00995982F9695969541
:102C900096959E71292F220F220F920F8F70890F08
:102CA000888F888789859A85DC01ED91FC91028067
:102CB000F381E02D66E00995282F2F70215086952D
:102CC000869586958E71982F990F990F890F820F8F
:102CD000898F8E830E94460D6AA37BA38CA39DA33C
:102CE000DF91CF910895CF92DF92EF92FF920F93F1
:102CF0001F93CF93DF936C017A018B01C0E0D0E08A
:102D0000CE15DF0589F0D8016D918D01D601ED91C9
:102D1000FC910190F081E02DC6010995892B11F4F9
:102D20007E0102C02196ECCFC701DF91CF911F91A8
:102D30000F91FF90EF90DF90CF9008954F925F92A8
:102D40006F927F928F929F92AF92BF92CF92DF92BB
:102D5000EF92FF920F931F93CF93DF938C01C0905C
:102D60004F04D0905004E0905104F09052040E941F
:102D7000460D6C157D058E059F0540F410924F049D
:102D800010925004109251041092520420914D045C
:102D900030914E042115310519F40E94C415B1C0BB
:102DA00080914F0490915004A0915104B09152042D
:102DB0000097A105B10589F36C017D01C20ED31EF8
:102DC000E11CF11C0E94460D6C157D058E059F05CA
:102DD00020F70E94460DC0904F04D0905004E09020
:102DE0005104F09052046C197D098E099F0928EE58
:102DF00033E040E050E00E944320C0914404D09171
:102E00004504C23009F0A2C18D2F90E0837099274C
:102E1000892B09F495C17CE1F72E809140042901AA
:102E20003A01480E511C611C711CC301B2012CE314
:102E3000822E912CA12CB12CA50194010E9443203B
:102E400060932D048091410429013A01480E511CE0
:102E5000611C711CC301B201A50194010E944320B1
:102E600060932E048091420459016A01A80EB11C9E
:102E7000C11CD11CC601B50128E130E040E050E0A2
:102E80000E9443206093300480914604820F873073
:102E900008F059C1809333048091430429013A0119
:102EA000480E511C611C711CC301B2014F2D50E032
:102EB0009A012F5F3F4F032E000C440B550B0E94CD
:102EC0004320620F60933204CA01B9016C0F711D77
:102ED000811D911D2DE030E040E050E00E94432034
:102EE000620F60933404CA01B9016D0F711D811D19
:102EF000911D24E630E040E050E00E9443206093C2
:102F0000350420913004822F6CE00E94232091111F
:102F100001C09CE090932F0491E02C3008F490E0E5
:102F200090933104F80101900020E9F731979F0157
:102F3000201B310BC1E0C20FA0913A04B0913B04B9
:102F400090E0492F50E04217530738F5FD010190FA
:102F50000020E9F731977F01EA1AFB0A80E0400F71
:102F6000511F682F70E06E157F05A8F46A0F7B1F54
:102F7000FA01D081FB016081D6130BC0882349F090
:102F80008A3010F4CF5F05C08C3010F4CE5F01C0E2
:102F9000CD5F8F5FE6CF9F5FD4CF80913804909153
:102FA00039040E9414218C2F90E00E947F2090937E
:102FB000390480933804C0E0D0E08D2F90E0F80110
:102FC00001900020E9F73197E01BF10B8E179F0766
:102FD00008F09AC0F801E80FF91F9081E0913A04D7
:102FE000F0913B048081981308C027E04C2F60E0EB
:102FF000809133040E94751484C08181981307C0A6
:103000008091310428E04C2F62E0880F0AC0828151
:1030100098130BC080913104880F28E04C2F62E098
:103020008C5F0E947514CE5F6DC08381981306C0BB
:1030300024E04C2F61E080913204F3CF8481981317
:1030400006C023E04C2F61E080912F04EACF8581F8
:10305000981306C023E04C2F61E080913004E1CF4B
:103060008681981306C022E04C2F61E080912E04E7
:10307000D8CF8781981306C025E04C2F61E080915E
:103080003404CFCF8085981306C021E04C2F61E037
:1030900080912D04C6CF8185981306C026E04C2F61
:1030A00061E080913504BDCF8285981308C080917E
:1030B000340490E00696982F990F25E008C0838588
:1030C00098130CC080913304982F990F27E04C2F50
:1030D00063E0890F0E947514CD5F14C08485981336
:1030E00009C026E04C2F64E0809135040E947514DD
:1030F000CC5F08C0E0913804F0913904EC0FF11D69
:103100009083CF5FDF5F59CFE0913804F0913904AD
:10311000EC0FF11D10828091380490913904DF91F9
:10312000CF911F910F91FF90EF90DF90CF90BF90C4
:10313000AF909F908F907F906F905F904F90089589
:103140006DE1F62E6ACE10923304A6CE8C2F90E05D
:1031500061E070E0C83010F460E070E0860F971F07
:10316000817099279EE1F92EF80E57CE8F929F928B
:10317000AF92BF92CF92DF92EF92FF92CF93DF9305
:10318000C82F8CEC93E090938F0680938E06CC230F
:1031900069F1C53010F080E00DC140E060E070E002
:1031A000CB010E94F00D8823B1F320E1C29FC00142
:1031B000112482589B4FFC01E254FE4F20812F774F
:1031C00051F73C96408151816281738144365105AB
:1031D0006105710500F33497C080D180E280F380EF
:1031E000C114D104E104F10421F4D5CFC12CD12CB8
:1031F000760140E0C701B6010E94F00D882359F224
:103200008091990490919A048115924021F6A091A1
:103210009E04AA2309F4BFCF60919C0470919D0481
:103220006115710509F4B7CF20919B04222309F49D
:10323000B2CFA093EA032093DC0380E030E0E1E02A
:10324000F0E0C82FAF01082E02C0440F551F0A94AA
:10325000E2F72417350741F0982F8F5F983089F7F0
:1032600089E08093E50397CF8093E5032091A40440
:103270003091A5042115310519F040E050E008C057
:103280002091B2043091B3044091B4045091B5043C
:103290002093DD033093DE034093DF035093E0037C
:1032A00046015701860E971EA11CB11C8092EB03AC
:1032B0009092EC03A092ED03B092EE03E0919F0494
:1032C000F091A004F093F103E093F003B0E00E94CA
:1032D0000920860E971EA81EB91E8092F2039092B6
:1032E000F303A092F403B092F50385E0EE0FFF1F05
:1032F0008A95E1F7E150FE4FEF2FFF27E6958E0EFE
:103300009F1EA11CB11C8092E6039092E703A0923D
:10331000E803B092E9032091A1043091A2042115A1
:10332000310521F0A90160E070E008C04091AE04D1
:103330005091AF046091B0047091B104D701C601FF
:1033400088199909AA09BB09840F951FA61FB71FE1
:1033500004C0B695A79597958795CA95D2F780939F
:10336000E1039093E203A093E303B093E403853F6A
:103370002FE09207A105B10510F48CE018C0853F3D
:103380009F4FA105B10510F480E111C08091BA04EE
:103390009091BB04A091BC04B091BD048093F20352
:1033A0009093F303A093F403B093F50380E280932A
:1033B000EF0381E0DF91CF91FF90EF90DF90CF900E
:1033C000BF90AF909F908F90089590912803911196
:1033D000FCCF91E090932803909327032FEF209345
:1033E000030310920203260F209301039093E0023F
:1033F0009091E002880F892B8093E0028091260350
:10340000813061F4109226038091E0028093BB002A
:103410008091BC0083FDF8CF85EC01C085EE8093E0
:10342000BC00809128038130E1F38091020386176C
:1034300010F460910203A1EEB2E02EE634E0F9014F
:103440008E2F821B861718F48D918193F9CF862FCA
:1034500008956115710579F0FB0101900020E9F7ED
:103460003197AF01461B570BDC01ED91FC910280B7
:10347000F381E02D099480E090E008954F925F92EF
:103480006F927F92EF92FF920F931F93CF93DF93F0
:10349000CDB7DEB7A1970FB6F894DEBF0FBECDBF94
:1034A0007C01FA01CB0119A2223008F42AE08E0136
:1034B0000F5D1F4F422E512C612C712CBF01A301B7
:1034C00092010E944320F901CA01015011096A309A
:1034D00014F4605D01C0695CD8016C93232B242B2C
:1034E000252B61F7B801C7010E94291AA1960FB6D2
:1034F000F894DEBF0FBECDBFDF91CF911F910F912A
:10350000FF90EF907F906F905F904F900895CF92D3
:10351000DF92EF92FF920F931F93CF93DF93EC0113
:103520006A017B01E881F9810190F081E02D6DE273
:1035300009958C0144275527BA014C195D096E097C
:103540007F092AE0CE010E943E1A800F911FDF9171
:10355000CF911F910F91FF90EF90DF90CF90089542
:10356000AC01990F660B770B77FF04C083E594E0FD
:103570000C94871A2AE083E594E00C943E1A0F938A
:103580001F93CF93DF93EC010E94291A8C0167E20D
:1035900072E0CE010E94291A800F911FDF91CF9116
:1035A0001F910F910895CF93DF93CDB7DEB7C25728
:1035B000D1090FB6F894DEBF0FBECDBF789484B5A5
:1035C000826084BD84B5816084BD85B5826085BD1F
:1035D00085B5816085BD80916E00816080936E00AD
:1035E000109281008091810082608093810080919F
:1035F0008100816080938100809180008160809350
:1036000080008091B10084608093B1008091B0000F
:1036100081608093B00080917A00846080937A000A
:1036200080917A00826080937A0080917A00816034
:1036300080937A0080917A00806880937A0010925B
:10364000C1000E94F2131092260480912B04823054
:1036500018F098E0909326048093290462E370E0C8
:1036600080E090E00E940C0D60912C0481E294E0D7
:103670000E949C0D68EE73E080E090E00E940C0DCB
:1036800060E381E294E00E94B00D0BE416E4C8010F
:103690000197F1F760E381E294E00E94B00DC80168
:1036A0000197F1F760E381E294E00E94B00D83E5B9
:1036B00092E00197F1F760E281E294E00E94B00DA0
:1036C00060912604606240E081E294E00E94C90DAE
:1036D00084E08093270440E06CE081E294E00E9463
:1036E000C90D40E061E081E294E00E94C90D0BE366
:1036F0001FE1C8010197F1F782E08093280440E0C0
:1037000066E081E294E00E94C90D40E062E081E25F
:1037100094E00E94C90DC8010197F1F718E01093D9
:103720002C0460E081E294E00E949C0D63EC71E067
:1037300081E294E00E94291AEAE0F1E0DE011196AC
:1037400001900D921A95E1F780912904811102C030
:103750008FEF01C081E0FE013196E80FF11DE80F07
:10376000F11D6081685F606840E081E294E00E9442
:10377000C90D6FEC71E081E294E00E94291A8091FA
:10378000360490913704DC01ED91FC910190F081B9
:10379000E02D099589E292E00E949E160E94F213A4
:1037A00060E083E00E94B90C61E085E00E94B90C02
:1037B00061E086E00E94B90C61E087E00E94B90CEC
:1037C000E0913D03F0913E0382E08083E091390374
:1037D000F0913A031082E0913B03F0913C038FECAF
:1037E000808310924503E0914103F091420386E00B
:1037F0008083E0913F03F09140038081806180836A
:10380000E0913F03F0914003808188608083E091E4
:103810003F03F0914003808180688083E0913F0303
:10382000F091400380818F7D808368ED71E08DE2AF
:1038300093E00E94BF1A1092D7031092D503109202
:10384000D2031092D1038AE08093D0030E94460DE8
:103850008B0161E08091D0030E94B90C61E08091FE
:10386000D0030E94890CFFB6F8948091C7028111A1
:1038700027C0E6E8F0E08491EAE9F0E09491E82FCF
:10388000F0E0EE0FFF1FE859FF4FA591B491EC91C6
:10389000E92321F461E08AE00E94890C61E08AE07A
:1038A0000E94B90C8CB580618CBD8CB580648CBDD8
:1038B00061E08DE00E94B90C61E08BE00E94B90CE0
:1038C0008091C7028F5F8093C702FFBE82E580931D
:1038D000CA031092CB038091CA039091CB030E943C
:1038E0005F06EAE0FE2E8FEF0E942006FA94F110A8
:1038F000FACF8CEC93E00E94620620E030E0A90150
:1039000060E08CEC93E00E947806F82E8093D6035A
:10391000E1E08E1749F00E94460D601B710B613D7E
:10392000774058F381E056C02AEA31E040E050E0A9
:1039300068E08CEC93E00E94780682FF03C0F0926E
:10394000D70310C074E0F72E0E9427068093D60399
:10395000FA94F110F9CF8A3A11F082E03BC082E08C
:103960008093D7038091D703823021F0C12CD12CD2
:10397000760105C0C12CD12CE12C60E4F62E20E0AC
:1039800030E0A90167E38CEC93E00E947806A70180
:10399000960169E28CEC93E00E9478068093D6034E
:1039A000882349F00E94460D601B710B613D7740F2
:1039B00030F388E00FC08091D703823001F520E01A
:1039C00030E0A9016AE38CEC93E00E94780688233A
:1039D00041F086E08093D1038CEC93E00E941506C1
:1039E0008FC00E942706807C803C19F483E080937E
:1039F000D7030E9427060E9427060E9427068CEC08
:103A000093E00E94150680E58093CA031092CB03D1
:103A100081E00E94B618882329F08091FB03882357
:103A200041F06EC080E00E94B618882309F468C097
:103A3000F4CF8091EF03803109F582E08093FB039E
:103A400010920D0410920E0410920F0410921004A4
:103A50008091F0039091F103A0E0B0E055E0880F71
:103A6000991FAA1FBB1F5A95D1F780930904909301
:103A70000A04A0930B04B0930C041EC0803209F01A
:103A80003FC083E08093FB034091F2035091F30326
:103A90006091F4037091F50340930D0450930E046C
:103AA00060930F047093100429E034E088ED93E0F4
:103AB0000E945D0F882321F188ED93E0909312041A
:103AC0008093110481E08093FA031092FC0310921A
:103AD000FD031092FE031092FF0310920004109257
:103AE0000104109202041092030410920404109234
:103AF00005041092060410920704109208040CC0EA
:103B000065EE71E083E594E00E94BF1A65EE71E016
:103B10008DE293E00E94BF1A07E311E098EE492E70
:103B200093E0592E612C712C88E590E08C0F9D1F3D
:103B30000C967C0127EAC22E20E0D22E33E9A32E78
:103B400030E0B32E4FE7842E40E0942E66EF73E012
:103B5000CE0101960E94D907BE016F5F7F4FCE0153
:103B6000CB960E94D90719A218A21F8F0E8F1BA2F5
:103B700021968FAD2197811112C06C961FAE1EAE9B
:103B80006C97A0964CAE5DAE6EAE7FAEA097E396FE
:103B90001FAE1EAEE397A5961FAEA59735C0825007
:103BA00023E147EF51E0823048F466EF73E0CE0145
:103BB0004E960E94C60F81110EC0DFCFBE01655C1C
:103BC0007F4FCE014E960E94C60F8823B1F2CE01E0
:103BD000CB960E94000549A95AA96BA97CA9CE01E0
:103BE0004E960E94BB11BE01625E7F4FCE010196D0
:103BF0000E94D90747EF51E0BE016F5F7F4FCE01B2
:103C0000885A9F4F0E942A086C968EAD9FAD6C9784
:103C10009093560480935504A0968CAD9DADAEADA7
:103C2000BFADA0978093570490935804A093590474
:103C3000B0935A04A4968CAD9DADAEADBFADA49724
:103C400080935B0490935C04A0935D04B0935E0446
:103C5000F701AFE5B4E08DE001900D928A95E1F7B0
:103C6000E3968EAD9FADE39790936D0480936C04C3
:103C7000F6018491F5012490F40134903320A1F0F1
:103C800081110E94600CE32DF0E0EE0FFF1FEE5853
:103C9000FF4FA591B4918C91282231E020E009F4E6
:103CA00030E0832F922F02C080E090E09093D10209
:103CB0008093D0020197D9F464E072E08DE293E042
:103CC0000E94BF1A82E192E00E949E16BC0183E529
:103CD00094E00E94291A64E072E083E594E00E9477
:103CE000BF1A64EF71E080E090E00E940C0D8DE15E
:103CF00092E00E949E16BC018DE293E00E94BF1AE2
:103D000064EF71E080E090E00E940C0D89E292E0A7
:103D10000E949E1680912D0490E09093CF02809394
:103D2000CE02892B09F08FC06FE172E08DE293E043
:103D30000E94BF1A61E085E00E94890C61E086E084
:103D40000E94890C61E087E00E94890C64E670E0C3
:103D500080E090E00E940C0D80E00E94F50C9093B2
:103D6000CD028093CC0281E00E94F50C9093CB02AF
:103D70008093CA0282E00E94F50C9093C90280935E
:103D8000C80282E192E00E949E16BC018DE293E09F
:103D90000E94BF1A4091CC025091CD02052E000C1A
:103DA000660B770B77FF05C08DE293E00E94871AC0
:103DB00005C02AE08DE293E00E943E1A67E272E0BD
:103DC0008DE293E00E94291A82E192E00E949E1601
:103DD000BC0183E594E00E94291A6AE272E083E55F
:103DE00094E00E94291A8091CC029091CD020E9409
:103DF000B01A6AE272E083E594E00E94291A809189
:103E0000CA029091CB020E94B01A6AE272E083E586
:103E100094E00E94291A8091C8029091C9020E94E0
:103E2000B01A6AE272E083E594E00E94BF1A60E093
:103E300085E00E94890C60E086E00E94890C60E0C9
:103E400087E00E94890C80916C0490916D0400972A
:103E500061F00E94000580916C0490916D040E94B5
:103E6000142110926D0410926C040E949C0B6ECE73
:103E7000CF92DF92EF92FF92CF93DF93EDE2F3E0E8
:103E80001382128288EEC82E83E0D82EE12CF12C0A
:103E9000C482D582E682F78285E291E091838083B5
:103EA00085EC90E09587848784EC90E097878687FF
:103EB00080EC90E0918B808B81EC90E0938B828BF7
:103EC00082EC90E0958B848B86EC90E0978B868BD0
:103ED000118E128E138E148EEAECF3E080E580834F
:103EE0001182ECECF3E0158216821186138682E0D3
:103EF00090E0A0E0B0E084879587A687B78713A2FB
:103F000015A614A687E391E093A782A717A6E5E17B
:103F1000F4E013821282C482D582E682F78283E4BF
:103F200091E091838083E3E5F4E013821282C482FE
:103F3000D582E682F78287E991E091838083128EB1
:103F4000118E1486CDE2D4E01882198281E08A8332
:103F50001B821C828D831E828F83188681E090E0F5
:103F60000E947F209C878B878DE292E09E878D87C1
:103F70008BE392E0988B8F8784E492E09A8B898B15
:103F80001A8ECB8EDC8EED8EFE8E85E18F8F19A280
:103F900018A21AA21BA21CA21DA286E290E00E94F7
:103FA0007F202DE831E0FC013183208321E631E0E0
:103FB000338322832FEF2483258328E6268B27E073
:103FC000E3E1F1E0DC01579601900D922A95E1F7CB
:103FD00027E0EAE1F1E0DC015E9601900D922A957E
:103FE000E1F79A878987E1E2F4E01382128285E59E
:103FF00091E0918380838FE3848380E1818782E0F5
:1040000082871386DF91CF91FF90EF90DF90CF9062
:1040100008950E941420A59F900DB49F900DA49F19
:10402000800D911D11240895A29FB001B39FC0017E
:10403000A39F700D811D1124911DB29F700D811DD4
:104040001124911D0895991B79E004C0991F9617BA
:1040500008F0961B881F7A95C9F78095089597FBFD
:10406000072E16F4009407D077FD09D00E94652032
:1040700007FC05D03EF4909581959F4F089570956B
:1040800061957F4F0895A1E21A2EAA1BBB1BFD016B
:104090000DC0AA1FBB1FEE1FFF1FA217B307E40727
:1040A000F50720F0A21BB30BE40BF50B661F771F7F
:1040B000881F991F1A9469F760957095809590955F
:1040C0009B01AC01BD01CF010895AA1BBB1B51E1AF
:1040D00007C0AA1FBB1FA617B70710F0A61BB70B78
:1040E000881F991F5A95A9F780959095BC01CD011D
:1040F0000895EE0FFF1F0590F491E02D0994CF93E2
:10410000DF938230910510F482E090E0E091920616
:10411000F091930620E030E0C0E0D0E0309711F15C
:104120004081518148175907C0F04817590761F479
:1041300082819381209719F09B838A832BC090936F
:1041400093068093920626C02115310519F0421777
:10415000530718F49A01BE01DF01EF010280F381D9
:10416000E02DDCCF2115310509F1281B390B243056
:10417000310590F412968D919C91139761157105FC
:1041800021F0FB019383828304C090939306809374
:104190009206FD01329644C0FD01E20FF31F8193A8
:1041A0009193225031092D933C933AC0209190066F
:1041B00030919106232B41F42091060130910701A3
:1041C00030939106209390062091040130910501CF
:1041D0002115310541F42DB73EB7409108015091AA
:1041E0000901241B350BE0919006F0919106E2172E
:1041F000F307A0F42E1B3F0B2817390778F0AC010A
:104200004E5F5F4F2417350748F04E0F5F1F5093E6
:104210009106409390068193919302C0E0E0F0E014
:10422000CF01DF91CF9108950F931F93CF93DF9329
:10423000009709F48CC0FC0132971382128200911E
:104240009206109193060115110581F420813181A8
:10425000820F931F209190063091910628173907FD
:1042600079F5F0939106E093900671C0D80140E093
:1042700050E0AE17BF0750F412962D913C91139762
:10428000AD012115310509F1D901F3CF9D01DA0105
:104290003383228360817181860F971F8217930772
:1042A00069F4EC0128813981260F371F2E5F3F4FBB
:1042B000318320838A819B8193838283452B29F4D8
:1042C000F0939306E093920642C01396FC93EE930C
:1042D0001297ED01499159919E01240F351FE21764
:1042E000F30771F480819181840F951F02961196D6
:1042F0009C938E938281938113969C938E931297B5
:10430000E0E0F0E0D80112968D919C911397009710
:1043100019F0F8018C01F6CF8D919C9198012E5FD8
:104320003F4F820F931F20919006309191062817DE
:10433000390769F4309729F4109293061092920687
:1043400002C0138212821093910600939006DF91AF
:10435000CF911F910F91089581E090E0F8940C9413
:10436000CD21FB01DC0104C08D910190801921F465
:1043700041505040C8F7881B990B0895FB01DC01A0
:104380004150504048F001900D920020C9F701C003
:0E4390001D9241505040E0F70895F894FFCF81
:10439E00FFFFFFFF000094068000000040001400A5
:1043AE00540000000102040506037F7F3F3F1FFFFC
:1043BE000700000000330B7316CB0A7A0BFC0ADAE7
:1043CE000AEE0A00000000E113731689018801004D
:1043DE00000000590129018901FD0021010D01FE96
:1043EE000000000000EA0D7316890188010000002C
:1043FE00009403550205023F02F001FD02D9024C62
:10440E0003C002EE01B002EC01EA01E901E701E5A9
:10441E0001E301B4019A018C0100000000AF039189
:10442E00021C0200000000B500750289016D0294A5
:10443E00006909730900000000CB0B73168901880F
:10444E0001CB0BCB0BCB0B00000000CB0B731689F3
:10445E000188016961726475696E6F2E7275004C08
:10446E0043442031363032006F70656E206D7920F6
:10447E00706F72740053442D63617264206E6F749A
:10448E0020666F756E64006961726475696E6F2E59
:10449E00747874003B3B3B205761746572696E679C
:1044AE003B00642D6D2D593B20483A693A73006FDD
:1044BE006B2074696D65000D0A003B200077614129
:1044CE00646848696D73794D445900616D706D4132
:1044DE004D504D0053756E4D6F6E54756557656436
:1044EE005468754672695361744A616E4665624DD1
:1044FE0061724170724D61794A756E4A756C417583
:0E450E00675365704F63744E6F7644656300AB
:00000001FF
