:100000000C946A000C9492000C9492000C94920050
:100010000C9492000C9492000C9492000C94920018
:100020000C9492000C9492000C9492000C94920008
:100030000C9492000C9492000C9492000C949200F8
:100040000C94920F0C9492000C946E0E0C94480E2B
:100050000C9492000C9492000C9492000C949200D8
:100060000C948E0B0C9492000000000024002700DA
:100070002A000000000023002600290004040404D4
:100080000404040402020202020203030303030342
:10009000010204081020408001020408102001021F
:1000A00004081020000000080002010000030407FB
:1000B00000000000000000007C3C3E5E2B3D3F2F16
:1000C0005B5D3B2C2A225C0000000000250028001C
:1000D0002B00E51E11241FBECFEFD8E0DEBFCDBF41
:1000E00026E0A6E8B2E001C01D92A039B207E1F710
:1000F00012E0A0E0B1E0EAEDF2E402C005900D925A
:10010000A638B107D9F710E0CAE6D0E004C02197BD
:10011000FE010E941720C936D107C9F70E94871A2D
:100120000C946B210C940000DC015996ED91FC912C
:100130005A973097B9F083899489A589B689428501
:10014000538564857585841B950BA60BB70B8115AC
:1001500020E89207A105B10538F08FEF9FE7A0E0F6
:10016000B0E0089580E090E00895CF93DF931F9270
:10017000CDB7DEB76983DC01ED91FC910280F3819C
:10018000E02D41E050E0BE016F5F7F4F09950F9079
:10019000DF91CF910895FC01818D928D009711F030
:1001A0000C94ED110895CF93DF93EC01898D9A8D16
:1001B000009739F481E090E09B838A8380E090E0AF
:1001C0000BC0FC01138212820E942B12E98DFA8D62
:1001D00022813381232B71F7DF91CF9108958F9284
:1001E0009F92AF92BF92CF92DF92EF92FF920F93C6
:1001F0001F93CF93DF93EC018D81811102C080E0CA
:1002000077C00B891C892D893E890417150726079D
:100210003707A8F36A017B01823029F4CA86DB869E
:10022000EC86FD860DC0C114D104E104F10451F443
:100230001E821F82188619861A861B861C861D86BA
:1002400081E056C08A849B84AC84BD84EB8DFC8D98
:10025000258530E0275F3F4FB501A401415051098A
:1002600061097109022E04C07695679557954795E7
:100270000A94D2F7D701C6010197A109B10904C0B8
:10028000B695A795979587952A95D2F784179507E0
:10029000A607B70720F089288A288B2849F44F89B8
:1002A000588D698D7A8D4E835F836887798704C006
:1002B000841B950BA60BB70B4C015D018E010A5FE9
:1002C0001F4F81149104A104B10409F4A7CF4E81FA
:1002D0005F816885798598018B8D9C8D0E940011C6
:1002E00091E0891A9108A108B1088111EACF87CF5E
:1002F000DF91CF911F910F91FF90EF90DF90CF9002
:10030000BF90AF909F908F9008958F929F92AF92E1
:10031000BF92CF92DF92EF92FF920F931F93CF93F2
:10032000DF9300D000D0CDB7DEB77C0180E2689FBC
:1003300060011124960126573B4FD9011B969C91D1
:10034000917121F0842F827409F097C0142FF70166
:10035000628B8091000190910101A0910201B09106
:10036000030186879787A08BB18BF601E657FB4F79
:100370004489558960E070E0BA0155274427D701C8
:1003800057964D935D936D937C935A97828D938D81
:10039000A0E0B0E0482B592B6A2B7B2BD701579656
:1003A0004D935D936D937C935A97D9011B968C91D5
:1003B000887159F4848D958DA68DB78DF701838B47
:1003C000948BA58BB68B81E012C0803109F055C0AB
:1003D00097012D5E3F4FD7015B968D919C915C9765
:1003E0000E948411882309F448C084E0F7018583C2
:1003F000812F8F70D70114968C931497F701168272
:100400001782108611861A961D921D921D921C92BB
:100410001D9716FF34C015968C91813071F511FF30
:100420002CC0F7014389548965897689452B462B71
:10043000472B09F461C040E050E0BA01C7010E94B7
:10044000EF008823D1F0F7018788908CA18CB28CC3
:10045000C38CD48C82E090E0A0E0B0E0F601808311
:100460009183A283B3839E012F5F3F4FB501A40107
:10047000C6010E940011811104C080E03DC081E0EE
:100480003BC000E010E09801B501A401C6010E9444
:100490006010882391F389809A80AB80BC80D6015C
:1004A00057968C91803129F088EF9FEFAFEFBFE036
:1004B00004C088EF9FEFA0E0B0E088169906AA0676
:1004C000BB0688F2D70157961D921D921D921C9271
:1004D0005A97F701138A148A158A168A84818068CC
:1004E0008483C7010E94ED11882339F240E050E077
:1004F000BA01C7010E94EF000F900F900F900F906C
:10050000DF91CF911F910F91FF90EF90DF90CF90EF
:10051000BF90AF909F908F900895CF93DF93EC01A1
:100520000E94ED11882311F01D8281E0DF91CF91AF
:1005300008953F924F925F926F927F928F929F9217
:10054000AF92BF92CF92DF92EF92FF920F931F93E1
:10055000CF93DF93CDB7DEB72C970FB6F894DEBFFD
:100560000FBECDBF5C01DC015B968D909C905C97CB
:100570001696CD90DD90ED90FC901997C114D104A2
:10058000E104F10439F0BFEFCB1ADB0AEB0AFB0AF6
:10059000312C07C0F401C080D180E280F380332485
:1005A0003394F40181859285A385B4859C01AD01C6
:1005B0002F5F3F4F4F4F5F4F29873A874B875C87AD
:1005C000260137011D821E821F821886F401818553
:1005D0009285A385B4852D813E814F81588528174A
:1005E00039074A075B0708F063C089859A85AB85A0
:1005F000BC858C159D05AE05BF0550F482E0C82E64
:10060000D12CE12CF12C92E0492E512C612C712C33
:100610009E012F5F3F4FB701A601C4010E94001148
:10062000882309F445C089819A81AB81BC81892BDB
:100630008A2B8B2B41F0260137019FEF491A590A6B
:10064000690A790A05C0C414D504E604F70491F0D8
:100650002D813E814F8158852F5F3F4F4F4F5F4F18
:100660002D833E834F8358873FEFC31AD30AE30A93
:10067000F30AACCF0FEF1FEF2FEF3FE0B301A20162
:10068000C4010E946010882399F0D50116964D91FF
:100690005D916D917C911997411551056105710529
:1006A00049F093018201C4010E946010811102C0CF
:1006B00080E02AC0D50116964D925D926D927C9293
:1006C0001997332051F0D301C2010196A11DB11D2C
:1006D000F40180839183A283B383F5018789908D90
:1006E000A18DB28D892B8A2B8B2B69F4D50157965E
:1006F0004D925D926D927C925A9714968C911497BC
:10070000806814968C9381E02C960FB6F894DEBF27
:100710000FBECDBFDF91CF911F910F91FF90EF9052
:10072000DF90CF90BF90AF909F908F907F906F9011
:100730005F904F903F9008958FB7F8948091940206
:100740008FBF089561E0FC0184810E94C90E8091F1
:10075000930281111092930208958EBD00000DB492
:1007600007FEFDCF8EB508958FEF0C94AD030F9368
:100770001F93CF93DF93EB010E94860F8B010E94A2
:10078000B4038F3F49F00E94860F601B710B6C17FA
:100790007D07A8F380E001C081E0DF91CF911F9138
:1007A0000F910895CF93DF93EC018E81882389F018
:1007B0008F8198859C012F5F3F4F38872F83823030
:1007C000924018F40E94B403F3CFCE010E94A2031A
:1007D0001E82DF91CF9108958CBD9DBD0895CF936A
:1007E000DF93EC0180919302811109C081E0809335
:1007F00093028091D2039091D3030E94EC0360E0B6
:100800008C81DF91CF910C94C90ECF92DF92FF9231
:100810000F931F93CF93DF9300D000D0CDB7DEB7F7
:100820006C01F62E29833A834B835C830E94D203AA
:10083000C6010E94EF036CE271E0C6010E94B7039B
:100840008F2D80640E94AD0308E110E05C814B8134
:100850003A812981DA01C901002E04C0B695A79515
:10086000979587950A94D2F729833A834B835C83C3
:100870000E94AD030850110929813A814B815C81A6
:10088000083F8FEF180731F7FF2029F0E8E0FE124C
:1008900004C087E803C085E901C08FEF0E94AD0363
:1008A00010E00E94B403F601828787FF04C01F3F57
:1008B00011F01F5FF6CF0F900F900F900F90DF9108
:1008C000CF911F910F91FF90DF90CF900895AF923D
:1008D000BF92CF92DF92EF92FF920F931F93CF932D
:1008E000DF93EC016901C801820F931F81309240B0
:1008F00008F070C08E81882371F088819981AA8167
:10090000BB81481759076A077B0729F48F819885AF
:10091000C816D906B0F5488359836A837B838B85D3
:10092000833039F089E0440F551F661F771F8A9581
:10093000D1F79A01AB0161E1CE010E940504882341
:1009400019F083E08D8346C00E94860F5B010E94F0
:10095000B4038A878F3F49F40E94860F6A197B0986
:100960006D327140A0F38FE003C08E3F31F08DE017
:100970008D83CE010E94A2032DC018861F8281E0C4
:100980008E838F8198858C159D0540F40E94B40359
:100990008F819885019698878F83F3CF6701E00E4A
:1009A000F11ECE14DF0431F00E94B403F6018193EE
:1009B0006F01F7CF8F819885080F191F18870F8354
:1009C0008985882319F00115124048F0CE010E9454
:1009D000D20305C0CE010E94A20380E001C081E0E5
:1009E000DF91CF911F910F91FF90EF90DF90CF900B
:1009F000BF90AF9008952F923F924F925F926F9267
:100A00007F928F929F92AF92BF92CF92DF92EF929E
:100A1000FF920F931F93CF93DF9300D0CDB7DEB734
:100A2000FC018581882309F4D9C0848180FFD6C068
:100A300021E02A8343895489658976898285938553
:100A4000A485B585481759076A077B0709F41A82F8
:100A50006F013A81832F90E0DE0111964D013F0135
:100A6000B6E06B0E711C892B09F47DC0D6011A9675
:100A70004D915D916D917C911D975A01B1E0BB2222
:100A8000F60125811A012B0189E056944794379489
:100A900027948A95D1F7838D948D223061F4FC01DF
:100AA000828D938DA48DB58DBC01CD01620D731D1A
:100AB000841D951D45C0DC0114961C911150122116
:100AC000A114B104D1F4111118C0452B462B472BAA
:100AD00051F4F6018789908DA18DB28D868397831D
:100AE000A087B1870AC046815781608571859301CF
:100AF0000E940011882309F471C0F601238D348D02
:100B000086819781A085B1850297A109B109AC01C1
:100B1000BD01F901058404C0440F551F661F771FEE
:100B20000A94D2F786859785A089B189840F951F8D
:100B3000A61FB71FBC01CD01610F711D811D911D45
:100B4000D60114962C9126FF14C00091000110913B
:100B500001012091020130910301601771078207A2
:100B6000930751F506C0FA81FF23C1F1898190E016
:100B700037C040E00E941710882381F1F501E65745
:100B8000FB4FD401CF010196E817F90719F0219125
:100B90002D93FACFEFEF8E1A9E0AF6018285938588
:100BA000A485B5850196A11DB11D82879387A48771
:100BB000B58780E090E057CF740101E010E0950127
:100BC000AB01BC0180918A0690918B060E9467045C
:100BD000882321F0BFEF8B1A9B0ADFCF8FEF9FEFA7
:100BE0000F900F90DF91CF911F910F91FF90EF9099
:100BF000DF90CF90BF90AF909F908F907F906F903D
:100C00005F904F903F902F9008954F925F926F9218
:100C10007F929F92AF92BF92CF92DF92EF92FF921C
:100C20000F931F93CF93DF93CDB7DEB72B970FB6FC
:100C3000F894DEBF0FBECDBF7C01DC011596AC90F1
:100C4000A1108AC1FE0131966F0190E28BE08E0FF8
:100C500091938E13FDCFDA0130E087E09D919923C7
:100C600039F19E3219F0E8EBF0E00AC08A3009F45D
:100C700074C138E08AE0F2CF3196491709F46DC1AA
:100C800044914111F9CF831708F467C14FED490F23
:100C90004E3508F062C141E0430FF601E30FF11D4C
:100CA0003FE9390F3A3108F490529083342FD6CF70
:100CB0008981803209F451C1B22E8B01DB015B9630
:100CC0008D919C915C97F701948F838F16961D925E
:100CD0001D921D921C921997FB0112861386148691
:100CE0001586712CF80182859385A485B585438985
:100CF00054896589768984179507A607B70708F090
:100D000061C025E0B695A795979587952A95D1F767
:100D1000F82FFF706F2ED80115968C91823008F451
:100D20001CC1C8010E94FB0497FD17C1F801828510
:100D30009385A485B5854F96A11DB11D82879387A4
:100D4000A487B587F0E26F9EC0011124BC016657ED
:100D50007B4F6115710509F400C1DB012C91222341
:100D600019F0253EC1F427C071100EC0F701628A48
:100D700040910001509101016091020170910301C5
:100D800046875787608B718BFC01E657FB4F80814C
:100D9000811113C015C04BE050E0C6010E944F21E5
:100DA000892B09F09FCF8B2D8073803309F4D5C038
:100DB0004B2D662DCCC07720C9F27724739492CF47
:100DC000772473948B2D8271823109F0C6C077200D
:100DD000D1F0D7011E966D917D918D919C91519787
:100DE00041E00E941710882309F4B7C0F701628917
:100DF000F0E26F9FB001112466577B4F61157105BA
:100E000009F079C0AAC0D80115968C91823009F4F6
:100E1000A4C0C8010E949902882309F49EC0D80189
:100E20005B96ED91FC915C9716964D905D906D9060
:100E30007C901997B2E04B1A51086108710805843B
:100E400004C0440C551C661C771C0A94D2F7868596
:100E50009785A089B189480E591E6A1E7B1E948011
:100E6000E1E04E1A510861087108992009F10E94C9
:100E7000DC0F882309F471C0EAE8F4E0119226E05F
:100E8000EA38F207D9F7D301C201890D911DA11DDE
:100E9000B11D8093000190930101A0930201B093D2
:100EA00003018091DC0281608093DC029A94DDCFA3
:100EB000D8015B96ED91FC915C9780E092E0A0E018
:100EC000B0E0058404C0880F991FAA1FBB1F0A94B5
:100ED000D2F7F8014389548965897689840F951F73
:100EE000A61FB71F838B948BA58BB68BD701529609
:100EF0001C926AE874E080E2FB0111928A95E9F79E
:100F00008BE0F601DB0101900D928A95E1F781E219
:100F100098E2DB0151969C938E93509720E038E045
:100F20001F963C932E931E9753969C938E935297A5
:100F300059969C938E93589757963C932E93569719
:100F40000E94DC0F882349F04B2DF7016289C7010D
:100F50000E948501A82E01C0A12C8A2D2B960FB6C8
:100F6000F894DEBF0FBECDBFDF91CF911F910F91DF
:100F7000FF90EF90DF90CF90BF90AF909F907F90C9
:100F80006F905F904F900895FC01818D928D009736
:100F900011F00C94FB048FEF9FEF08950F931F93B4
:100FA000CF93DF93FC01818D928D0097B9F0EF0113
:100FB0000E94FB048C010F3F8FEF180791F0898D81
:100FC0009A8DFC0142855385648575854150510990
:100FD000610971090E94EF00C80105C080E090E03E
:100FE00002C08FEF9FEFDF91CF911F910F91089576
:100FF000EF92FF920F931F93CF93DF93EC01790150
:10100000411551056105710511F482E13CC08B85E4
:10101000833039F089E0440F551F661F771F8A958A
:10102000D1F79A01AB0168E1CE010E940504882343
:1010300011F084E028C08EEF0E94AD0387018EEF8F
:10104000F81AF80181918F010E94AD030E151F055A
:10105000C1F78FEF0E94AD038FEF0E94AD030E9496
:10106000B4038A878F71853031F081E18D83CE01A1
:101070000E94A20309C068E572E0CE010E94B70396
:10108000811107C085E18D83CE010E94A20380E01B
:1010900013C020E030E0A9016DE0CE010E940504FC
:1010A000811104C00E94B403882311F084E1EBCFC6
:1010B000CE010E94A20381E0DF91CF911F910F9199
:1010C000FF90EF900895FC01DB0112968D919C91A9
:1010D0001397938382838EE291E0918380831496A9
:1010E0008C911497848315968C9115978583169609
:1010F0004D915D916D917C911997468357836087DF
:1011000071871A964D915D916D917C911D974287E3
:101110005387648775871E964D915D916D917C9183
:10112000519746875787608B718B52968C91529757
:10113000828B53964D915D916D917C915697438B27
:10114000548B658B768B57964D915D916D917C910B
:101150005A97478B508F618F728F5B968D919C91C0
:101160005C97948F838F0895EF92FF920F931F9354
:10117000CF93DF93EC017B018A011B821A8288EEF8
:1011800093E0A0E0B0E08C839D83AE83BF8382E8D0
:1011900091E0998388838DE190E00E941D209A8FD1
:1011A000898F009779F02DE1F701DC0101900D9214
:1011B0002A95E1F74CE050E0B801CE010C960E9470
:1011C0005C21188EDF91CF911F910F91FF90EF90CE
:1011D000089585ED8093BC008091BC0084FDFCCF18
:1011E0001092100308954091B702262F30E0240F8B
:1011F000311D21323105DCF4209110032430C9F473
:10120000FC0180E090E0861758F43091B7022191FC
:10121000DC01AB56BD4FA30FB11D2C930196F3CF4C
:101220008091B702680F6093B70280E0089581E073
:10123000089582E008950895E091870280918602E2
:10124000E81730F4F0E0E659FB4F808190E0089514
:101250008FEF9FEF089590918702809186029817F3
:1012600050F4E92FF0E0E659FB4F208130E09F5F1A
:101270009093870202C02FEF3FEFC901089580913C
:10128000860290E020918702821B91090895CF92F7
:10129000DF92EF92FF920F931F93CF93DF937C0126
:1012A000262F972F8A0180911103882391F0C62F52
:1012B000D72F6E01C40ED51ECC15DD0571F06991D6
:1012C000D701ED91FC910190F081E02DC7010995C6
:1012D000F3CF642F822F0E94F308C801DF91CF91D2
:1012E0001F910F91FF90EF90DF90CF900895CF93D3
:1012F000DF931F92CDB7DEB76983209111032223BC
:10130000D1F020913403203240F021E030E0FC01A4
:101310003383228380E090E015C080911203E82F90
:10132000F0E0ED5EFC4F998190838F5F8093120314
:101330008093340305C061E0CE0101960E94F3085A
:1013400081E090E00F90DF91CF910895089580E0C3
:1013500090E00895DC011C96ED91FC911D97208191
:1013600016968C91922F982381E009F480E00895DD
:10137000FC01A085B18586819C91611109C0892BF2
:101380008C93A089B1899C9186818095892308C01E
:10139000809589238C93A089B1899C918681892B22
:1013A0008C930895FC01A285B38587819C9161117E
:1013B0000CC0892B8C93A289B3899C9187818095DD
:1013C00089238C9320E63AEE17C0809589238C936D
:1013D000A289B3899C918781892B8C93A685B78537
:1013E000978120E63AEE8C91892331F4211531055D
:1013F00019F021503109F7CF81E0232B09F480E067
:10140000089580E0089580E0089580E008950895AB
:1014100080E0089580E0089584E00895CF93DF93FD
:101420001F92CDB7DEB74983DC01ED91FC910088B6
:10143000F189E02D21E0AE014F5F5F4F09950F90DC
:10144000DF91CF9108950F93CF93DF931F92CDB784
:10145000DEB72983DC01ED91FC910484F585E02D54
:1014600001E09E012F5F3F4F09950F90DF91CF91D3
:101470000F9108950F931F93CF93DF93EC01062FE5
:10148000142FE881F9810280F381E02D09958DA365
:10149000FE01E00FF11D968D292F20952823122B98
:1014A000982B212F292347896E89CE010296DF913F
:1014B000CF911F910F910C94230ACF93DF931F922A
:1014C000CDB7DEB71982DC01ED91FC910684F7857A
:1014D000E02D21E0AE014F5F5F4F099589810F90AC
:1014E000DF91CF9108950F93CF93DF931F92CDB7E4
:1014F000DEB71982DC01ED91FC910284F385E02DC9
:1015000001E09E012F5F3F4F099589810F90DF9188
:10151000CF910F9108950F931F93CF93DF93EC0119
:10152000162F61E070E080E090E00E944C0FCE0149
:10153000810F911D8C01FC0147896E89CE010296B5
:101540000E94730AF801968D8923DF91CF911F9134
:101550000F9108950F93CF93DF93E90181E080937A
:101560001103609333031092120310923403642F1B
:101570008DE194E00E947709402F50E0BE018DE19B
:1015800094E00E94470981E00E94CC1391E0811110
:1015900090E0892FDF91CF910F91089581E08093A2
:1015A00011036093330310921203109234030E94CC
:1015B000CC1391E0811190E0892F0895CA0131E0A8
:1015C000309311036093330310921203109234038B
:1015D000422F50E0BC018DE194E00E94470981E078
:1015E0000E94CC1391E0811190E0892F0895EF9231
:1015F000FF920F931F93CF93DF93C62F122FE32EEB
:1016000081E08093110360933303109212031092D0
:101610003403642F8DE194E00E94770980E00E94FA
:10162000CC13602F013208F060E28C2F0E949919D0
:101630001092870280938602882301F1F12EC12F38
:10164000DE2D1C2F1F19909186028091870298171A
:1016500041F0101730F48DE194E00E942B0989933A
:10166000F0CF9091860280918702981729F08DE142
:1016700094E00E942B09F5CF81E0101380E0DF9108
:10168000CF911F910F91FF90EF900895CF92DF922D
:10169000FF920F931F93CF93DF9300D0CDB7DEB7A8
:1016A000862F122F622F213208F060E249835A837D
:1016B0000E949919109287028093860249815A816B
:1016C000882309F1F42E6A010C2D0F1990918602DE
:1016D00080918702981751F0011740F48DE194E052
:1016E0000E942B09F60181936F01EECF9091860243
:1016F00080918702981729F08DE194E00E942B09D0
:10170000F5CF81E0011380E00F900F90DF91CF9132
:101710001F910F91FF90DF90CF9008951F920F922D
:101720000FB60F9211242F933F934F935F936F93B4
:101730007F938F939F93AF93BF93EF93FF9380918A
:10174000B900887F803609F49CC068F5883209F4B6
:101750005BC090F4803109F454C038F4882309F454
:10176000F6C0883009F44DC0F6C0883109F44CC089
:10177000803209F45DC0EFC0803409F468C048F4D9
:10178000803309F455C0883309F0E5C080930E0317
:10179000D8C0803509F44FC0883509F45DC088345D
:1017A00009F0D9C0D6C0883909F4C7C0A8F4883771
:1017B00009F467C038F4883609F463C0803709F447
:1017C00060C0C9C0883809F4B8C0803909F45FC066
:1017D000803809F0C0C05BC0803B09F486C038F493
:1017E000803A09F466C0883A09F47FC0B4C0803CEE
:1017F00009F4A7C0883C09F4A4C0883B09F48AC056
:10180000AAC08091EB0210C090910D0380910C034F
:10181000981770F5E0910D0381E08E0F80930D0312
:10182000F0E0E451FD4F80818093BB0085EC86C0E1
:1018300080930E038EC0E0910D0381E08E0F8093A4
:101840000D038091BB00F0E0E451FD4F8083909147
:101850000D0380910C036EC0E0910D0381E08E0FAB
:1018600080930D038091BB00F0E0E451FD4F808335
:1018700080910F0381116DC081E08093EA0284EAB8
:1018800061C083E0809310031092DB02CFCF809180
:10189000DB02803208F051C0E091DB0281E08E0F64
:1018A0008093DB028091BB00F0E0E554FD4F808324
:1018B000BDCF85EC8093BC00109210038091DB02B9
:1018C000803230F4E091DB02F0E0E554FD4F10820D
:1018D0006091DB0270E0E091B902F091BA028BEB0B
:1018E00092E009951092DB0236C084E080931003E9
:1018F0001092B8021092B702E091B502F091B602D0
:1019000009958091B702811105C081E08093B702EB
:1019100010929502E091B80281E08E0F8093B80298
:10192000F0E0EB56FD4F80818093BB009091B802B0
:101930008091B702981708F479CF85E88093BC00AE
:101940000AC085EC8093BC001092100304C0109272
:101950000E030E94E908FF91EF91BF91AF919F9113
:101960008F917F916F915F914F913F912F910F9048
:101970000FBE0F901F9018951092100381E0809376
:101980000F031092EA0261E082E10E94C90E61E059
:1019900083E10E94C90EE9EBF0E080818E7F8083B5
:1019A00080818D7F808388E48093B80085E4809374
:1019B000BC000895A8EEB3E09A01AB010E94A71FF6
:1019C0009B01AC0160E074E284EF90E00E94E11FB3
:1019D000DA01C9014097A109B109B695A795979574
:1019E00087958093B8001092870210928602109219
:1019F0001203109234030C94BC0C0F931F93CF93DB
:101A0000DF93EC018C010E5F1F4F44E650E060E075
:101A100070E0C8010E94DA0C42E06E89C8010E94A1
:101A2000730A8DA386FF07C0282F2F7B42E06E89A3
:101A3000C8010E94230A4EE06E89C8010E94730A01
:101A40008DA3982F9F7D39F0282F20724EE06E894C
:101A5000C8010E94230A4FE06E89C8010E94730AE0
:101A6000282F8DA3837811F423FD0BC024772860E1
:101A70004FE06E89C801DF91CF911F910F910C94B7
:101A8000230ADF91CF911F910F910895FC01538D8F
:101A9000448D252F30E0842F90E0821B930B541748
:101AA00010F0CF96089501970895FC01918D828DD5
:101AB000981761F0828DDF01A80FB11D5D968C91A2
:101AC000928D9F5F9F73928F90E008958FEF9FEFAD
:101AD0000895FC01918D828D981731F0828DE80F69
:101AE000F11D858D90E008958FEF9FEF0895FC0123
:101AF000918D228D892F90E0805C9F4F821B9109F0
:101B00008F739927089585E393E00E94770D21E074
:101B1000892B09F420E0822F0895FC01848DDF01D8
:101B2000A80FB11DA35ABF4F2C91848D90E0019650
:101B30008F739927848FA689B7892C93A089B1893F
:101B40008C9180648C93938D848D981306C0028849
:101B5000F389E02D80818F7D80830895EF92FF923D
:101B60000F931F93CF93DF93EC0181E0888F9B8DC0
:101B70008C8D981305C0E889F989808185FD24C082
:101B8000F62E0B8D10E00F5F1F4F0F731127E02E05
:101B90008C8DE8120CC00FB607FCFACFE889F989E2
:101BA000808185FFF5CFCE010E948D0DF1CF8B8D09
:101BB000FE01E80FF11DE35AFF4FF0820B8FEA8917
:101BC000FB898081806207C0EE89FF896083E88994
:101BD000F98980818064808381E090E0DF91CF91FA
:101BE0001F910F91FF90EF900895CF93DF93EC0139
:101BF000888D8823C9F0EA89FB89808185FD05C02D
:101C0000A889B9898C9186FD0FC00FB607FCF5CF66
:101C1000808185FFF2CFA889B9898C9185FFEDCFAE
:101C2000CE010E948D0DE7CFDF91CF91089580E026
:101C300090E0892B29F00E94830D81110C94000003
:101C400008953FB7F8948091E6029091E702A09141
:101C5000E802B091E90226B5A89B05C02F3F19F014
:101C60000196A11DB11D3FBFBA2FA92F982F88271C
:101C7000820F911DA11DB11DBC01CD0142E0660F77
:101C8000771F881F991F4A95D1F708950E944A210E
:101C90001F920F920FB60F9211242F933F934F93E1
:101CA0005F936F937F938F939F93AF93BF93EF93C4
:101CB000FF9385E393E00E948D0DFF91EF91BF911B
:101CC000AF919F918F917F916F915F914F913F91D4
:101CD0002F910F900FBE0F901F9018951F920F928B
:101CE0000FB60F9211242F938F939F93EF93FF932F
:101CF000E0914503F09146038081E0914B03F09120
:101D00004C0382FD12C0908180914E038F5F8F73D0
:101D100020914F03821751F0E0914E03F0E0EB5C0D
:101D2000FC4F958F80934E0301C08081FF91EF910E
:101D30009F918F912F910F900FBE0F901F9018952C
:101D4000833081F028F4813099F08230A1F0089539
:101D50008730A9F08830B9F08430D1F480918000C8
:101D60008F7D03C0809180008F77809380000895DD
:101D700084B58F7702C084B58F7D84BD089580912E
:101D8000B0008F7703C08091B0008F7D8093B0004A
:101D900008951F93CF93DF93282F30E0F901EC557E
:101DA000FF4F8491F901E057FF4FD491F901E458B6
:101DB000FF4FC491CC23C9F0162F81110E94A00EB1
:101DC000EC2FF0E0EE0FFF1FE853FF4FA591B49109
:101DD0008FB7F894111105C09C91ED2FE095E92380
:101DE00002C0EC91ED2BEC938FBFDF91CF911F914F
:101DF0000895CF93DF9390E0FC01E057FF4F2491CB
:101E0000FC01E458FF4F8491882361F190E0880F32
:101E1000991FFC01E859FF4FC591D491FC01E8538B
:101E2000FF4FA591B491611109C09FB7F8948881C3
:101E3000209582238883EC912E230BC0623061F4BD
:101E40009FB7F8943881822F809583238883EC9103
:101E50002E2B2C939FBF06C08FB7F894E8812E2BB2
:101E600028838FBFDF91CF9108958E3008F08E5078
:101E70008770806480937C0080917A008064809376
:101E80007A0080917A0086FDFCCF809178002091C5
:101E9000790090E0922B08958F929F92AF92BF921B
:101EA000CF92DF92EF92FF926B017C010E94210E94
:101EB0004B015C01C114D104E104F104F1F00E9472
:101EC000210EDC01CB0188199909AA09BB09883EBA
:101ED0009340A105B10570F321E0C21AD108E108D1
:101EE000F10888EE880E83E0981EA11CB11CC11475
:101EF000D104E104F10419F7DDCFFF90EF90DF90FA
:101F0000CF90BF90AF909F908F9008952FB7F89487
:101F10006091E2027091E3028091E4029091E50207
:101F20002FBF08951F920F920FB60F9211242F9377
:101F30003F938F939F93AF93BF938091E2029091D1
:101F4000E302A091E402B091E5023091E10223E0C6
:101F5000230F2D3720F40196A11DB11D05C026E8E1
:101F6000230F0296A11DB11D2093E1028093E2028E
:101F70009093E302A093E402B093E5028091E6021D
:101F80009091E702A091E802B091E9020196A11DAB
:101F9000B11D8093E6029093E702A093E802B0930C
:101FA000E902BF91AF919F918F913F912F910F9037
:101FB0000FBE0F901F9018958091DC028823A9F125
:101FC0004091000150910101609102017091030163
:101FD0002AE834E080918A0690918B060E94F807E7
:101FE000811102C080E008954091DD025091DE022F
:101FF0006091DF027091E0024115510561057105A4
:1020000091F02AE834E080918A0690918B060E9434
:10201000F807882339F31092DD021092DE02109245
:10202000DF021092E0021092DC0281E008958F92AC
:102030009F92AF92BF92EF92FF920F931F93CF9315
:102040004B015C01C42F8091000190910101A0918E
:102050000201B091030188159905AA05BB0501F19C
:102060000E94DC0F811102C080E020C08AE8E82EC7
:1020700084E0F82E00E012E020E030E0B501A40199
:1020800080918A0690918B060E946704882361F3F1
:102090008092000190920101A0920201B09203018E
:1020A0008091DC02C82BC093DC0281E0CF911F91AC
:1020B0000F91FF90EF90BF90AF909F908F900895F9
:1020C0004F925F926F927F928F929F92AF92BF9248
:1020D000CF92DF92EF92FF920F931F93CF93DF93F4
:1020E000EC016A017B01280139014230510561058B
:1020F000710510F480E073C089859A85AB85BC8535
:102100000196A11DB11D84179507A607B70790F387
:102110008B889C88AD88BE888F89803129F4BB2745
:10212000AF2D9E2D8D2D09C0DB01CA0147E0B6956C
:10213000A795979587954A95D1F7880E991EAA1E5F
:10214000BB1E8091000190910101A0910201B0910C
:10215000030188169906AA06BB0679F48F89803197
:10216000A1F4DD24EE24FF24C601880F991FFC0191
:10217000E657FB4F5182408219C040E0C501B401CF
:102180000E9417108111EACFB5CFE894C7F8DD247B
:10219000EE24FF24C601880F991F880F991FFC01A8
:1021A000E657FB4F40825182628273828091DC024B
:1021B00081608093DC028A89823080F08D819E81EB
:1021C000AF81B885880E991EAA1EBB1E8092DD02C3
:1021D0009092DE02A092DF02B092E00281E0DF91F5
:1021E000CF911F910F91FF90EF90DF90CF90BF9014
:1021F000AF909F908F907F906F905F904F900895D9
:102200008F929F92AF92BF92CF92DF92EF92FF9206
:102210000F931F93CF93DF93FC0181859285A38554
:10222000B4850196A11DB11D84179507A607B707B0
:1022300010F480E05CC083899489A589B689C78938
:10224000C03129F4852E962EA72EBB2409C04A0141
:102250005B01C7E0B694A79497948794CA95D1F789
:10226000E9016A017B018F01BC01CD01680D791D77
:102270008A1D9B1D8090000190900101A090020199
:10228000B0900301681579058A059B0599F4F8015A
:1022900087898031A9F4B701A601552766277727DA
:1022A000440F551FFA01E657FB4F80819181A0E052
:1022B000B0E018C040E00E9417108111E8CFB9CFFC
:1022C000B701A6014F77552766277727440F551F7B
:1022D000440F551FFA01E657FB4F80819181A2817F
:1022E000B381BF7088839983AA83BB8381E0DF9128
:1022F000CF911F910F91FF90EF90DF90CF90BF9003
:10230000AF909F908F9008954F925F926F927F92BF
:10231000AF92BF92CF92DF92EF92FF920F931F93F3
:10232000CF93DF9300D000D0CDB7DEB78C014983C7
:102330005A836B837C835901C12CD12C7601412CAB
:1023400082E0582E612C712C49815A816B817C81ED
:102350009E012F5F3F4FC8010E940011882351F159
:10236000D301C201F801058404C0880F991FAA1F78
:10237000BB1F0A94D2F7C80ED91EEA1EFB1E498164
:102380005A816B817C818789803129F088EF9FEFAA
:10239000AFEFBFE004C088EF9FEFA0E0B0E04817C8
:1023A00059076A077B0780F2F501C082D182E28279
:1023B000F38281E00F900F900F900F90DF91CF91FB
:1023C0001F910F91FF90EF90DF90CF90BF90AF9053
:1023D0007F906F905F904F900895CF93DF93EC01C3
:1023E0008D818823A1F18C8187FF2DC06E857F852B
:1023F0008889998941E00E941710882341F1EA8970
:1024000080E2E89FF0011124DF01A657BB4F10972F
:10241000F1F08D81823050F44B895C896D897E8921
:102420005C964D935D936D937C935F978F89988DA8
:10243000A98DBA8DE657FB4F938F828FB58BA48BF6
:102440008C818F778C83DF91CF910C94DC0F80E0AF
:10245000DF91CF9108952F923F924F925F926F92AA
:102460007F928F929F92AF92BF92CF92DF92EF9224
:10247000FF920F931F93CF93DF9300D000D0CDB77F
:10248000DEB78C015B011A01DC0115968C91159762
:102490008130C9F414968C9181FF15C082FF1BC056
:1024A000F801438954896589768982859385A48555
:1024B000B58584179507A607B70769F0C8010E947C
:1024C000EF00811108C081E090E0F80193838283DE
:1024D00080E090E039C1610183C0D8015B968D91A5
:1024E0009C915C97FC01248121502A013B0139E039
:1024F00076946794579447943A95D1F7722E742046
:102500007A01F1E0FF22772009F476C080E092E0C2
:102510008E199F0946018C159D0508F44C01D801C0
:102520005B962D913C915C9716968D919D910D90A7
:10253000BC91A02D0297A109B109F901058404C03D
:10254000880F991FAA1FBB1F0A94D2F7468557858B
:1025500060897189840F951FA61FB71F9C01AD016B
:10256000270D311D411D511D29013A01811432E011
:10257000930609F088C08091000190910101A0911B
:102580000201B091030184159505A605B70559F41C
:102590008FEF9FEFDC018093000190930101A093E6
:1025A0000201B09303019501B301A20180918A0653
:1025B00090918B060E94F807882309F484CF9EEF40
:1025C000B91AC818D908F80182859385A485B585FC
:1025D000880D991DA11DB11D82879387A487B5879A
:1025E000D8011A964D915D916D917C911D97C11402
:1025F000D10409F072CF87C0E114F10409F086CF4D
:1026000016964D915D916D917C91199741155105EB
:102610006105710559F457968D919D910D90BC916E
:10262000A02D0097A105B10541F521C09E012F5FA6
:102630003F4F0E940011882309F44BCF89819A8172
:10264000AB81BC81F801238D348DF90127892031BC
:1026500029F048EF5FEF6FEF7FE004C048EF5FEFD6
:1026600060E070E084179507A607B70730F0C8014F
:102670000E94990281114ACF26CFF8018683978361
:10268000A087B18743CFE114F10429F5D8011A9648
:102690004D915D916D917C911D9753968D919D917A
:1026A0000D90BC91A02D481759076A077B0798F039
:1026B0000E94DC0F882309F406CF4092000150925B
:1026C000010160920201709203018091DC0281603D
:1026D0008093DC0208C041E0C301B2010E941710E0
:1026E000882309F4F0CED501F701E657FB4FCF015F
:1026F000880D991DE817F90719F02D912193FACF4C
:10270000A80CB91C5ECF53968D919D910D90BC91F4
:10271000A02D84179507A607B70740F4F801438B4F
:10272000548B658B768B848180688483D801149662
:102730008C9183FD02C0C10107C0C8010E94ED1148
:10274000882309F4C0CEF7CF0F900F900F900F9011
:10275000DF91CF911F910F91FF90EF90DF90CF907D
:10276000BF90AF909F908F907F906F905F904F90B1
:102770003F902F900895CF93DF931F92CDB7DEB790
:10278000698341E050E0BE016F5F7F4F0E942B12D2
:102790000F90DF91CF910895382F209134039091BD
:1027A0003303213208F049C0809110038111FCCF1E
:1027B00042E04093100330930F033FEF30930E033A
:1027C00010920D0320930C03A3E1B3E04CEE52E012
:1027D000FA013E2F341B321718F43D913193F9CF93
:1027E0001092EB022091EB02990F922B9093EB0247
:1027F0009091EA02913061F41092EA029091EB021A
:102800009093BB009091BC0093FDF8CF95EC01C074
:1028100095EE9093BC00909110039230E1F390916B
:102820000E039F3F79F080910E03803241F080913A
:102830000E03803331F084E005C081E003C082E004
:1028400001C083E01092120310923403109211031E
:102850000895CF92DF92EF92FF920F931F93CF9341
:10286000DF93C82FD62F042F11E0809143048213E9
:1028700010E00E94860FC0904404D0904504E09080
:102880004604F0904704A70196010E94E11FF694C8
:10289000E794D794C7946C157D058E059F0508F4C1
:1028A00042C0D23009F442C028F4DD2351F0D130C7
:1028B00011F115C1D33009F467C0D43009F4B1C0A7
:1028C0000EC1E0913404F0913504E00FF11D1111B7
:1028D00005C0C73008F0C6E0C05D01C0C0E2C083DB
:1028E000FEC0D33008F04CC0DD2309F4EEC0D13077
:1028F00009F0F5C010E0C43608F0C3E6202F30E040
:10290000E0913404F0913504E20FF31F111106C079
:102910008C2F6AE00E94C11F805D01C080E280832D
:102920002F5F3F4FC1C0D230E1F610E0C73008F052
:10293000C6E0202F30E0E0913404F0913504E20F3E
:10294000F31F111108C0A0913804B0913904AC0FE5
:10295000B11D8C9101C080E280832F5F3F4FE091D9
:102960003404F0913504E20FF31F111153C0A0910C
:102970003804B0913904AC0FB11D11968C914BC045
:10298000D33009F04AC010E0C73308F0C6E3E02FA7
:10299000F0E0A0913404B09135049D012E0F3F1F4B
:1029A000111109C080913A0490913B048C0F911D44
:1029B000DC018C9101C080E2D9018C93A091340498
:1029C000B0913504CF0101969D01280F391F1111D7
:1029D0000AC080913A0490913B048C0F911DDC0158
:1029E00011968C9101C080E2D9018C939F012E5FDA
:1029F0003F4FE0913404F0913504E20FF31F1111C1
:102A000009C0A0913A04B0913B04AC0FB11D1296DD
:102A10008C9101C080E2808362C0D43009F05FC035
:102A200010E0C43608F0C3E6202F30E0E091340413
:102A3000F0913504E20FF31F11110AC08091480490
:102A400090E001976AE070E00E94CD1F605D01C0D8
:102A500060E26083E0913404F0913504C90101968D
:102A6000E80FF91F11110AC08091480490E0019706
:102A70006AE070E00E94CD1F805D01C080E280832B
:102A8000E0913404F0913504C9010296E80FF91F72
:102A9000111106C08C2F6AE00E94C11F805D01C029
:102AA00080E280832D5F3F4FE0913404F091350444
:102AB000E20FF31F111106C08C2F6AE00E94C11FA4
:102AC000905D01C090E290830AC0C73008F0C6E074
:102AD000E0913404F0913504E00FF11DFDCEDF915B
:102AE000CF911F910F91FF90EF90DF90CF900895BD
:102AF000CF93DF93C9E2D4E089859A85DC01ED911B
:102B0000FC910280F381E02D60E00995982F969565
:102B1000969596959E71292F220F220F920F8F70F6
:102B2000890F8B8B888389859A85DC01ED91FC91D7
:102B30000280F381E02D61E00995982F9695969596
:102B400096959E71292F220F220F920F8F70890F59
:102B50008C8B898389859A85DC01ED91FC910280BB
:102B6000F381E02D62E00995982F969596959695BC
:102B70009E71292F220F220F920F8F70890F8D8B3C
:102B80008B8389859A85DC01ED91FC910280F3812C
:102B9000E02D63E00995982F9695969596959E71F0
:102BA000292F220F220F920F8F70890F8E8B8D830A
:102BB00089859A85DC01ED91FC910280F381E02DFD
:102BC00064E00995982F9695969596959E71292F74
:102BD000220F220F920F8F70890F8F8B8F83898521
:102BE0009A85DC01ED91FC910280F381E02D65E096
:102BF0000995982F9695969596959E71292F220F57
:102C0000220F920F8F70890F888F888789859A8508
:102C1000DC01ED91FC910280F381E02D66E00995E5
:102C2000282F2F7021508695869586958E71982F26
:102C3000990F990F890F820F898F8E830E94860FBB
:102C40006AA37BA38CA39DA3DF91CF910895CF921C
:102C5000DF92EF92FF920F931F93CF93DF936C015C
:102C60007A018B01C0E0D0E0CE15DF0589F0D801F4
:102C70006D918D01D601ED91FC910190F081E02DD7
:102C8000C6010995892B11F47E0102C02196ECCF73
:102C9000C701DF91CF911F910F91FF90EF90DF90CF
:102CA000CF9008954F925F926F927F928F929F92F2
:102CB000AF92BF92CF92DF92EF92FF920F931F934A
:102CC000CF93DF938C01C0904B04D0904C04E090E4
:102CD0004D04F0904E040E94860F6C157D058E0504
:102CE0009F0540F410924B0410924C0410924D0436
:102CF00010924E042091490430914A042115310567
:102D000019F40E947815B1C080914B0490914C0445
:102D1000A0914D04B0914E040097A105B10589F32F
:102D20006C017D01C20ED31EE11CF11C0E94860FB6
:102D30006C157D058E059F0520F70E94860FC090BB
:102D40004B04D0904C04E0904D04F0904E046C196C
:102D50007D098E099F0928EE33E040E050E00E9493
:102D6000E11FC0914004D0914104C23009F0A2C1DA
:102D70008D2F90E083709927892B09F495C17CE110
:102D8000F72E80913C0429013A01480E511C611C28
:102D9000711CC301B2012CE3822E912CA12CB12C09
:102DA000A50194010E94E11F6093290480913D04D4
:102DB00029013A01480E511C611C711CC301B2016A
:102DC000A50194010E94E11F60932A0480913E04B2
:102DD00059016A01A80EB11CC11CD11CC601B50164
:102DE00028E130E040E050E00E94E11F60932C04B5
:102DF00080914204820F873008F059C180932F04DC
:102E000080913F0429013A01480E511C611C711C3C
:102E1000C301B2014F2D50E09A012F5F3F4F032EA7
:102E2000000C440B550B0E94E11F620F60932E04AF
:102E3000CA01B9016C0F711D811D911D2DE030E09B
:102E400040E050E00E94E11F620F60933004CA012D
:102E5000B9016D0F711D811D911D24E630E040E028
:102E600050E00E94E11F6093310420912C04822FD6
:102E70006CE00E94C11F911101C09CE090932B0453
:102E800091E02C3008F490E090932D04F80101902B
:102E90000020E9F731979F01201B310BC1E0C20FE1
:102EA000A0913604B091370490E0492F50E04217CA
:102EB000530738F5FD0101900020E9F731977F01B4
:102EC000EA1AFB0A80E0400F511F682F70E06E1570
:102ED0007F05A8F46A0F7B1FFA01D081FB01608196
:102EE000D6130BC0882349F08A3010F4CF5F05C099
:102EF0008C3010F4CE5F01C0CD5F8F5FE6CF9F5F57
:102F0000D4CF80913404909135040E94B2208C2F4C
:102F100090E00E941D209093350480933404C0E01B
:102F2000D0E08D2F90E0F80101900020E9F7319773
:102F3000E01BF10B8E179F0708F09AC0F801E80F0D
:102F4000F91F9081E0913604F09137048081981345
:102F500008C027E04C2F60E080912F040E942914C4
:102F600084C08181981307C080912D0428E04C2FE4
:102F700062E0880F0AC0828198130BC080912D04F3
:102F8000880F28E04C2F62E08C5F0E942914CE5FEE
:102F90006DC08381981306C024E04C2F61E08091BE
:102FA0002E04F3CF8481981306C023E04C2F61E0F8
:102FB00080912B04EACF8581981306C023E04C2F23
:102FC00061E080912C04E1CF8681981306C022E055
:102FD0004C2F61E080912A04D8CF8781981306C0D6
:102FE00025E04C2F61E080913004CFCF808598138D
:102FF00006C021E04C2F61E080912904C6CF818575
:10300000981306C026E04C2F61E080913104BDCFBB
:103010008285981308C08091300490E00696982F1E
:10302000990F25E008C0838598130CC080912F0468
:10303000982F990F27E04C2F63E0890F0E942914E5
:10304000CD5F14C08485981309C026E04C2F64E03E
:10305000809131040E942914CC5F08C0E0913404AF
:10306000F0913504EC0FF11D9083CF5FDF5F59CFF6
:10307000E0913404F0913504EC0FF11D1082809141
:10308000340490913504DF91CF911F910F91FF90FF
:10309000EF90DF90CF90BF90AF909F908F907F90F8
:1030A0006F905F904F9008956DE1F62E6ACE10926A
:1030B0002F04A6CE8C2F90E061E070E0C83010F4B1
:1030C00060E070E0860F971F817099279EE1F92ECE
:1030D000F80E57CE8F929F92AF92BF92CF92DF920F
:1030E000EF92FF92CF93DF93C82F84ED93E09093FC
:1030F0008B0680938A06CC2369F1C53010F080E0FE
:103100000DC140E060E070E0CB010E941710882301
:10311000B1F320E1C29FC001112486589B4FFC01EE
:10312000E254FE4F20812F7751F73C964081518128
:1031300062817381443651056105710500F334974E
:10314000C080D180E280F380C114D104E104F10495
:1031500021F4D5CFC12CD12C760140E0C701B601B6
:103160000E941710882359F280919504909196043B
:103170008115924021F6A0919A04AA2309F4BFCFA9
:1031800060919804709199046115710509F4B7CFA5
:1031900020919704222309F4B2CFA093F203209345
:1031A000E40380E030E0E1E0F0E0C82FAF01082E5A
:1031B00002C0440F551F0A94E2F72417350741F067
:1031C000982F8F5F983089F789E08093ED0397CF30
:1031D0008093ED032091A0043091A10421153105C5
:1031E00019F040E050E008C02091AE043091AF04E7
:1031F0004091B0045091B1042093E5033093E6036D
:103200004093E7035093E80346015701860E971E4B
:10321000A11CB11C8092F3039092F403A092F503D9
:10322000B092F603E0919B04F0919C04F093F903B3
:10323000E093F803B0E00E94A71F860E971EA81E19
:10324000B91E8092FA039092FB03A092FC03B09205
:10325000FD0385E0EE0FFF1F8A95E1F7E150FE4F79
:10326000EF2FFF27E6958E0E9F1EA11CB11C8092AA
:10327000EE039092EF03A092F003B092F10320913D
:103280009D0430919E042115310521F0A90160E0D3
:1032900070E008C04091AA045091AB046091AC0466
:1032A0007091AD04D701C60188199909AA09BB0913
:1032B000840F951FA61FB71F04C0B695A7959795B5
:1032C0008795CA95D2F78093E9039093EA03A09378
:1032D000EB03B093EC03853F2FE09207A105B10506
:1032E00010F48CE018C0853F9F4FA105B10510F484
:1032F00080E111C08091B6049091B704A091B80408
:10330000B091B9048093FA039093FB03A093FC035C
:10331000B093FD0380E28093F70381E0DF91CF91CA
:10332000FF90EF90DF90CF90BF90AF909F908F90E5
:103330000895909110039111FCCF91E090931003A8
:1033400090930F032FEF20930E0310920D03260F7F
:1033500020930C039093EB029091EB02880F892B42
:103360008093EB028091EA02813061F41092EA02CC
:103370008091EB028093BB008091BC0083FDF8CF6D
:1033800085EC01C085EE8093BC00809110038130F4
:10339000E1F380910D03861710F460910D03ACEEFC
:1033A000B2E02AE634E0F9018E2F821B861718F46A
:1033B0008D918193F9CF862F08956115710579F06C
:1033C000FB0101900020E9F73197AF01461B570B35
:1033D000DC01ED91FC910280F381E02D099480E005
:1033E00090E008954F925F926F927F92EF92FF92DA
:1033F0000F931F93CF93DF93CDB7DEB7A1970FB68F
:10340000F894DEBF0FBECDBF7C01FA01CB0119A23B
:10341000223008F42AE08E010F5D1F4F422E512CFE
:10342000612C712CBF01A30192010E94E11FF901DF
:10343000CA01015011096A3014F4605D01C0695C71
:10344000D8016C93232B242B252B61F7B801C701DE
:103450000E94DD19A1960FB6F894DEBF0FBECDBF56
:10346000DF91CF911F910F91FF90EF907F906F9020
:103470005F904F900895CF92DF92EF92FF920F935B
:103480001F93CF93DF93EC016A017B01E881F981FF
:103490000190F081E02D6DE209958C0144275527BC
:1034A000BA014C195D096E097F092AE0CE010E941C
:1034B000F219800F911FDF91CF911F910F91FF9013
:1034C000EF90DF90CF900895AC01990F660B770BCA
:1034D00077FF04C08FE494E00C943B1A2AE08FE459
:1034E00094E00C94F2190F931F93CF93DF93EC01A8
:1034F0000E94DD198C016EE272E0CE010E94DD199E
:10350000800F911FDF91CF911F910F910895CF935D
:10351000DF93CDB7DEB7C257D1090FB6F894DEBF3F
:103520000FBECDBF789484B5826084BD84B58160C0
:1035300084BD85B5826085BD85B5816085BD80917E
:103540006E00816080936E001092810080918100F6
:1035500082608093810080918100816080938100EE
:10356000809180008160809380008091B1008460B0
:103570008093B1008091B00081608093B000809111
:103580007A00846080937A0080917A0082608093D0
:103590007A0080917A00816080937A0080917A002D
:1035A000806880937A001092C100809132049091DB
:1035B0003304DC01ED91FC910190F081E02D09953F
:1035C00080E392E00E9452161092870210928602C7
:1035D00010921203109234030E94BC0C60E082E04F
:1035E0000E94F90E61E085E00E94F90E61E086E03C
:1035F0000E94F90E61E087E00E94F90EE091450318
:10360000F091460382E08083E0914103F091420310
:103610001082E0914303F09144038FEC8083109279
:103620004D03E0914903F0914A0386E08083E091E5
:103630004703F0914803808180618083E0914703D4
:10364000F0914803808188608083E0914703F09186
:103650004803808180688083E0914703F0914803AC
:1036600080818F7D80836EEA71E085E393E00E9424
:10367000731A1092DF031092DD031092DA03109296
:10368000D9038AE08093D8030E94860F8B0161E002
:103690008091D8030E94F90E61E08091D8030E94C6
:1036A000C90EFFB6F89480918802811127C0E6E820
:1036B000F0E08491EAE9F0E09491E82FF0E0EE0F79
:1036C000FF1FE859FF4FA591B491EC91E92321F434
:1036D00061E08AE00E94C90E61E08AE00E94F90E72
:1036E0008CB580618CBD8CB580648CBD61E08DE053
:1036F0000E94F90E61E08BE00E94F90E8091880231
:103700008F5F80938802FFBE82E58093D203109280
:10371000D3038091D2039091D3030E94EC03EAE09B
:10372000FE2E8FEF0E94AD03FA94F110FACF84EDD4
:1037300093E00E94EF0320E030E0A90160E084ED17
:1037400093E00E940504F82E8093DE03E1E08E17DB
:1037500049F00E94860F601B710B613D774058F362
:1037600081E056C02AEA31E040E050E068E084EDB4
:1037700093E00E94050482FF03C0F092DF0310C0B3
:1037800074E0F72E0E94B4038093DE03FA94F110E4
:10379000F9CF8A3A11F082E03BC082E08093DF03E8
:1037A0008091DF03823021F0C12CD12C760105C03D
:1037B000C12CD12CE12C60E4F62E20E030E0A901F0
:1037C00067E384ED93E00E940504A701960169E296
:1037D00084ED93E00E9405048093DE03882349F082
:1037E0000E94860F601B710B613D774030F388E0CB
:1037F0000FC08091DF03823001F520E030E0A901A5
:103800006AE384ED93E00E940504882341F086E09A
:103810008093D90384ED93E00E94A2038FC00E949D
:10382000B403807C803C19F483E08093DF030E9422
:10383000B4030E94B4030E94B40384ED93E00E9499
:10384000A20380E58093D2031092D30381E00E940B
:103850006A18882329F080910304882341F06EC000
:1038600080E00E946A18882309F468C0F4CF809130
:10387000F703803109F582E0809303041092150468
:103880001092160410921704109218048091F803F5
:103890009091F903A0E0B0E055E0880F991FAA1FAE
:1038A000BB1F5A95D1F78093110490931204A093F3
:1038B0001304B09314041EC0803209F03FC083E0AB
:1038C000809303044091FA035091FB036091FC0341
:1038D0007091FD03409315045093160460931704F0
:1038E0007093180421E134E080EE93E00E9484118B
:1038F000882321F180EE93E090931A0480931904B9
:1039000081E0809302041092040410920504109246
:1039100006041092070410920804109209041092F1
:103920000A0410920B0410920C0410920D041092D1
:103930000E0410920F04109210040CC06BEB71E097
:103940008FE494E00E94731A6BEB71E085E393E0DF
:103950000E94731A6EEF73E0CE0101960E94630815
:103960008E01055C1F4FBE016F5F7F4FC8010E9433
:10397000630819A218A28EE291E09F8F8E8F1BA27E
:1039800021968FAD2197811116C06C961FAE1EAE89
:103990006C9788EE93E0A0E0B0E0A0968CAF9DAF6E
:1039A000AEAFBFAFA097E3961FAE1EAEE397A5964E
:1039B0001FAEA59732C0825023E14DEC51E082301A
:1039C00048F46EEF73E0CE014E960E940506811119
:1039D0000BC0DBCFB801CE014E960E9405068823AE
:1039E000A1F2C8010E948D0249A95AA96BA97CA91C
:1039F000CE014E960E94EF00BE01625E7F4FCE0167
:103A000001960E9463084DEC51E0BE016F5F7F4F4D
:103A1000CE01885A9F4F0E94B4086C968EAD9FAD20
:103A20006C979093520480935104A0968CAD9DADF9
:103A3000AEADBFADA0978093530490935404A09370
:103A40005504B0935604A4968CAD9DADAEADBFADFC
:103A5000A4978093570490935804A0935904B0936B
:103A60005A048DE0E8E5F0E0EC0FFD1F3C96ABE575
:103A7000B4E001900D928A95E1F7E3968EAD9FAD8B
:103A8000E39790936904809368041EAE1DAE8EE2A6
:103A900091E09CAF8BAF21961FAE219719A218A27F
:103AA0009F8F8E8F1BA2A12C912CD02EC12E0EEF9A
:103AB00013E07C012A2D392DF901E353FE4F80815B
:103AC0008F3211F42F5F3F4FFE01E85AFF4F40E065
:103AD00050E0D901A353BE4F8C918F3251F088230F
:103AE00041F04F5F5F4F2F5F3F4F81934C30510547
:103AF00081F7E8E5F0E0EC0FFD1FE40FF51F108201
:103B0000F901E353FE4F80818F3211F42F5F3F4F55
:103B1000A22E932EF901E353FE4FB0801C821B822C
:103B2000FA82E9821E8221E0AE01485A5F4FB80155
:103B3000CE0101960E940506882339F0CE01019638
:103B40000E948D02B11009C022C083E00E3F180709
:103B500041F1C8010E948D0224C021E0AE01485A03
:103B60005F4FB8018D2D9C2D0E940506B82EA3E055
:103B70000E3F1A0709F422C1C8010E948D02BB2022
:103B800081F0902F812F0D2D1C2D6C0193CFB3E070
:103B90000E3F1B0719F0C8010E948D026AED71E00B
:103BA00002C06FEE71E085E393E00E94731A06EAAB
:103BB00010E032E9E32E30E0F32E4EE7C42E40E071
:103BC000D42EF8018491F701A490F601B490BB20A3
:103BD000A9F081110E94A00E8B2D90E0880F991FF3
:103BE0008E589F4FFC01A591B4918C91A82231E091
:103BF00020E009F430E0832F922F02C080E090E0B3
:103C000090939202809391020197A9F48BE092E045
:103C10000E945216BC018FE494E00E94DD1968E115
:103C200072E08FE494E00E94731A64EF71E080E028
:103C300090E00E944C0F86E192E00E945216BC0177
:103C400085E393E00E94731A64EF71E080E090E0F6
:103C50000E944C0F80E392E00E945216809129044A
:103C600090E09093900280938F02009719F04E9706
:103C700009F08FC066E272E085E393E00E94731A58
:103C800061E085E00E94C90E61E086E00E94C90EF5
:103C900061E087E00E94C90E64E670E080E090E099
:103CA0000E944C0F80E00E94350F90938E0280930B
:103CB0008D0281E00E94350F90938C0280938B02DD
:103CC00082E00E94350F90938A02809389028BE0F4
:103CD00092E00E945216BC0185E393E00E94731AA1
:103CE00040918D0250918E02052E000C660B770BD1
:103CF00077FF05C085E393E00E943B1A05C02AE0E8
:103D000085E393E00E94F2196EE272E085E393E0AE
:103D10000E94DD198BE092E00E945216BC018FE4F4
:103D200094E00E94DD1961E372E08FE494E00E9468
:103D3000DD1980918D0290918E020E94641A61E3D8
:103D400072E08FE494E00E94DD1980918B029091E3
:103D50008C020E94641A61E372E08FE494E00E9496
:103D6000DD198091890290918A020E94641A61E3B0
:103D700072E08FE494E00E94731A60E085E00E9494
:103D8000C90E60E086E00E94C90E60E087E00E94F4
:103D9000C90E8091680490916904009761F00E94B7
:103DA0008D0280916804909169040E94B220109263
:103DB0006904109268040E94170E03CF882309F447
:103DC000F0CE8E01025E1F4FDCCECF92DF92EF92DB
:103DD000FF92CF93DF93E5E3F3E01382128288EE44
:103DE000C82E83E0D82EE12CF12CC482D582E68245
:103DF000F7828CE191E09183808385EC90E0958758
:103E0000848784EC90E09787868780EC90E0918BA4
:103E1000808B81EC90E0938B828B82EC90E0958B91
:103E2000848B86EC90E0978B868B118E128E138E8E
:103E3000148EE2EDF3E080E580831182E4EDF3E09F
:103E4000158216821186138682E090E0A0E0B0E031
:103E500084879587A687B78713A215A614A68EE236
:103E600091E093A782A717A6EDE1F4E013821282F6
:103E7000C482D582E682F7828AE391E091838083CF
:103E8000EFE4F4E013821282C482D582E682F782E4
:103E900082E891E091838083128E118E1486C9E2AC
:103EA000D4E01882198281E08A831B821C828D8370
:103EB0001E828F83188681E090E00E941D209C87DF
:103EC0008B8784E392E09E878D8782E492E0988BD3
:103ED0008F878BE492E09A8B898B1A8ECB8EDC8E47
:103EE000ED8EFE8E85E18F8F19A218A21AA21BA259
:103EF0001CA21DA286E290E00E941D2028E731E06E
:103F0000FC01318320832CE431E0338322832FEFC3
:103F10002483258328E6268B27E0EAE0F1E0DC0114
:103F2000579601900D922A95E1F727E0E1E1F1E043
:103F3000DC015E9601900D922A95E1F79A878987B8
:103F4000DF91CF91FF90EF90DF90CF9008950E9486
:103F5000B21FA59F900DB49F900DA49F800D911D41
:103F600011240895A29FB001B39FC001A39F700DBB
:103F7000811D1124911DB29F700D811D1124911D71
:103F80000895991B79E004C0991F961708F0961BB5
:103F9000881F7A95C9F78095089597FB072E16F428
:103FA000009407D077FD09D00E94032007FC05D0BC
:103FB0003EF4909581959F4F0895709561957F4F40
:103FC0000895A1E21A2EAA1BBB1BFD010DC0AA1F5A
:103FD000BB1FEE1FFF1FA217B307E407F50720F072
:103FE000A21BB30BE40BF50B661F771F881F991FED
:103FF0001A9469F760957095809590959B01AC0136
:10400000BD01CF010895AA1BBB1B51E107C0AA1F28
:10401000BB1FA617B70710F0A61BB70B881F991F69
:104020005A95A9F780959095BC01CD010895EE0FA2
:10403000FF1F0590F491E02D0994CF93DF93823018
:10404000910510F482E090E0E0918E06F0918F06E9
:1040500020E030E0C0E0D0E0309711F140815181A4
:1040600048175907C0F04817590761F482819381B6
:10407000209719F09B838A832BC090938F0680939F
:104080008E0626C02115310519F04217530718F482
:104090009A01BE01DF01EF010280F381E02DDCCF48
:1040A0002115310509F1281B390B2430310590F415
:1040B00012968D919C9113976115710521F0FB016A
:1040C0009383828304C090938F0680938E06FD01B4
:1040D000329644C0FD01E20FF31F81939193225069
:1040E00031092D933C933AC020918C0630918D0676
:1040F000232B41F4209106013091070130938D0666
:1041000020938C0620910401309105012115310581
:1041100041F42DB73EB74091080150910901241B8D
:10412000350BE0918C06F0918D06E217F307A0F4B1
:104130002E1B3F0B2817390778F0AC014E5F5F4FFD
:104140002417350748F04E0F5F1F50938D0640939C
:104150008C068193919302C0E0E0F0E0CF01DF9103
:10416000CF9108950F931F93CF93DF93009709F496
:104170008CC0FC0132971382128200918E0610913E
:104180008F060115110581F420813181820F931F63
:1041900020918C0630918D062817390779F5F09318
:1041A0008D06E0938C0671C0D80140E050E0AE1758
:1041B000BF0750F412962D913C911397AD01211534
:1041C000310509F1D901F3CF9D01DA01338322834F
:1041D00060817181860F971F8217930769F4EC0144
:1041E00028813981260F371F2E5F3F4F318320836F
:1041F0008A819B8193838283452B29F4F0938F06D8
:10420000E0938E0642C01396FC93EE931297ED0155
:10421000499159919E01240F351FE217F30771F45C
:1042200080819181840F951F029611969C938E93A5
:104230008281938113969C938E931297E0E0F0E035
:10424000D80112968D919C911397009719F0F8015F
:104250008C01F6CF8D919C9198012E5F3F4F820F7C
:10426000931F20918C0630918D062817390769F429
:10427000309729F410928F0610928E0602C0138296
:10428000128210938D0600938C06DF91CF911F91BF
:104290000F91089581E090E0F8940C946B21FB015C
:1042A000DC0104C08D910190801921F441505040EF
:1042B000C8F7881B990B0895FB01DC014150504061
:1042C00048F001900D920020C9F701C01D924150A5
:0A42D0005040E0F70895F894FFCF86
:1042DA00FFFFFFFF000090068000000102040506B0
:1042EA00037F7F3F3F1FFF0700000000AE0D271628
:1042FA00460DF50D770D550D690D00000000BB1335
:10430A002716A709A6090000000077094709A70987
:10431A001B093F092B091C0900000000DA0C730A6B
:10432A00230A5D0A0E0AF70AAA0A460BDE0A0C0AD3
:10433A00CE0A0A0A080A070A050A030A010AD20962
:10434A00B809AA0900000000FD0C8B0A3A0A00000D
:10435A000000B500D300A709CB009400C407CE071C
:10436A0000000000460E2716A709A609460E460EAB
:10437A00460E00000000460E2716A709A6096F7010
:10438A00656E206D7920706F72740053442D6361DD
:10439A007264206E6F7420666F756E640069617254
:1043AA006475696E6F2E74787400696172647569D8
:1043BA006E6F2E747874206578697374732E006931
:1043CA0061726475696E6F2E74787420646F657398
:1043DA006E27742065786973742E00642D6D2D59CB
:1043EA003B20483A693A73003B3B3B20576174656E
:1043FA0072696E673B006F6B2074696D65000D0A08
:10440A00003B2000776141646848696D73794D44C7
:10441A005900616D706D414D504D0053756E4D6F71
:10442A006E5475655765645468754672695361744C
:10443A004A616E4665624D61724170724D61794A98
:10444A00756E4A756C4175675365704F63744E6F2C
:06445A00764465630000DA
:107E0000112484B714BE81FFF0D085E080938100F7
:107E100082E08093C00088E18093C10086E0809377
:107E2000C20080E18093C4008EE0C9D0259A86E02C
:107E300020E33CEF91E0309385002093840096BBD3
:107E4000B09BFECF1D9AA8958150A9F7CC24DD24C4
:107E500088248394B5E0AB2EA1E19A2EF3E0BF2EE7
:107E6000A2D0813461F49FD0082FAFD0023811F036
:107E7000013811F484E001C083E08DD089C08234E0
:107E800011F484E103C0853419F485E0A6D080C0E4
:107E9000853579F488D0E82EFF2485D0082F10E0AE
:107EA000102F00270E291F29000F111F8ED06801E7
:107EB0006FC0863521F484E090D080E0DECF843638
:107EC00009F040C070D06FD0082F6DD080E0C81688
:107ED00080E7D80618F4F601B7BEE895C0E0D1E017
:107EE00062D089930C17E1F7F0E0CF16F0E7DF06D8
:107EF00018F0F601B7BEE89568D007B600FCFDCFD4
:107F0000A601A0E0B1E02C9130E011968C91119780
:107F100090E0982F8827822B932B1296FA010C0160
:107F200087BEE89511244E5F5F4FF1E0A038BF0790
:107F300051F7F601A7BEE89507B600FCFDCF97BE46
:107F4000E89526C08437B1F42ED02DD0F82E2BD052
:107F50003CD0F601EF2C8F010F5F1F4F84911BD097
:107F6000EA94F801C1F70894C11CD11CFA94CF0C13
:107F7000D11C0EC0853739F428D08EE10CD085E9AC
:107F80000AD08FE07ACF813511F488E018D01DD067
:107F900080E101D065CF982F8091C00085FFFCCF94
:107FA0009093C60008958091C00087FFFCCF809118
:107FB000C00084FD01C0A8958091C6000895E0E648
:107FC000F0E098E1908380830895EDDF803219F02E
:107FD00088E0F5DFFFCF84E1DECF1F93182FE3DFCA
:107FE0001150E9F7F2DF1F91089580E0E8DFEE27F6
:047FF000FF270994CA
:027FFE00040479
:0400000300007E007B
:00000001FF