:100000000C946A000C9492000C9492000C94920050
:100010000C9492000C9492000C9492000C94920018
:100020000C9492000C9492000C9492000C94920008
:100030000C9492000C9492000C9492000C949200F8
:100040000C94590E0C9492000C944C0D0C94260DAB
:100050000C9492000C9492000C9492000C949200D8
:100060000C94330A0C9492007C3C3E5E2B3D3F2F57
:100070005B5D3B2C2A225C0000000000250028006C
:100080002B000000000023002600290000000008CB
:10009000000201000003040700000000000000004F
:1000A00000000000240027002A000102040810209C
:1000B00040800102040810200102040810200404FA
:1000C0000404040404040202020202020303030300
:1000D00003038B1F11241FBECFEFD8E0DEBFCDBFBF
:1000E00026E0ACE8B2E001C01D92AE39B207E1F7FC
:1000F00012E0A0E0B1E0E4E4F4E402C005900D9267
:10010000AC38B107D9F710E0CAE6D0E004C02197B7
:10011000FE010E94CC20C936D107C9F70E945D1BA1
:100120000C9420220C940000DC015996ED91FC9176
:100130005A973097B9F083899489A589B689428501
:10014000538564857585841B950BA60BB70B8115AC
:1001500020E89207A105B10538F08FEF9FE7A0E0F6
:10016000B0E0089580E090E00895CF93DF931F9270
:10017000CDB7DEB76983DC01ED91FC910280F3819C
:10018000E02D41E050E0BE016F5F7F4F09950F9079
:10019000DF91CF91089585ED8093BC008091BC00E4
:1001A00084FDFCCF1092540508954091AE02262F95
:1001B00030E0240F311D21323105DCF4209154054B
:1001C0002430C9F4FC0180E090E0861758F43091A7
:1001D000AE022191DC01A457BD4FA30FB11D2C939A
:1001E0000196F3CF8091AE02680F6093AE0280E07B
:1001F000089581E0089582E008950895E0915805FA
:1002000080915705E81730F4F0E0E651FD4F80810A
:1002100090E008958FEF9FEF089590915805809199
:100220005705981750F4E92FF0E0E651FD4F208173
:1002300030E09F5F9093580502C02FEF3FEFC90158
:1002400008958091570590E020915805821B9109EF
:100250000895CF92DF92EF92FF920F931F93CF9367
:10026000DF937C01262F972F8A0180913005882308
:1002700091F0C62FD72F6E01C40ED51ECC15DD050B
:1002800071F06991D701ED91FC910190F081E02D21
:10029000C7010995F3CF642F822F0E94D500C801B2
:1002A000DF91CF911F910F91FF90EF90DF90CF9052
:1002B0000895CF93DF931F92CDB7DEB76983209166
:1002C00030052223D1F020915505203240F021E065
:1002D00030E0FC013383228380E090E015C0809100
:1002E0005605E82FF0E0EF5CFA4F998190838F5F1D
:1002F000809356058093550505C061E0CE010196B7
:100300000E94D50081E090E00F90DF91CF91089599
:10031000089580E090E00895DC011C96ED91FC9139
:100320001D97208116968C91922F982381E009F4D5
:1003300080E00895FC01A085B18586819C916111C2
:1003400009C0892B8C93A089B1899C918681809565
:10035000892308C0809589238C93A089B1899C91B9
:100360008681892B8C930895FC01A285B3858781B2
:100370009C9161110CC0892B8C93A289B3899C91AB
:100380008781809589238C9320E63AEE17C080956B
:1003900089238C93A289B3899C918781892B8C9323
:1003A000A685B785978120E63AEE8C91892331F4B2
:1003B0002115310519F021503109F7CF81E0232BA8
:1003C00009F480E0089580E0089580E0089580E0D9
:1003D0000895089580E0089580E0089584E00895E8
:1003E000CF93DF931F92CDB7DEB74983DC01ED9148
:1003F000FC910088F189E02D21E0AE014F5F5F4F55
:1004000009950F90DF91CF9108950F93CF93DF93CC
:100410001F92CDB7DEB72983DC01ED91FC910484F6
:10042000F585E02D01E09E012F5F3F4F09950F906C
:10043000DF91CF910F9108950F931F93CF93DF9387
:10044000EC01062F142FE881F9810280F381E02D61
:1004500009958DA3FE01E00FF11D968D292F2095A2
:100460002823122B982B212F292347896E89CE010F
:100470000296DF91CF911F910F910C940502CF93BB
:10048000DF931F92CDB7DEB71982DC01ED91FC91AD
:100490000684F785E02D21E0AE014F5F5F4F09959F
:1004A00089810F90DF91CF9108950F93CF93DF93C0
:1004B0001F92CDB7DEB71982DC01ED91FC91028469
:1004C000F385E02D01E09E012F5F3F4F0995898163
:1004D0000F90DF91CF910F910895FC01818D928D46
:1004E000009711F00C9484120895CF93DF93EC01E0
:1004F000898D9A8D009739F481E090E09B838A83FF
:1005000080E090E00BC0FC01138212820E94C212B4
:10051000E98DFA8D22813381232B71F7DF91CF9101
:1005200008950F931F93CF93DF93EC01162F61E093
:1005300070E080E090E00E94130ECE01810F911DCB
:100540008C01FC0147896E89CE0102960E945502FA
:10055000F801968D8923DF91CF911F910F91089516
:1005600081E08093300560935105109256051092FA
:1005700055050E94021991E0811190E0892F08959C
:10058000CA0131E030933005609351051092560551
:1005900010925505422F50E0BC0181E496E00E9484
:1005A000290181E00E94021991E0811190E0892FD8
:1005B00008950F93CF93DF93E90181E08093300595
:1005C000609351051092560510925505642F81E4F1
:1005D00096E00E945901402F50E0BE0181E496E070
:1005E0000E94290181E00E94021991E0811190E0AE
:1005F000892FDF91CF910F910895EF92FF920F9382
:100600001F93CF93DF93C62F122FE32E81E08093A9
:100610003005609351051092560510925505642FD0
:1006200081E496E00E94590180E00E940219602F47
:10063000013208F060E28C2F0E9482181092580557
:1006400080935705882301F1F12EC12FDE2D1C2F39
:100650001F199091570580915805981741F0101770
:1006600030F481E496E00E940D018993F0CF9091DF
:10067000570580915805981729F081E496E00E946B
:100680000D01F5CF81E0101380E0DF91CF911F9134
:100690000F91FF90EF900895CF92DF92FF920F930A
:1006A0001F93CF93DF9300D0CDB7DEB7862F122FE5
:1006B000622F213208F060E249835A830E94821837
:1006C000109258058093570549815A81882309F172
:1006D000F42E6A010C2D0F19909157058091580541
:1006E000981751F0011740F481E496E00E940D0143
:1006F000F60181936F01EECF9091570580915805D7
:10070000981729F081E496E00E940D01F5CF81E071
:10071000011380E00F900F90DF91CF911F910F9107
:10072000FF90DF90CF900895A8EEB3E09A01AB015F
:100730000E945C209B01AC0160E074E284EF90E0D9
:100740000E949620DA01C9014097A109B109B69526
:10075000A795979587958093B8000C94DC180F9314
:100760001F93CF93DF93EC018C010E5F1F4F44E684
:1007700050E060E070E0C8010E94940342E06E899E
:10078000C8010E9455028DA386FF07C0282F2F7B2A
:1007900042E06E89C8010E9405024EE06E89C801E0
:1007A0000E9455028DA3982F9F7D39F0282F20722B
:1007B0004EE06E89C8010E9405024FE06E89C801B3
:1007C0000E945502282F8DA3837811F423FD0BC0BE
:1007D000247728604FE06E89C801DF91CF911F9187
:1007E0000F910C940502DF91CF911F910F91089505
:1007F0008F929F92AF92BF92CF92DF92EF92FF9231
:100800000F931F93CF93DF93EC018D81811102C071
:1008100080E077C00B891C892D893E890417150754
:1008200026073707A8F36A017B01823029F4CA86BC
:10083000DB86EC86FD860DC0C114D104E104F10411
:1008400051F41E821F82188619861A861B861C8602
:100850001D8681E056C08A849B84AC84BD84EB8D68
:10086000FC8D258530E0275F3F4FB501A401415045
:10087000510961097109022E04C076956795579553
:1008800047950A94D2F7D701C6010197A109B1098A
:1008900004C0B695A795979587952A95D2F78417A2
:1008A0009507A607B70720F089288A288B2849F4DE
:1008B0004F89588D698D7A8D4E835F8368877987DC
:1008C00004C0841B950BA60BB70B4C015D018E0178
:1008D0000A5F1F4F81149104A104B10409F4A7CF4A
:1008E0004E815F816885798598018B8D9C8D0E94F2
:1008F000E00F91E0891A9108A108B1088111EACFAF
:1009000087CFDF91CF911F910F91FF90EF90DF90F4
:10091000CF90BF90AF909F908F9008958F929F92AD
:10092000AF92BF92CF92DF92EF92FF920F931F93FD
:10093000CF93DF9300D000D0CDB7DEB77C0180E24B
:10094000689F600111249601265F3C4FD9011B96D8
:100950009C91917121F0842F827409F097C0142F1B
:10096000F701628B8091000190910101A091020139
:10097000B091030186879787A08BB18BF601E65F64
:10098000FC4F4489558960E070E0BA01552744273F
:10099000D70157964D935D936D937C935A97828DB3
:1009A000938DA0E0B0E0482B592B6A2B7B2BD7010D
:1009B00057964D935D936D937C935A97D9011B96EF
:1009C0008C91887159F4848D958DA68DB78DF70122
:1009D000838B948BA58BB68B81E012C0803109F09C
:1009E00055C097012D5E3F4FD7015B968D919C912D
:1009F0005C970E946410882309F448C084E0F701E2
:100A00008583812F8F70D70114968C931497F701EB
:100A100016821782108611861A961D921D921D92BB
:100A20001C921D9716FF34C015968C91813071F57C
:100A300011FF2CC0F7014389548965897689452BBC
:100A4000462B472B09F461C040E050E0BA01C701D2
:100A50000E94F8038823D1F0F7018788908CA18C3D
:100A6000B28CC38CD48C82E090E0A0E0B0E0F601C0
:100A700080839183A283B3839E012F5F3F4FB50193
:100A8000A401C6010E94E00F811104C080E03DC0B6
:100A900081E03BC000E010E09801B501A401C6016F
:100AA0000E94400F882391F389809A80AB80BC809C
:100AB000D60157968C91803129F088EF9FEFAFEFE8
:100AC000BFE004C088EF9FEFA0E0B0E08816990671
:100AD000AA06BB0688F2D70157961D921D921D9259
:100AE0001C925A97F701138A148A158A168A8481F0
:100AF00080688483C7010E948412882339F240E011
:100B000050E0BA01C7010E94F8030F900F900F90B8
:100B10000F90DF91CF911F910F91FF90EF90DF9099
:100B2000CF90BF90AF909F908F900895CF93DF9319
:100B3000EC010E948412882311F01D8281E0DF9174
:100B4000CF9108953F924F925F926F927F928F92D2
:100B50009F92AF92BF92CF92DF92EF92FF920F934C
:100B60001F93CF93DF93CDB7DEB72C970FB6F894D2
:100B7000DEBF0FBECDBF5C01DC015B968D909C900B
:100B80005C971696CD90DD90ED90FC901997C1146E
:100B9000D104E104F10439F0BFEFCB1ADB0AEB0A10
:100BA000FB0A312C07C0F401C080D180E280F380C1
:100BB00033243394F40181859285A385B4859C0107
:100BC000AD012F5F3F4F4F4F5F4F29873A874B87CC
:100BD0005C87260137011D821E821F821886F40160
:100BE00081859285A385B4852D813E814F8158856D
:100BF000281739074A075B0708F063C089859A857B
:100C0000AB85BC858C159D05AE05BF0550F482E013
:100C1000C82ED12CE12CF12C92E0492E512C612CC4
:100C2000712C9E012F5F3F4FB701A601C4010E94A6
:100C3000E00F882309F445C089819A81AB81BC818A
:100C4000892B8A2B8B2B41F0260137019FEF491A04
:100C5000590A690A790A05C0C414D504E604F704E0
:100C600091F02D813E814F8158852F5F3F4F4F4F2F
:100C70005F4F2D833E834F8358873FEFC31AD30ABC
:100C8000E30AF30AACCF0FEF1FEF2FEF3FE0B30102
:100C9000A201C4010E94400F882399F0D501169645
:100CA0004D915D916D917C911997411551056105AB
:100CB000710549F093018201C4010E94400F811126
:100CC00002C080E02AC0D50116964D925D926D92C9
:100CD0007C921997332051F0D301C2010196A11DD6
:100CE000B11DF40180839183A283B383F5018789C9
:100CF000908DA18DB28D892B8A2B8B2B69F4D50118
:100D000057964D925D926D927C925A9714968C9163
:100D10001497806814968C9381E02C960FB6F89403
:100D2000DEBF0FBECDBFDF91CF911F910F91FF901E
:100D3000EF90DF90CF90BF90AF909F908F907F907B
:100D40006F905F904F903F9008958FB7F894809187
:100D5000D4028FBF089561E0FC0184810E94A70D39
:100D60008091D30281111092D30208958EBD0000AC
:100D70000DB407FEFDCF8EB508958FEF0C94B60627
:100D80000F931F93CF93DF93EB010E944D0E8B01C6
:100D90000E94BD068F3F49F00E944D0E601B710BF3
:100DA0006C177D07A8F380E001C081E0DF91CF914F
:100DB0001F910F910895CF93DF93EC018E818823CB
:100DC00089F08F8198859C012F5F3F4F38872F8353
:100DD0008230924018F40E94BD06F3CFCE010E94EB
:100DE000AB061E82DF91CF9108958CBD9DBD089505
:100DF000CF93DF93EC018091D302811109C081E090
:100E00008093D3028091F6059091F7050E94F50634
:100E100060E08C81DF91CF910C94A70DCF92DF928F
:100E2000FF920F931F93CF93DF9300D000D0CDB7E5
:100E3000DEB76C01F62E29833A834B835C830E94D4
:100E4000DB06C6010E94F8066CE271E0C6010E9452
:100E5000C0068F2D80640E94B60608E110E05C8118
:100E60004B813A812981DA01C901002E04C0B6956F
:100E7000A795979587950A94D2F729833A834B8350
:100E80005C830E94B6060850110929813A814B8182
:100E90005C81083F8FEF180731F7FF2029F0E8E069
:100EA000FE1204C087E803C085E901C08FEF0E94ED
:100EB000B60610E00E94BD06F601828787FF04C0D7
:100EC0001F3F11F01F5FF6CF0F900F900F900F9004
:100ED000DF91CF911F910F91FF90DF90CF900895F8
:100EE000AF92BF92CF92DF92EF92FF920F931F9338
:100EF000CF93DF93EC016901C801820F931F81300A
:100F0000924008F070C08E81882371F088819981A9
:100F1000AA81BB81481759076A077B0729F48F818B
:100F20009885C816D906B0F5488359836A837B83B0
:100F30008B85833039F089E0440F551F661F771F7A
:100F40008A95D1F79A01AB0161E1CE010E940E07AB
:100F5000882319F083E08D8346C00E944D0E5B010B
:100F60000E94BD068A878F3F49F40E944D0E6A1980
:100F70007B096D327140A0F38FE003C08E3F31F0EA
:100F80008DE08D83CE010E94AB062DC018861F8296
:100F900081E08E838F8198858C159D0540F40E9499
:100FA000BD068F819885019698878F83F3CF67015F
:100FB000E00EF11ECE14DF0431F00E94BD06F601F2
:100FC00081936F01F7CF8F819885080F191F1887BC
:100FD0000F838985882319F00115124048F0CE014E
:100FE0000E94DB0605C0CE010E94AB0680E001C076
:100FF00081E0DF91CF911F910F91FF90EF90DF90F3
:10100000CF90BF90AF900895EF92FF920F931F93F0
:10101000CF93DF93EC01790141155105610571050D
:1010200011F482E13CC08B85833039F089E0440FB4
:10103000551F661F771F8A95D1F79A01AB0168E1AA
:10104000CE010E940E07882311F084E028C08EEFA5
:101050000E94B60687018EEFF81AF80181918F0180
:101060000E94B6060E151F05C1F78FEF0E94B60647
:101070008FEF0E94B6060E94BD068A878F71853069
:1010800031F081E18D83CE010E94AB0609C068E595
:1010900072E0CE010E94C006811107C085E18D83F8
:1010A000CE010E94AB0680E013C020E030E0A90131
:1010B0006DE0CE010E940E07811104C00E94BD06A2
:1010C000882311F084E1EBCFCE010E94AB0681E0D2
:1010D000DF91CF911F910F91FF90EF900895FC0148
:1010E000DB0112968D919C911397938382838CE3FD
:1010F00091E09183808314968C9114978483159644
:101100008C911597858316964D915D916D917C918B
:10111000199746835783608771871A964D915D9121
:101120006D917C911D9742875387648775871E96C2
:101130004D915D916D917C91519746875787608B5A
:10114000718B52968C915297828B53964D915D91F3
:101150006D917C915697438B548B658B768B57960C
:101160004D915D916D917C915A97478B508F618F16
:10117000728F5B968D919C915C97948F838F08956D
:10118000EF92FF920F931F93CF93DF93EC017B01BC
:101190008A011B821A8288EE93E0A0E0B0E08C8383
:1011A0009D83AE83BF838CE991E0998388838DE131
:1011B00090E00E94D2209A8F898F009779F02DE1DC
:1011C000F701DC0101900D922A95E1F74CE050E027
:1011D000B801CE010C960E941122188EDF91CF919A
:1011E0001F910F91FF90EF9008952F923F924F9291
:1011F0005F926F927F928F929F92AF92BF92CF92A7
:10120000DF92EF92FF920F931F93CF93DF9300D063
:10121000CDB7DEB7FC018581882309F4D9C084816C
:1012200080FFD6C021E02A83438954896589768965
:1012300082859385A485B585481759076A077B077A
:1012400009F41A826F013A81832F90E0DE01119632
:101250004D013F01B6E06B0E711C892B09F47DC076
:10126000D6011A964D915D916D917C911D975A0111
:10127000B1E0BB22F60125811A012B0189E05694C9
:101280004794379427948A95D1F7838D948D223093
:1012900061F4FC01828D938DA48DB58DBC01CD01CF
:1012A000620D731D841D951D45C0DC0114961C91B3
:1012B00011501221A114B104D1F4111118C0452B01
:1012C000462B472B51F4F6018789908DA18DB28D65
:1012D00086839783A087B1870AC04681578160853E
:1012E000718593010E94E00F882309F471C0F60113
:1012F000238D348D86819781A085B1850297A109C0
:10130000B109AC01BD01F901058404C0440F551FAA
:10131000661F771F0A94D2F786859785A089B189C1
:10132000840F951FA61FB71FBC01CD01610F711D52
:10133000811D911DD60114962C9126FF14C0009199
:101340000001109101012091020130910301601709
:1013500071078207930751F506C0FA81FF23C1F197
:10136000898190E037C040E00E94F70E882381F128
:10137000F501E65FFC4FD401CF010196E817F907AC
:1013800019F021912D93FACFEFEF8E1A9E0AF601F4
:1013900082859385A485B5850196A11DB11D82879F
:1013A0009387A487B58780E090E057CF740101E070
:1013B00010E09501AB01BC0180910A0590910B05ED
:1013C0000E947007882321F0BFEF8B1A9B0ADFCFA2
:1013D0008FEF9FEF0F900F90DF91CF911F910F91A3
:1013E000FF90EF90DF90CF90BF90AF909F908F9045
:1013F0007F906F905F904F903F902F900895FC01E9
:10140000818D928D009711F00C94F5088FEF9FEF6E
:1014100008950F931F93CF93DF93FC01818D928DDD
:101420000097B9F0EF010E94F5088C010F3F8FEF94
:10143000180791F0898D9A8DFC014285538564854A
:10144000758541505109610971090E94F803C8016D
:1014500005C080E090E002C08FEF9FEFDF91CF9159
:101460001F910F9108951F920F920FB60F921124A2
:101470002F933F934F935F936F937F938F939F939C
:10148000AF93BF93EF93FF938091B900887F80362D
:1014900009F49CC068F5883209F45BC090F480318F
:1014A00009F454C038F4882309F4F6C0883009F4EC
:1014B0004DC0F6C0883109F44CC0803209F45DC0DB
:1014C000EFC0803409F468C048F4803309F455C093
:1014D000883309F0E5C080932F05D8C0803509F422
:1014E0004FC0883509F45DC0883409F0D9C0D6C032
:1014F000883909F4C7C0A8F4883709F467C038F4FC
:10150000883609F463C0803709F460C0C9C08838E0
:1015100009F4B8C0803909F45FC0803809F0C0C050
:101520005BC0803B09F486C038F4803A09F466C099
:10153000883A09F47FC0B4C0803C09F4A7C0883C55
:1015400009F4A4C0883B09F48AC0AAC080910C05A4
:1015500010C090912E0580912D05981770F5E0919F
:101560002E0581E08E0F80932E05F0E0E35FFA4FA9
:1015700080818093BB0085EC86C080932F058EC050
:10158000E0912E0581E08E0F80932E058091BB00A7
:10159000F0E0E35FFA4F808390912E0580912D0556
:1015A0006EC0E0912E0581E08E0F80932E05809114
:1015B000BB00F0E0E35FFA4F808380915305811117
:1015C0006DC081E08093520584EA61C083E080931E
:1015D00054051092D202CFCF8091D202803208F00F
:1015E00051C0E091D20281E08E0F8093D2028091AF
:1015F000BB00F0E0EE54FD4F8083BDCF85EC8093BF
:10160000BC00109254058091D202803230F4E091F7
:10161000D202F0E0EE54FD4F10826091D20270E0F1
:10162000E091B002F091B10282EB92E00995109244
:10163000D20236C084E0809354051092AF0210921B
:10164000AE02E091AC02F091AD0209958091AE023C
:10165000811105C081E08093AE0210928C02E0916E
:10166000AF0281E08E0F8093AF02F0E0E457FD4FB0
:1016700080818093BB009091AF028091AE02981759
:1016800008F479CF85E88093BC000AC085EC80938C
:10169000BC001092540504C010922F050E94CB008C
:1016A000FF91EF91BF91AF919F918F917F916F913A
:1016B0005F914F913F912F910F900FBE0F901F9010
:1016C0001895FF920F931F93CF93DF93CDB7DEB79B
:1016D0002C970FB6F894DEBF0FBECDBF26E0ECE02E
:1016E000F1E0DE01179601900D922A95E1F726E0D0
:1016F000E2E1F1E0DE01119601900D922A95E1F709
:10170000880F991F01E010E00C0F1D1F080F191F13
:10171000F801F68061E08F2D0E94D70D61E08F2DDA
:101720000E94A70D64E670E080E090E00E94130E36
:10173000F80190819E3008F09E50977090649093CD
:101740007C0080917A00806480937A0080917A0096
:1017500086FDFCCF109178000091790060E08F2D1C
:101760000E94A70D212F30E0302B80E094E0821BF7
:10177000930B6AE070E00E948220CB012C960FB69A
:10178000F894DEBF0FBECDBFDF91CF911F910F91B7
:10179000FF900895FC01538D448D252F30E0842F58
:1017A00090E0821B930B541710F0CF960895019789
:1017B0000895FC01918D828D981761F0828DDF0173
:1017C000A80FB11D5D968C91928D9F5F9F73928F34
:1017D00090E008958FEF9FEF0895FC01918D828D29
:1017E000981731F0828DE80FF11D858D90E00895F6
:1017F0008FEF9FEF0895FC01918D228D892F90E04E
:10180000805C9F4F821B91098F7399270895FC017B
:10181000848DDF01A80FB11DA35ABF4F2C91848D79
:1018200090E001968F739927848FA689B7892C93AE
:10183000A089B1898C9180648C93938D848D981349
:1018400006C00288F389E02D80818F7D8083089512
:10185000EF92FF920F931F93CF93DF93EC0181E000
:10186000888F9B8D8C8D981305C0E889F9898081BC
:1018700085FD24C0F62E0B8D10E00F5F1F4F0F73F8
:101880001127E02E8C8DE8120CC00FB607FCFACFA2
:10189000E889F989808185FFF5CFCE010E94070C88
:1018A000F1CF8B8DFE01E80FF11DE35AFF4FF0825F
:1018B0000B8FEA89FB898081806207C0EE89FF89EE
:1018C0006083E889F98980818064808381E090E089
:1018D000DF91CF911F910F91FF90EF900895CF93DB
:1018E000DF93EC01888D8823C9F0EA89FB89808128
:1018F00085FD05C0A889B9898C9186FD0FC00FB6FA
:1019000007FCF5CF808185FFF2CFA889B9898C913A
:1019100085FFEDCFCE010E94070CE7CFDF91CF917D
:10192000089580E090E0892B29F00E9463148111D2
:101930000C9400000895833081F028F4813099F0F0
:101940008230A1F008958730A9F08830B9F0843052
:10195000D1F4809180008F7D03C0809180008F77CB
:1019600080938000089584B58F7702C084B58F7D01
:1019700084BD08958091B0008F7703C08091B0003E
:101980008F7D8093B00008953FB7F8948091DF0277
:101990009091E002A091E102B091E20226B5A89BED
:1019A00005C02F3F19F00196A11DB11D3FBFBA2FF1
:1019B000A92F982F8827820F911DA11DB11DBC0151
:1019C000CD0142E0660F771F881F991F4A95D1F716
:1019D00008950E94FF218091D5028823A9F14091AA
:1019E00000015091010160910201709103012AE010
:1019F00033E080910A0590910B050E940408811143
:101A000002C080E008954091D6025091D7026091C3
:101A1000D8027091D902411551056105710591F007
:101A20002AE033E080910A0590910B050E9404089A
:101A3000882339F31092D6021092D7021092D8025E
:101A40001092D9021092D50281E008951F920F9250
:101A50000FB60F9211242F933F934F935F936F9381
:101A60007F938F939F93AF93BF93EF93FF9389E5FA
:101A700095E00E94070CFF91EF91BF91AF919F916C
:101A80008F917F916F915F914F913F912F910F9027
:101A90000FBE0F901F9018951F920F920FB60F92C6
:101AA00011242F938F939F93EF93FF93E0916905F8
:101AB000F0916A058081E0916F05F091700582FDDB
:101AC00012C09081809172058F5F8F732091730592
:101AD000821751F0E0917205F0E0E75AFA4F958FC6
:101AE0008093720501C08081FF91EF919F918F914A
:101AF0002F910F900FBE0F901F901895CF93DF93EB
:101B0000282F30E0F901E457FF4F8491F901E655A1
:101B1000FF4FD491F901E254FF4FC491CC2391F0CF
:101B200081110E949B0CEC2FF0E0EE0FFF1FEE578F
:101B3000FF4FA591B491EC91ED2381E090E021F469
:101B400080E002C080E090E0DF91CF9108951F9384
:101B5000CF93DF93282F30E0F901E457FF4F8491B2
:101B6000F901E655FF4FD491F901E254FF4FC491BA
:101B7000CC23C9F0162F81110E949B0CEC2FF0E0B2
:101B8000EE0FFF1FE858FF4FA591B4918FB7F8945F
:101B9000111105C09C91ED2FE095E92302C0EC9155
:101BA000ED2BEC938FBFDF91CF911F910895CF93D1
:101BB000DF9390E0FC01E655FF4F2491FC01E254D5
:101BC000FF4F8491882361F190E0880F991FFC01F9
:101BD000E056FF4FC591D491FC01E858FF4FA59105
:101BE000B491611109C09FB7F89488812095822330
:101BF0008883EC912E230BC0623061F49FB7F89478
:101C00003881822F809583238883EC912E2B2C930F
:101C10009FBF06C08FB7F894E8812E2B28838FBF13
:101C2000DF91CF9108958F929F92AF92BF92CF9202
:101C3000DF92EF92FF926B017C010E94C40C4B017A
:101C40005C01C114D104E104F104F1F00E94C40C60
:101C5000DC01CB0188199909AA09BB09883E934088
:101C6000A105B10570F321E0C21AD108E108F1081D
:101C700088EE880E83E0981EA11CB11CC114D1040B
:101C8000E104F10419F7DDCFFF90EF90DF90CF90E2
:101C9000BF90AF909F908F9008952FB7F894609168
:101CA000DB027091DC028091DD029091DE022FBF99
:101CB00008951F920F920FB60F9211242F933F9306
:101CC0008F939F93AF93BF938091DB029091DC023F
:101CD000A091DD02B091DE023091DA0223E0230F01
:101CE0002D3720F40196A11DB11D05C026E8230F54
:101CF0000296A11DB11D2093DA028093DB0290931E
:101D0000DC02A093DD02B093DE028091DF029091AD
:101D1000E002A091E102B091E2020196A11DB11D85
:101D20008093DF029093E002A093E102B093E2027D
:101D3000BF91AF919F918F913F912F910F900FBEC7
:101D40000F901F901895FC01248131E030933005ED
:101D50002093510510925605109255058385682BE6
:101D600081E496E00E94590181E00C9402190F93DE
:101D70001F93CF938C01C62F0E94A30E6C2F64601B
:101D8000C8010E94A30E6C2F6B7FC8010E94A30E96
:101D900083EC90E00197F1F7CF911F910F91089597
:101DA000FF920F931F93CF93DF931F92CDB7DEB7B0
:101DB0008C01F62E962F907F692F642BC8014983E2
:101DC0000E94B70E80E1F89EB00111244981642B76
:101DD000C8010F90DF91CF911F910F91FF900C944C
:101DE000B70E41E00E94D00E81E090E008958F92FE
:101DF0009F92AF92BF92EF92FF920F931F93CF9358
:101E00004B015C01C42F8091000190910101A091D0
:101E10000201B091030188159905AA05BB0501F1DE
:101E20000E94EB0C811102C080E020C08AE0E82E05
:101E300083E0F82E00E012E020E030E0B501A401DC
:101E400080910A0590910B050E947007882361F329
:101E50008092000190920101A0920201B0920301D0
:101E60008091D502C82BC093D50281E0CF911F91FC
:101E70000F91FF90EF90BF90AF909F908F9008953B
:101E80004F925F926F927F928F929F92AF92BF928A
:101E9000CF92DF92EF92FF920F931F93CF93DF9336
:101EA000EC016A017B0128013901423051056105CD
:101EB000710510F480E073C089859A85AB85BC8577
:101EC0000196A11DB11D84179507A607B70790F3CA
:101ED0008B889C88AD88BE888F89803129F4BB2788
:101EE000AF2D9E2D8D2D09C0DB01CA0147E0B695AF
:101EF000A795979587954A95D1F7880E991EAA1EA2
:101F0000BB1E8091000190910101A0910201B0914E
:101F1000030188169906AA06BB0679F48F898031D9
:101F2000A1F4DD24EE24FF24C601880F991FFC01D3
:101F3000E65FFC4F5182408219C040E0C501B40108
:101F40000E94F70E8111EACFB5CFE894C7F8DD24DF
:101F5000EE24FF24C601880F991F880F991FFC01EA
:101F6000E65FFC4F40825182628273828091D5028B
:101F700081608093D5028A89823080F08D819E8134
:101F8000AF81B885880E991EAA1EBB1E8092D6020C
:101F90009092D702A092D802B092D90281E0DF914C
:101FA000CF911F910F91FF90EF90DF90CF90BF9056
:101FB000AF909F908F907F906F905F904F9008951B
:101FC0008F929F92AF92BF92CF92DF92EF92FF9249
:101FD0000F931F93CF93DF93FC0181859285A38597
:101FE000B4850196A11DB11D84179507A607B707F3
:101FF00010F480E05CC083899489A589B689C7897B
:10200000C03129F4852E962EA72EBB2409C04A0183
:102010005B01C7E0B694A79497948794CA95D1F7CB
:10202000E9016A017B018F01BC01CD01680D791DB9
:102030008A1D9B1D8090000190900101A0900201DB
:10204000B0900301681579058A059B0599F4F8019C
:1020500087898031A9F4B701A6015527662777271C
:10206000440F551FFA01E65FFC4F80819181A0E08B
:10207000B0E018C040E00E94F70E8111E8CFB9CF60
:10208000B701A6014F77552766277727440F551FBD
:10209000440F551FFA01E65FFC4F80819181A281B8
:1020A000B381BF7088839983AA83BB8381E0DF916A
:1020B000CF911F910F91FF90EF90DF90CF90BF9045
:1020C000AF909F908F9008954F925F926F927F9202
:1020D000AF92BF92CF92DF92EF92FF920F931F9336
:1020E000CF93DF9300D000D0CDB7DEB78C0149830A
:1020F0005A836B837C835901C12CD12C7601412CEE
:1021000082E0582E612C712C49815A816B817C812F
:102110009E012F5F3F4FC8010E94E00F882351F1BD
:10212000D301C201F801058404C0880F991FAA1FBA
:10213000BB1F0A94D2F7C80ED91EEA1EFB1E4981A6
:102140005A816B817C818789803129F088EF9FEFEC
:10215000AFEFBFE004C088EF9FEFA0E0B0E048170A
:1021600059076A077B0780F2F501C082D182E282BB
:10217000F38281E00F900F900F900F90DF91CF913D
:102180001F910F91FF90EF90DF90CF90BF90AF9095
:102190007F906F905F904F9008954F925F926F92F3
:1021A0007F92AF92BF92CF92DF92EF92FF920F9306
:1021B0001F93CF93DF93CDB7DEB72B970FB6F8946D
:1021C000DEBF0FBECDBF7C01CE0101966C01FC01CC
:1021D00090E28BE08C0D91938E13FDCFDA0130E00D
:1021E00047E09D91992339F19E3219F0E8E6F0E03D
:1021F0000AC04A3009F472C138E04AE0F2CF3196A1
:10220000891709F46BC184918111F9CF431708F440
:1022100065C18FED890F8E3508F060C181E0830FB5
:10222000F601E30FF11D3FE9390F3A3108F49052FE
:102230009083382FD6CF8981803209F44FC1B22ED6
:102240008B01DB015B968D919C915C97F701948FDC
:10225000838F16961D921D921D921C921997FB0159
:102260001286138614861586712CF8018285938553
:10227000A485B5854389548965897689841795072E
:10228000A607B70708F061C025E0B695A795979512
:1022900087952A95D1F7F82FFF706F2ED8011596E4
:1022A0008C91823008F41AC1C8010E94F50897FD8C
:1022B00015C1F80182859385A485B5854F96A11D2A
:1022C000B11D82879387A487B587F0E26F9EC00116
:1022D0001124BC01665F7C4F6115710509F4FEC0D5
:1022E000DB012C91222319F0253EC1F427C0711087
:1022F0000EC0F701628A4091000150910101609186
:1023000002017091030146875787608B718BFC0136
:10231000E65FFC4F8081811113C015C04BE050E097
:10232000C6010E940422892B09F09FCF8B2D807358
:10233000803309F4D3C04B2D662DCCC07720C9F271
:102340007724739492CF772473948B2D827182318A
:1023500009F0C4C07720D1F0D7011E966D917D9110
:102360008D919C91519741E00E94F70E882309F4CA
:10237000B5C0F7016289F0E26F9FB0011124665F7A
:102380007C4F6115710509F079C0A8C0D801159678
:102390008C91823009F4A2C0C8010E94A205882352
:1023A00009F49CC0D8015B96ED91FC915C97169660
:1023B0004D905D906D907C901997B2E04B1A51084A
:1023C00061087108058404C0440C551C661C771C08
:1023D0000A94D2F786859785A089B189480E591E3F
:1023E0006A1E7B1EA480E1E04E1A51086108710844
:1023F000AA2009F10E94EB0C882309F46FC0EAE0DF
:10240000F3E0119225E0EA30F207D9F7D301C201D7
:102410008A0D911DA11DB11D8093000190930101B2
:10242000A0930201B09303018091D5028160809353
:10243000D502AA94DDCFD8015B96ED91FC915C9713
:1024400080E092E0A0E0B0E0058404C0880F991F0E
:10245000AA1FBB1F0A94D2F7F801438954896589E2
:102460007689840F951FA61FB71F838B948BA58B2E
:10247000B68BD70152961C926AE073E080E2FB01B2
:1024800011928A95E9F78BE0F601DB0101900D923C
:102490008A95E1F781E298E2DB0151969C938E9355
:1024A000509720E038E01F963C932E931E9753964A
:1024B0009C938E93529759969C938E9358975796C8
:1024C0003C932E9356970E94EB0C882339F04B2DAA
:1024D000F7016289C7010E948E0401C080E02B963B
:1024E0000FB6F894DEBF0FBECDBFDF91CF911F9125
:1024F0000F91FF90EF90DF90CF90BF90AF907F90C3
:102500006F905F904F900895CF93DF93EC018D8192
:102510008823A1F18C8187FF2DC06E857F858889F6
:10252000998941E00E94F70E882341F1EA8980E20F
:10253000E89FF0011124DF01A65FBC4F1097F1F076
:102540008D81823050F44B895C896D897E895C96DF
:102550004D935D936D937C935F978F89988DA98D33
:10256000BA8DE65FFC4F938F828FB58BA48B8C81E5
:102570008F778C83DF91CF910C94EB0C80E0DF910F
:10258000CF9108952F923F924F925F926F927F92D8
:102590008F929F92AF92BF92CF92DF92EF92FF9273
:1025A0000F931F93CF93DF9300D000D0CDB7DEB74A
:1025B0008C015B011A01DC0115968C911597813015
:1025C000C9F414968C9181FF15C082FF1BC0F801DD
:1025D000438954896589768982859385A485B585E3
:1025E00084179507A607B70769F0C8010E94F8038A
:1025F000811108C081E090E0F8019383828380E03C
:1026000090E039C1610183C0D8015B968D919C91A6
:102610005C97FC01248121502A013B0139E076942A
:102620006794579447943A95D1F7722E74207A01A3
:10263000F1E0FF22772009F476C080E092E08E1965
:102640009F0946018C159D0508F44C01D8015B9645
:102650002D913C915C9716968D919D910D90BC911A
:10266000A02D0297A109B109F901058404C0880FC2
:10267000991FAA1FBB1F0A94D2F746855785608908
:102680007189840F951FA61FB71F9C01AD01270DEF
:10269000311D411D511D29013A01811432E093067B
:1026A00009F088C08091000190910101A091020180
:1026B000B091030184159505A605B70559F48FEF70
:1026C0009FEFDC018093000190930101A093020130
:1026D000B09303019501B301A20180910A05909185
:1026E0000B050E940408882309F484CF9EEFB91AD1
:1026F000C818D908F80182859385A485B585880D09
:10270000991DA11DB11D82879387A487B587D80124
:102710001A964D915D916D917C911D97C114D104D4
:1027200009F072CF87C0E114F10409F086CF169644
:102730004D915D916D917C91199741155105610500
:10274000710559F457968D919D910D90BC91A02DD6
:102750000097A105B10541F521C09E012F5F3F4FB4
:102760000E94E00F882309F44BCF89819A81AB81C5
:10277000BC81F801238D348DF9012789203129F09E
:1027800048EF5FEF6FEF7FE004C048EF5FEF60E07E
:1027900070E084179507A607B70730F0C8010E94BC
:1027A000A20581114ACF26CFF80186839783A0879F
:1027B000B18743CFE114F10429F5D8011A964D9160
:1027C0005D916D917C911D9753968D919D910D908A
:1027D000BC91A02D481759076A077B0798F00E9403
:1027E000EB0C882309F406CF4092000150920101BE
:1027F00060920201709203018091D5028160809302
:10280000D50208C041E0C301B2010E94F70E88233F
:1028100009F4F0CED501F701E65FFC4FCF01880D3A
:10282000991DE817F90719F02D912193FACFA80CFB
:10283000B91C5ECF53968D919D910D90BC91A02DAA
:1028400084179507A607B70740F4F801438B548B0C
:10285000658B768B848180688483D80114968C91F3
:1028600083FD02C0C10107C0C8010E9484128823F1
:1028700009F4C0CEF7CF0F900F900F900F90DF911B
:10288000CF911F910F91FF90EF90DF90CF90BF906D
:10289000AF909F908F907F906F905F904F903F9000
:1028A0002F900895CF93DF931F92CDB7DEB7698342
:1028B00041E050E0BE016F5F7F4F0E94C2120F9057
:1028C000DF91CF91089589E595E00E94FB0B21E00F
:1028D000892B09F420E0822F0895CF92DF92EF92A6
:1028E000FF920F931F93CF93DF936C017A018B01BB
:1028F000C0E0D0E0CE15DF0589F0D8016D918D01E3
:10290000D601ED91FC910190F081E02DC601099571
:10291000892B11F47E0102C02196ECCFC701DF9113
:10292000CF911F910F91FF90EF90DF90CF9008957E
:102930006115710579F0FB0101900020E9F73197ED
:10294000AF01461B570BDC01ED91FC910280F38136
:10295000E02D099480E090E008954F925F926F928D
:102960007F928F929F92AF92BF92CF92DF92EF921F
:10297000FF920F931F93CF93DF938C01C0907B0640
:10298000D0907C06E0907D06F0907E060E944D0E71
:102990006C157D058E059F0540F410927B06109204
:1029A0007C0610927D0610927E0620917906309169
:1029B0007A062115310519F40E94AE1AB1C0809132
:1029C0007B0690917C06A0917D06B0917E060097D3
:1029D000A105B10589F36C017D01C20ED31EE11C76
:1029E000F11C0E944D0E6C157D058E059F0520F78C
:1029F0000E944D0EC0907B06D0907C06E0907D0634
:102A0000F0907E066C197D098E099F0928EE33E04F
:102A100040E050E00E949620C0917006D09171066F
:102A2000C23009F0A2C18D2F90E083709927892BC5
:102A300009F495C17CE1F72E80916C0629013A01D9
:102A4000480E511C611C711CC301B2012CE3822E83
:102A5000912CA12CB12CA50194010E949620609389
:102A6000590680916D0629013A01480E511C611CDE
:102A7000711CC301B201A50194010E9496206093CC
:102A80005A0680916E0659016A01A80EB11CC11C3C
:102A9000D11CC601B50128E130E040E050E00E94C1
:102AA000962060935C0680917206820F873008F052
:102AB00059C180935F0680916F0629013A01480E43
:102AC000511C611C711CC301B2014F2D50E09A01D1
:102AD0002F5F3F4F032E000C440B550B0E94962096
:102AE000620F60935E06CA01B9016C0F711D811DF2
:102AF000911D2DE030E040E050E00E949620620FF2
:102B000060936006CA01B9016D0F711D811D911D91
:102B100024E630E040E050E00E9496206093610699
:102B200020915C06822F6CE00E947620911101C0FA
:102B30009CE090935B0691E02C3008F490E0909339
:102B40005D06F80101900020E9F731979F01201BF5
:102B5000310BC1E0C20FA0916606B091670690E00C
:102B6000492F50E04217530738F5FD01019000202E
:102B7000E9F731977F01EA1AFB0A80E0400F511F05
:102B8000682F70E06E157F05A8F46A0F7B1FFA01AD
:102B9000D081FB016081D6130BC0882349F08A30B5
:102BA00010F4CF5F05C08C3010F4CE5F01C0CD5F54
:102BB0008F5FE6CF9F5FD4CF8091640690916506CA
:102BC0000E9467218C2F90E00E94D220909365068E
:102BD00080936406C0E0D0E08D2F90E0F801019072
:102BE0000020E9F73197E01BF10B8E179F0708F0E3
:102BF0009AC0F801E80FF91F9081E0916606F09104
:102C000067068081981308C027E04C2F60E0809110
:102C10005F060E945F1984C08181981307C080916C
:102C20005D0628E04C2F62E0880F0AC0828198136D
:102C30000BC080915D06880F28E04C2F62E08C5F0E
:102C40000E945F19CE5F6DC08381981306C024E097
:102C50004C2F61E080915E06F3CF8481981306C00B
:102C600023E04C2F61E080915B06EACF85819813C9
:102C700006C023E04C2F61E080915C06E1CF8681A5
:102C8000981306C022E04C2F61E080915A06D8CFFD
:102C90008781981306C025E04C2F61E08091600683
:102CA000CFCF8085981306C021E04C2F61E0809142
:102CB0005906C6CF8185981306C026E04C2F61E0E7
:102CC00080916106BDCF8285981308C0809160060F
:102CD00090E00696982F990F25E008C083859813F9
:102CE0000CC080915F06982F990F27E04C2F63E06E
:102CF000890F0E945F19CD5F14C08485981309C0A5
:102D000026E04C2F64E0809161060E945F19CC5F41
:102D100008C0E0916406F0916506EC0FF11D908308
:102D2000CF5FDF5F59CFE0916406F0916506EC0F4D
:102D3000F11D10828091640690916506DF91CF911C
:102D40001F910F91FF90EF90DF90CF90BF90AF90C9
:102D50009F908F907F906F905F904F9008956DE15E
:102D6000F62E6ACE10925F06A6CE8C2F90E061E020
:102D700070E0C83010F460E070E0860F971F81703B
:102D800099279EE1F92EF80E57CE40E061E08DE4E0
:102D900096E00E94D00E8BE39FE10197F1F7089532
:102DA0008F929F92AF92BF92CF92DF92EF92FF925B
:102DB000CF93DF93C82F88EF95E090930B05809316
:102DC0000A05CC2369F1C53010F080E00DC140E068
:102DD00060E070E0CB010E94F70E8823B1F320E1A0
:102DE000C29FC001112486509D4FFC01E254FE4F4A
:102DF00020812F7751F73C96408151816281738108
:102E0000443651056105710500F33497C080D180C7
:102E1000E280F380C114D104E104F10421F4D5CFA0
:102E2000C12CD12C760140E0C701B6010E94F70EFB
:102E3000882359F2809115039091160381159240D1
:102E400021F6A0911A03AA2309F4BFCF60911803B9
:102E5000709119036115710509F4B7CF209117031B
:102E6000222309F4B2CFA09316062093080680E02F
:102E700030E0E1E0F0E0C82FAF01082E02C0440FBF
:102E8000551F0A94E2F72417350741F0982F8F5FFA
:102E9000983089F789E08093110697CF80931106C7
:102EA00020912003309121032115310519F040E0D4
:102EB00050E008C020912E0330912F034091300341
:102EC000509131032093090630930A0640930B0674
:102ED00050930C0646015701860E971EA11CB11C8B
:102EE0008092170690921806A0921906B0921A06C0
:102EF000E0911B03F0911C03F0931D06E0931C0668
:102F0000B0E00E945C20860E971EA81EB91E80921B
:102F10001E0690921F06A0922006B092210685E020
:102F2000EE0FFF1F8A95E1F7E150FE4FEF2FFF27CD
:102F3000E6958E0E9F1EA11CB11C809212069092E7
:102F40001306A0921406B092150620911D0330912D
:102F50001E032115310521F0A90160E070E008C0D1
:102F600040912A0350912B0360912C0370912D0303
:102F7000D701C60188199909AA09BB09840F951FB1
:102F8000A61FB71F04C0B695A79597958795CA95B4
:102F9000D2F780930D0690930E06A0930F06B09380
:102FA0001006853F2FE09207A105B10510F48CE0D3
:102FB00018C0853F9F4FA105B10510F480E111C0F5
:102FC0008091360390913703A0913803B091390373
:102FD00080931E0690931F06A0932006B0932106AF
:102FE00080E280931B0681E0DF91CF91FF90EF900C
:102FF000DF90CF90BF90AF909F908F9008954F92A9
:103000005F926F927F928F929F92AF92BF92CF9278
:10301000DF92EF92FF920F931F93CF93DF93CDB781
:10302000DEB7A1970FB6F894DEBF0FBECDBF8C01FF
:103030006B01770FEE08FF08F7FE2FC0DC01ED9162
:10304000FC910190F081E02D6DE209955C01222751
:103050003327A9012C193D094E095F0919A2FE0168
:10306000B1967F019AE0492E512C612C712CCA0136
:10307000B901A30192010E949620605DD7016E9371
:103080007D01211531054105510589F7BD01C801B3
:103090000E9498148A0D9B1D1EC0A701960119A2BB
:1030A000FE01B1967F018AE0882E912CA12CB12CD3
:1030B000CA01B901A50194010E949620605DD70163
:1030C0006E937D01211531054105510589F7BD013B
:1030D000C8010E949814A1960FB6F894DEBF0FBEE7
:1030E000CDBFDF91CF911F910F91FF90EF90DF90B7
:1030F000CF90BF90AF909F908F907F906F905F9098
:103100004F900895909154059111FCCF91E09093C8
:103110005405909353052FEF20932F0510922E0501
:10312000260F20932D0590930C0590910C05880F88
:10313000892B80930C0580915205813061F41092A7
:10314000520580910C058093BB008091BC0083FDEB
:10315000F8CF85EC01C085EE8093BC0080915405CA
:103160008130E1F380912E05861710F460912E05D1
:10317000ADE0B5E02AEE32E0F9018E2F821B861712
:1031800018F48D918193F9CF862F08950F931F9393
:10319000CF93DF93EC010E9498148C0168E372E0F6
:1031A000CE010E949814800F911FDF91CF911F9143
:1031B0000F9108950C949814109258051092570589
:1031C00010925605109255051092540581E0809397
:1031D00053051092520561E082E10E94A70D61E063
:1031E00083E10E94A70DE9EBF0E080818E7F808370
:1031F00080818D7F808388E48093B80085E480930C
:10320000BC000895382F2091550590915105213229
:1032100008F049C0809154058111FCCF42E04093F1
:103220005405309353053FEF30932F0510922E0530
:1032300020932D05A1E3B5E04DE055E0FA013E2FC6
:10324000341B321718F43D913193F9CF10920C05CD
:1032500020910C05990F922B90930C05909152059B
:10326000913061F41092520590910C059093BB003F
:103270009091BC0093FDF8CF95EC01C095EE909332
:10328000BC00909154059230E1F390912F059F3F3F
:1032900079F080912F05803241F080912F058033A5
:1032A00031F084E005C081E003C082E001C083E02A
:1032B0001092560510925505109230050895CF9240
:1032C000DF92EF92FF920F931F93CF93DF93C82F5C
:1032D000D62F042F11E080917306821310E00E9414
:1032E0004D0EC0907406D0907506E0907606F09072
:1032F0007706A70196010E949620F694E794D7944A
:10330000C7946C157D058E059F0508F442C0D23028
:1033100009F442C028F4DD2351F0D13011F115C178
:10332000D33009F467C0D43009F4B1C00EC1E091C4
:103330006406F0916506E00FF11D111105C0C7305C
:1033400008F0C6E0C05D01C0C0E2C083FEC0D3305B
:1033500008F04CC0DD2309F4EEC0D13009F0F5C00F
:1033600010E0C43608F0C3E6202F30E0E091640698
:10337000F0916506E20FF31F111106C08C2F6AE071
:103380000E947620805D01C080E280832F5F3F4FE6
:10339000C1C0D230E1F610E0C73008F0C6E0202FFF
:1033A00030E0E0916406F0916506E20FF31F111121
:1033B00008C0A0916806B0916906AC0FB11D8C9150
:1033C00001C080E280832F5F3F4FE0916406F0915F
:1033D0006506E20FF31F111153C0A0916806B0916A
:1033E0006906AC0FB11D11968C914BC0D33009F01A
:1033F0004AC010E0C73308F0C6E3E02FF0E0A09128
:103400006406B09165069D012E0F3F1F111109C082
:1034100080916A0690916B068C0F911DDC018C9156
:1034200001C080E2D9018C93A0916406B091650639
:10343000CF0101969D01280F391F11110AC08091FB
:103440006A0690916B068C0F911DDC0111968C9190
:1034500001C080E2D9018C939F012E5F3F4FE09124
:103460006406F0916506E20FF31F111109C0A091E7
:103470006A06B0916B06AC0FB11D12968C9101C01B
:1034800080E2808362C0D43009F05FC010E0C436AF
:1034900008F0C3E6202F30E0E0916406F091650665
:1034A000E20FF31F11110AC08091780690E0019796
:1034B0006AE070E00E948220605D01C060E260838B
:1034C000E0916406F0916506C9010196E80FF91FC5
:1034D00011110AC08091780690E001976AE070E0CF
:1034E0000E948220805D01C080E28083E0916406BA
:1034F000F0916506C9010296E80FF91F111106C087
:103500008C2F6AE00E947620805D01C080E280837B
:103510002D5F3F4FE0916406F0916506E20FF31FC7
:10352000111106C08C2F6AE00E947620905D01C0C8
:1035300090E290830AC0C73008F0C6E0E0916406CC
:10354000F0916506E00FF11DFDCEDF91CF911F9147
:103550000F91FF90EF90DF90CF900895CF93DF937E
:10356000C9E5D6E089859A85DC01ED91FC91028060
:10357000F381E02D60E00995982F969596959695A4
:103580009E71292F220F220F920F8F70890F8B8B24
:10359000888389859A85DC01ED91FC910280F38115
:1035A000E02D61E00995982F9695969596959E71D8
:1035B000292F220F220F920F8F70890F8C8B8983F6
:1035C00089859A85DC01ED91FC910280F381E02DE3
:1035D00062E00995982F9695969596959E71292F5C
:1035E000220F220F920F8F70890F8D8B8B8389850D
:1035F0009A85DC01ED91FC910280F381E02D63E07E
:103600000995982F9695969596959E71292F220F3C
:10361000220F920F8F70890F8E8B8D8389859A85EB
:10362000DC01ED91FC910280F381E02D64E00995CD
:10363000982F9695969596959E71292F220F220F79
:10364000920F8F70890F8F8B8F8389859A85DC010C
:10365000ED91FC910280F381E02D65E00995982FB2
:103660009695969596959E71292F220F220F920F6F
:103670008F70890F888F888789859A85DC01ED9105
:10368000FC910280F381E02D66E00995282F2F70D0
:1036900021508695869586958E71982F990F990F52
:1036A000890F820F898F8E830E944D0E6AA37BA3A0
:1036B0008CA39DA3DF91CF910895CF93DF93CDB7D6
:1036C000DEB7C257D1090FB6F894DEBF0FBECDBF2B
:1036D000789484B5826084BD84B5816084BD85B5ED
:1036E000826085BD85B5816085BD80916E008160F9
:1036F00080936E001092810080918100826080939F
:1037000081008091810081608093810080918000A0
:103710008160809380008091B10084608093B100CB
:103720008091B00081608093B00080917A008460C5
:1037300080937A0080917A00826080937A008091F1
:103740007A00816080937A0080917A00806880930B
:103750007A001092C1008091620690916306DC01AC
:10376000ED91FC910190F081E02D09958AE392E0C2
:103770000E94AD140E94DC1860E083E00E94D70D27
:1037800060E084E00E94D70DE0916905F0916A0540
:1037900082E08083E0916505F09166051082E091FA
:1037A0006705F09168058FEC808310927105E091B8
:1037B0006D05F0916E0586E08083E0916B05F091D8
:1037C0006C05808180618083E0916B05F0916C05D0
:1037D000808188608083E0916B05F0916C05808129
:1037E00080688083E0916B05F0916C0580818F7D0E
:1037F000808368EC71E089E595E00E94C61810921C
:103800000306109201061092FE051092FD058AE053
:103810008093FC050E944D0E8B0161E08091FC05B8
:103820000E94D70D61E08091FC050E94A70DFFB6B4
:10383000F8948091E302811127C0E8ECF0E08491D4
:10384000E4EBF0E09491E82FF0E0EE0FFF1FE0567C
:10385000FF4FA591B491EC91E92321F461E08AE056
:103860000E94A70D61E08AE00E94D70D8CB58061AF
:103870008CBD8CB580648CBD61E08DE00E94D70D5D
:1038800061E08BE00E94D70D8091E3028F5F80930F
:10389000E302FFBE82E58093F6051092F705809162
:1038A000F6059091F7050E94F5067AE0F72E8FEF66
:1038B0000E94B606FA94F110FACF88EF95E00E94C4
:1038C000F80620E030E0A90160E088EF95E00E9472
:1038D0000E07F82E8093020681E0F81649F00E9448
:1038E0004D0E601B710B613D774058F381E056C06F
:1038F0002AEA31E040E050E068E088EF95E00E947D
:103900000E0782FF03C0F092030610C064E0F62E9B
:103910000E94BD0680930206FA94F110F9CF8A3A0C
:1039200011F082E03BC082E08093030680910306A1
:10393000823021F0C12CD12C760105C0C12CD12CB4
:10394000E12C50E4F52E20E030E0A90167E388EF98
:1039500095E00E940E07A701960169E288EF95E0C5
:103960000E940E0780930206882349F00E944D0EA4
:10397000601B710B613D774030F388E00FC0809190
:103980000306823001F520E030E0A9016AE388EF08
:1039900095E00E940E07882341F086E08093FD05A4
:1039A00088EF95E00E94AB068FC00E94BD06807C28
:1039B000803C19F483E0809303060E94BD060E94B8
:1039C000BD060E94BD0688EF95E00E94AB0680E52B
:1039D0008093F6051092F70581E00E94D0168823A7
:1039E00029F080912706882341F06EC080E00E9474
:1039F000D016882309F468C0F4CF80911B0680316B
:103A000009F582E0809327061092390610923A0653
:103A100010923B0610923C0680911C0690911D0668
:103A2000A0E0B0E045E0880F991FAA1FBB1F4A9590
:103A3000D1F78093350690933606A0933706B0935E
:103A400038061EC0803209F03FC083E0809327060D
:103A500040911E0650911F0660912006709121062C
:103A60004093390650933A0660933B0670933C06A8
:103A700025E336E084E096E00E946410882321F17B
:103A800084E096E090933E0680933D0681E080932B
:103A90002606109228061092290610922A061092E5
:103AA0002B0610922C0610922D0610922E061092C4
:103AB0002F061092300610923106109232061092A4
:103AC0003306109234060CC065ED71E08FE796E086
:103AD0000E94C61865ED71E089E595E00E94C61860
:103AE0000E94DC181092520680915706823018F01E
:103AF00098E0909352068093550662E370E080E070
:103B000090E00E94130E609158068DE496E00E94AA
:103B1000A30E68EE73E080E090E00E94130E60E375
:103B20008DE496E00E94B70E0BE416E4C8010197FD
:103B3000F1F760E38DE496E00E94B70EC8010197AB
:103B4000F1F760E38DE496E00E94B70E83E592E022
:103B50000197F1F760E28DE496E00E94B70E609164
:103B60005206606240E08DE496E00E94D00E84E050
:103B70008093530640E06CE08DE496E00E94D00E06
:103B80000E94C51682E08093540640E066E08DE412
:103B900096E00E94D00E40E062E08DE496E00E9444
:103BA000D00E8BE39FE10197F1F71092580660E089
:103BB0008DE496E00E94A30E8CE3C82E81E0D82EFF
:103BC00098EE492E93E0592E612C712C2DE0822E17
:103BD000A8E5B0E0AC0FBD1F1C965D0138E0932E48
:103BE00062E276E0CE0101960E946F08BE016F5F2F
:103BF0007F4FCE01CB960E946F0819A218A2DF8ECC
:103C0000CE8E1BA221968FAD2197811112C06C968A
:103C10001FAE1EAE6C97A0964CAE5DAE6EAE7FAE84
:103C2000A097E3961FAE1EAEE397A5961FAEA5978D
:103C300035C0825023E147EE51E0823048F462E221
:103C400076E0CE014E960E94CD1081110EC0DFCFDE
:103C5000BE01655C7F4FCE014E960E94CD10882339
:103C6000B1F2CE01CB960E94960549A95AA96BA93B
:103C70007CA9CE014E960E94F803BE01625E7F4F82
:103C8000CE0101960E946F0847EE51E0BE016F5FC2
:103C90007F4FCE01885A9F4F0E94C0086C968EAD10
:103CA0009FAD6C979093820680938106A0968CAD11
:103CB0009DADAEADBFADA097809383069093840673
:103CC000A0938506B0938606A4968CAD9DADAEAD4F
:103CD000BFADA4978093870690938806A09389062A
:103CE000B0938A06F501ABE8B6E0882D01900D92FD
:103CF0008A95E1F7E3968EAD9FADE3979093990691
:103D00008093980683E00E947E0D9093E902809351
:103D1000E8020197B9F564EF71E089E595E00E944A
:103D2000C61882E092E00E94AD14BC018FE796E0D5
:103D30000E94DA1864EF71E08FE796E00E94C618DF
:103D400064EF71E080E090E00E94130E90925806BC
:103D500060E08DE496E00E94A30E6EE072E08DE4D8
:103D600096E00E94DA1868EB7BE080E090E00E9429
:103D7000130E0E94C5161092580660E08DE496E07E
:103D80000E94A30E84E00E947E0D9093E702809330
:103D9000E6020197B9F500E010E0C8010E94610B4E
:103DA0007C01BC0189E595E00E94FF176EE172E09D
:103DB00089E595E00E94DA189092580660E08DE45B
:103DC00096E00E94A30EB7018DE496E00E94FF17D3
:103DD0006EE172E08DE496E00E94DA180F5F1F4FEB
:103DE00003301105D1F668EB7BE080E090E00E94A3
:103DF000130E0E94C5161092580660E08DE496E0FE
:103E00000E94A30E86E392E00E94AD14BC0189E5F6
:103E100095E00E94C61864EF71E080E090E00E9497
:103E2000130E8AE392E00E94AD1480915A06282F67
:103E300030E03093E5022093E4028D7F813109F078
:103E400055C080910401909105012817390709F4A4
:103E50004DC063E272E089E595E00E94C61882E0F9
:103E600092E00E94AD14BC018FE796E00E94DA1840
:103E700060E072E08FE796E00E94DA188BE292E051
:103E80000E94AD14BC0189E595E00E94C61800E0CF
:103E900010E0C8010E94610B7C01BC0189E595E03E
:103EA0000E94FF1760E072E089E595E00E94DA1851
:103EB000B7018FE796E00E94FF1760E072E08FE79E
:103EC00096E00E94DA180F5F1F4F0330110509F7C3
:103ED00060E072E08FE796E00E94C6188091E402ED
:103EE0009091E502909305018093040180919806DA
:103EF00090919906009761F00E949605809198062E
:103F0000909199060E946721109299061092980646
:103F10000E94910C65CECF92DF92EF92FF92CF93E9
:103F2000DF93E9E5F5E01382128288EEC82E83E084
:103F3000D82EE12CF12CC482D582E682F7828AE267
:103F400091E09183808385EC90E09587848784EC71
:103F500090E09787868780EC90E0918B808B81EC56
:103F600090E0938B828B82EC90E0958B848B86EC37
:103F700090E0978B868B118E128E138E148EE6EF47
:103F8000F5E080E580831182E8EFF5E01582168286
:103F90001186138682E090E0A0E0B0E084879587E8
:103FA000A687B78713A215A614A68CE391E093A762
:103FB00082A717A6E1E4F6E013821282C482D582BA
:103FC000E682F78288E491E091838083EFE7F6E070
:103FD00013821282C482D582E682F7828CE991E054
:103FE00091838083128E118E1486C9E5D6E01882E3
:103FF000198281E08A831B821C828D831E828F83BB
:10400000188681E090E00E94D2209C878B878BE30A
:1040100092E09E878D8789E492E0988B8F8782E576
:1040200092E09A8B898B1A8ECB8EDC8EED8EFE8E73
:1040300085E18F8F19A218A21AA21BA21CA21DA291
:1040400086E290E00E94D22022E931E0FC01318337
:10405000208326E631E0338322832FEF24832583D8
:1040600028E6268B27E0E8E1F1E0DC015796019095
:104070000D922A95E1F727E0EFE1F1E0DC015E9691
:1040800001900D922A95E1F79A878987EDE4F6E091
:10409000138212828AE591E0918380838FE3848387
:1040A00080E1818782E082871386DF91CF91FF9044
:1040B000EF90DF90CF9008950E946720A59F900D0C
:1040C000B49F900DA49F800D911D11240895A29F6F
:1040D000B001B39FC001A39F700D811D1124911DDC
:1040E000B29F700D811D1124911D0895991B79E0D7
:1040F00004C0991F961708F0961B881F7A95C9F778
:104100008095089597FB072E16F4009407D077FD4D
:1041100009D00E94B82007FC05D03EF49095819507
:104120009F4F0895709561957F4F0895A1E21A2ED3
:10413000AA1BBB1BFD010DC0AA1FBB1FEE1FFF1F4B
:10414000A217B307E407F50720F0A21BB30BE40B9B
:10415000F50B661F771F881F991F1A9469F76095E2
:104160007095809590959B01AC01BD01CF0108959C
:10417000AA1BBB1B51E107C0AA1FBB1FA617B7078D
:1041800010F0A61BB70B881F991F5A95A9F78095A9
:104190009095BC01CD010895EE0FFF1F0590F4919D
:1041A000E02D0994CF93DF938230910510F482E0E3
:1041B00090E0E0919C06F0919D0620E030E0C0E0A8
:1041C000D0E0309711F14081518148175907C0F074
:1041D0004817590761F482819381209719F09B83D6
:1041E0008A832BC090939D0680939C0626C0211540
:1041F000310519F04217530718F49A01BE01DF0187
:10420000EF010280F381E02DDCCF2115310509F1AA
:10421000281B390B2430310590F412968D919C9116
:1042200013976115710521F0FB019383828304C00C
:1042300090939D0680939C06FD01329644C0FD013B
:10424000E20FF31F81939193225031092D933C93F8
:104250003AC020919A0630919B06232B41F420917D
:1042600008013091090130939B0620939A06209112
:104270000601309107012115310541F42DB73EB7F4
:1042800040910A0150910B01241B350BE0919A06D5
:10429000F0919B06E217F307A0F42E1B3F0B2817A3
:1042A000390778F0AC014E5F5F4F2417350748F0AF
:1042B0004E0F5F1F50939B0640939A0681939193F4
:1042C00002C0E0E0F0E0CF01DF91CF9108950F93BD
:1042D0001F93CF93DF93009709F48CC0FC013297B2
:1042E0001382128200919C0610919D060115110502
:1042F00081F420813181820F931F20919A063091A1
:104300009B062817390779F5F0939B06E0939A06E8
:1043100071C0D80140E050E0AE17BF0750F41296CC
:104320002D913C911397AD012115310509F1D9016A
:10433000F3CF9D01DA013383228360817181860F7F
:10434000971F8217930769F4EC0128813981260FA2
:10435000371F2E5F3F4F318320838A819B81938358
:104360008283452B29F4F0939D06E0939C0642C07E
:104370001396FC93EE931297ED01499159919E018A
:10438000240F351FE217F30771F480819181840FA8
:10439000951F029611969C938E938281938113961A
:1043A0009C938E931297E0E0F0E0D80112968D91E5
:1043B0009C911397009719F0F8018C01F6CF8D911D
:1043C0009C9198012E5F3F4F820F931F20919A0678
:1043D00030919B062817390769F4309729F4109219
:1043E0009D0610929C0602C01382128210939B06B7
:1043F00000939A06DF91CF911F910F91089581E06C
:1044000090E0F8940C942022FB01DC0104C08D9113
:104410000190801921F441505040C8F7881B990B36
:104420000895FB01DC014150504048F001900D928D
:104430000020C9F701C01D9241505040E0F7089597
:04444000F894FFCF1E
:10444400FFFFFFFF030000009E068000050006003A
:104454000700020001000000000102040506037FBA
:104464007F3F3F1FFF0700000000280C6D14CA0B9C
:104474006F0CFB0BD90BED0B0000000052146D14F4
:104484008901880100000000590129018901FD000A
:1044940021010D01FE0000000000F10E6D148901E0
:1044A4008801000000009403550205023F02F00158
:1044B400FD02D9024C03C002EE01B002EC01EA0194
:1044C400E901E701E501E301B4019A018C0100006F
:1044D4000000AF0391021C0200000000B500750249
:1044E40089016D029400FF09090A00000000E90C2B
:1044F4006D1489018801E90CE90CE90C0000000045
:10450400E90C6D14890188016F70656E206D792046
:10451400706F72740053442D63617264206E6F7403
:1045240020666F756E64006961726475696E6F2EC2
:10453400747874003B3B3B205761746572696E6705
:104544003B00642D6D2D593B483A693A7300202D88
:104554002D205761746572696E67202D2D00253BEF
:104564002020006F6B2074696D6500642D6D2D59DA
:104574003B20483A693A73000D0A00776141646848
:1045840048696D73794D445900616D706D414D50AA
:104594004D0053756E4D6F6E547565576564546860
:1045A400754672695361744A616E4665624D617203
:1045B4004170724D61794A756E4A756C41756753E5
:0C45C40065704F63744E6F7644656300B1
:107E0000112484B714BE81FFF0D085E080938100F7
:107E100082E08093C00088E18093C10086E0809377
:107E2000C20080E18093C4008EE0C9D0259A86E02C
:107E300020E33CEF91E0309385002093840096BBD3
:107E4000B09BFECF1D9AA8958150A9F7CC24DD24C4
:107E500088248394B5E0AB2EA1E19A2EF3E0BF2EE7
:107E6000A2D0813461F49FD0082FAFD0023811F036
:107E7000013811F484E001C083E08DD089C08234E0
:107E800011F484E103C0853419F485E0A6D080C0E4
:107E9000853579F488D0E82EFF2485D0082F10E0AE
:107EA000102F00270E291F29000F111F8ED06801E7
:107EB0006FC0863521F484E090D080E0DECF843638
:107EC00009F040C070D06FD0082F6DD080E0C81688
:107ED00080E7D80618F4F601B7BEE895C0E0D1E017
:107EE00062D089930C17E1F7F0E0CF16F0E7DF06D8
:107EF00018F0F601B7BEE89568D007B600FCFDCFD4
:107F0000A601A0E0B1E02C9130E011968C91119780
:107F100090E0982F8827822B932B1296FA010C0160
:107F200087BEE89511244E5F5F4FF1E0A038BF0790
:107F300051F7F601A7BEE89507B600FCFDCF97BE46
:107F4000E89526C08437B1F42ED02DD0F82E2BD052
:107F50003CD0F601EF2C8F010F5F1F4F84911BD097
:107F6000EA94F801C1F70894C11CD11CFA94CF0C13
:107F7000D11C0EC0853739F428D08EE10CD085E9AC
:107F80000AD08FE07ACF813511F488E018D01DD067
:107F900080E101D065CF982F8091C00085FFFCCF94
:107FA0009093C60008958091C00087FFFCCF809118
:107FB000C00084FD01C0A8958091C6000895E0E648
:107FC000F0E098E1908380830895EDDF803219F02E
:107FD00088E0F5DFFFCF84E1DECF1F93182FE3DFCA
:107FE0001150E9F7F2DF1F91089580E0E8DFEE27F6
:047FF000FF270994CA
:027FFE00040479
:0400000300007E007B
:00000001FF