:100000000C946A000C9492000C9492000C94920050
:100010000C9492000C9492000C9492000C94920018
:100020000C9492000C9492000C9492000C94920008
:100030000C9492000C9492000C9492000C949200F8
:100040000C94630E0C9492000C94560D0C94300D8D
:100050000C9492000C9492000C9492000C949200D8
:100060000C94330A0C9492007C3C3E5E2B3D3F2F57
:100070005B5D3B2C2A225C0000000000250028006C
:100080002B000000000023002600290000000008CB
:10009000000201000003040700000000000000004F
:1000A00000000000240027002A000102040810209C
:1000B00040800102040810200102040810200404FA
:1000C0000404040404040202020202020303030300
:1000D0000303061F11241FBECFEFD8E0DEBFCDBF44
:1000E00026E0AAE6B2E001C01D92AC37B207E1F704
:1000F00012E0A0E0B1E0EAE3F3E402C005900D9263
:10010000AA36B107D9F710E0CAE6D0E004C02197BB
:10011000FE010E944720C936D107C9F70E945A1B29
:100120000C949B210C940000DC015996ED91FC91FC
:100130005A973097B9F083899489A589B689428501
:10014000538564857585841B950BA60BB70B8115AC
:1001500020E89207A105B10538F08FEF9FE7A0E0F6
:10016000B0E0089580E090E00895CF93DF931F9270
:10017000CDB7DEB76983DC01ED91FC910280F3819C
:10018000E02D41E050E0BE016F5F7F4F09950F9079
:10019000DF91CF91089585ED8093BC008091BC00E4
:1001A00084FDFCCF10921003089540918C02262FFD
:1001B00030E0240F311D21323105DCF42091100391
:1001C0002430C9F4FC0180E090E0861758F43091A7
:1001D0008C022191DC01A659BD4FA30FB11D2C93B8
:1001E0000196F3CF80918C02680F60938C0280E0BF
:1001F000089581E0089582E008950895E091140340
:1002000080911303E81730F4F0E0EA5AFB4F808145
:1002100090E008958FEF9FEF0895909114038091DF
:100220001303981750F4E92FF0E0EA5AFB4F2081AE
:1002300030E09F5F9093140302C02FEF3FEFC9019E
:1002400008958091130390E020911403821B91097B
:100250000895CF92DF92EF92FF920F931F93CF9367
:10026000DF937C01262F972F8A018091EC0288234F
:1002700091F0C62FD72F6E01C40ED51ECC15DD050B
:1002800071F06991D701ED91FC910190F081E02D21
:10029000C7010995F3CF642F822F0E94D500C801B2
:1002A000DF91CF911F910F91FF90EF90DF90CF9052
:1002B0000895CF93DF931F92CDB7DEB76983209166
:1002C000EC022223D1F020911103203240F021E0F2
:1002D00030E0FC013383228380E090E015C0809100
:1002E0001203E82FF0E0E351FD4F998190838F5F77
:1002F000809312038093110305C061E0CE01019643
:100300000E94D50081E090E00F90DF91CF91089599
:10031000089580E090E00895DC011C96ED91FC9139
:100320001D97208116968C91922F982381E009F4D5
:1003300080E00895FC01A085B18586819C916111C2
:1003400009C0892B8C93A089B1899C918681809565
:10035000892308C0809589238C93A089B1899C91B9
:100360008681892B8C930895FC01A285B3858781B2
:100370009C9161110CC0892B8C93A289B3899C91AB
:100380008781809589238C9320E63AEE17C080956B
:1003900089238C93A289B3899C918781892B8C9323
:1003A000A685B785978120E63AEE8C91892331F4B2
:1003B0002115310519F021503109F7CF81E0232BA8
:1003C00009F480E0089580E0089580E0089580E0D9
:1003D0000895089580E0089580E0089584E00895E8
:1003E000CF93DF931F92CDB7DEB74983DC01ED9148
:1003F000FC910088F189E02D21E0AE014F5F5F4F55
:1004000009950F90DF91CF9108950F93CF93DF93CC
:100410001F92CDB7DEB72983DC01ED91FC910484F6
:10042000F585E02D01E09E012F5F3F4F09950F906C
:10043000DF91CF910F9108950F931F93CF93DF9387
:10044000EC01062F142FE881F9810280F381E02D61
:1004500009958DA3FE01E00FF11D968D292F2095A2
:100460002823122B982B212F292347896E89CE010F
:100470000296DF91CF911F910F910C940502CF93BB
:10048000DF931F92CDB7DEB71982DC01ED91FC91AD
:100490000684F785E02D21E0AE014F5F5F4F09959F
:1004A00089810F90DF91CF9108950F93CF93DF93C0
:1004B0001F92CDB7DEB71982DC01ED91FC91028469
:1004C000F385E02D01E09E012F5F3F4F0995898163
:1004D0000F90DF91CF910F910895FC01818D928D46
:1004E000009711F00C948E120895CF93DF93EC01D6
:1004F000898D9A8D009739F481E090E09B838A83FF
:1005000080E090E00BC0FC01138212820E94CC12AA
:10051000E98DFA8D22813381232B71F7DF91CF9101
:1005200008950F931F93CF93DF93EC01162F61E093
:1005300070E080E090E00E941D0ECE01810F911DC1
:100540008C01FC0147896E89CE0102960E945502FA
:10055000F801968D8923DF91CF911F910F91089516
:1005600081E08093EC0260930D03109212031092CD
:1005700011030E94931491E0811190E0892F089556
:10058000CA0131E03093EC0260930D031092120324
:1005900010921103422F50E0BC018DEF93E00E94B6
:1005A000290181E00E94931491E0811190E0892F4C
:1005B00008950F93CF93DF93E90181E08093EC02DC
:1005C00060930D031092120310921103642F8DEFAC
:1005D00093E00E945901402F50E0BE018DEF93E05F
:1005E0000E94290181E00E94931491E0811190E022
:1005F000892FDF91CF910F910895EF92FF920F9382
:100600001F93CF93DF93C62F122FE32E81E08093A9
:10061000EC0260930D031092120310921103642FE9
:100620008DEF93E00E94590180E00E949314602FA7
:10063000013208F060E28C2F0E946B1A10921403B2
:1006400080931303882301F1F12EC12FDE2D1C2F7F
:100650001F199091130380911403981741F01017FC
:1006600030F48DEF93E00E940D018993F0CF9091CB
:10067000130380911403981729F08DEF93E00E94E3
:100680000D01F5CF81E0101380E0DF91CF911F9134
:100690000F91FF90EF900895CF92DF92FF920F930A
:1006A0001F93CF93DF9300D0CDB7DEB7862F122FE5
:1006B000622F213208F060E249835A830E946B1A4C
:1006C000109214038093130349815A81882309F1FE
:1006D000F42E6A010C2D0F199091130380911403CD
:1006E000981751F0011740F48DEF93E00E940D012F
:1006F000F60181936F01EECF909113038091140363
:10070000981729F08DEF93E00E940D01F5CF81E05D
:10071000011380E00F900F90DF91CF911F910F9107
:10072000FF90DF90CF900895A8EEB3E09A01AB015F
:100730000E94D71F9B01AC0160E074E284EF90E05F
:100740000E941120DA01C9014097A109B109B695AB
:10075000A795979587958093B8000C946D140F9387
:100760001F93CF93DF93EC018C010E5F1F4F44E684
:1007700050E060E070E0C8010E94940342E06E899E
:10078000C8010E9455028DA386FF07C0282F2F7B2A
:1007900042E06E89C8010E9405024EE06E89C801E0
:1007A0000E9455028DA3982F9F7D39F0282F20722B
:1007B0004EE06E89C8010E9405024FE06E89C801B3
:1007C0000E945502282F8DA3837811F423FD0BC0BE
:1007D000247728604FE06E89C801DF91CF911F9187
:1007E0000F910C940502DF91CF911F910F91089505
:1007F0008F929F92AF92BF92CF92DF92EF92FF9231
:100800000F931F93CF93DF93EC018D81811102C071
:1008100080E077C00B891C892D893E890417150754
:1008200026073707A8F36A017B01823029F4CA86BC
:10083000DB86EC86FD860DC0C114D104E104F10411
:1008400051F41E821F82188619861A861B861C8602
:100850001D8681E056C08A849B84AC84BD84EB8D68
:10086000FC8D258530E0275F3F4FB501A401415045
:10087000510961097109022E04C076956795579553
:1008800047950A94D2F7D701C6010197A109B1098A
:1008900004C0B695A795979587952A95D2F78417A2
:1008A0009507A607B70720F089288A288B2849F4DE
:1008B0004F89588D698D7A8D4E835F8368877987DC
:1008C00004C0841B950BA60BB70B4C015D018E0178
:1008D0000A5F1F4F81149104A104B10409F4A7CF4A
:1008E0004E815F816885798598018B8D9C8D0E94F2
:1008F000EA0F91E0891A9108A108B1088111EACFA5
:1009000087CFDF91CF911F910F91FF90EF90DF90F4
:10091000CF90BF90AF909F908F9008958F929F92AD
:10092000AF92BF92CF92DF92EF92FF920F931F93FD
:10093000CF93DF9300D000D0CDB7DEB77C0180E24B
:10094000689F6001112496012A583B4FD9011B96DC
:100950009C91917121F0842F827409F097C0142F1B
:10096000F701628B8091000190910101A091020139
:10097000B091030186879787A08BB18BF601EA5867
:10098000FB4F4489558960E070E0BA015527442740
:10099000D70157964D935D936D937C935A97828DB3
:1009A000938DA0E0B0E0482B592B6A2B7B2BD7010D
:1009B00057964D935D936D937C935A97D9011B96EF
:1009C0008C91887159F4848D958DA68DB78DF70122
:1009D000838B948BA58BB68B81E012C0803109F09C
:1009E00055C097012D5E3F4FD7015B968D919C912D
:1009F0005C970E946E10882309F448C084E0F701D8
:100A00008583812F8F70D70114968C931497F701EB
:100A100016821782108611861A961D921D921D92BB
:100A20001C921D9716FF34C015968C91813071F57C
:100A300011FF2CC0F7014389548965897689452BBC
:100A4000462B472B09F461C040E050E0BA01C701D2
:100A50000E94F8038823D1F0F7018788908CA18C3D
:100A6000B28CC38CD48C82E090E0A0E0B0E0F601C0
:100A700080839183A283B3839E012F5F3F4FB50193
:100A8000A401C6010E94EA0F811104C080E03DC0AC
:100A900081E03BC000E010E09801B501A401C6016F
:100AA0000E944A0F882391F389809A80AB80BC8092
:100AB000D60157968C91803129F088EF9FEFAFEFE8
:100AC000BFE004C088EF9FEFA0E0B0E08816990671
:100AD000AA06BB0688F2D70157961D921D921D9259
:100AE0001C925A97F701138A148A158A168A8481F0
:100AF00080688483C7010E948E12882339F240E007
:100B000050E0BA01C7010E94F8030F900F900F90B8
:100B10000F90DF91CF911F910F91FF90EF90DF9099
:100B2000CF90BF90AF909F908F900895CF93DF9319
:100B3000EC010E948E12882311F01D8281E0DF916A
:100B4000CF9108953F924F925F926F927F928F92D2
:100B50009F92AF92BF92CF92DF92EF92FF920F934C
:100B60001F93CF93DF93CDB7DEB72C970FB6F894D2
:100B7000DEBF0FBECDBF5C01DC015B968D909C900B
:100B80005C971696CD90DD90ED90FC901997C1146E
:100B9000D104E104F10439F0BFEFCB1ADB0AEB0A10
:100BA000FB0A312C07C0F401C080D180E280F380C1
:100BB00033243394F40181859285A385B4859C0107
:100BC000AD012F5F3F4F4F4F5F4F29873A874B87CC
:100BD0005C87260137011D821E821F821886F40160
:100BE00081859285A385B4852D813E814F8158856D
:100BF000281739074A075B0708F063C089859A857B
:100C0000AB85BC858C159D05AE05BF0550F482E013
:100C1000C82ED12CE12CF12C92E0492E512C612CC4
:100C2000712C9E012F5F3F4FB701A601C4010E94A6
:100C3000EA0F882309F445C089819A81AB81BC8180
:100C4000892B8A2B8B2B41F0260137019FEF491A04
:100C5000590A690A790A05C0C414D504E604F704E0
:100C600091F02D813E814F8158852F5F3F4F4F4F2F
:100C70005F4F2D833E834F8358873FEFC31AD30ABC
:100C8000E30AF30AACCF0FEF1FEF2FEF3FE0B30102
:100C9000A201C4010E944A0F882399F0D50116963B
:100CA0004D915D916D917C911997411551056105AB
:100CB000710549F093018201C4010E944A0F81111C
:100CC00002C080E02AC0D50116964D925D926D92C9
:100CD0007C921997332051F0D301C2010196A11DD6
:100CE000B11DF40180839183A283B383F5018789C9
:100CF000908DA18DB28D892B8A2B8B2B69F4D50118
:100D000057964D925D926D927C925A9714968C9163
:100D10001497806814968C9381E02C960FB6F89403
:100D2000DEBF0FBECDBFDF91CF911F910F91FF901E
:100D3000EF90DF90CF90BF90AF909F908F907F907B
:100D40006F905F904F903F9008958FB7F894809187
:100D5000B2028FBF089561E0FC0184810E94B10D51
:100D60008091B10281111092B10208958EBD0000F0
:100D70000DB407FEFDCF8EB508958FEF0C94B60627
:100D80000F931F93CF93DF93EB010E94570E8B01BC
:100D90000E94BD068F3F49F00E94570E601B710BE9
:100DA0006C177D07A8F380E001C081E0DF91CF914F
:100DB0001F910F910895CF93DF93EC018E818823CB
:100DC00089F08F8198859C012F5F3F4F38872F8353
:100DD0008230924018F40E94BD06F3CFCE010E94EB
:100DE000AB061E82DF91CF9108958CBD9DBD089505
:100DF000CF93DF93EC018091B102811109C081E0B2
:100E00008093B1028091B2039091B3030E94F506E2
:100E100060E08C81DF91CF910C94B10DCF92DF9285
:100E2000FF920F931F93CF93DF9300D000D0CDB7E5
:100E3000DEB76C01F62E29833A834B835C830E94D4
:100E4000DB06C6010E94F8066CE271E0C6010E9452
:100E5000C0068F2D80640E94B60608E110E05C8118
:100E60004B813A812981DA01C901002E04C0B6956F
:100E7000A795979587950A94D2F729833A834B8350
:100E80005C830E94B6060850110929813A814B8182
:100E90005C81083F8FEF180731F7FF2029F0E8E069
:100EA000FE1204C087E803C085E901C08FEF0E94ED
:100EB000B60610E00E94BD06F601828787FF04C0D7
:100EC0001F3F11F01F5FF6CF0F900F900F900F9004
:100ED000DF91CF911F910F91FF90DF90CF900895F8
:100EE000AF92BF92CF92DF92EF92FF920F931F9338
:100EF000CF93DF93EC016901C801820F931F81300A
:100F0000924008F070C08E81882371F088819981A9
:100F1000AA81BB81481759076A077B0729F48F818B
:100F20009885C816D906B0F5488359836A837B83B0
:100F30008B85833039F089E0440F551F661F771F7A
:100F40008A95D1F79A01AB0161E1CE010E940E07AB
:100F5000882319F083E08D8346C00E94570E5B0101
:100F60000E94BD068A878F3F49F40E94570E6A1976
:100F70007B096D327140A0F38FE003C08E3F31F0EA
:100F80008DE08D83CE010E94AB062DC018861F8296
:100F900081E08E838F8198858C159D0540F40E9499
:100FA000BD068F819885019698878F83F3CF67015F
:100FB000E00EF11ECE14DF0431F00E94BD06F601F2
:100FC00081936F01F7CF8F819885080F191F1887BC
:100FD0000F838985882319F00115124048F0CE014E
:100FE0000E94DB0605C0CE010E94AB0680E001C076
:100FF00081E0DF91CF911F910F91FF90EF90DF90F3
:10100000CF90BF90AF900895EF92FF920F931F93F0
:10101000CF93DF93EC01790141155105610571050D
:1010200011F482E13CC08B85833039F089E0440FB4
:10103000551F661F771F8A95D1F79A01AB0168E1AA
:10104000CE010E940E07882311F084E028C08EEFA5
:101050000E94B60687018EEFF81AF80181918F0180
:101060000E94B6060E151F05C1F78FEF0E94B60647
:101070008FEF0E94B6060E94BD068A878F71853069
:1010800031F081E18D83CE010E94AB0609C068E595
:1010900072E0CE010E94C006811107C085E18D83F8
:1010A000CE010E94AB0680E013C020E030E0A90131
:1010B0006DE0CE010E940E07811104C00E94BD06A2
:1010C000882311F084E1EBCFCE010E94AB0681E0D2
:1010D000DF91CF911F910F91FF90EF900895FC0148
:1010E000DB0112968D919C911397938382838CE3FD
:1010F00091E09183808314968C9114978483159644
:101100008C911597858316964D915D916D917C918B
:10111000199746835783608771871A964D915D9121
:101120006D917C911D9742875387648775871E96C2
:101130004D915D916D917C91519746875787608B5A
:10114000718B52968C915297828B53964D915D91F3
:101150006D917C915697438B548B658B768B57960C
:101160004D915D916D917C915A97478B508F618F16
:10117000728F5B968D919C915C97948F838F08956D
:10118000EF92FF920F931F93CF93DF93EC017B01BC
:101190008A011B821A8288EE93E0A0E0B0E08C8383
:1011A0009D83AE83BF838CE991E0998388838DE131
:1011B00090E00E944D209A8F898F009779F02DE161
:1011C000F701DC0101900D922A95E1F74CE050E027
:1011D000B801CE010C960E948C21188EDF91CF9120
:1011E0001F910F91FF90EF9008952F923F924F9291
:1011F0005F926F927F928F929F92AF92BF92CF92A7
:10120000DF92EF92FF920F931F93CF93DF9300D063
:10121000CDB7DEB7FC018581882309F4D9C084816C
:1012200080FFD6C021E02A83438954896589768965
:1012300082859385A485B585481759076A077B077A
:1012400009F41A826F013A81832F90E0DE01119632
:101250004D013F01B6E06B0E711C892B09F47DC076
:10126000D6011A964D915D916D917C911D975A0111
:10127000B1E0BB22F60125811A012B0189E05694C9
:101280004794379427948A95D1F7838D948D223093
:1012900061F4FC01828D938DA48DB58DBC01CD01CF
:1012A000620D731D841D951D45C0DC0114961C91B3
:1012B00011501221A114B104D1F4111118C0452B01
:1012C000462B472B51F4F6018789908DA18DB28D65
:1012D00086839783A087B1870AC04681578160853E
:1012E000718593010E94EA0F882309F471C0F60109
:1012F000238D348D86819781A085B1850297A109C0
:10130000B109AC01BD01F901058404C0440F551FAA
:10131000661F771F0A94D2F786859785A089B189C1
:10132000840F951FA61FB71FBC01CD01610F711D52
:10133000811D911DD60114962C9126FF14C0009199
:101340000001109101012091020130910301601709
:1013500071078207930751F506C0FA81FF23C1F197
:10136000898190E037C040E00E94010F882381F11D
:10137000F501EA58FB4FD401CF010196E817F907B0
:1013800019F021912D93FACFEFEF8E1A9E0AF601F4
:1013900082859385A485B5850196A11DB11D82879F
:1013A0009387A487B58780E090E057CF740101E070
:1013B00010E09501AB01BC01809176069091770613
:1013C0000E947007882321F0BFEF8B1A9B0ADFCFA2
:1013D0008FEF9FEF0F900F90DF91CF911F910F91A3
:1013E000FF90EF90DF90CF90BF90AF909F908F9045
:1013F0007F906F905F904F903F902F900895FC01E9
:10140000818D928D009711F00C94F5088FEF9FEF6E
:1014100008950F931F93CF93DF93FC01818D928DDD
:101420000097B9F0EF010E94F5088C010F3F8FEF94
:10143000180791F0898D9A8DFC014285538564854A
:10144000758541505109610971090E94F803C8016D
:1014500005C080E090E002C08FEF9FEFDF91CF9159
:101460001F910F9108951F920F920FB60F921124A2
:101470002F933F934F935F936F937F938F939F939C
:10148000AF93BF93EF93FF938091B900887F80362D
:1014900009F49CC068F5883209F45BC090F480318F
:1014A00009F454C038F4882309F4F6C0883009F4EC
:1014B0004DC0F6C0883109F44CC0803209F45DC0DB
:1014C000EFC0803409F468C048F4803309F455C093
:1014D000883309F0E5C08093EB02D8C0803509F469
:1014E0004FC0883509F45DC0883409F0D9C0D6C032
:1014F000883909F4C7C0A8F4883709F467C038F4FC
:10150000883609F463C0803709F460C0C9C08838E0
:1015100009F4B8C0803909F45FC0803809F0C0C050
:101520005BC0803B09F486C038F4803A09F466C099
:10153000883A09F47FC0B4C0803C09F4A7C0883C55
:1015400009F4A4C0883B09F48AC0AAC08091C802EB
:1015500010C09091EA028091E902981770F5E0912D
:10156000EA0281E08E0F8093EA02F0E0E753FD4F3C
:1015700080818093BB0085EC86C08093EB028EC097
:10158000E091EA0281E08E0F8093EA028091BB0035
:10159000F0E0E753FD4F80839091EA028091E902E9
:1015A0006EC0E091EA0281E08E0F8093EA028091A2
:1015B000BB00F0E0E753FD4F808380910F03811162
:1015C0006DC081E080930E0384EA61C083E0809364
:1015D00010031092B002CFCF8091B002803208F099
:1015E00051C0E091B00281E08E0F8093B0028091F3
:1015F000BB00F0E0E057FD4F8083BDCF85EC8093CA
:10160000BC00109210038091B002803230F4E0915F
:10161000B002F0E0E057FD4F10826091B00270E040
:10162000E0918E02F0918F0280E992E0099510928C
:10163000B00236C084E08093100310928D021092A5
:101640008C02E0918A02F0918B02099580918C02C4
:10165000811105C081E080938C0210926A02E091B2
:101660008D0281E08E0F80938D02F0E0E659FD4FF0
:1016700080818093BB0090918D0280918C0298179D
:1016800008F479CF85E88093BC000AC085EC80938C
:10169000BC001092100304C01092EB020E94CB0019
:1016A000FF91EF91BF91AF919F918F917F916F913A
:1016B0005F914F913F912F910F900FBE0F901F9010
:1016C0001895FF920F931F93CF93DF93CDB7DEB79B
:1016D0002C970FB6F894DEBF0FBECDBF26E0ECE02E
:1016E000F1E0DE01179601900D922A95E1F726E0D0
:1016F000E2E1F1E0DE01119601900D922A95E1F709
:10170000880F991F01E010E00C0F1D1F080F191F13
:10171000F801F68061E08F2D0E94E10D61E08F2DD0
:101720000E94B10D64E670E080E090E00E941D0E22
:10173000F80190819E3008F09E50977090649093CD
:101740007C0080917A00806480937A0080917A0096
:1017500086FDFCCF109178000091790060E08F2D1C
:101760000E94B10D212F30E0302B80E094E0821BED
:10177000930B6AE070E00E94FD1FCB012C960FB620
:10178000F894DEBF0FBECDBFDF91CF911F910F91B7
:10179000FF900895FC01538D448D252F30E0842F58
:1017A00090E0821B930B541710F0CF960895019789
:1017B0000895FC01918D828D981761F0828DDF0173
:1017C000A80FB11D5D968C91928D9F5F9F73928F34
:1017D00090E008958FEF9FEF0895FC01918D828D29
:1017E000981731F0828DE80FF11D858D90E00895F6
:1017F0008FEF9FEF0895FC01918D228D892F90E04E
:10180000805C9F4F821B91098F739927089585E112
:1018100093E00E94FB0B21E0892B09F420E0822F4A
:101820000895FC01848DDF01A80FB11DA35ABF4F9D
:101830002C91848D90E001968F739927848FA689CF
:10184000B7892C93A089B1898C9180648C93938DF6
:10185000848D981306C00288F389E02D80818F7DE6
:1018600080830895EF92FF920F931F93CF93DF939E
:10187000EC0181E0888F9B8D8C8D981305C0E889E1
:10188000F989808185FD24C0F62E0B8D10E00F5F55
:101890001F4F0F731127E02E8C8DE8120CC00FB66E
:1018A00007FCFACFE889F989808185FFF5CFCE0161
:1018B0000E94110CF1CF8B8DFE01E80FF11DE35A50
:1018C000FF4FF0820B8FEA89FB898081806207C01D
:1018D000EE89FF896083E889F9898081806480834B
:1018E00081E090E0DF91CF911F910F91FF90EF90F9
:1018F0000895CF93DF93EC01888D8823C9F0EA899E
:10190000FB89808185FD05C0A889B9898C9186FDF8
:101910000FC00FB607FCF5CF808185FFF2CFA889F5
:10192000B9898C9185FFEDCFCE010E94110CE7CFD4
:10193000DF91CF91089580E090E0892B29F00E94FB
:10194000070C81110C9400000895833081F028F475
:10195000813099F08230A1F008958730A9F0883065
:10196000B9F08430D1F4809180008F7D03C08091E4
:1019700080008F7780938000089584B58F7702C0B0
:1019800084B58F7D84BD08958091B0008F7703C0AA
:101990008091B0008F7D8093B00008953FB7F89498
:1019A0008091BD029091BE02A091BF02B091C00291
:1019B00026B5A89B05C02F3F19F00196A11DB11DAA
:1019C0003FBFBA2FA92F982F8827820F911DA11DE5
:1019D000B11DBC01CD0142E0660F771F881F991F22
:1019E0004A95D1F708950E947A218091B302882305
:1019F000A9F14091000150910101609102017091A3
:101A0000030126E734E080917606909177060E94E4
:101A10000408811102C080E008954091B402509101
:101A2000B5026091B6027091B7024115510561058A
:101A3000710591F026E734E0809176069091770663
:101A40000E940408882339F31092B4021092B50260
:101A50001092B6021092B7021092B30281E008957C
:101A60001F920F920FB60F9211242F933F934F9313
:101A70005F936F937F938F939F93AF93BF93EF93F6
:101A8000FF9385E193E00E94110CFF91EF91BF91CC
:101A9000AF919F918F917F916F915F914F913F9106
:101AA0002F910F900FBE0F901F9018951F920F92BD
:101AB0000FB60F9211242F938F939F93EF93FF9361
:101AC000E0912503F09126038081E0912B03F091B2
:101AD0002C0382FD12C0908180912E038F5F8F7343
:101AE00020912F03821751F0E0912E03F0E0EB5E7E
:101AF000FC4F958F80932E0301C08081FF91EF9161
:101B00009F918F912F910F900FBE0F901F9018955E
:101B1000CF93DF93282F30E0F901E457FF4F8491F2
:101B2000F901E655FF4FD491F901E254FF4FC491FA
:101B3000CC2391F081110E94A50CEC2FF0E0EE0F68
:101B4000FF1FEE57FF4FA591B491EC91ED2381E07B
:101B500090E021F480E002C080E090E0DF91CF913E
:101B600008951F93CF93DF93282F30E0F901E457B6
:101B7000FF4F8491F901E655FF4FD491F901E254EA
:101B8000FF4FC491CC23C9F0162F81110E94A50CE0
:101B9000EC2FF0E0EE0FFF1FE858FF4FA591B49136
:101BA0008FB7F894111105C09C91ED2FE095E923B2
:101BB00002C0EC91ED2BEC938FBFDF91CF911F9181
:101BC0000895CF93DF9390E0FC01E655FF4F2491F9
:101BD000FC01E254FF4F8491882361F190E0880F6B
:101BE000991FFC01E056FF4FC591D491FC01E858C4
:101BF000FF4FA591B491611109C09FB7F8948881F6
:101C0000209582238883EC912E230BC0623061F4EF
:101C10009FB7F8943881822F809583238883EC9135
:101C20002E2B2C939FBF06C08FB7F894E8812E2BE4
:101C300028838FBFDF91CF9108958F929F92AF92AB
:101C4000BF92CF92DF92EF92FF926B017C010E94D4
:101C5000CE0C4B015C01C114D104E104F104F1F09C
:101C60000E94CE0CDC01CB0188199909AA09BB0995
:101C7000883E9340A105B10570F321E0C21AD10856
:101C8000E108F10888EE880E83E0981EA11CB11CC3
:101C9000C114D104E104F10419F7DDCFFF90EF90F6
:101CA000DF90CF90BF90AF909F908F9008952FB707
:101CB000F8946091B9027091BA028091BB02909140
:101CC000BC022FBF08951F920F920FB60F921124DE
:101CD0002F933F938F939F93AF93BF938091B902BC
:101CE0009091BA02A091BB02B091BC023091B802AF
:101CF00023E0230F2D3720F40196A11DB11D05C04F
:101D000026E8230F0296A11DB11D2093B8028093EF
:101D1000B9029093BA02A093BB02B093BC02809127
:101D2000BD029091BE02A091BF02B091C002019687
:101D3000A11DB11D8093BD029093BE02A093BF026E
:101D4000B093C002BF91AF919F918F913F912F911E
:101D50000F900FBE0F901F901895FC01248131E069
:101D60003093EC0220930D03109212031092110392
:101D70008385682B8DEF93E00E94590181E00C94DC
:101D800093140F931F93CF938C01C62F0E94AD0E17
:101D90006C2F6460C8010E94AD0E6C2F6B7FC80170
:101DA0000E94AD0E83EC90E00197F1F7CF911F9167
:101DB0000F910895FF920F931F93CF93DF931F927C
:101DC000CDB7DEB78C01F62E962F907F692F642B4E
:101DD000C80149830E94C10E80E1F89EB001112420
:101DE0004981642BC8010F90DF91CF911F910F9112
:101DF000FF900C94C10E41E00E94DA0E81E090E069
:101E000008958F929F92AF92BF92EF92FF920F939D
:101E10001F93CF934B015C01C42F809100019091DF
:101E20000101A0910201B091030188159905AA054D
:101E3000BB0501F10E94F50C811102C080E020C0B9
:101E400086E7E82E84E0F82E00E012E020E030E0A3
:101E5000B501A40180917606909177060E947007E3
:101E6000882361F38092000190920101A092020107
:101E7000B09203018091B302C82BC093B30281E0FA
:101E8000CF911F910F91FF90EF90BF90AF909F90D7
:101E90008F9008954F925F926F927F928F929F9250
:101EA000AF92BF92CF92DF92EF92FF920F931F9368
:101EB000CF93DF93EC016A017B01280139014230A5
:101EC00051056105710510F480E073C089859A851C
:101ED000AB85BC850196A11DB11D84179507A6078A
:101EE000B70790F38B889C88AD88BE888F89803136
:101EF00029F4BB27AF2D9E2D8D2D09C0DB01CA0112
:101F000047E0B695A795979587954A95D1F7880E9E
:101F1000991EAA1EBB1E8091000190910101A09103
:101F20000201B091030188169906AA06BB0679F44E
:101F30008F898031A1F4DD24EE24FF24C601880FAF
:101F4000991FFC01EA58FB4F5182408219C040E0C2
:101F5000C501B4010E94010F8111EACFB5CFE89409
:101F6000C7F8DD24EE24FF24C601880F991F880FCF
:101F7000991FFC01EA58FB4F4082518262827382B2
:101F80008091B30281608093B3028A89823080F0AD
:101F90008D819E81AF81B885880E991EAA1EBB1EB9
:101FA0008092B4029092B502A092B602B092B702AB
:101FB00081E0DF91CF911F910F91FF90EF90DF9023
:101FC000CF90BF90AF909F908F907F906F905F90D9
:101FD0004F9008958F929F92AF92BF92CF92DF92CF
:101FE000EF92FF920F931F93CF93DF93FC018185B4
:101FF0009285A385B4850196A11DB11D841795070F
:10200000A607B70710F480E05CC083899489A5898E
:10201000B689C789C03129F4852E962EA72EBB24F8
:1020200009C04A015B01C7E0B694A79497948794CE
:10203000CA95D1F7E9016A017B018F01BC01CD018D
:10204000680D791D8A1D9B1D8090000190900101F3
:10205000A0900201B0900301681579058A059B05DF
:1020600099F4F80187898031A9F4B701A6015527B1
:1020700066277727440F551FFA01EA58FB4F8081E6
:102080009181A0E0B0E018C040E00E94010F8111F2
:10209000E8CFB9CFB701A6014F7755276627772735
:1020A000440F551F440F551FFA01EA58FB4F80811A
:1020B0009181A281B381BF7088839983AA83BB83F6
:1020C00081E0DF91CF911F910F91FF90EF90DF9012
:1020D000CF90BF90AF909F908F9008954F925F9256
:1020E0006F927F92AF92BF92CF92DF92EF92FF9268
:1020F0000F931F93CF93DF9300D000D0CDB7DEB7FF
:102100008C0149835A836B837C835901C12CD12C68
:102110007601412C82E0582E612C712C49815A8124
:102120006B817C819E012F5F3F4FC8010E94EA0FA7
:10213000882351F1D301C201F801058404C0880F3E
:10214000991FAA1FBB1F0A94D2F7C80ED91EEA1EF8
:10215000FB1E49815A816B817C818789803129F0FE
:1021600088EF9FEFAFEFBFE004C088EF9FEFA0E0E4
:10217000B0E0481759076A077B0780F2F501C08273
:10218000D182E282F38281E00F900F900F900F9046
:10219000DF91CF911F910F91FF90EF90DF90CF9043
:1021A000BF90AF907F906F905F904F9008954F9247
:1021B0005F926F927F92AF92BF92CF92DF92EF9237
:1021C000FF920F931F93CF93DF93CDB7DEB72B977B
:1021D0000FB6F894DEBF0FBECDBF7C01CE010196D5
:1021E0006C01FC0190E28BE08C0D91938E13FDCF7E
:1021F000DA0130E047E09D91992339F19E3219F0E0
:10220000E8E6F0E00AC04A3009F472C138E04AE07A
:10221000F2CF3196891709F46BC184918111F9CFFE
:10222000431708F465C18FED890F8E3508F060C142
:1022300081E0830FF601E30FF11D3FE9390F3A31D9
:1022400008F490529083382FD6CF8981803209F4D8
:102250004FC1B22E8B01DB015B968D919C915C97F7
:10226000F701948F838F16961D921D921D921C92DA
:102270001997FB011286138614861586712CF801B6
:1022800082859385A485B585438954896589768936
:1022900084179507A607B70708F061C025E0B69533
:1022A000A795979587952A95D1F7F82FFF706F2EF0
:1022B000D80115968C91823008F41AC1C8010E9489
:1022C000F50897FD15C1F80182859385A485B5852C
:1022D0004F96A11DB11D82879387A487B587F0E231
:1022E0006F9EC0011124BC016A587B4F61157105B6
:1022F00009F4FEC0DB012C91222319F0253EC1F424
:1023000027C071100EC0F701628A40910001509100
:102310000101609102017091030146875787608B2C
:10232000718BFC01EA58FB4F8081811113C015C0ED
:102330004BE050E0C6010E947F21892B09F09FCF1E
:102340008B2D8073803309F4D3C04B2D662DCCC008
:102350007720C9F27724739492CF772473948B2DCE
:102360008271823109F0C4C07720D1F0D7011E9666
:102370006D917D918D919C91519741E00E94010F4B
:10238000882309F4B5C0F7016289F0E26F9FB001BC
:1023900011246A587B4F6115710509F079C0A8C0F6
:1023A000D80115968C91823009F4A2C0C8010E9410
:1023B000A205882309F49CC0D8015B96ED91FC919D
:1023C0005C9716964D905D906D907C901997B2E059
:1023D0004B1A510861087108058404C0440C551C4F
:1023E000661C771C0A94D2F786859785A089B189E7
:1023F000480E591E6A1E7B1EA480E1E04E1A510849
:1024000061087108AA2009F10E94F50C882309F4DB
:102410006FC0E6E7F4E0119226E0E637F207D9F75D
:10242000D301C2018A0D911DA11DB11D8093000130
:1024300090930101A0930201B09303018091B30234
:1024400081608093B302AA94DDCFD8015B96ED91B1
:10245000FC915C9780E092E0A0E0B0E0058404C0CD
:10246000880F991FAA1FBB1F0A94D2F7F80143894E
:10247000548965897689840F951FA61FB71F838BA2
:10248000948BA58BB68BD70152961C9266E774E0AD
:1024900080E2FB0111928A95E9F78BE0F601DB01FE
:1024A00001900D928A95E1F781E298E2DB01519665
:1024B0009C938E93509720E038E01F963C932E9388
:1024C0001E9753969C938E93529759969C938E93F6
:1024D000589757963C932E9356970E94F50C882355
:1024E00039F04B2DF7016289C7010E948E0401C0AB
:1024F00080E02B960FB6F894DEBF0FBECDBFDF9104
:10250000CF911F910F91FF90EF90DF90CF90BF90F0
:10251000AF907F906F905F904F900895CF93DF932F
:10252000EC018D818823A1F18C8187FF2DC06E8500
:102530007F858889998941E00E94010F882341F1B4
:10254000EA8980E2E89FF0011124DF01AA58BB4F1D
:102550001097F1F08D81823050F44B895C896D8940
:102560007E895C964D935D936D937C935F978F8985
:10257000988DA98DBA8DEA58FB4F938F828FB58BBA
:10258000A48B8C818F778C83DF91CF910C94F50C89
:1025900080E0DF91CF9108952F923F924F925F920A
:1025A0006F927F928F929F92AF92BF92CF92DF9263
:1025B000EF92FF920F931F93CF93DF9300D000D041
:1025C000CDB7DEB78C015B011A01DC0115968C9149
:1025D00015978130C9F414968C9181FF15C082FF44
:1025E0001BC0F80143895489658976898285938562
:1025F000A485B58584179507A607B70769F0C801B4
:102600000E94F803811108C081E090E0F8019383F3
:10261000828380E090E039C1610183C0D8015B967C
:102620008D919C915C97FC01248121502A013B01F2
:1026300039E076946794579447943A95D1F7722E7F
:1026400074207A01F1E0FF22772009F476C080E05F
:1026500092E08E199F0946018C159D0508F44C01E6
:10266000D8015B962D913C915C9716968D919D912A
:102670000D90BC91A02D0297A109B109F901058423
:1026800004C0880F991FAA1FBB1F0A94D2F7468562
:10269000578560897189840F951FA61FB71F9C01FC
:1026A000AD01270D311D411D511D29013A01811434
:1026B00032E0930609F088C08091000190910101F9
:1026C000A0910201B091030184159505A605B705F7
:1026D00059F48FEF9FEFDC0180930001909301018B
:1026E000A0930201B09303019501B301A20180916F
:1026F0007606909177060E940408882309F484CF17
:102700009EEFB91AC818D908F80182859385A48567
:10271000B585880D991DA11DB11D82879387A4875A
:10272000B587D8011A964D915D916D917C911D9759
:10273000C114D10409F072CF87C0E114F10409F08B
:1027400086CF16964D915D916D917C9119974115AB
:1027500051056105710559F457968D919D910D9024
:10276000BC91A02D0097A105B10541F521C09E01A6
:102770002F5F3F4F0E94EA0F882309F44BCF8981D6
:102780009A81AB81BC81F801238D348DF9012789B1
:10279000203129F048EF5FEF6FEF7FE004C048EF92
:1027A0005FEF60E070E084179507A607B70730F089
:1027B000C8010E94A20581114ACF26CFF801868365
:1027C0009783A087B18743CFE114F10429F5D8019D
:1027D0001A964D915D916D917C911D9753968D91B7
:1027E0009D910D90BC91A02D481759076A077B0752
:1027F00098F00E94F50C882309F406CF409200015E
:102800005092010160920201709203018091B30223
:1028100081608093B30208C041E0C301B2010E940D
:10282000010F882309F4F0CED501F701EA58FB4FD8
:10283000CF01880D991DE817F90719F02D91219303
:10284000FACFA80CB91C5ECF53968D919D910D9037
:10285000BC91A02D84179507A607B70740F4F8018F
:10286000438B548B658B768B848180688483D801FD
:1028700014968C9183FD02C0C10107C0C8010E945B
:102880008E12882309F4C0CEF7CF0F900F900F90CF
:102890000F90DF91CF911F910F91FF90EF90DF90FC
:1028A000CF90BF90AF909F908F907F906F905F90F0
:1028B0004F903F902F900895CF93DF931F92CDB705
:1028C000DEB7698341E050E0BE016F5F7F4F0E9439
:1028D000CC120F90DF91CF910895109214031092B3
:1028E000130310921203109211031092100381E04F
:1028F00080930F0310920E0361E082E10E94B10DFC
:1029000061E083E10E94B10DE9EBF0E080818E7F10
:10291000808380818D7F808388E48093B80085E404
:102920008093BC000895382F2091110390910D03DE
:10293000213208F049C0809110038111FCCF42E0A0
:102940004093100330930F033FEF3093EB0210924C
:10295000EA022093E902ADEEB2E049EC52E0FA015E
:102960003E2F341B321718F43D913193F9CF10925A
:10297000C8022091C802990F922B9093C80290919F
:102980000E03913061F410920E039091C80290935F
:10299000BB009091BC0093FDF8CF95EC01C095EE83
:1029A0009093BC00909110039230E1F39091EB0270
:1029B0009F3F79F08091EB02803241F08091EB02F1
:1029C000803331F084E005C081E003C082E001C0C3
:1029D00083E010921203109211031092EC020895FA
:1029E000CF92DF92EF92FF920F931F93CF93DF93DB
:1029F000C82FD62F042F11E080912F04821310E0EE
:102A00000E94570EC0903004D0903104E090320400
:102A1000F0903304A70196010E941120F694E794E8
:102A2000D794C7946C157D058E059F0508F442C0A8
:102A3000D23009F442C028F4DD2351F0D13011F135
:102A400015C1D33009F467C0D43009F4B1C00EC148
:102A5000E0912004F0912104E00FF11D111105C057
:102A6000C73008F0C6E0C05D01C0C0E2C083FEC050
:102A7000D33008F04CC0DD2309F4EEC0D13009F0AA
:102A8000F5C010E0C43608F0C3E6202F30E0E09136
:102A90002004F0912104E20FF31F111106C08C2FC6
:102AA0006AE00E94F11F805D01C080E280832F5F99
:102AB0003F4FC1C0D230E1F610E0C73008F0C6E0A9
:102AC000202F30E0E0912004F0912104E20FF31F69
:102AD000111108C0A0912404B0912504AC0FB11DC0
:102AE0008C9101C080E280832F5F3F4FE0912004F2
:102AF000F0912104E20FF31F111153C0A09124049F
:102B0000B0912504AC0FB11D11968C914BC0D33000
:102B100009F04AC010E0C73308F0C6E3E02FF0E048
:102B2000A0912004B09121049D012E0F3F1F11118F
:102B300009C080912604909127048C0F911DDC011F
:102B40008C9101C080E2D9018C93A0912004B091B6
:102B50002104CF0101969D01280F391F11110AC0D0
:102B600080912604909127048C0F911DDC01119611
:102B70008C9101C080E2D9018C939F012E5F3F4F61
:102B8000E0912004F0912104E20FF31F111109C01C
:102B9000A0912604B0912704AC0FB11D12968C9120
:102BA00001C080E2808362C0D43009F05FC010E0D1
:102BB000C43608F0C3E6202F30E0E0912004F09105
:102BC0002104E20FF31F11110AC08091340490E038
:102BD00001976AE070E00E94FD1F605D01C060E245
:102BE0006083E0912004F0912104C9010196E80F6F
:102BF000F91F11110AC08091340490E001976AE036
:102C000070E00E94FD1F805D01C080E28083E09142
:102C10002004F0912104C9010296E80FF91F111157
:102C200006C08C2F6AE00E94F11F805D01C080E227
:102C300080832D5F3F4FE0912004F0912104E20F4B
:102C4000F31F111106C08C2F6AE00E94F11F905DE6
:102C500001C090E290830AC0C73008F0C6E0E0915E
:102C60002004F0912104E00FF11DFDCEDF91CF9102
:102C70001F910F91FF90EF90DF90CF900895CF9329
:102C8000DF93C5E1D4E089859A85DC01ED91FC9163
:102C90000280F381E02D60E00995982F9695969536
:102CA00096959E71292F220F220F920F8F70890FF8
:102CB0008B8B888389859A85DC01ED91FC9102805C
:102CC000F381E02D61E00995982F9695969596955C
:102CD0009E71292F220F220F920F8F70890F8C8BDC
:102CE000898389859A85DC01ED91FC910280F381CD
:102CF000E02D62E00995982F9695969596959E7190
:102D0000292F220F220F920F8F70890F8D8B8B83AB
:102D100089859A85DC01ED91FC910280F381E02D9B
:102D200063E00995982F9695969596959E71292F13
:102D3000220F220F920F8F70890F8E8B8D838985C2
:102D40009A85DC01ED91FC910280F381E02D64E035
:102D50000995982F9695969596959E71292F220FF5
:102D6000220F920F8F70890F8F8B8F8389859A85A1
:102D7000DC01ED91FC910280F381E02D65E0099585
:102D8000982F9695969596959E71292F220F220F32
:102D9000920F8F70890F888F888789859A85DC01CB
:102DA000ED91FC910280F381E02D66E00995282FDA
:102DB0002F7021508695869586958E71982F990F44
:102DC000990F890F820F898F8E830E94570E6AA3F5
:102DD0007BA38CA39DA3DF91CF910895CF92DF9227
:102DE000EF92FF920F931F93CF93DF936C017A01C1
:102DF0008B01C0E0D0E0CE15DF0589F0D8016D91E0
:102E00008D01D601ED91FC910190F081E02DC6017C
:102E10000995892B11F47E0102C02196ECCFC701E0
:102E2000DF91CF911F910F91FF90EF90DF90CF90A6
:102E300008954F925F926F927F928F929F92AF927E
:102E4000BF92CF92DF92EF92FF920F931F93CF9397
:102E5000DF938C01C0903704D0903804E09039049F
:102E6000F0903A040E94570E6C157D058E059F0563
:102E700040F41092370410923804109239041092E2
:102E80003A0420913504309136042115310519F4A6
:102E90000E943F16B1C08091370490913804A091F0
:102EA0003904B0913A040097A105B10589F36C018A
:102EB0007D01C20ED31EE11CF11C0E94570E6C1541
:102EC0007D058E059F0520F70E94570EC0903704A0
:102ED000D0903804E0903904F0903A046C197D09E0
:102EE0008E099F0928EE33E040E050E00E94112057
:102EF000C0912C04D0912D04C23009F0A2C18D2FB5
:102F000090E083709927892B09F495C17CE1F72E15
:102F10008091280429013A01480E511C611C711C42
:102F2000C301B2012CE3822E912CA12CB12CA5015E
:102F300094010E94112060931504809129042901B5
:102F40003A01480E511C611C711CC301B201A5015C
:102F500094010E9411206093160480912A04590163
:102F60006A01A80EB11CC11CD11CC601B50128E123
:102F700030E040E050E00E941120609318048091FE
:102F80002E04820F873008F059C180931B04809172
:102F90002B0429013A01480E511C611C711CC3010C
:102FA000B2014F2D50E09A012F5F3F4F032E000CCE
:102FB000440B550B0E941120620F60931A04CA0142
:102FC000B9016C0F711D811D911D2DE030E040E0B5
:102FD00050E00E941120620F60931C04CA01B901E5
:102FE0006D0F711D811D911D24E630E040E050E021
:102FF0000E94112060931D0420911804822F6CE020
:103000000E94F11F911101C09CE09093170491E080
:103010002C3008F490E090931904F80101900020FE
:10302000E9F731979F01201B310BC1E0C20FA0913E
:103030002204B091230490E0492F50E04217530737
:1030400038F5FD0101900020E9F731977F01EA1A78
:10305000FB0A80E0400F511F682F70E06E157F055E
:10306000A8F46A0F7B1FFA01D081FB016081D6139F
:103070000BC0882349F08A3010F4CF5F05C08C3034
:1030800010F4CE5F01C0CD5F8F5FE6CF9F5FD4CFDE
:1030900080912004909121040E94E2208C2F90E0E6
:1030A0000E944D209093210480932004C0E0D0E042
:1030B0008D2F90E0F80101900020E9F73197E01B97
:1030C000F10B8E179F0708F09AC0F801E80FF91F5F
:1030D0009081E0912204F09123048081981308C02C
:1030E00027E04C2F60E080911B040E94F01484C004
:1030F0008181981307C08091190428E04C2F62E069
:10310000880F0AC0828198130BC080911904880F20
:1031100028E04C2F62E08C5F0E94F014CE5F6DC0FF
:103120008381981306C024E04C2F61E080911A043B
:10313000F3CF8481981306C023E04C2F61E0809187
:103140001704EACF8581981306C023E04C2F61E075
:1031500080911804E1CF8681981306C022E04C2F9D
:1031600061E080911604D8CF8781981306C025E0CE
:103170004C2F61E080911C04CFCF8085981306C04E
:1031800021E04C2F61E080911504C6CF8185981312
:1031900006C026E04C2F61E080911D04BDCF8285E2
:1031A000981308C080911C0490E00696982F990F00
:1031B00025E008C0838598130CC080911B04982FCC
:1031C000990F27E04C2F63E0890F0E94F014CD5F28
:1031D00014C08485981309C026E04C2F64E08091C8
:1031E0001D040E94F014CC5F08C0E0912004F0910F
:1031F0002104EC0FF11D9083CF5FDF5F59CFE09189
:103200002004F0912104EC0FF11D10828091200424
:1032100090912104DF91CF911F910F91FF90EF903A
:10322000DF90CF90BF90AF909F908F907F906F90E6
:103230005F904F9008956DE1F62E6ACE10921B04B8
:10324000A6CE8C2F90E061E070E0C83010F460E012
:1032500070E0860F971F817099279EE1F92EF80E76
:1032600057CE40E061E089E094E00E94DA0E8BE303
:103270009FE10197F1F708958F929F92AF92BF92CD
:10328000CF92DF92EF92FF92CF93DF93C82F84EB20
:1032900093E09093770680937606CC2369F1C5304E
:1032A00010F080E00DC140E060E070E0CB010E94D2
:1032B000010F8823B1F320E1C29FC00111248A5974
:1032C0009B4FFC01E254FE4F20812F7751F73C9633
:1032D00040815181628173814436510561057105D8
:1032E00000F33497C080D180E280F380C114D10410
:1032F000E104F10421F4D5CFC12CD12C760140E0BA
:10330000C701B6010E94010F882359F28091810400
:10331000909182048115924021F6A0918604AA23FF
:1033200009F4BFCF60918404709185046115710523
:1033300009F4B7CF20918304222309F4B2CFA093DC
:10334000D2032093C40380E030E0E1E0F0E0C82F36
:10335000AF01082E02C0440F551F0A94E2F724174C
:10336000350741F0982F8F5F983089F789E0809377
:10337000CD0397CF8093CD0320918C0430918D04A1
:103380002115310519F040E050E008C020919A0461
:1033900030919B0440919C0450919D042093C5035F
:1033A0003093C6034093C7035093C80346015701A7
:1033B000860E971EA11CB11C8092D3039092D40359
:1033C000A092D503B092D603E0918704F0918804CF
:1033D000F093D903E093D803B0E00E94D71F860E84
:1033E000971EA81EB91E8092DA039092DB03A0926A
:1033F000DC03B092DD0385E0EE0FFF1F8A95E1F755
:10340000E150FE4FEF2FFF27E6958E0E9F1EA11C69
:10341000B11C8092CE039092CF03A092D003B092C1
:10342000D1032091890430918A042115310521F0BE
:10343000A90160E070E008C04091960450919704A3
:103440006091980470919904D701C601881999096F
:10345000AA09BB09840F951FA61FB71F04C0B69504
:10346000A79597958795CA95D2F78093C9039093AE
:10347000CA03A093CB03B093CC03853F2FE0920700
:10348000A105B10510F48CE018C0853F9F4FA10540
:10349000B10510F480E111C08091A2049091A304C1
:1034A000A091A404B091A5048093DA039093DB0368
:1034B000A093DC03B093DD0380E28093D70381E027
:1034C000DF91CF91FF90EF90DF90CF90BF90AF90C2
:1034D0009F908F900895909110039111FCCF91E0EF
:1034E0009093100390930F032FEF2093EB02109211
:1034F000EA02260F2093E9029093C8029091C80235
:10350000880F892B8093C80280910E03813061F46B
:1035100010920E038091C8028093BB008091BC0082
:1035200083FDF8CF85EC01C085EE8093BC008091CF
:1035300010038130E1F38091EA02861710F4609164
:10354000EA02A9ECB2E026E534E0F9018E2F821BF5
:10355000861718F48D918193F9CF862F0895611500
:10356000710579F0FB0101900020E9F73197AF0177
:10357000461B570BDC01ED91FC910280F381E02D9D
:10358000099480E090E00895CF93DF93BC018BE332
:1035900094E00E94AF1AEC0167E672E08BE394E0DE
:1035A0000E94AF1A8C0F9D1FDF91CF9108954F920B
:1035B0005F926F927F928F929F92AF92BF92CF92C3
:1035C000DF92EF92FF920F931F93CF93DF93CDB7CC
:1035D000DEB7A1970FB6F894DEBF0FBECDBF8C014A
:1035E0006B01770FEE08FF08F7FE2FC0DC01ED91AD
:1035F000FC910190F081E02D6DE209955C0122279C
:103600003327A9012C193D094E095F0919A2FE01B2
:10361000B1967F019AE0492E512C612C712CCA0180
:10362000B901A30192010E941120605DD7016E9340
:103630007D01211531054105510589F7BD01C801FD
:103640000E94AF1A8A0D9B1D1EC0A701960119A2E8
:10365000FE01B1967F018AE0882E912CA12CB12C1D
:10366000CA01B901A50194010E941120605DD70132
:103670006E937D01211531054105510589F7BD0185
:10368000C8010E94AF1AA1960FB6F894DEBF0FBE14
:10369000CDBFDF91CF911F910F91FF90EF90DF9001
:1036A000CF90BF90AF909F908F907F906F905F90E2
:1036B0004F900895CF93DF93CDB7DEB7C257D109AE
:1036C0000FB6F894DEBF0FBECDBF789484B582608C
:1036D00084BD84B5816084BD85B5826085BD85B5B6
:1036E000816085BD80916E00816080936E00109234
:1036F00081008091810082608093810080918100AF
:10370000816080938100809180008160809380003F
:103710008091B10084608093B1008091B00081609D
:103720008093B00080917A00846080937A008091C9
:103730007A00826080937A0080917A008160809321
:103740007A0080917A00806880937A001092C1009C
:1037500080911E0490911F04DC01ED91FC91019079
:10376000F081E02D099589E692E00E9419170E94E8
:103770006D1460E083E00E94E10D60E084E00E944F
:10378000E10D1092BF031092BD031092BA03109284
:10379000B9038AE08093B8030E94570E8B0161E061
:1037A0008091B8030E94E10D61E08091B8030E940E
:1037B000B10DFFB6F8948091C102811127C0E8ECE9
:1037C000F0E08491E4EBF0E09491E82FF0E0EE0F6C
:1037D000FF1FE056FF4FA591B491EC91E92321F42E
:1037E00061E08AE00E94B10D61E08AE00E94E10D93
:1037F0008CB580618CBD8CB580648CBD61E08DE042
:103800000E94E10D61E08BE00E94E10D8091C10218
:103810008F5F8093C102FFBE82E58093B203109256
:10382000B3038091B2039091B3030E94F5067AE04E
:10383000F72E8FEF0E94B606FA94F110FACF84EBC0
:1038400093E00E94F80620E030E0A90160E084EBFC
:1038500093E00E940E07F82E8093BE0381E0F816D5
:1038600049F00E94570E601B710B613D774058F381
:1038700081E056C02AEA31E040E050E068E084EBA5
:1038800093E00E940E0782FF03C0F092BF0310C0B6
:1038900064E0F62E0E94BD068093BE03FA94F110F8
:1038A000F9CF8A3A11F082E03BC082E08093BF03F7
:1038B0008091BF03823021F0C12CD12C760105C04C
:1038C000C12CD12CE12C50E4F52E20E030E0A901F0
:1038D00067E384EB93E00E940E07A701960169E27B
:1038E00084EB93E00E940E078093BE03882349F087
:1038F0000E94570E601B710B613D774030F388E0EA
:103900000FC08091BF03823001F520E030E0A901B3
:103910006AE384EB93E00E940E07882341F086E07F
:103920008093B90384EB93E00E94AB068FC00E94A2
:10393000BD06807C803C19F483E08093BF030E9425
:10394000BD060E94BD060E94BD0684EB93E00E9466
:10395000AB0680E58093B2031092B30381E00E942E
:103960003C19882329F08091E303882341F06EC03D
:1039700080E00E943C19882309F468C0F4CF80914C
:10398000D703803109F582E08093E3031092F503B9
:103990001092F6031092F7031092F8038091D80367
:1039A0009091D903A0E0B0E045E0880F991FAA1FCD
:1039B000BB1F4A95D1F78093F1039093F203A09334
:1039C000F303B093F4031EC0803209F03FC083E0DC
:1039D0008093E3034091DA035091DB036091DC03B1
:1039E0007091DD034093F5035093F6036093F70362
:1039F0007093F80321EF33E080EC93E00E946E10A7
:103A0000882321F180EC93E09093FA038093F903EB
:103A100081E08093E2031092E4031092E503109298
:103A2000E6031092E7031092E8031092E903109264
:103A3000EA031092EB031092EC031092ED03109244
:103A4000EE031092EF031092F00304C088EC91E0B3
:103A50000E94C41A0E946D1410920E0480911304E7
:103A6000823018F098E090930E048093110462E382
:103A700070E080E090E00E941D0E6091140489E0E7
:103A800094E00E94AD0E68EE73E080E090E00E944A
:103A90001D0E60E389E094E00E94C10E0BE416E481
:103AA000C8010197F1F760E389E094E00E94C10E3C
:103AB000C8010197F1F760E389E094E00E94C10E2C
:103AC00083E592E00197F1F760E289E094E00E94DB
:103AD000C10E60910E04606240E089E094E00E94B3
:103AE000DA0E84E080930F0440E06CE089E094E01B
:103AF0000E94DA0E0E94311982E08093100440E0A7
:103B000066E089E094E00E94DA0E40E062E089E03D
:103B100094E00E94DA0E8BE39FE10197F1F7109297
:103B2000140460E089E094E00E94AD0E8CE3C82E9E
:103B300081E0D82E98EE492E93E0592E612C712CFD
:103B40002DE0E22EA8E5B0E0AC0FBD1F1C965D0194
:103B500038E0F32E6EED73E0CE0101960E946F08FF
:103B6000BE016F5F7F4FCE01CB960E946F0819A2F6
:103B700018A2DF8ECE8E1BA221968FAD21978111C8
:103B800012C06C961FAE1EAE6C97A0964CAE5DAE8A
:103B90006EAE7FAEA097E3961FAE1EAEE397A596DE
:103BA0001FAEA59735C0825023E14AED51E0823027
:103BB00048F46EED73E0CE014E960E94D71081114D
:103BC0000EC0DFCFBE01655C7F4FCE014E960E94D6
:103BD000D7108823B1F2CE01CB960E94960549A951
:103BE0005AA96BA97CA9CE014E960E94F803BE018A
:103BF000625E7F4FCE0101960E946F084AED51E050
:103C0000BE016F5F7F4FCE01885A9F4F0E94C00850
:103C10006C968EAD9FAD6C9790933E0480933D045F
:103C2000A0968CAD9DADAEADBFADA09780933F0487
:103C300090934004A0934104B0934204A4968CADA9
:103C40009DADAEADBFADA497809343049093440463
:103C5000A0934504B0934604F501A7E4B4E08E2D8B
:103C600001900D928A95E1F7E3968EAD9FADE397B3
:103C7000909355048093540483E00E94880D9093A0
:103C8000C7028093C602019779F587EE91E00E9402
:103C90001917BC018BE394E00E94AF1A83EF91E007
:103CA0000E94C41A64EF71E080E090E00E941D0E53
:103CB000F092140460E089E094E00E94AD0E61E0AF
:103CC00072E089E094E00E94AF1A68EB7BE080E04C
:103CD00090E00E941D0E0E9431191092140460E0C1
:103CE00089E094E00E94AD0E84E00E94880D9093DC
:103CF000C5028093C402019761F500E010E0C8019D
:103D00000E94610B4C01F092140460E089E094E0A1
:103D10000E94AD0EB40189E094E00E94D71A61E1DF
:103D200072E089E094E00E94AF1A0F5F1F4F0330EA
:103D3000110529F768EB7BE080E090E00E941D0E02
:103D40000E9431191092140460E089E094E00E940E
:103D5000AD0E89E692E00E9419178091180490E058
:103D60009093C3028093C2028730910519F083318A
:103D70009105B9F52091040130910501821793074F
:103D800081F187EE91E00E941917BC018BE394E06A
:103D90000E94AF1A6FEF71E08BE394E00E94AF1ABC
:103DA00000E010E0C8010E94610BBC018BE394E0CD
:103DB0000E94D71A6FEF71E08BE394E00E94AF1A74
:103DC0000F5F1F4F0330110569F78FEF91E00E94DD
:103DD000C41A8091C2029091C3029093050180930E
:103DE00004018091540490915504009761F00E9461
:103DF000960580915404909155040E94E2201092FF
:103E00005504109254040E949B0CA4CECF92DF92D2
:103E1000EF92FF92CF93DF93E5E1F3E013821282FA
:103E200088EEC82E83E0D82EE12CF12CC482D582F6
:103E3000E682F7828AE291E09183808385EC90E0CC
:103E40009587848784EC90E09787868780EC90E064
:103E5000918B808B81EC90E0938B828B82EC90E055
:103E6000958B848B86EC90E0978B868B118E128ECF
:103E7000138E148EE2EBF3E080E580831182E4EB95
:103E8000F3E0158216821186138682E090E0A0E0AE
:103E9000B0E084879587A687B78713A215A614A6D6
:103EA0008CE391E093A782A717A6EDEFF3E01382CE
:103EB0001282C482D582E682F78288E491E09183FF
:103EC0008083EBE3F4E013821282C482D582E6821F
:103ED000F7828CE991E091838083128E118E148693
:103EE000C5E1D4E01882198281E08A831B821C829A
:103EF0008D831E828F83188681E090E00E944D2082
:103F00009C878B8786E192E09E878D8784E292E092
:103F1000988B8F878DE292E09A8B898B1A8ECB8E4D
:103F2000DC8EED8EFE8E85E18F8F19A218A21AA26B
:103F30001BA21CA21DA286E290E00E944D2022E955
:103F400031E0FC013183208326E631E03383228394
:103F50002FEF2483258328E6268B27E0E8E1F1E094
:103F6000DC01579601900D922A95E1F727E0EFE1E9
:103F7000F1E0DC015E9601900D922A95E1F79A87B7
:103F80008987E9E0F4E0138212828AE591E0918367
:103F900080838FE3848380E1818782E08287138638
:103FA000DF91CF91FF90EF90DF90CF9008950E9426
:103FB000E21FA59F900DB49F900DA49F800D911DB1
:103FC00011240895A29FB001B39FC001A39F700D5B
:103FD000811D1124911DB29F700D811D1124911D11
:103FE0000895991B79E004C0991F961708F0961B55
:103FF000881F7A95C9F78095089597FB072E16F4C8
:10400000009407D077FD09D00E94332007FC05D02B
:104010003EF4909581959F4F0895709561957F4FDF
:104020000895A1E21A2EAA1BBB1BFD010DC0AA1FF9
:10403000BB1FEE1FFF1FA217B307E407F50720F011
:10404000A21BB30BE40BF50B661F771F881F991F8C
:104050001A9469F760957095809590959B01AC01D5
:10406000BD01CF010895AA1BBB1B51E107C0AA1FC8
:10407000BB1FA617B70710F0A61BB70B881F991F09
:104080005A95A9F780959095BC01CD010895EE0F42
:10409000FF1F0590F491E02D0994CF93DF938230B8
:1040A000910510F482E090E0E0917A06F0917B06B1
:1040B00020E030E0C0E0D0E0309711F14081518144
:1040C00048175907C0F04817590761F48281938156
:1040D000209719F09B838A832BC090937B06809353
:1040E0007A0626C02115310519F04217530718F436
:1040F0009A01BE01DF01EF010280F381E02DDCCFE8
:104100002115310509F1281B390B2430310590F4B4
:1041100012968D919C9113976115710521F0FB0109
:104120009383828304C090937B0680937A06FD017B
:10413000329644C0FD01E20FF31F81939193225008
:1041400031092D933C933AC020917806309179063D
:10415000232B41F420910801309109013093790615
:104160002093780620910601309107012115310531
:1041700041F42DB73EB740910A0150910B01241B29
:10418000350BE0917806F0917906E217F307A0F479
:104190002E1B3F0B2817390778F0AC014E5F5F4F9D
:1041A0002417350748F04E0F5F1F50937906409350
:1041B00078068193919302C0E0E0F0E0CF01DF91B7
:1041C000CF9108950F931F93CF93DF93009709F436
:1041D0008CC0FC0132971382128200917A061091F2
:1041E0007B060115110581F420813181820F931F17
:1041F00020917806309179062817390779F5F093E0
:104200007906E093780671C0D80140E050E0AE171F
:10421000BF0750F412962D913C911397AD012115D3
:10422000310509F1D901F3CF9D01DA0133832283EE
:1042300060817181860F971F8217930769F4EC01E3
:1042400028813981260F371F2E5F3F4F318320830E
:104250008A819B8193838283452B29F4F0937B068B
:10426000E0937A0642C01396FC93EE931297ED0109
:10427000499159919E01240F351FE217F30771F4FC
:1042800080819181840F951F029611969C938E9345
:104290008281938113969C938E931297E0E0F0E0D5
:1042A000D80112968D919C911397009719F0F801FF
:1042B0008C01F6CF8D919C9198012E5F3F4F820F1C
:1042C000931F20917806309179062817390769F4F1
:1042D000309729F410927B0610927A0602C013825E
:1042E00012821093790600937806DF91CF911F9187
:1042F0000F91089581E090E0F8940C949B21FB01CC
:10430000DC0104C08D910190801921F4415050408E
:10431000C8F7881B990B0895FB01DC014150504000
:1043200048F001900D920020C9F701C01D92415044
:0A4330005040E0F70895F894FFCF25
:10433A00FFFFFFFF030000007C0680000500060067
:10434A000700020001000000000102040506037FC5
:10435A007F3F3F1FFF0700000000320CEE16CA0B1A
:10436A00790CFB0BD90BED0B000000005C14EE1668
:10437A008901880100000000590129018901FD0015
:10438A0021010D01FE0000000000FB0EEE1689015E
:10439A008801000000009403550205023F02F00163
:1043AA00FD02D9024C03C002EE01B002EC01EA019F
:1043BA00E901E701E501E301B4019A018C0100007A
:1043CA000000AF0391021C0200000000B500750254
:1043DA0089016D029400FF09090A00000000F30C2C
:1043EA00EE1689018801F30CF30CF30C00000000AF
:1043FA00F30CEE168901880153442D63617264201F
:10440A006E6F7420666F756E640069617264756997
:10441A006E6F2E74787400642D6D2D593B483A697D
:10442A003A73003B3B3B205761746572696E673B88
:10443A0000202D2D205761746572696E67202D2D1D
:10444A0000253B202000776141646848696D7379D3
:10445A004D445900616D706D414D504D0053756E5C
:10446A004D6F6E5475655765645468754672695325
:10447A0061744A616E4665624D61724170724D6146
:10448A00794A756E4A756C4175675365704F6374E6
:0A449A004E6F76446563000D0A00C2
:00000001FF
