:100000000C946A000C9492000C9492000C94920050
:100010000C9492000C9492000C9492000C94920018
:100020000C9492000C9492000C9492000C94920008
:100030000C9492000C9492000C9492000C949200F8
:100040000C94630E0C9492000C94560D0C94300D8D
:100050000C9492000C9492000C9492000C949200D8
:100060000C94330A0C949200000000002400270036
:100070002A00010204081020408001020408102018
:10008000010204081020040404040404040402020D
:10009000020202020303030303037C3C3E5E2B3D8A
:1000A0003F2F5B5D3B2C2A225C00000000002500F6
:1000B00028002B000000000023002600290000007B
:1000C0000008000201000003040700000000000017
:1000D0000000641F11241FBECFEFD8E0DEBFCDBFEC
:1000E00026E0AEE6B2E001C01D92A238B207E1F709
:1000F00012E0A0E0B1E0E6EFF3E402C005900D925B
:10010000AE36B107D9F710E0CAE6D0E004C02197B7
:10011000FE010E94A520C936D107C9F70E94501BD5
:100120000C94F9210C940000DC015996ED91FC919E
:100130005A973097B9F083899489A589B689428501
:10014000538564857585841B950BA60BB70B8115AC
:1001500020E89207A105B10538F08FEF9FE7A0E0F6
:10016000B0E0089580E090E00895CF93DF931F9270
:10017000CDB7DEB76983DC01ED91FC910280F3819C
:10018000E02D41E050E0BE016F5F7F4F09950F9079
:10019000DF91CF91089585ED8093BC008091BC00E4
:1001A00084FDFCCF10921603089540919002262FF3
:1001B00030E0240F311D21323105DCF4209116038B
:1001C0002430C9F4FC0180E090E0861758F43091A7
:1001D00090022191DC01A259BD4FA30FB11D2C93B8
:1001E0000196F3CF80919002680F6093900280E0B7
:1001F000089581E0089582E008950895E0911A033A
:1002000080911903E81730F4F0E0E45AFB4F808145
:1002100090E008958FEF9FEF089590911A038091D9
:100220001903981750F4E92FF0E0E45AFB4F2081AE
:1002300030E09F5F90931A0302C02FEF3FEFC90198
:1002400008958091190390E020911A03821B91096F
:100250000895CF92DF92EF92FF920F931F93CF9367
:10026000DF937C01262F972F8A018091F202882349
:1002700091F0C62FD72F6E01C40ED51ECC15DD050B
:1002800071F06991D701ED91FC910190F081E02D21
:10029000C7010995F3CF642F822F0E94D500C801B2
:1002A000DF91CF911F910F91FF90EF90DF90CF9052
:1002B0000895CF93DF931F92CDB7DEB76983209166
:1002C000F2022223D1F020911703203240F021E0E6
:1002D00030E0FC013383228380E090E015C0809100
:1002E0001803E82FF0E0ED50FD4F998190838F5F68
:1002F000809318038093170305C061E0CE01019637
:100300000E94D50081E090E00F90DF91CF91089599
:10031000089580E090E00895DC011C96ED91FC9139
:100320001D97208116968C91922F982381E009F4D5
:1003300080E00895FC01A085B18586819C916111C2
:1003400009C0892B8C93A089B1899C918681809565
:10035000892308C0809589238C93A089B1899C91B9
:100360008681892B8C930895FC01A285B3858781B2
:100370009C9161110CC0892B8C93A289B3899C91AB
:100380008781809589238C9320E63AEE17C080956B
:1003900089238C93A289B3899C918781892B8C9323
:1003A000A685B785978120E63AEE8C91892331F4B2
:1003B0002115310519F021503109F7CF81E0232BA8
:1003C00009F480E0089580E0089580E0089580E0D9
:1003D0000895089580E0089580E0089584E00895E8
:1003E000CF93DF931F92CDB7DEB74983DC01ED9148
:1003F000FC910088F189E02D21E0AE014F5F5F4F55
:1004000009950F90DF91CF9108950F93CF93DF93CC
:100410001F92CDB7DEB72983DC01ED91FC910484F6
:10042000F585E02D01E09E012F5F3F4F09950F906C
:10043000DF91CF910F9108950F931F93CF93DF9387
:10044000EC01062F142FE881F9810280F381E02D61
:1004500009958DA3FE01E00FF11D968D292F2095A2
:100460002823122B982B212F292347896E89CE010F
:100470000296DF91CF911F910F910C940502CF93BB
:10048000DF931F92CDB7DEB71982DC01ED91FC91AD
:100490000684F785E02D21E0AE014F5F5F4F09959F
:1004A00089810F90DF91CF9108950F93CF93DF93C0
:1004B0001F92CDB7DEB71982DC01ED91FC91028469
:1004C000F385E02D01E09E012F5F3F4F0995898163
:1004D0000F90DF91CF910F910895FC01818D928D46
:1004E000009711F00C948E120895CF93DF93EC01D6
:1004F000898D9A8D009739F481E090E09B838A83FF
:1005000080E090E00BC0FC01138212820E94CC12AA
:10051000E98DFA8D22813381232B71F7DF91CF9101
:1005200008950F931F93CF93DF93EC01162F61E093
:1005300070E080E090E00E941D0ECE01810F911DC1
:100540008C01FC0147896E89CE0102960E945502FA
:10055000F801968D8923DF91CF911F910F91089516
:1005600081E08093F20260931303109218031092BB
:1005700017030E94931491E0811190E0892F089550
:10058000CA0131E03093F202609313031092180312
:1005900010921703422F50E0BC0183E094E00E94C8
:1005A000290181E00E94931491E0811190E0892F4C
:1005B00008950F93CF93DF93E90181E08093F202D6
:1005C000609313031092180310921703642F83E0B3
:1005D00094E00E945901402F50E0BE0183E094E076
:1005E0000E94290181E00E94931491E0811190E022
:1005F000892FDF91CF910F910895EF92FF920F9382
:100600001F93CF93DF93C62F122FE32E81E08093A9
:10061000F202609313031092180310921703642FD1
:1006200083E094E00E94590180E00E949314602FBF
:10063000013208F060E28C2F0E94601A10921A03B7
:1006400080931903882301F1F12EC12FDE2D1C2F79
:100650001F199091190380911A03981741F01017F0
:1006600030F483E094E00E940D018993F0CF9091E3
:10067000190380911A03981729F083E094E00E94EF
:100680000D01F5CF81E0101380E0DF91CF911F9134
:100690000F91FF90EF900895CF92DF92FF920F930A
:1006A0001F93CF93DF9300D0CDB7DEB7862F122FE5
:1006B000622F213208F060E249835A830E94601A57
:1006C00010921A038093190349815A81882309F1F2
:1006D000F42E6A010C2D0F199091190380911A03C1
:1006E000981751F0011740F483E094E00E940D0147
:1006F000F60181936F01EECF9091190380911A0357
:10070000981729F083E094E00E940D01F5CF81E075
:10071000011380E00F900F90DF91CF911F910F9107
:10072000FF90DF90CF900895A8EEB3E09A01AB015F
:100730000E9435209B01AC0160E074E284EF90E000
:100740000E946F20DA01C9014097A109B109B6954D
:10075000A795979587958093B8000C946D140F9387
:100760001F93CF93DF93EC018C010E5F1F4F44E684
:1007700050E060E070E0C8010E94940342E06E899E
:10078000C8010E9455028DA386FF07C0282F2F7B2A
:1007900042E06E89C8010E9405024EE06E89C801E0
:1007A0000E9455028DA3982F9F7D39F0282F20722B
:1007B0004EE06E89C8010E9405024FE06E89C801B3
:1007C0000E945502282F8DA3837811F423FD0BC0BE
:1007D000247728604FE06E89C801DF91CF911F9187
:1007E0000F910C940502DF91CF911F910F91089505
:1007F0008F929F92AF92BF92CF92DF92EF92FF9231
:100800000F931F93CF93DF93EC018D81811102C071
:1008100080E077C00B891C892D893E890417150754
:1008200026073707A8F36A017B01823029F4CA86BC
:10083000DB86EC86FD860DC0C114D104E104F10411
:1008400051F41E821F82188619861A861B861C8602
:100850001D8681E056C08A849B84AC84BD84EB8D68
:10086000FC8D258530E0275F3F4FB501A401415045
:10087000510961097109022E04C076956795579553
:1008800047950A94D2F7D701C6010197A109B1098A
:1008900004C0B695A795979587952A95D2F78417A2
:1008A0009507A607B70720F089288A288B2849F4DE
:1008B0004F89588D698D7A8D4E835F8368877987DC
:1008C00004C0841B950BA60BB70B4C015D018E0178
:1008D0000A5F1F4F81149104A104B10409F4A7CF4A
:1008E0004E815F816885798598018B8D9C8D0E94F2
:1008F000EA0F91E0891A9108A108B1088111EACFA5
:1009000087CFDF91CF911F910F91FF90EF90DF90F4
:10091000CF90BF90AF909F908F9008958F929F92AD
:10092000AF92BF92CF92DF92EF92FF920F931F93FD
:10093000CF93DF9300D000D0CDB7DEB77C0180E24B
:10094000689F60011124960124583B4FD9011B96E2
:100950009C91917121F0842F827409F097C0142F1B
:10096000F701628B8091000190910101A091020139
:10097000B091030186879787A08BB18BF601E4586D
:10098000FB4F4489558960E070E0BA015527442740
:10099000D70157964D935D936D937C935A97828DB3
:1009A000938DA0E0B0E0482B592B6A2B7B2BD7010D
:1009B00057964D935D936D937C935A97D9011B96EF
:1009C0008C91887159F4848D958DA68DB78DF70122
:1009D000838B948BA58BB68B81E012C0803109F09C
:1009E00055C097012D5E3F4FD7015B968D919C912D
:1009F0005C970E946E10882309F448C084E0F701D8
:100A00008583812F8F70D70114968C931497F701EB
:100A100016821782108611861A961D921D921D92BB
:100A20001C921D9716FF34C015968C91813071F57C
:100A300011FF2CC0F7014389548965897689452BBC
:100A4000462B472B09F461C040E050E0BA01C701D2
:100A50000E94F8038823D1F0F7018788908CA18C3D
:100A6000B28CC38CD48C82E090E0A0E0B0E0F601C0
:100A700080839183A283B3839E012F5F3F4FB50193
:100A8000A401C6010E94EA0F811104C080E03DC0AC
:100A900081E03BC000E010E09801B501A401C6016F
:100AA0000E944A0F882391F389809A80AB80BC8092
:100AB000D60157968C91803129F088EF9FEFAFEFE8
:100AC000BFE004C088EF9FEFA0E0B0E08816990671
:100AD000AA06BB0688F2D70157961D921D921D9259
:100AE0001C925A97F701138A148A158A168A8481F0
:100AF00080688483C7010E948E12882339F240E007
:100B000050E0BA01C7010E94F8030F900F900F90B8
:100B10000F90DF91CF911F910F91FF90EF90DF9099
:100B2000CF90BF90AF909F908F900895CF93DF9319
:100B3000EC010E948E12882311F01D8281E0DF916A
:100B4000CF9108953F924F925F926F927F928F92D2
:100B50009F92AF92BF92CF92DF92EF92FF920F934C
:100B60001F93CF93DF93CDB7DEB72C970FB6F894D2
:100B7000DEBF0FBECDBF5C01DC015B968D909C900B
:100B80005C971696CD90DD90ED90FC901997C1146E
:100B9000D104E104F10439F0BFEFCB1ADB0AEB0A10
:100BA000FB0A312C07C0F401C080D180E280F380C1
:100BB00033243394F40181859285A385B4859C0107
:100BC000AD012F5F3F4F4F4F5F4F29873A874B87CC
:100BD0005C87260137011D821E821F821886F40160
:100BE00081859285A385B4852D813E814F8158856D
:100BF000281739074A075B0708F063C089859A857B
:100C0000AB85BC858C159D05AE05BF0550F482E013
:100C1000C82ED12CE12CF12C92E0492E512C612CC4
:100C2000712C9E012F5F3F4FB701A601C4010E94A6
:100C3000EA0F882309F445C089819A81AB81BC8180
:100C4000892B8A2B8B2B41F0260137019FEF491A04
:100C5000590A690A790A05C0C414D504E604F704E0
:100C600091F02D813E814F8158852F5F3F4F4F4F2F
:100C70005F4F2D833E834F8358873FEFC31AD30ABC
:100C8000E30AF30AACCF0FEF1FEF2FEF3FE0B30102
:100C9000A201C4010E944A0F882399F0D50116963B
:100CA0004D915D916D917C911997411551056105AB
:100CB000710549F093018201C4010E944A0F81111C
:100CC00002C080E02AC0D50116964D925D926D92C9
:100CD0007C921997332051F0D301C2010196A11DD6
:100CE000B11DF40180839183A283B383F5018789C9
:100CF000908DA18DB28D892B8A2B8B2B69F4D50118
:100D000057964D925D926D927C925A9714968C9163
:100D10001497806814968C9381E02C960FB6F89403
:100D2000DEBF0FBECDBFDF91CF911F910F91FF901E
:100D3000EF90DF90CF90BF90AF909F908F907F907B
:100D40006F905F904F903F9008958FB7F894809187
:100D5000B6028FBF089561E0FC0184810E94B10D4D
:100D60008091B50281111092B50208958EBD0000E8
:100D70000DB407FEFDCF8EB508958FEF0C94B60627
:100D80000F931F93CF93DF93EB010E94570E8B01BC
:100D90000E94BD068F3F49F00E94570E601B710BE9
:100DA0006C177D07A8F380E001C081E0DF91CF914F
:100DB0001F910F910895CF93DF93EC018E818823CB
:100DC00089F08F8198859C012F5F3F4F38872F8353
:100DD0008230924018F40E94BD06F3CFCE010E94EB
:100DE000AB061E82DF91CF9108958CBD9DBD089505
:100DF000CF93DF93EC018091B502811109C081E0AE
:100E00008093B5028091B8039091B9030E94F506D2
:100E100060E08C81DF91CF910C94B10DCF92DF9285
:100E2000FF920F931F93CF93DF9300D000D0CDB7E5
:100E3000DEB76C01F62E29833A834B835C830E94D4
:100E4000DB06C6010E94F8066CE271E0C6010E9452
:100E5000C0068F2D80640E94B60608E110E05C8118
:100E60004B813A812981DA01C901002E04C0B6956F
:100E7000A795979587950A94D2F729833A834B8350
:100E80005C830E94B6060850110929813A814B8182
:100E90005C81083F8FEF180731F7FF2029F0E8E069
:100EA000FE1204C087E803C085E901C08FEF0E94ED
:100EB000B60610E00E94BD06F601828787FF04C0D7
:100EC0001F3F11F01F5FF6CF0F900F900F900F9004
:100ED000DF91CF911F910F91FF90DF90CF900895F8
:100EE000AF92BF92CF92DF92EF92FF920F931F9338
:100EF000CF93DF93EC016901C801820F931F81300A
:100F0000924008F070C08E81882371F088819981A9
:100F1000AA81BB81481759076A077B0729F48F818B
:100F20009885C816D906B0F5488359836A837B83B0
:100F30008B85833039F089E0440F551F661F771F7A
:100F40008A95D1F79A01AB0161E1CE010E940E07AB
:100F5000882319F083E08D8346C00E94570E5B0101
:100F60000E94BD068A878F3F49F40E94570E6A1976
:100F70007B096D327140A0F38FE003C08E3F31F0EA
:100F80008DE08D83CE010E94AB062DC018861F8296
:100F900081E08E838F8198858C159D0540F40E9499
:100FA000BD068F819885019698878F83F3CF67015F
:100FB000E00EF11ECE14DF0431F00E94BD06F601F2
:100FC00081936F01F7CF8F819885080F191F1887BC
:100FD0000F838985882319F00115124048F0CE014E
:100FE0000E94DB0605C0CE010E94AB0680E001C076
:100FF00081E0DF91CF911F910F91FF90EF90DF90F3
:10100000CF90BF90AF900895EF92FF920F931F93F0
:10101000CF93DF93EC01790141155105610571050D
:1010200011F482E13CC08B85833039F089E0440FB4
:10103000551F661F771F8A95D1F79A01AB0168E1AA
:10104000CE010E940E07882311F084E028C08EEFA5
:101050000E94B60687018EEFF81AF80181918F0180
:101060000E94B6060E151F05C1F78FEF0E94B60647
:101070008FEF0E94B6060E94BD068A878F71853069
:1010800031F081E18D83CE010E94AB0609C068E595
:1010900072E0CE010E94C006811107C085E18D83F8
:1010A000CE010E94AB0680E013C020E030E0A90131
:1010B0006DE0CE010E940E07811104C00E94BD06A2
:1010C000882311F084E1EBCFCE010E94AB0681E0D2
:1010D000DF91CF911F910F91FF90EF900895FC0148
:1010E000DB0112968D919C911397938382838AE3FF
:1010F00091E09183808314968C9114978483159644
:101100008C911597858316964D915D916D917C918B
:10111000199746835783608771871A964D915D9121
:101120006D917C911D9742875387648775871E96C2
:101130004D915D916D917C91519746875787608B5A
:10114000718B52968C915297828B53964D915D91F3
:101150006D917C915697438B548B658B768B57960C
:101160004D915D916D917C915A97478B508F618F16
:10117000728F5B968D919C915C97948F838F08956D
:10118000EF92FF920F931F93CF93DF93EC017B01BC
:101190008A011B821A8288EE93E0A0E0B0E08C8383
:1011A0009D83AE83BF838AE991E0998388838DE133
:1011B00090E00E94AB209A8F898F009779F02DE103
:1011C000F701DC0101900D922A95E1F74CE050E027
:1011D000B801CE010C960E94EA21188EDF91CF91C2
:1011E0001F910F91FF90EF9008952F923F924F9291
:1011F0005F926F927F928F929F92AF92BF92CF92A7
:10120000DF92EF92FF920F931F93CF93DF9300D063
:10121000CDB7DEB7FC018581882309F4D9C084816C
:1012200080FFD6C021E02A83438954896589768965
:1012300082859385A485B585481759076A077B077A
:1012400009F41A826F013A81832F90E0DE01119632
:101250004D013F01B6E06B0E711C892B09F47DC076
:10126000D6011A964D915D916D917C911D975A0111
:10127000B1E0BB22F60125811A012B0189E05694C9
:101280004794379427948A95D1F7838D948D223093
:1012900061F4FC01828D938DA48DB58DBC01CD01CF
:1012A000620D731D841D951D45C0DC0114961C91B3
:1012B00011501221A114B104D1F4111118C0452B01
:1012C000462B472B51F4F6018789908DA18DB28D65
:1012D00086839783A087B1870AC04681578160853E
:1012E000718593010E94EA0F882309F471C0F60109
:1012F000238D348D86819781A085B1850297A109C0
:10130000B109AC01BD01F901058404C0440F551FAA
:10131000661F771F0A94D2F786859785A089B189C1
:10132000840F951FA61FB71FBC01CD01610F711D52
:10133000811D911DD60114962C9126FF14C0009199
:101340000001109101012091020130910301601709
:1013500071078207930751F506C0FA81FF23C1F197
:10136000898190E037C040E00E94010F882381F11D
:10137000F501E458FB4FD401CF010196E817F907B6
:1013800019F021912D93FACFEFEF8E1A9E0AF601F4
:1013900082859385A485B5850196A11DB11D82879F
:1013A0009387A487B58780E090E057CF740101E070
:1013B00010E09501AB01BC0180917C0690917D0607
:1013C0000E947007882321F0BFEF8B1A9B0ADFCFA2
:1013D0008FEF9FEF0F900F90DF91CF911F910F91A3
:1013E000FF90EF90DF90CF90BF90AF909F908F9045
:1013F0007F906F905F904F903F902F900895FC01E9
:10140000818D928D009711F00C94F5088FEF9FEF6E
:1014100008950F931F93CF93DF93FC01818D928DDD
:101420000097B9F0EF010E94F5088C010F3F8FEF94
:10143000180791F0898D9A8DFC014285538564854A
:10144000758541505109610971090E94F803C8016D
:1014500005C080E090E002C08FEF9FEFDF91CF9159
:101460001F910F9108951F920F920FB60F921124A2
:101470002F933F934F935F936F937F938F939F939C
:10148000AF93BF93EF93FF938091B900887F80362D
:1014900009F49CC068F5883209F45BC090F480318F
:1014A00009F454C038F4882309F4F6C0883009F4EC
:1014B0004DC0F6C0883109F44CC0803209F45DC0DB
:1014C000EFC0803409F468C048F4803309F455C093
:1014D000883309F0E5C08093F102D8C0803509F463
:1014E0004FC0883509F45DC0883409F0D9C0D6C032
:1014F000883909F4C7C0A8F4883709F467C038F4FC
:10150000883609F463C0803709F460C0C9C08838E0
:1015100009F4B8C0803909F45FC0803809F0C0C050
:101520005BC0803B09F486C038F4803A09F466C099
:10153000883A09F47FC0B4C0803C09F4A7C0883C55
:1015400009F4A4C0883B09F48AC0AAC08091CE02E5
:1015500010C09091F0028091EF02981770F5E09121
:10156000F00281E08E0F8093F002F0E0E153FD4F36
:1015700080818093BB0085EC86C08093F1028EC091
:10158000E091F00281E08E0F8093F0028091BB0029
:10159000F0E0E153FD4F80839091F0028091EF02E3
:1015A0006EC0E091F00281E08E0F8093F002809196
:1015B000BB00F0E0E153FD4F808380911503811162
:1015C0006DC081E08093140384EA61C083E080935E
:1015D00016031092B402CFCF8091B402803208F08B
:1015E00051C0E091B40281E08E0F8093B4028091EB
:1015F000BB00F0E0EC56FD4F8083BDCF85EC8093BF
:10160000BC00109216038091B402803230F4E09155
:10161000B402F0E0EC56FD4F10826091B40270E02D
:10162000E0919202F091930284E992E00995109280
:10163000B40236C084E08093160310929102109297
:101640009002E0918E02F0918F02099580919002B4
:10165000811105C081E08093900210926E02E091AA
:10166000910281E08E0F80939102F0E0E259FD4FEC
:1016700080818093BB009091910280919002981795
:1016800008F479CF85E88093BC000AC085EC80938C
:10169000BC001092160304C01092F1020E94CB000D
:1016A000FF91EF91BF91AF919F918F917F916F913A
:1016B0005F914F913F912F910F900FBE0F901F9010
:1016C0001895FF920F931F93CF93DF93CDB7DEB79B
:1016D0002C970FB6F894DEBF0FBECDBF26E0EAE030
:1016E000F1E0DE01179601900D922A95E1F726E0D0
:1016F000E0E1F1E0DE01119601900D922A95E1F70B
:10170000880F991F01E010E00C0F1D1F080F191F13
:10171000F801F68061E08F2D0E94E10D61E08F2DD0
:101720000E94B10D64E670E080E090E00E941D0E22
:10173000F80190819E3008F09E50977090649093CD
:101740007C0080917A00806480937A0080917A0096
:1017500086FDFCCF109178000091790060E08F2D1C
:101760000E94B10D212F30E0302B80E094E0821BED
:10177000930B6AE070E00E945B20CB012C960FB6C1
:10178000F894DEBF0FBECDBFDF91CF911F910F91B7
:10179000FF900895FC01538D448D252F30E0842F58
:1017A00090E0821B930B541710F0CF960895019789
:1017B0000895FC01918D828D981761F0828DDF0173
:1017C000A80FB11D5D968C91928D9F5F9F73928F34
:1017D00090E008958FEF9FEF0895FC01918D828D29
:1017E000981731F0828DE80FF11D858D90E00895F6
:1017F0008FEF9FEF0895FC01918D228D892F90E04E
:10180000805C9F4F821B91098F73992708958BE10C
:1018100093E00E94FB0B21E0892B09F420E0822F4A
:101820000895FC01848DDF01A80FB11DA35ABF4F9D
:101830002C91848D90E001968F739927848FA689CF
:10184000B7892C93A089B1898C9180648C93938DF6
:10185000848D981306C00288F389E02D80818F7DE6
:1018600080830895EF92FF920F931F93CF93DF939E
:10187000EC0181E0888F9B8D8C8D981305C0E889E1
:10188000F989808185FD24C0F62E0B8D10E00F5F55
:101890001F4F0F731127E02E8C8DE8120CC00FB66E
:1018A00007FCFACFE889F989808185FFF5CFCE0161
:1018B0000E94110CF1CF8B8DFE01E80FF11DE35A50
:1018C000FF4FF0820B8FEA89FB898081806207C01D
:1018D000EE89FF896083E889F9898081806480834B
:1018E00081E090E0DF91CF911F910F91FF90EF90F9
:1018F0000895CF93DF93EC01888D8823C9F0EA899E
:10190000FB89808185FD05C0A889B9898C9186FDF8
:101910000FC00FB607FCF5CF808185FFF2CFA889F5
:10192000B9898C9185FFEDCFCE010E94110CE7CFD4
:10193000DF91CF91089580E090E0892B29F00E94FB
:10194000070C81110C9400000895833081F028F475
:10195000813099F08230A1F008958730A9F0883065
:10196000B9F08430D1F4809180008F7D03C08091E4
:1019700080008F7780938000089584B58F7702C0B0
:1019800084B58F7D84BD08958091B0008F7703C0AA
:101990008091B0008F7D8093B00008953FB7F89498
:1019A0008091CA029091CB02A091CC02B091CD025D
:1019B00026B5A89B05C02F3F19F00196A11DB11DAA
:1019C0003FBFBA2FA92F982F8827820F911DA11DE5
:1019D000B11DBC01CD0142E0660F771F881F991F22
:1019E0004A95D1F708950E94D8218091C00288239A
:1019F000A9F14091000150910101609102017091A3
:101A000003012CE734E080917C0690917D060E94D2
:101A10000408811102C080E008954091C1025091F4
:101A2000C2026091C3027091C40241155105610563
:101A3000710591F02CE734E080917C0690917D0651
:101A40000E940408882339F31092C1021092C20246
:101A50001092C3021092C4021092C00281E0089555
:101A60001F920F920FB60F9211242F933F934F9313
:101A70005F936F937F938F939F93AF93BF93EF93F6
:101A8000FF938BE193E00E94110CFF91EF91BF91C6
:101A9000AF919F918F917F916F915F914F913F9106
:101AA0002F910F900FBE0F901F9018951F920F92BD
:101AB0000FB60F9211242F938F939F93EF93FF9361
:101AC000E0912B03F0912C038081E0913103F091A0
:101AD000320382FD12C09081809134038F5F8F7337
:101AE00020913503821751F0E0913403F0E0E55E78
:101AF000FC4F958F8093340301C08081FF91EF915B
:101B00009F918F912F910F900FBE0F901F9018955E
:101B1000CF93DF93282F30E0F901E254FF4F8491F7
:101B2000F901EE58FF4FD491F901EA57FF4FC491E4
:101B3000CC2391F081110E94A50CEC2FF0E0EE0F68
:101B4000FF1FEC54FF4FA591B491EC91ED2381E080
:101B500090E021F480E002C080E090E0DF91CF913E
:101B600008951F93CF93DF93282F30E0F901E254BB
:101B7000FF4F8491F901EE58FF4FD491F901EA57D4
:101B8000FF4FC491CC23C9F0162F81110E94A50CE0
:101B9000EC2FF0E0EE0FFF1FE655FF4FA591B4913B
:101BA0008FB7F894111105C09C91ED2FE095E923B2
:101BB00002C0EC91ED2BEC938FBFDF91CF911F9181
:101BC0000895CF93DF9390E0FC01EE58FF4F2491EE
:101BD000FC01EA57FF4F8491882361F190E0880F60
:101BE000991FFC01E859FF4FC591D491FC01E655BE
:101BF000FF4FA591B491611109C09FB7F8948881F6
:101C0000209582238883EC912E230BC0623061F4EF
:101C10009FB7F8943881822F809583238883EC9135
:101C20002E2B2C939FBF06C08FB7F894E8812E2BE4
:101C300028838FBFDF91CF9108958F929F92AF92AB
:101C4000BF92CF92DF92EF92FF926B017C010E94D4
:101C5000CE0C4B015C01C114D104E104F104F1F09C
:101C60000E94CE0CDC01CB0188199909AA09BB0995
:101C7000883E9340A105B10570F321E0C21AD10856
:101C8000E108F10888EE880E83E0981EA11CB11CC3
:101C9000C114D104E104F10419F7DDCFFF90EF90F6
:101CA000DF90CF90BF90AF909F908F9008952FB707
:101CB000F8946091C6027091C7028091C802909119
:101CC000C9022FBF08951F920F920FB60F921124D1
:101CD0002F933F938F939F93AF93BF938091C602AF
:101CE0009091C702A091C802B091C9023091C5027B
:101CF00023E0230F2D3720F40196A11DB11D05C04F
:101D000026E8230F0296A11DB11D2093C5028093E2
:101D1000C6029093C702A093C802B093C9028091F3
:101D2000CA029091CB02A091CC02B091CD02019653
:101D3000A11DB11D8093CA029093CB02A093CC0247
:101D4000B093CD02BF91AF919F918F913F912F9111
:101D50000F900FBE0F901F901895FC01248131E069
:101D60003093F2022093130310921803109217037A
:101D70008385682B83E094E00E94590181E00C94F4
:101D800093140F931F93CF938C01C62F0E94AD0E17
:101D90006C2F6460C8010E94AD0E6C2F6B7FC80170
:101DA0000E94AD0E83EC90E00197F1F7CF911F9167
:101DB0000F910895FF920F931F93CF93DF931F927C
:101DC000CDB7DEB78C01F62E962F907F692F642B4E
:101DD000C80149830E94C10E80E1F89EB001112420
:101DE0004981642BC8010F90DF91CF911F910F9112
:101DF000FF900C94C10E41E00E94DA0E81E090E069
:101E000008958F929F92AF92BF92EF92FF920F939D
:101E10001F93CF934B015C01C42F809100019091DF
:101E20000101A0910201B091030188159905AA054D
:101E3000BB0501F10E94F50C811102C080E020C0B9
:101E40008CE7E82E84E0F82E00E012E020E030E09D
:101E5000B501A40180917C0690917D060E947007D7
:101E6000882361F38092000190920101A092020107
:101E7000B09203018091C002C82BC093C00281E0E0
:101E8000CF911F910F91FF90EF90BF90AF909F90D7
:101E90008F9008954F925F926F927F928F929F9250
:101EA000AF92BF92CF92DF92EF92FF920F931F9368
:101EB000CF93DF93EC016A017B01280139014230A5
:101EC00051056105710510F480E073C089859A851C
:101ED000AB85BC850196A11DB11D84179507A6078A
:101EE000B70790F38B889C88AD88BE888F89803136
:101EF00029F4BB27AF2D9E2D8D2D09C0DB01CA0112
:101F000047E0B695A795979587954A95D1F7880E9E
:101F1000991EAA1EBB1E8091000190910101A09103
:101F20000201B091030188169906AA06BB0679F44E
:101F30008F898031A1F4DD24EE24FF24C601880FAF
:101F4000991FFC01E458FB4F5182408219C040E0C8
:101F5000C501B4010E94010F8111EACFB5CFE89409
:101F6000C7F8DD24EE24FF24C601880F991F880FCF
:101F7000991FFC01E458FB4F4082518262827382B8
:101F80008091C00281608093C0028A89823080F093
:101F90008D819E81AF81B885880E991EAA1EBB1EB9
:101FA0008092C1029092C202A092C302B092C40277
:101FB00081E0DF91CF911F910F91FF90EF90DF9023
:101FC000CF90BF90AF909F908F907F906F905F90D9
:101FD0004F9008958F929F92AF92BF92CF92DF92CF
:101FE000EF92FF920F931F93CF93DF93FC018185B4
:101FF0009285A385B4850196A11DB11D841795070F
:10200000A607B70710F480E05CC083899489A5898E
:10201000B689C789C03129F4852E962EA72EBB24F8
:1020200009C04A015B01C7E0B694A79497948794CE
:10203000CA95D1F7E9016A017B018F01BC01CD018D
:10204000680D791D8A1D9B1D8090000190900101F3
:10205000A0900201B0900301681579058A059B05DF
:1020600099F4F80187898031A9F4B701A6015527B1
:1020700066277727440F551FFA01E458FB4F8081EC
:102080009181A0E0B0E018C040E00E94010F8111F2
:10209000E8CFB9CFB701A6014F7755276627772735
:1020A000440F551F440F551FFA01E458FB4F808120
:1020B0009181A281B381BF7088839983AA83BB83F6
:1020C00081E0DF91CF911F910F91FF90EF90DF9012
:1020D000CF90BF90AF909F908F9008954F925F9256
:1020E0006F927F92AF92BF92CF92DF92EF92FF9268
:1020F0000F931F93CF93DF9300D000D0CDB7DEB7FF
:102100008C0149835A836B837C835901C12CD12C68
:102110007601412C82E0582E612C712C49815A8124
:102120006B817C819E012F5F3F4FC8010E94EA0FA7
:10213000882351F1D301C201F801058404C0880F3E
:10214000991FAA1FBB1F0A94D2F7C80ED91EEA1EF8
:10215000FB1E49815A816B817C818789803129F0FE
:1021600088EF9FEFAFEFBFE004C088EF9FEFA0E0E4
:10217000B0E0481759076A077B0780F2F501C08273
:10218000D182E282F38281E00F900F900F900F9046
:10219000DF91CF911F910F91FF90EF90DF90CF9043
:1021A000BF90AF907F906F905F904F9008954F9247
:1021B0005F926F927F92AF92BF92CF92DF92EF9237
:1021C000FF920F931F93CF93DF93CDB7DEB72B977B
:1021D0000FB6F894DEBF0FBECDBF7C01CE010196D5
:1021E0006C01FC0190E28BE08C0D91938E13FDCF7E
:1021F000DA0130E047E09D91992339F19E3219F0E0
:10220000EAE9F0E00AC04A3009F472C138E04AE075
:10221000F2CF3196891709F46BC184918111F9CFFE
:10222000431708F465C18FED890F8E3508F060C142
:1022300081E0830FF601E30FF11D3FE9390F3A31D9
:1022400008F490529083382FD6CF8981803209F4D8
:102250004FC1B22E8B01DB015B968D919C915C97F7
:10226000F701948F838F16961D921D921D921C92DA
:102270001997FB011286138614861586712CF801B6
:1022800082859385A485B585438954896589768936
:1022900084179507A607B70708F061C025E0B69533
:1022A000A795979587952A95D1F7F82FFF706F2EF0
:1022B000D80115968C91823008F41AC1C8010E9489
:1022C000F50897FD15C1F80182859385A485B5852C
:1022D0004F96A11DB11D82879387A487B587F0E231
:1022E0006F9EC0011124BC0164587B4F61157105BC
:1022F00009F4FEC0DB012C91222319F0253EC1F424
:1023000027C071100EC0F701628A40910001509100
:102310000101609102017091030146875787608B2C
:10232000718BFC01E458FB4F8081811113C015C0F3
:102330004BE050E0C6010E94DD21892B09F09FCFC0
:102340008B2D8073803309F4D3C04B2D662DCCC008
:102350007720C9F27724739492CF772473948B2DCE
:102360008271823109F0C4C07720D1F0D7011E9666
:102370006D917D918D919C91519741E00E94010F4B
:10238000882309F4B5C0F7016289F0E26F9FB001BC
:10239000112464587B4F6115710509F079C0A8C0FC
:1023A000D80115968C91823009F4A2C0C8010E9410
:1023B000A205882309F49CC0D8015B96ED91FC919D
:1023C0005C9716964D905D906D907C901997B2E059
:1023D0004B1A510861087108058404C0440C551C4F
:1023E000661C771C0A94D2F786859785A089B189E7
:1023F000480E591E6A1E7B1EA480E1E04E1A510849
:1024000061087108AA2009F10E94F50C882309F4DB
:102410006FC0ECE7F4E0119226E0EC37F207D9F751
:10242000D301C2018A0D911DA11DB11D8093000130
:1024300090930101A0930201B09303018091C00227
:1024400081608093C002AA94DDCFD8015B96ED91A4
:10245000FC915C9780E092E0A0E0B0E0058404C0CD
:10246000880F991FAA1FBB1F0A94D2F7F80143894E
:10247000548965897689840F951FA61FB71F838BA2
:10248000948BA58BB68BD70152961C926CE774E0A7
:1024900080E2FB0111928A95E9F78BE0F601DB01FE
:1024A00001900D928A95E1F781E298E2DB01519665
:1024B0009C938E93509720E038E01F963C932E9388
:1024C0001E9753969C938E93529759969C938E93F6
:1024D000589757963C932E9356970E94F50C882355
:1024E00039F04B2DF7016289C7010E948E0401C0AB
:1024F00080E02B960FB6F894DEBF0FBECDBFDF9104
:10250000CF911F910F91FF90EF90DF90CF90BF90F0
:10251000AF907F906F905F904F900895CF93DF932F
:10252000EC018D818823A1F18C8187FF2DC06E8500
:102530007F858889998941E00E94010F882341F1B4
:10254000EA8980E2E89FF0011124DF01A458BB4F23
:102550001097F1F08D81823050F44B895C896D8940
:102560007E895C964D935D936D937C935F978F8985
:10257000988DA98DBA8DE458FB4F938F828FB58BC0
:10258000A48B8C818F778C83DF91CF910C94F50C89
:1025900080E0DF91CF9108952F923F924F925F920A
:1025A0006F927F928F929F92AF92BF92CF92DF9263
:1025B000EF92FF920F931F93CF93DF9300D000D041
:1025C000CDB7DEB78C015B011A01DC0115968C9149
:1025D00015978130C9F414968C9181FF15C082FF44
:1025E0001BC0F80143895489658976898285938562
:1025F000A485B58584179507A607B70769F0C801B4
:102600000E94F803811108C081E090E0F8019383F3
:10261000828380E090E039C1610183C0D8015B967C
:102620008D919C915C97FC01248121502A013B01F2
:1026300039E076946794579447943A95D1F7722E7F
:1026400074207A01F1E0FF22772009F476C080E05F
:1026500092E08E199F0946018C159D0508F44C01E6
:10266000D8015B962D913C915C9716968D919D912A
:102670000D90BC91A02D0297A109B109F901058423
:1026800004C0880F991FAA1FBB1F0A94D2F7468562
:10269000578560897189840F951FA61FB71F9C01FC
:1026A000AD01270D311D411D511D29013A01811434
:1026B00032E0930609F088C08091000190910101F9
:1026C000A0910201B091030184159505A605B705F7
:1026D00059F48FEF9FEFDC0180930001909301018B
:1026E000A0930201B09303019501B301A20180916F
:1026F0007C0690917D060E940408882309F484CF0B
:102700009EEFB91AC818D908F80182859385A48567
:10271000B585880D991DA11DB11D82879387A4875A
:10272000B587D8011A964D915D916D917C911D9759
:10273000C114D10409F072CF87C0E114F10409F08B
:1027400086CF16964D915D916D917C9119974115AB
:1027500051056105710559F457968D919D910D9024
:10276000BC91A02D0097A105B10541F521C09E01A6
:102770002F5F3F4F0E94EA0F882309F44BCF8981D6
:102780009A81AB81BC81F801238D348DF9012789B1
:10279000203129F048EF5FEF6FEF7FE004C048EF92
:1027A0005FEF60E070E084179507A607B70730F089
:1027B000C8010E94A20581114ACF26CFF801868365
:1027C0009783A087B18743CFE114F10429F5D8019D
:1027D0001A964D915D916D917C911D9753968D91B7
:1027E0009D910D90BC91A02D481759076A077B0752
:1027F00098F00E94F50C882309F406CF409200015E
:102800005092010160920201709203018091C00216
:1028100081608093C00208C041E0C301B2010E9400
:10282000010F882309F4F0CED501F701E458FB4FDE
:10283000CF01880D991DE817F90719F02D91219303
:10284000FACFA80CB91C5ECF53968D919D910D9037
:10285000BC91A02D84179507A607B70740F4F8018F
:10286000438B548B658B768B848180688483D801FD
:1028700014968C9183FD02C0C10107C0C8010E945B
:102880008E12882309F4C0CEF7CF0F900F900F90CF
:102890000F90DF91CF911F910F91FF90EF90DF90FC
:1028A000CF90BF90AF909F908F907F906F905F90F0
:1028B0004F903F902F900895CF93DF931F92CDB705
:1028C000DEB7698341E050E0BE016F5F7F4F0E9439
:1028D000CC120F90DF91CF91089510921A031092AD
:1028E000190310921803109217031092160381E037
:1028F000809315031092140361E082E10E94B10DF0
:1029000061E083E10E94B10DE9EBF0E080818E7F10
:10291000808380818D7F808388E48093B80085E404
:102920008093BC000895382F2091170390911303D2
:10293000213208F049C0809116038111FCCF42E09A
:1029400040931603309315033FEF3093F10210923A
:10295000F0022093EF02A3EFB2E04FEC52E0FA0155
:102960003E2F341B321718F43D913193F9CF10925A
:10297000CE022091CE02990F922B9093CE0290918D
:102980001403913061F4109214039091CE0290934D
:10299000BB009091BC0093FDF8CF95EC01C095EE83
:1029A0009093BC00909116039230E1F39091F10264
:1029B0009F3F79F08091F102803241F08091F102E5
:1029C000803331F084E005C081E003C082E001C0C3
:1029D00083E010921803109217031092F2020895E8
:1029E000CF92DF92EF92FF920F931F93CF93DF93DB
:1029F000C82FD62F042F11E080913504821310E0E8
:102A00000E94570EC0903604D0903704E0903804EE
:102A1000F0903904A70196010E946F20F694E79484
:102A2000D794C7946C157D058E059F0508F442C0A8
:102A3000D23009F442C028F4DD2351F0D13011F135
:102A400015C1D33009F467C0D43009F4B1C00EC148
:102A5000E0912604F0912704E00FF11D111105C04B
:102A6000C73008F0C6E0C05D01C0C0E2C083FEC050
:102A7000D33008F04CC0DD2309F4EEC0D13009F0AA
:102A8000F5C010E0C43608F0C3E6202F30E0E09136
:102A90002604F0912704E20FF31F111106C08C2FBA
:102AA0006AE00E944F20805D01C080E280832F5F3A
:102AB0003F4FC1C0D230E1F610E0C73008F0C6E0A9
:102AC000202F30E0E0912604F0912704E20FF31F5D
:102AD000111108C0A0912A04B0912B04AC0FB11DB4
:102AE0008C9101C080E280832F5F3F4FE0912604EC
:102AF000F0912704E20FF31F111153C0A0912A0493
:102B0000B0912B04AC0FB11D11968C914BC0D330FA
:102B100009F04AC010E0C73308F0C6E3E02FF0E048
:102B2000A0912604B09127049D012E0F3F1F111183
:102B300009C080912C0490912D048C0F911DDC0113
:102B40008C9101C080E2D9018C93A0912604B091B0
:102B50002704CF0101969D01280F391F11110AC0CA
:102B600080912C0490912D048C0F911DDC01119605
:102B70008C9101C080E2D9018C939F012E5F3F4F61
:102B8000E0912604F0912704E20FF31F111109C010
:102B9000A0912C04B0912D04AC0FB11D12968C9114
:102BA00001C080E2808362C0D43009F05FC010E0D1
:102BB000C43608F0C3E6202F30E0E0912604F091FF
:102BC0002704E20FF31F11110AC080913A0490E02C
:102BD00001976AE070E00E945B20605D01C060E2E6
:102BE0006083E0912604F0912704C9010196E80F63
:102BF000F91F11110AC080913A0490E001976AE030
:102C000070E00E945B20805D01C080E28083E091E3
:102C10002604F0912704C9010296E80FF91F11114B
:102C200006C08C2F6AE00E944F20805D01C080E2C8
:102C300080832D5F3F4FE0912604F0912704E20F3F
:102C4000F31F111106C08C2F6AE00E944F20905D87
:102C500001C090E290830AC0C73008F0C6E0E0915E
:102C60002604F0912704E00FF11DFDCEDF91CF91F6
:102C70001F910F91FF90EF90DF90CF900895CF9329
:102C8000DF93CBE1D4E089859A85DC01ED91FC915D
:102C90000280F381E02D60E00995982F9695969536
:102CA00096959E71292F220F220F920F8F70890FF8
:102CB0008B8B888389859A85DC01ED91FC9102805C
:102CC000F381E02D61E00995982F9695969596955C
:102CD0009E71292F220F220F920F8F70890F8C8BDC
:102CE000898389859A85DC01ED91FC910280F381CD
:102CF000E02D62E00995982F9695969596959E7190
:102D0000292F220F220F920F8F70890F8D8B8B83AB
:102D100089859A85DC01ED91FC910280F381E02D9B
:102D200063E00995982F9695969596959E71292F13
:102D3000220F220F920F8F70890F8E8B8D838985C2
:102D40009A85DC01ED91FC910280F381E02D64E035
:102D50000995982F9695969596959E71292F220FF5
:102D6000220F920F8F70890F8F8B8F8389859A85A1
:102D7000DC01ED91FC910280F381E02D65E0099585
:102D8000982F9695969596959E71292F220F220F32
:102D9000920F8F70890F888F888789859A85DC01CB
:102DA000ED91FC910280F381E02D66E00995282FDA
:102DB0002F7021508695869586958E71982F990F44
:102DC000990F890F820F898F8E830E94570E6AA3F5
:102DD0007BA38CA39DA3DF91CF910895CF92DF9227
:102DE000EF92FF920F931F93CF93DF936C017A01C1
:102DF0008B01C0E0D0E0CE15DF0589F0D8016D91E0
:102E00008D01D601ED91FC910190F081E02DC6017C
:102E10000995892B11F47E0102C02196ECCFC701E0
:102E2000DF91CF911F910F91FF90EF90DF90CF90A6
:102E300008954F925F926F927F928F929F92AF927E
:102E4000BF92CF92DF92EF92FF920F931F93CF9397
:102E5000DF938C01C0903D04D0903E04E0903F048D
:102E6000F09040040E94570E6C157D058E059F055D
:102E700040F410923D0410923E0410923F041092D0
:102E8000400420913B0430913C042115310519F494
:102E90000E943F16B1C080913D0490913E04A091E4
:102EA0003F04B09140040097A105B10589F36C017E
:102EB0007D01C20ED31EE11CF11C0E94570E6C1541
:102EC0007D058E059F0520F70E94570EC0903D049A
:102ED000D0903E04E0903F04F09040046C197D09CE
:102EE0008E099F0928EE33E040E050E00E946F20F9
:102EF000C0913204D0913304C23009F0A2C18D2FA9
:102F000090E083709927892B09F495C17CE1F72E15
:102F100080912E0429013A01480E511C611C711C3C
:102F2000C301B2012CE3822E912CA12CB12CA5015E
:102F300094010E946F2060931B0480912F0429014B
:102F40003A01480E511C611C711CC301B201A5015C
:102F500094010E946F2060931C04809130045901F9
:102F60006A01A80EB11CC11CD11CC601B50128E123
:102F700030E040E050E00E946F2060931E0480919A
:102F80003404820F873008F059C180932104809166
:102F9000310429013A01480E511C611C711CC30106
:102FA000B2014F2D50E09A012F5F3F4F032E000CCE
:102FB000440B550B0E946F20620F60932004CA01DE
:102FC000B9016C0F711D811D911D2DE030E040E0B5
:102FD00050E00E946F20620F60932204CA01B90181
:102FE0006D0F711D811D911D24E630E040E050E021
:102FF0000E946F206093230420911E04822F6CE0B6
:103000000E944F20911101C09CE090931D0491E01B
:103010002C3008F490E090931F04F80101900020F8
:10302000E9F731979F01201B310BC1E0C20FA0913E
:103030002804B091290490E0492F50E0421753072B
:1030400038F5FD0101900020E9F731977F01EA1A78
:10305000FB0A80E0400F511F682F70E06E157F055E
:10306000A8F46A0F7B1FFA01D081FB016081D6139F
:103070000BC0882349F08A3010F4CF5F05C08C3034
:1030800010F4CE5F01C0CD5F8F5FE6CF9F5FD4CFDE
:1030900080912604909127040E9440218C2F90E07B
:1030A0000E94AB209093270480932604C0E0D0E0D8
:1030B0008D2F90E0F80101900020E9F73197E01B97
:1030C000F10B8E179F0708F09AC0F801E80FF91F5F
:1030D0009081E0912804F09129048081981308C020
:1030E00027E04C2F60E0809121040E94F01484C0FE
:1030F0008181981307C080911F0428E04C2F62E063
:10310000880F0AC0828198130BC080911F04880F1A
:1031100028E04C2F62E08C5F0E94F014CE5F6DC0FF
:103120008381981306C024E04C2F61E08091200435
:10313000F3CF8481981306C023E04C2F61E0809187
:103140001D04EACF8581981306C023E04C2F61E06F
:1031500080911E04E1CF8681981306C022E04C2F97
:1031600061E080911C04D8CF8781981306C025E0C8
:103170004C2F61E080912204CFCF8085981306C048
:1031800021E04C2F61E080911B04C6CF818598130C
:1031900006C026E04C2F61E080912304BDCF8285DC
:1031A000981308C08091220490E00696982F990FFA
:1031B00025E008C0838598130CC080912104982FC6
:1031C000990F27E04C2F63E0890F0E94F014CD5F28
:1031D00014C08485981309C026E04C2F64E08091C8
:1031E00023040E94F014CC5F08C0E0912604F09103
:1031F0002704EC0FF11D9083CF5FDF5F59CFE09183
:103200002604F0912704EC0FF11D10828091260412
:1032100090912704DF91CF911F910F91FF90EF9034
:10322000DF90CF90BF90AF909F908F907F906F90E6
:103230005F904F9008956DE1F62E6ACE10922104B2
:10324000A6CE8C2F90E061E070E0C83010F460E012
:1032500070E0860F971F817099279EE1F92EF80E76
:1032600057CE8F929F92AF92BF92CF92DF92EF9202
:10327000FF92CF93DF93C82F8AEB93E090937D0664
:1032800080937C06CC2369F1C53010F080E00DC13D
:1032900040E060E070E0CB010E94010F8823B1F3B1
:1032A00020E1C29FC001112484599B4FFC01E254CC
:1032B000FE4F20812F7751F73C96408151816281EA
:1032C0007381443651056105710500F33497C08060
:1032D000D180E280F380C114D104E104F10421F42F
:1032E000D5CFC12CD12C760140E0C701B6010E9498
:1032F000010F882359F280918704909188048115E9
:10330000924021F6A0918C04AA2309F4BFCF6091CA
:103310008A0470918B046115710509F4B7CF20916F
:103320008904222309F4B2CFA093D8032093CA03BF
:1033300080E030E0E1E0F0E0C82FAF01082E02C0ED
:10334000440F551F0A94E2F72417350741F0982FD0
:103350008F5F983089F789E08093D30397CF80936C
:10336000D30320919204309193042115310519F073
:1033700040E050E008C02091A0043091A1044091A9
:10338000A2045091A3042093CB033093CC03409329
:10339000CD035093CE0346015701860E971EA11C04
:1033A000B11C8092D9039092DA03A092DB03B09211
:1033B000DC03E0918D04F0918E04F093DF03E09341
:1033C000DE03B0E00E943520860E971EA81EB91EAF
:1033D0008092E0039092E103A092E203B092E303B3
:1033E00085E0EE0FFF1F8A95E1F7E150FE4FEF2FCA
:1033F000FF27E6958E0E9F1EA11CB11C8092D40360
:103400009092D503A092D603B092D70320918F0457
:10341000309190042115310521F0A90160E070E0A0
:1034200008C040919C0450919D0460919E0470914D
:103430009F04D701C60188199909AA09BB09840FFD
:10344000951FA61FB71F04C0B695A795979587959A
:10345000CA95D2F78093CF039093D003A093D10362
:10346000B093D203853F2FE09207A105B10510F478
:103470008CE018C0853F9F4FA105B10510F480E195
:1034800011C08091A8049091A904A091AA04B091C0
:10349000AB048093E0039093E103A093E203B09325
:1034A000E30380E28093DD0381E0DF91CF91FF9021
:1034B000EF90DF90CF90BF90AF909F908F90089546
:1034C000909116039111FCCF91E090931603909385
:1034D00015032FEF2093F1021092F002260F209394
:1034E000EF029093CE029091CE02880F892B8093A9
:1034F000CE0280911403813061F410921403809104
:10350000CE028093BB008091BC0083FDF8CF85EC98
:1035100001C085EE8093BC00809116038130E1F3F9
:103520008091F002861710F46091F002AFECB2E0E7
:103530002CE534E0F9018E2F821B861718F48D914B
:103540008193F9CF862F08956115710579F0FB01FC
:1035500001900020E9F73197AF01461B570BDC01C2
:10356000ED91FC910280F381E02D099480E090E0E0
:1035700008954F925F926F927F928F929F92AF9237
:10358000BF92CF92DF92EF92FF920F931F93CF9350
:10359000DF93CDB7DEB7A1970FB6F894DEBF0FBEAD
:1035A000CDBF8C016B01770FEE08FF08F7FE2FC02F
:1035B000DC01ED91FC910190F081E02D6DE2099527
:1035C0005C0122273327A9012C193D094E095F0907
:1035D00019A2FE01B1967F019AE0492E512C612C6F
:1035E000712CCA01B901A30192010E946F20605D94
:1035F000D7016E937D01211531054105510589F7EC
:10360000BD01C8010E94A41A8A0D9B1D1EC0A701FE
:10361000960119A2FE01B1967F018AE0882E912CB5
:10362000A12CB12CCA01B901A50194010E946F20FF
:10363000605DD7016E937D0121153105410551056E
:1036400089F7BD01C8010E94A41AA1960FB6F8948B
:10365000DEBF0FBECDBFDF91CF911F910F91FF90C5
:10366000EF90DF90CF90BF90AF909F908F907F9022
:103670006F905F904F9008950F931F93CF93DF93B8
:10368000EC010E94A41A8C016AE672E0CE010E944D
:10369000A41A800F911FDF91CF911F910F91089570
:1036A000CF93DF93CDB7DEB7C257D1090FB6F894E9
:1036B000DEBF0FBECDBF789484B5826084BD84B573
:1036C000816084BD85B5826085BD85B5816085BD1D
:1036D00080916E00816080936E00109281008091D5
:1036E000810082608093810080918100816080935D
:1036F0008100809180008160809380008091B10082
:1037000084608093B1008091B00081608093B000AC
:1037100080917A00846080937A0080917A00826040
:1037200080937A0080917A00816080937A00809102
:103730007A00806880937A001092C10080912404FE
:1037400090912504DC01ED91FC910190F081E02D38
:1037500009958CE692E00E9419170E946D1460E0B2
:1037600083E00E94E10D60E084E00E94E10DE091C1
:103770002B03F0912C0382E08083E0912703F091EA
:1037800028031082E0912903F0912A038FEC8083B3
:1037900010923303E0912F03F091300386E0808391
:1037A000E0912D03F0912E03808180618083E09170
:1037B0002D03F0912E03808188608083E0912D039A
:1037C000F0912E03808180688083E0912D03F09139
:1037D0002E0380818F7D808366EC71E08BE193E026
:1037E0000E943C1B1092C5031092C3031092C003A9
:1037F0001092BF038AE08093BE030E94570E8B0194
:1038000061E08091BE030E94E10D61E08091BE0302
:103810000E94B10DFFB6F8948091B702811127C0C4
:10382000E0E9F0E08491ECE7F0E09491E82FF0E03B
:10383000EE0FFF1FE859FF4FA591B491EC91E923DA
:1038400021F461E08AE00E94B10D61E08AE00E940B
:10385000E10D8CB580618CBD8CB580648CBD61E060
:103860008DE00E94E10D61E08BE00E94E10D80910E
:10387000B7028F5F8093B702FFBE82E58093B803E3
:103880001092B9038091B8039091B9030E94F50694
:10389000EAE0FE2E8FEF0E94B606FA94F110FACFFE
:1038A0008AEB93E00E94F80620E030E0A90160E096
:1038B0008AEB93E00E940E07F82E8093C40381E008
:1038C000F81649F00E94570E601B710B613D77405E
:1038D00058F381E056C02AEA31E040E050E068E069
:1038E0008AEB93E00E940E0782FF03C0F092C503AB
:1038F00010C074E0F72E0E94BD068093C403FA94B2
:10390000F110F9CF8A3A11F082E03BC082E0809357
:10391000C5038091C503823021F0C12CD12C7601E2
:1039200005C0C12CD12CE12C60E4F62E20E030E063
:10393000A90167E38AEB93E00E940E07A7019601B5
:1039400069E28AEB93E00E940E078093C403882308
:1039500049F00E94570E601B710B613D774030F3B8
:1039600088E00FC08091C503823001F520E030E08F
:10397000A9016AE38AEB93E00E940E07882341F0D5
:1039800086E08093BF038AEB93E00E94AB068FC072
:103990000E94BD06807C803C19F483E08093C503BF
:1039A0000E94BD060E94BD060E94BD068AEB93E000
:1039B0000E94AB0680E58093B8031092B90381E0C2
:1039C0000E943119882329F08091E903882341F06E
:1039D0006EC080E00E943119882309F468C0F4CFDA
:1039E0008091DD03803109F582E08093E903109234
:1039F000FB031092FC031092FD031092FE038091D2
:103A0000DE039091DF03A0E0B0E055E0880F991F3E
:103A1000AA1FBB1F5A95D1F78093F7039093F80321
:103A2000A093F903B093FA031EC0803209F03FC09F
:103A300083E08093E9034091E0035091E1036091BA
:103A4000E2037091E3034093FB035093FC03609304
:103A5000FD037093FE0327EF33E086EC93E00E94B2
:103A60006E10882321F186EC93E0909300048093FC
:103A7000FF0381E08093E8031092EA031092EB03C6
:103A80001092EC031092ED031092EE031092EF03EC
:103A90001092F0031092F1031092F2031092F303CC
:103AA0001092F4031092F5031092F6030CC063ED2C
:103AB00071E081E494E00E943C1B63ED71E08BE1D6
:103AC00093E00E943C1B0E946D141092140480919C
:103AD0001904823018F098E090931404809317042E
:103AE00062E370E080E090E00E941D0E60911A0495
:103AF0008FE094E00E94AD0E68EE73E080E090E00D
:103B00000E941D0E60E38FE094E00E94C10E0BE462
:103B100016E4C8010197F1F760E38FE094E00E949A
:103B2000C10EC8010197F1F760E38FE094E00E94B5
:103B3000C10E83E592E00197F1F760E28FE094E037
:103B40000E94C10E60911404606240E08FE094E036
:103B50000E94DA0E84E08093150440E06CE08FE070
:103B600094E00E94DA0E40E061E08FE094E00E9471
:103B7000DA0E0BE31FE1C8010197F1F782E08093B1
:103B8000160440E066E08FE094E00E94DA0E40E028
:103B900062E08FE094E00E94DA0EC8010197F1F72D
:103BA00010921A0460E08FE094E00E94AD0E8AE368
:103BB000882E81E0982E98EE492E93E0592E612CA4
:103BC000712C2DE0222EA8E5B0E0AC0FBD1F1C9695
:103BD0006D0138E0332E4BE3A42E4FE1B42E64EE9A
:103BE00073E0CE0101960E946F08BE016F5F7F4FA8
:103BF000CE01CB960E946F0819A218A29F8E8E8EBE
:103C00001BA221968FAD2197811112C06C961FAE19
:103C10001EAE6C97A0964CAE5DAE6EAE7FAEA0971A
:103C2000E3961FAE1EAEE397A5961FAEA59735C0CF
:103C3000825023E145EE51E0823048F464EE73E0B7
:103C4000CE014E960E94D71081110EC0DFCFBE016B
:103C5000655C7F4FCE014E960E94D7108823B1F24B
:103C6000CE01CB960E94960549A95AA96BA97CA9B9
:103C7000CE014E960E94F803BE01625E7F4FCE01D8
:103C800001960E946F0845EE51E0BE016F5F7F4FC5
:103C9000CE01885A9F4F0E94C0086C968EAD9FAD92
:103CA0006C979093440480934304A0968CAD9DAD93
:103CB000AEADBFADA0978093450490934604A0930A
:103CC0004704B0934804A4968CAD9DADAEADBFAD96
:103CD000A4978093490490934A04A0934B04B09313
:103CE0004C04F601ADE4B4E0822D01900D928A956A
:103CF000E1F7E3968EAD9FADE39790935B048093DD
:103D00005A0483E00E94880D9093BF028093BE0204
:103D10000197D9F462EF71E08BE193E00E943C1BC4
:103D200080E092E00E941917BC0181E494E00E94B7
:103D3000A41A62EF71E081E494E00E943C1B64EFFE
:103D400071E080E090E00E941D0E84E00E94880DEA
:103D50009093BD028093BC02019709F03EC000E041
:103D600010E0C8010E94610B7C01BC018BE193E073
:103D70000E94B91A6DE072E08BE193E00E94A41AF0
:103D800030921A0460E08FE094E00E94AD0EB7011B
:103D90008FE094E00E94B91A6DE072E08FE094E049
:103DA0000E94A41A0F5F1F4F03301105D1F668E877
:103DB00073E180E090E00E941D0E40E061E08FE042
:103DC00094E00E94DA0EC5010197F1F710921A04EF
:103DD00060E08FE094E00E94AD0E8BE092E00E94E4
:103DE0001917BC018BE193E00E943C1B64EF71E06A
:103DF00080E090E00E941D0E8CE692E00E94191770
:103E000080911B0490E09093BB028093BA02892BAF
:103E1000A1F080915A0490915B04009709F451C07D
:103E20000E94960580915A0490915B040E94402163
:103E300010925B0410925A0444C08091B802909191
:103E4000B902892B31F31092B9021092B80261E1E4
:103E500072E08BE193E00E943C1B80E092E00E94C4
:103E60001917BC0181E494E00E94A41A80E092E05A
:103E70000E941917BC018BE193E00E943C1B00E0FB
:103E800010E0C8010E94610B7C01BC018BE193E052
:103E90000E94B91A6EE072E08BE193E00E94A41ACE
:103EA000B70181E494E00E94B91A6EE072E081E407
:103EB00094E00E94A41A0F5F1F4F0330110509F709
:103EC000A8CF0E949B0C8BCECF92DF92EF92FF92F5
:103ED000CF93DF93EBE1F3E01382128288EEC82EDA
:103EE00083E0D82EE12CF12CC482D582E682F782C1
:103EF00088E291E09183808385EC90E095878487C8
:103F000084EC90E09787868780EC90E0918B808BA3
:103F100081EC90E0938B828B82EC90E0958B848B8C
:103F200086EC90E0978B868B118E128E138E148EFA
:103F3000E8EBF3E080E580831182EAEBF3E01582A1
:103F400016821186138682E090E0A0E0B0E08487BC
:103F50009587A687B78713A215A614A68AE391E0D2
:103F600093A782A717A6E3E0F4E013821282C4822B
:103F7000D582E682F78286E491E091838083E1E452
:103F8000F4E013821282C482D582E682F7828AE943
:103F900091E091838083128E118E1486CBE1D4E060
:103FA0001882198281E08A831B821C828D831E8283
:103FB0008F83188681E090E00E94AB209C878B87DE
:103FC00089E192E09E878D8787E292E0988B8F87C8
:103FD00080E392E09A8B898B1A8ECB8EDC8EED8EED
:103FE000FE8E85E18F8F19A218A21AA21BA21CA215
:103FF0001DA286E290E00E94AB2020E931E0FC01A6
:104000003183208324E631E0338322832FEF24831E
:10401000258328E6268B27E0E6E1F1E0DC015796D0
:1040200001900D922A95E1F727E0EDE1F1E0DC0146
:104030005E9601900D922A95E1F79A878987EFE0C5
:10404000F4E01382128288E591E0918380838FE30C
:10405000848380E1818782E082871386DF91CF911C
:10406000FF90EF90DF90CF9008950E944020A59F91
:10407000900DB49F900DA49F800D911D1124089563
:10408000A29FB001B39FC001A39F700D811D112499
:10409000911DB29F700D811D1124911D0895991BD2
:1040A00079E004C0991F961708F0961B881F7A952F
:1040B000C9F78095089597FB072E16F4009407D052
:1040C00077FD09D00E94912007FC05D03EF4909521
:1040D00081959F4F0895709561957F4F0895A1E256
:1040E0001A2EAA1BBB1BFD010DC0AA1FBB1FEE1F72
:1040F000FF1FA217B307E407F50720F0A21BB30BBD
:10410000E40BF50B661F771F881F991F1A9469F738
:1041100060957095809590959B01AC01BD01CF0194
:104120000895AA1BBB1B51E107C0AA1FBB1FA617FE
:10413000B70710F0A61BB70B881F991F5A95A9F750
:1041400080959095BC01CD010895EE0FFF1F05905D
:10415000F491E02D0994CF93DF938230910510F410
:1041600082E090E0E0918006F091810620E030E06E
:10417000C0E0D0E0309711F14081518148175907D4
:10418000C0F04817590761F482819381209719F094
:104190009B838A832BC0909381068093800626C0E0
:1041A0002115310519F04217530718F49A01BE0181
:1041B000DF01EF010280F381E02DDCCF2115310515
:1041C00009F1281B390B2430310590F412968D919A
:1041D0009C9113976115710521F0FB0193838283F4
:1041E00004C09093810680938006FD01329644C0FE
:1041F000FD01E20FF31F81939193225031092D931A
:104200003C933AC020917E0630917F06232B41F4E7
:10421000209106013091070130937F0620937E069E
:1042200020910401309105012115310541F42DB78C
:104230003EB74091080150910901241B350BE091D4
:104240007E06F0917F06E217F307A0F42E1B3F0BCA
:104250002817390778F0AC014E5F5F4F24173507F8
:1042600048F04E0F5F1F50937F0640937E06819368
:10427000919302C0E0E0F0E0CF01DF91CF9108958B
:104280000F931F93CF93DF93009709F48CC0FC0129
:1042900032971382128200918006109181060115D7
:1042A000110581F420813181820F931F20917E06B8
:1042B00030917F062817390779F5F0937F06E09350
:1042C0007E0671C0D80140E050E0AE17BF0750F441
:1042D00012962D913C911397AD012115310509F1ED
:1042E000D901F3CF9D01DA0133832283608171818B
:1042F000860F971F8217930769F4EC012881398193
:10430000260F371F2E5F3F4F318320838A819B8189
:1043100093838283452B29F4F0938106E0938006F2
:1043200042C01396FC93EE931297ED014991599177
:104330009E01240F351FE217F30771F480819181EC
:10434000840F951F029611969C938E938281938180
:1043500013969C938E931297E0E0F0E0D8011296AA
:104360008D919C911397009719F0F8018C01F6CF6D
:104370008D919C9198012E5F3F4F820F931F20914A
:104380007E0630917F062817390769F4309729F4A3
:10439000109281061092800602C01382128210933E
:1043A0007F0600937E06DF91CF911F910F910895B4
:1043B00081E090E0F8940C94F921FB01DC0104C049
:1043C0008D910190801921F441505040C8F7881B0D
:1043D000990B0895FB01DC014150504048F00190D9
:1043E0000D920020C9F701C01D9241505040E0F7E6
:0643F0000895F894FFCFD0
:1043F600FFFFFFFF000082068000050006000700A1
:10440600020001000000000102040506037F7F3F51
:104416003F1FFF0700000000320CEE16CA0B790C96
:10442600FB0BD90BED0B000000005C14EE168901A6
:10443600880100000000590129018901FD002101C0
:104446000D01FE0000000000FB0EEE16890188013A
:10445600000000009403550205023F02F001FD0230
:10446600D9024C03C002EE01B002EC01EA01E901F7
:10447600E701E501E301B4019A018C0100000000A7
:10448600AF0391021C0200000000B500750289010D
:104496006D029400FF09090A00000000F30CEE16F5
:1044A60089018801F30CF30CF30C00000000F30CF7
:1044B600EE16890188016F70656E206D7920706F28
:1044C60072740053442D63617264206E6F742066AB
:1044D6006F756E64006961726475696E6F2E7478AB
:1044E60074003B3B3B205761746572696E673B0005
:1044F600642D6D2D593B20483A693A7300253B20BF
:10450600006F6B2074696D65007761416468486966
:104516006D73794D445900616D706D414D504D007C
:1045260053756E4D6F6E5475655765645468754660
:1045360072695361744A616E4665624D617241707B
:10454600724D61794A756E4A756C4175675365702F
:0E4556004F63744E6F76446563000D0A0000DB
:107E0000112484B714BE81FFF0D085E080938100F7
:107E100082E08093C00088E18093C10086E0809377
:107E2000C20080E18093C4008EE0C9D0259A86E02C
:107E300020E33CEF91E0309385002093840096BBD3
:107E4000B09BFECF1D9AA8958150A9F7CC24DD24C4
:107E500088248394B5E0AB2EA1E19A2EF3E0BF2EE7
:107E6000A2D0813461F49FD0082FAFD0023811F036
:107E7000013811F484E001C083E08DD089C08234E0
:107E800011F484E103C0853419F485E0A6D080C0E4
:107E9000853579F488D0E82EFF2485D0082F10E0AE
:107EA000102F00270E291F29000F111F8ED06801E7
:107EB0006FC0863521F484E090D080E0DECF843638
:107EC00009F040C070D06FD0082F6DD080E0C81688
:107ED00080E7D80618F4F601B7BEE895C0E0D1E017
:107EE00062D089930C17E1F7F0E0CF16F0E7DF06D8
:107EF00018F0F601B7BEE89568D007B600FCFDCFD4
:107F0000A601A0E0B1E02C9130E011968C91119780
:107F100090E0982F8827822B932B1296FA010C0160
:107F200087BEE89511244E5F5F4FF1E0A038BF0790
:107F300051F7F601A7BEE89507B600FCFDCF97BE46
:107F4000E89526C08437B1F42ED02DD0F82E2BD052
:107F50003CD0F601EF2C8F010F5F1F4F84911BD097
:107F6000EA94F801C1F70894C11CD11CFA94CF0C13
:107F7000D11C0EC0853739F428D08EE10CD085E9AC
:107F80000AD08FE07ACF813511F488E018D01DD067
:107F900080E101D065CF982F8091C00085FFFCCF94
:107FA0009093C60008958091C00087FFFCCF809118
:107FB000C00084FD01C0A8958091C6000895E0E648
:107FC000F0E098E1908380830895EDDF803219F02E
:107FD00088E0F5DFFFCF84E1DECF1F93182FE3DFCA
:107FE0001150E9F7F2DF1F91089580E0E8DFEE27F6
:047FF000FF270994CA
:027FFE00040479
:0400000300007E007B
:00000001FF