:100000000C946A000C9492000C9492000C94920050
:100010000C9492000C9492000C9492000C94920018
:100020000C9492000C9492000C9492000C94920008
:100030000C9492000C9492000C9492000C949200F8
:100040000C94110E0C9492000C94ED0C0C94C70CB3
:100050000C9492000C9492000C9492000C949200D8
:100060000C94330A0C949200000000002400270036
:100070002A00010204081020408001020408102018
:10008000010204081020040404040404040402020D
:10009000020202020303030303037C3C3E5E2B3D8A
:1000A0003F2F5B5D3B2C2A225C00000000002500F6
:1000B00028002B000000000023002600290000007B
:1000C0000008000201000003040700000000000017
:1000D0000000591F11241FBECFEFD8E0DEBFCDBFF7
:1000E00026E0A0E6B2E001C01D92AA37B207E1F710
:1000F00012E0A0E0B1E0E0EEF3E402C005900D9262
:10010000A036B107D9F710E0CAE6D0E004C02197C5
:10011000FE010E949A20C936D107C9F70E94151B1B
:100120000C94EE210C940000DC015996ED91FC91A9
:100130005A973097B9F083899489A589B689428501
:10014000538564857585841B950BA60BB70B8115AC
:1001500020E89207A105B10538F08FEF9FE7A0E0F6
:10016000B0E0089580E090E00895CF93DF931F9270
:10017000CDB7DEB76983DC01ED91FC910280F3819C
:10018000E02D41E050E0BE016F5F7F4F09950F9079
:10019000DF91CF91089585ED8093BC008091BC00E4
:1001A00084FDFCCF10921005089540918202262F05
:1001B00030E0240F311D21323105DCF4209110058F
:1001C0002430C9F4FC0180E090E0861758F43091A7
:1001D00082022191DC01A05ABD4FA30FB11D2C93C7
:1001E0000196F3CF80918202680F6093820280E0D3
:1001F000089581E0089582E008950895E09114053E
:1002000080911305E81730F4F0E0EA5AF94F808145
:1002100090E008958FEF9FEF0895909114058091DD
:100220001305981750F4E92FF0E0EA5AF94F2081AE
:1002300030E09F5F9093140502C02FEF3FEFC9019C
:1002400008958091130590E020911405821B910977
:100250000895CF92DF92EF92FF920F931F93CF9367
:10026000DF937C01262F972F8A018091EC0488234D
:1002700091F0C62FD72F6E01C40ED51ECC15DD050B
:1002800071F06991D701ED91FC910190F081E02D21
:10029000C7010995F3CF642F822F0E94D500C801B2
:1002A000DF91CF911F910F91FF90EF90DF90CF9052
:1002B0000895CF93DF931F92CDB7DEB76983209166
:1002C000EC042223D1F020911105203240F021E0EE
:1002D00030E0FC013383228380E090E015C0809100
:1002E0001205E82FF0E0E351FB4F998190838F5F77
:1002F000809312058093110505C061E0CE0101963F
:100300000E94D50081E090E00F90DF91CF91089599
:10031000089580E090E00895DC011C96ED91FC9139
:100320001D97208116968C91922F982381E009F4D5
:1003300080E00895FC01A085B18586819C916111C2
:1003400009C0892B8C93A089B1899C918681809565
:10035000892308C0809589238C93A089B1899C91B9
:100360008681892B8C930895FC01A285B3858781B2
:100370009C9161110CC0892B8C93A289B3899C91AB
:100380008781809589238C9320E63AEE17C080956B
:1003900089238C93A289B3899C918781892B8C9323
:1003A000A685B785978120E63AEE8C91892331F4B2
:1003B0002115310519F021503109F7CF81E0232BA8
:1003C00009F480E0089580E0089580E0089580E0D9
:1003D0000895089580E0089580E0089584E00895E8
:1003E000CF93DF931F92CDB7DEB74983DC01ED9148
:1003F000FC910088F189E02D21E0AE014F5F5F4F55
:1004000009950F90DF91CF9108950F93CF93DF93CC
:100410001F92CDB7DEB72983DC01ED91FC910484F6
:10042000F585E02D01E09E012F5F3F4F09950F906C
:10043000DF91CF910F9108950F931F93CF93DF9387
:10044000EC01062F142FE881F9810280F381E02D61
:1004500009958DA3FE01E00FF11D968D292F2095A2
:100460002823122B982B212F292347896E89CE010F
:100470000296DF91CF911F910F910C940502CF93BB
:10048000DF931F92CDB7DEB71982DC01ED91FC91AD
:100490000684F785E02D21E0AE014F5F5F4F09959F
:1004A00089810F90DF91CF9108950F93CF93DF93C0
:1004B0001F92CDB7DEB71982DC01ED91FC91028469
:1004C000F385E02D01E09E012F5F3F4F0995898163
:1004D0000F90DF91CF910F910895FC01818D928D46
:1004E000009711F00C943C120895CF93DF93EC0128
:1004F000898D9A8D009739F481E090E09B838A83FF
:1005000080E090E00BC0FC01138212820E947A12FC
:10051000E98DFA8D22813381232B71F7DF91CF9101
:1005200008950F931F93CF93DF93EC01162F61E093
:1005300070E080E090E00E94CB0DCE01810F911D14
:100540008C01FC0147896E89CE0102960E945502FA
:10055000F801968D8923DF91CF911F910F91089516
:1005600081E08093EC0460930D05109212051092C7
:1005700011050E94411491E0811190E0892F0895A6
:10058000CA0131E03093EC0460930D05109212051E
:1005900010921105422F50E0BC018DEF95E00E94B2
:1005A000290181E00E94411491E0811190E0892F9E
:1005B00008950F93CF93DF93E90181E08093EC04DA
:1005C00060930D051092120510921105642F8DEFA6
:1005D00095E00E945901402F50E0BE018DEF95E05B
:1005E0000E94290181E00E94411491E0811190E074
:1005F000892FDF91CF910F910895EF92FF920F9382
:100600001F93CF93DF93C62F122FE32E81E08093A9
:10061000EC0460930D051092120510921105642FE1
:100620008DEF95E00E94590180E00E944114602FF7
:10063000013208F060E28C2F0E940E1A109214050D
:1006400080931305882301F1F12EC12FDE2D1C2F7D
:100650001F199091130580911405981741F01017F8
:1006600030F48DEF95E00E940D018993F0CF9091C9
:10067000130580911405981729F08DEF95E00E94DD
:100680000D01F5CF81E0101380E0DF91CF911F9134
:100690000F91FF90EF900895CF92DF92FF920F930A
:1006A0001F93CF93DF9300D0CDB7DEB7862F122FE5
:1006B000622F213208F060E249835A830E940E1AA9
:1006C000109214058093130549815A81882309F1FA
:1006D000F42E6A010C2D0F199091130580911405C9
:1006E000981751F0011740F48DEF95E00E940D012D
:1006F000F60181936F01EECF90911305809114055F
:10070000981729F08DEF95E00E940D01F5CF81E05B
:10071000011380E00F900F90DF91CF911F910F9107
:10072000FF90DF90CF900895A8EEB3E09A01AB015F
:100730000E942A209B01AC0160E074E284EF90E00B
:100740000E946420DA01C9014097A109B109B69558
:10075000A795979587958093B8000C941B140F93D9
:100760001F93CF93DF93EC018C010E5F1F4F44E684
:1007700050E060E070E0C8010E94940342E06E899E
:10078000C8010E9455028DA386FF07C0282F2F7B2A
:1007900042E06E89C8010E9405024EE06E89C801E0
:1007A0000E9455028DA3982F9F7D39F0282F20722B
:1007B0004EE06E89C8010E9405024FE06E89C801B3
:1007C0000E945502282F8DA3837811F423FD0BC0BE
:1007D000247728604FE06E89C801DF91CF911F9187
:1007E0000F910C940502DF91CF911F910F91089505
:1007F0008F929F92AF92BF92CF92DF92EF92FF9231
:100800000F931F93CF93DF93EC018D81811102C071
:1008100080E077C00B891C892D893E890417150754
:1008200026073707A8F36A017B01823029F4CA86BC
:10083000DB86EC86FD860DC0C114D104E104F10411
:1008400051F41E821F82188619861A861B861C8602
:100850001D8681E056C08A849B84AC84BD84EB8D68
:10086000FC8D258530E0275F3F4FB501A401415045
:10087000510961097109022E04C076956795579553
:1008800047950A94D2F7D701C6010197A109B1098A
:1008900004C0B695A795979587952A95D2F78417A2
:1008A0009507A607B70720F089288A288B2849F4DE
:1008B0004F89588D698D7A8D4E835F8368877987DC
:1008C00004C0841B950BA60BB70B4C015D018E0178
:1008D0000A5F1F4F81149104A104B10409F4A7CF4A
:1008E0004E815F816885798598018B8D9C8D0E94F2
:1008F000980F91E0891A9108A108B1088111EACFF7
:1009000087CFDF91CF911F910F91FF90EF90DF90F4
:10091000CF90BF90AF909F908F9008958F929F92AD
:10092000AF92BF92CF92DF92EF92FF920F931F93FD
:10093000CF93DF9300D000D0CDB7DEB77C0180E24B
:10094000689F6001112496012A533D4FD9011B96DF
:100950009C91917121F0842F827409F097C0142F1B
:10096000F701628B8091000190910101A091020139
:10097000B091030186879787A08BB18BF601EA536C
:10098000FD4F4489558960E070E0BA01552744273E
:10099000D70157964D935D936D937C935A97828DB3
:1009A000938DA0E0B0E0482B592B6A2B7B2BD7010D
:1009B00057964D935D936D937C935A97D9011B96EF
:1009C0008C91887159F4848D958DA68DB78DF70122
:1009D000838B948BA58BB68B81E012C0803109F09C
:1009E00055C097012D5E3F4FD7015B968D919C912D
:1009F0005C970E941C10882309F448C084E0F7012A
:100A00008583812F8F70D70114968C931497F701EB
:100A100016821782108611861A961D921D921D92BB
:100A20001C921D9716FF34C015968C91813071F57C
:100A300011FF2CC0F7014389548965897689452BBC
:100A4000462B472B09F461C040E050E0BA01C701D2
:100A50000E94F8038823D1F0F7018788908CA18C3D
:100A6000B28CC38CD48C82E090E0A0E0B0E0F601C0
:100A700080839183A283B3839E012F5F3F4FB50193
:100A8000A401C6010E94980F811104C080E03DC0FE
:100A900081E03BC000E010E09801B501A401C6016F
:100AA0000E94F80E882391F389809A80AB80BC80E5
:100AB000D60157968C91803129F088EF9FEFAFEFE8
:100AC000BFE004C088EF9FEFA0E0B0E08816990671
:100AD000AA06BB0688F2D70157961D921D921D9259
:100AE0001C925A97F701138A148A158A168A8481F0
:100AF00080688483C7010E943C12882339F240E059
:100B000050E0BA01C7010E94F8030F900F900F90B8
:100B10000F90DF91CF911F910F91FF90EF90DF9099
:100B2000CF90BF90AF909F908F900895CF93DF9319
:100B3000EC010E943C12882311F01D8281E0DF91BC
:100B4000CF9108953F924F925F926F927F928F92D2
:100B50009F92AF92BF92CF92DF92EF92FF920F934C
:100B60001F93CF93DF93CDB7DEB72C970FB6F894D2
:100B7000DEBF0FBECDBF5C01DC015B968D909C900B
:100B80005C971696CD90DD90ED90FC901997C1146E
:100B9000D104E104F10439F0BFEFCB1ADB0AEB0A10
:100BA000FB0A312C07C0F401C080D180E280F380C1
:100BB00033243394F40181859285A385B4859C0107
:100BC000AD012F5F3F4F4F4F5F4F29873A874B87CC
:100BD0005C87260137011D821E821F821886F40160
:100BE00081859285A385B4852D813E814F8158856D
:100BF000281739074A075B0708F063C089859A857B
:100C0000AB85BC858C159D05AE05BF0550F482E013
:100C1000C82ED12CE12CF12C92E0492E512C612CC4
:100C2000712C9E012F5F3F4FB701A601C4010E94A6
:100C3000980F882309F445C089819A81AB81BC81D2
:100C4000892B8A2B8B2B41F0260137019FEF491A04
:100C5000590A690A790A05C0C414D504E604F704E0
:100C600091F02D813E814F8158852F5F3F4F4F4F2F
:100C70005F4F2D833E834F8358873FEFC31AD30ABC
:100C8000E30AF30AACCF0FEF1FEF2FEF3FE0B30102
:100C9000A201C4010E94F80E882399F0D50116968E
:100CA0004D915D916D917C911997411551056105AB
:100CB000710549F093018201C4010E94F80E81116F
:100CC00002C080E02AC0D50116964D925D926D92C9
:100CD0007C921997332051F0D301C2010196A11DD6
:100CE000B11DF40180839183A283B383F5018789C9
:100CF000908DA18DB28D892B8A2B8B2B69F4D50118
:100D000057964D925D926D927C925A9714968C9163
:100D10001497806814968C9381E02C960FB6F89403
:100D2000DEBF0FBECDBFDF91CF911F910F91FF901E
:100D3000EF90DF90CF90BF90AF909F908F907F907B
:100D40006F905F904F903F9008958FB7F894809187
:100D5000A8028FBF089561E0FC0184810E94480DC4
:100D60008091A70281111092A70208958EBD000004
:100D70000DB407FEFDCF8EB508958FEF0C94B60627
:100D80000F931F93CF93DF93EB010E94050E8B010E
:100D90000E94BD068F3F49F00E94050E601B710B3B
:100DA0006C177D07A8F380E001C081E0DF91CF914F
:100DB0001F910F910895CF93DF93EC018E818823CB
:100DC00089F08F8198859C012F5F3F4F38872F8353
:100DD0008230924018F40E94BD06F3CFCE010E94EB
:100DE000AB061E82DF91CF9108958CBD9DBD089505
:100DF000CF93DF93EC018091A702811109C081E0BC
:100E00008093A7028091B2059091B3050E94F506E8
:100E100060E08C81DF91CF910C94480DCF92DF92EE
:100E2000FF920F931F93CF93DF9300D000D0CDB7E5
:100E3000DEB76C01F62E29833A834B835C830E94D4
:100E4000DB06C6010E94F8066CE271E0C6010E9452
:100E5000C0068F2D80640E94B60608E110E05C8118
:100E60004B813A812981DA01C901002E04C0B6956F
:100E7000A795979587950A94D2F729833A834B8350
:100E80005C830E94B6060850110929813A814B8182
:100E90005C81083F8FEF180731F7FF2029F0E8E069
:100EA000FE1204C087E803C085E901C08FEF0E94ED
:100EB000B60610E00E94BD06F601828787FF04C0D7
:100EC0001F3F11F01F5FF6CF0F900F900F900F9004
:100ED000DF91CF911F910F91FF90DF90CF900895F8
:100EE000AF92BF92CF92DF92EF92FF920F931F9338
:100EF000CF93DF93EC016901C801820F931F81300A
:100F0000924008F070C08E81882371F088819981A9
:100F1000AA81BB81481759076A077B0729F48F818B
:100F20009885C816D906B0F5488359836A837B83B0
:100F30008B85833039F089E0440F551F661F771F7A
:100F40008A95D1F79A01AB0161E1CE010E940E07AB
:100F5000882319F083E08D8346C00E94050E5B0153
:100F60000E94BD068A878F3F49F40E94050E6A19C8
:100F70007B096D327140A0F38FE003C08E3F31F0EA
:100F80008DE08D83CE010E94AB062DC018861F8296
:100F900081E08E838F8198858C159D0540F40E9499
:100FA000BD068F819885019698878F83F3CF67015F
:100FB000E00EF11ECE14DF0431F00E94BD06F601F2
:100FC00081936F01F7CF8F819885080F191F1887BC
:100FD0000F838985882319F00115124048F0CE014E
:100FE0000E94DB0605C0CE010E94AB0680E001C076
:100FF00081E0DF91CF911F910F91FF90EF90DF90F3
:10100000CF90BF90AF900895EF92FF920F931F93F0
:10101000CF93DF93EC01790141155105610571050D
:1010200011F482E13CC08B85833039F089E0440FB4
:10103000551F661F771F8A95D1F79A01AB0168E1AA
:10104000CE010E940E07882311F084E028C08EEFA5
:101050000E94B60687018EEFF81AF80181918F0180
:101060000E94B6060E151F05C1F78FEF0E94B60647
:101070008FEF0E94B6060E94BD068A878F71853069
:1010800031F081E18D83CE010E94AB0609C068E595
:1010900072E0CE010E94C006811107C085E18D83F8
:1010A000CE010E94AB0680E013C020E030E0A90131
:1010B0006DE0CE010E940E07811104C00E94BD06A2
:1010C000882311F084E1EBCFCE010E94AB0681E0D2
:1010D000DF91CF911F910F91FF90EF900895FC0148
:1010E000DB0112968D919C911397938382838EE2FC
:1010F00091E09183808314968C9114978483159644
:101100008C911597858316964D915D916D917C918B
:10111000199746835783608771871A964D915D9121
:101120006D917C911D9742875387648775871E96C2
:101130004D915D916D917C91519746875787608B5A
:10114000718B52968C915297828B53964D915D91F3
:101150006D917C915697438B548B658B768B57960C
:101160004D915D916D917C915A97478B508F618F16
:10117000728F5B968D919C915C97948F838F08956D
:10118000EF92FF920F931F93CF93DF93EC017B01BC
:101190008A011B821A8288EE93E0A0E0B0E08C8383
:1011A0009D83AE83BF838EE891E0998388838DE130
:1011B00090E00E94A0209A8F898F009779F02DE10E
:1011C000F701DC0101900D922A95E1F74CE050E027
:1011D000B801CE010C960E94DF21188EDF91CF91CD
:1011E0001F910F91FF90EF9008952F923F924F9291
:1011F0005F926F927F928F929F92AF92BF92CF92A7
:10120000DF92EF92FF920F931F93CF93DF9300D063
:10121000CDB7DEB7FC018581882309F4D9C084816C
:1012200080FFD6C021E02A83438954896589768965
:1012300082859385A485B585481759076A077B077A
:1012400009F41A826F013A81832F90E0DE01119632
:101250004D013F01B6E06B0E711C892B09F47DC076
:10126000D6011A964D915D916D917C911D975A0111
:10127000B1E0BB22F60125811A012B0189E05694C9
:101280004794379427948A95D1F7838D948D223093
:1012900061F4FC01828D938DA48DB58DBC01CD01CF
:1012A000620D731D841D951D45C0DC0114961C91B3
:1012B00011501221A114B104D1F4111118C0452B01
:1012C000462B472B51F4F6018789908DA18DB28D65
:1012D00086839783A087B1870AC04681578160853E
:1012E000718593010E94980F882309F471C0F6015B
:1012F000238D348D86819781A085B1850297A109C0
:10130000B109AC01BD01F901058404C0440F551FAA
:10131000661F771F0A94D2F786859785A089B189C1
:10132000840F951FA61FB71FBC01CD01610F711D52
:10133000811D911DD60114962C9126FF14C0009199
:101340000001109101012091020130910301601709
:1013500071078207930751F506C0FA81FF23C1F197
:10136000898190E037C040E00E94AF0E882381F170
:10137000F501EA53FD4FD401CF010196E817F907B3
:1013800019F021912D93FACFEFEF8E1A9E0AF601F4
:1013900082859385A485B5850196A11DB11D82879F
:1013A0009387A487B58780E090E057CF740101E070
:1013B00010E09501AB01BC018091C6049091C70477
:1013C0000E947007882321F0BFEF8B1A9B0ADFCFA2
:1013D0008FEF9FEF0F900F90DF91CF911F910F91A3
:1013E000FF90EF90DF90CF90BF90AF909F908F9045
:1013F0007F906F905F904F903F902F900895FC01E9
:10140000818D928D009711F00C94F5088FEF9FEF6E
:1014100008950F931F93CF93DF93FC01818D928DDD
:101420000097B9F0EF010E94F5088C010F3F8FEF94
:10143000180791F0898D9A8DFC014285538564854A
:10144000758541505109610971090E94F803C8016D
:1014500005C080E090E002C08FEF9FEFDF91CF9159
:101460001F910F9108951F920F920FB60F921124A2
:101470002F933F934F935F936F937F938F939F939C
:10148000AF93BF93EF93FF938091B900887F80362D
:1014900009F49CC068F5883209F45BC090F480318F
:1014A00009F454C038F4882309F4F6C0883009F4EC
:1014B0004DC0F6C0883109F44CC0803209F45DC0DB
:1014C000EFC0803409F468C048F4803309F455C093
:1014D000883309F0E5C08093EB04D8C0803509F467
:1014E0004FC0883509F45DC0883409F0D9C0D6C032
:1014F000883909F4C7C0A8F4883709F467C038F4FC
:10150000883609F463C0803709F460C0C9C08838E0
:1015100009F4B8C0803909F45FC0803809F0C0C050
:101520005BC0803B09F486C038F4803A09F466C099
:10153000883A09F47FC0B4C0803C09F4A7C0883C55
:1015400009F4A4C0883B09F48AC0AAC08091C804E9
:1015500010C09091EA048091E904981770F5E09129
:10156000EA0481E08E0F8093EA04F0E0E753FB4F3A
:1015700080818093BB0085EC86C08093EB048EC095
:10158000E091EA0481E08E0F8093EA048091BB0031
:10159000F0E0E753FB4F80839091EA048091E904E7
:1015A0006EC0E091EA0481E08E0F8093EA0480919E
:1015B000BB00F0E0E753FB4F808380910F05811162
:1015C0006DC081E080930E0584EA61C083E0809362
:1015D00010051092A602CFCF8091A602803208F0AB
:1015E00051C0E091A60281E08E0F8093A602809107
:1015F000BB00F0E0EA57FD4F8083BDCF85EC8093C0
:10160000BC00109210058091A602803230F4E09167
:10161000A602F0E0EA57FD4F10826091A60270E04A
:10162000E0918402F091850286E892E0099510929B
:10163000A60236C084E080931005109283021092B7
:101640008202E0918002F0918102099580918202EC
:10165000811105C081E08093820210926002E091C6
:10166000830281E08E0F80938302F0E0E05AFD4F09
:1016700080818093BB0090918302809182029817B1
:1016800008F479CF85E88093BC000AC085EC80938C
:10169000BC001092100504C01092EB040E94CB0015
:1016A000FF91EF91BF91AF919F918F917F916F913A
:1016B0005F914F913F912F910F900FBE0F901F9010
:1016C0001895FC01538D448D252F30E0842F90E038
:1016D000821B930B541710F0CF960895019708952D
:1016E000FC01918D828D981761F0828DDF01A80F2A
:1016F000B11D5D968C91928D9F5F9F73928F90E04C
:1017000008958FEF9FEF0895FC01918D828D9817BA
:1017100031F0828DE80FF11D858D90E008958FEFF7
:101720009FEF0895FC01918D228D892F90E0805CC0
:101730009F4F821B91098F739927089585E195E04A
:101740000E94920B21E0892B09F420E0822F08955A
:10175000FC01848DDF01A80FB11DA35ABF4F2C914E
:10176000848D90E001968F739927848FA689B7891D
:101770002C93A089B1898C9180648C93938D848DF6
:10178000981306C00288F389E02D80818F7D8083C5
:101790000895EF92FF920F931F93CF93DF93EC0185
:1017A00081E0888F9B8D8C8D981305C0E889F9891D
:1017B000808185FD24C0F62E0B8D10E00F5F1F4F3A
:1017C0000F731127E02E8C8DE8120CC00FB607FCAA
:1017D000FACFE889F989808185FFF5CFCE010E9493
:1017E000A80BF1CF8B8DFE01E80FF11DE35AFF4FDF
:1017F000F0820B8FEA89FB898081806207C0EE89C5
:10180000FF896083E889F98980818064808381E031
:1018100090E0DF91CF911F910F91FF90EF9008958D
:10182000CF93DF93EC01888D8823C9F0EA89FB8987
:10183000808185FD05C0A889B9898C9186FD0FC07E
:101840000FB607FCF5CF808185FFF2CFA889B98953
:101850008C9185FFEDCFCE010E94A80BE7CFDF91E1
:10186000CF91089580E090E0892B29F00E949E0B93
:1018700081110C9400000895833081F028F48130A8
:1018800099F08230A1F008958730A9F08830B9F03E
:101890008430D1F4809180008F7D03C080918000DE
:1018A0008F7780938000089584B58F7702C084B5C8
:1018B0008F7D84BD08958091B0008F7703C08091A3
:1018C000B0008F7D8093B00008953FB7F894809169
:1018D000C2029091C302A091C402B091C50226B584
:1018E000A89B05C02F3F19F00196A11DB11D3FBF58
:1018F000BA2FA92F982F8827820F911DA11DB11DE6
:10190000BC01CD0142E0660F771F881F991F4A95E1
:10191000D1F708950E94CD218091B8028823A9F1C2
:101920004091000150910101609102017091030109
:1019300026EC32E08091C6049091C7040E9404080E
:10194000811102C080E008954091B9025091BA021D
:101950006091BB027091BC02411551056105710592
:1019600091F026EC32E08091C6049091C7040E9469
:101970000408882339F31092B9021092BA02109227
:10198000BB021092BC021092B80281E008951F922F
:101990000F920FB60F9211242F933F934F935F93A3
:1019A0006F937F938F939F93AF93BF93EF93FF9327
:1019B00085E195E00E94A80BFF91EF91BF91AF9157
:1019C0009F918F917F916F915F914F913F912F9157
:1019D0000F900FBE0F901F9018951F920F920FB689
:1019E0000F9211242F938F939F93EF93FF93E09186
:1019F0002505F09126058081E0912B05F0912C05BD
:101A000082FD12C0908180912E058F5F8F7320918F
:101A10002F05821751F0E0912E05F0E0EB5EFA4FB2
:101A2000958F80932E0501C08081FF91EF919F914A
:101A30008F912F910F900FBE0F901F901895CF93FD
:101A4000DF93282F30E0F901E254FF4F8491F90130
:101A5000EE58FF4FD491F901EA57FF4FC491CC23C0
:101A600091F081110E943C0CEC2FF0E0EE0FFF1F73
:101A7000EC54FF4FA591B491EC91ED2381E090E0FF
:101A800021F480E002C080E090E0DF91CF910895E2
:101A90001F93CF93DF93282F30E0F901E254FF4FDB
:101AA0008491F901EE58FF4FD491F901EA57FF4FA5
:101AB000C491CC23C9F0162F81110E943C0CEC2F4D
:101AC000F0E0EE0FFF1FE655FF4FA591B4918FB7E1
:101AD000F894111105C09C91ED2FE095E92302C007
:101AE000EC91ED2BEC938FBFDF91CF911F91089577
:101AF000CF93DF9390E0FC01EE58FF4F2491FC015F
:101B0000EA57FF4F8491882361F190E0880F991F75
:101B1000FC01E859FF4FC591D491FC01E655FF4FF8
:101B2000A591B491611109C09FB7F894888120955F
:101B300082238883EC912E230BC0623061F49FB71F
:101B4000F8943881822F809583238883EC912E2B03
:101B50002C939FBF06C08FB7F894E8812E2B288363
:101B60008FBFDF91CF9108958E3008F08E5087702F
:101B7000806480937C0080917A00806480937A00F6
:101B800080917A0086FDFCCF8091780020917900C9
:101B900090E0922B08958F929F92AF92BF92CF9236
:101BA000DF92EF92FF926B017C010E94650C4B016A
:101BB0005C01C114D104E104F104F1F00E94650C50
:101BC000DC01CB0188199909AA09BB09883E934019
:101BD000A105B10570F321E0C21AD108E108F108AE
:101BE00088EE880E83E0981EA11CB11CC114D1049C
:101BF000E104F10419F7DDCFFF90EF90DF90CF9073
:101C0000BF90AF909F908F9008952FB7F8946091F8
:101C1000BE027091BF028091C0029091C1022FBF9D
:101C200008951F920F920FB60F9211242F933F9396
:101C30008F939F93AF93BF938091BE029091BF0209
:101C4000A091C002B091C1023091BD0223E0230FE8
:101C50002D3720F40196A11DB11D05C026E8230FE4
:101C60000296A11DB11D2093BD028093BE029093E8
:101C7000BF02A093C002B093C1028091C2029091B2
:101C8000C302A091C402B091C5020196A11DB11D6D
:101C90008093C2029093C302A093C402B093C50282
:101CA000BF91AF919F918F913F912F910F900FBE58
:101CB0000F901F901895FC01248131E03093EC04C3
:101CC00020930D0510921205109211058385682B43
:101CD0008DEF95E00E94590181E00C9441140F931F
:101CE0001F93CF938C01C62F0E945B0E6C2F6460F4
:101CF000C8010E945B0E6C2F6B7FC8010E945B0EB7
:101D000083EC90E00197F1F7CF911F910F91089527
:101D1000FF920F931F93CF93DF931F92CDB7DEB740
:101D20008C01F62E962F907F692F642BC801498372
:101D30000E946F0E80E1F89EB00111244981642B4E
:101D4000C8010F90DF91CF911F910F91FF900C94DC
:101D50006F0E41E00E94880E81E090E008958F921E
:101D60009F92AF92BF92EF92FF920F931F93CF93E8
:101D70004B015C01C42F8091000190910101A09161
:101D80000201B091030188159905AA05BB0501F16F
:101D90000E948C0C811102C080E020C086ECE82EED
:101DA00082E0F82E00E012E020E030E0B501A4016E
:101DB0008091C6049091C7040E947007882361F344
:101DC0008092000190920101A0920201B092030161
:101DD0008091B802C82BC093B80281E0CF911F91C7
:101DE0000F91FF90EF90BF90AF909F908F900895CC
:101DF0004F925F926F927F928F929F92AF92BF921B
:101E0000CF92DF92EF92FF920F931F93CF93DF93C6
:101E1000EC016A017B01280139014230510561055D
:101E2000710510F480E073C089859A85AB85BC8507
:101E30000196A11DB11D84179507A607B70790F35A
:101E40008B889C88AD88BE888F89803129F4BB2718
:101E5000AF2D9E2D8D2D09C0DB01CA0147E0B6953F
:101E6000A795979587954A95D1F7880E991EAA1E32
:101E7000BB1E8091000190910101A0910201B091DF
:101E8000030188169906AA06BB0679F48F8980316A
:101E9000A1F4DD24EE24FF24C601880F991FFC0164
:101EA000EA53FD4F5182408219C040E0C501B401A0
:101EB0000E94AF0E8111EACFB5CFE894C7F8DD24B8
:101EC000EE24FF24C601880F991F880F991FFC017B
:101ED000EA53FD4F40825182628273828091B80240
:101EE00081608093B8028A89823080F08D819E81E2
:101EF000AF81B885880E991EAA1EBB1E8092B902BA
:101F00009092BA02A092BB02B092BC0281E0DF9133
:101F1000CF911F910F91FF90EF90DF90CF90BF90E6
:101F2000AF909F908F907F906F905F904F900895AB
:101F30008F929F92AF92BF92CF92DF92EF92FF92D9
:101F40000F931F93CF93DF93FC0181859285A38527
:101F5000B4850196A11DB11D84179507A607B70783
:101F600010F480E05CC083899489A589B689C7890B
:101F7000C03129F4852E962EA72EBB2409C04A0114
:101F80005B01C7E0B694A79497948794CA95D1F75C
:101F9000E9016A017B018F01BC01CD01680D791D4A
:101FA0008A1D9B1D8090000190900101A09002016C
:101FB000B0900301681579058A059B0599F4F8012D
:101FC00087898031A9F4B701A601552766277727AD
:101FD000440F551FFA01EA53FD4F80819181A0E023
:101FE000B0E018C040E00E94AF0E8111E8CFB9CF39
:101FF000B701A6014F77552766277727440F551F4E
:10200000440F551FFA01EA53FD4F80819181A2814F
:10201000B381BF7088839983AA83BB8381E0DF91FA
:10202000CF911F910F91FF90EF90DF90CF90BF90D5
:10203000AF909F908F9008954F925F926F927F9292
:10204000AF92BF92CF92DF92EF92FF920F931F93C6
:10205000CF93DF9300D000D0CDB7DEB78C0149839A
:102060005A836B837C835901C12CD12C7601412C7E
:1020700082E0582E612C712C49815A816B817C81C0
:102080009E012F5F3F4FC8010E94980F882351F196
:10209000D301C201F801058404C0880F991FAA1F4B
:1020A000BB1F0A94D2F7C80ED91EEA1EFB1E498137
:1020B0005A816B817C818789803129F088EF9FEF7D
:1020C000AFEFBFE004C088EF9FEFA0E0B0E048179B
:1020D00059076A077B0780F2F501C082D182E2824C
:1020E000F38281E00F900F900F900F90DF91CF91CE
:1020F0001F910F91FF90EF90DF90CF90BF90AF9026
:102100007F906F905F904F9008954F925F926F9283
:102110007F92AF92BF92CF92DF92EF92FF920F9396
:102120001F93CF93DF93CDB7DEB72B970FB6F894FD
:10213000DEBF0FBECDBF7C01CE0101966C01FC015C
:1021400090E28BE08C0D91938E13FDCFDA0130E09D
:1021500047E09D91992339F19E3219F0EAE9F0E0C8
:102160000AC04A3009F472C138E04AE0F2CF319631
:10217000891709F46BC184918111F9CF431708F4D1
:1021800065C18FED890F8E3508F060C181E0830F46
:10219000F601E30FF11D3FE9390F3A3108F490528F
:1021A0009083382FD6CF8981803209F44FC1B22E67
:1021B0008B01DB015B968D919C915C97F701948F6D
:1021C000838F16961D921D921D921C921997FB01EA
:1021D0001286138614861586712CF80182859385E4
:1021E000A485B585438954896589768984179507BF
:1021F000A607B70708F061C025E0B695A7959795A3
:1022000087952A95D1F7F82FFF706F2ED801159674
:102210008C91823008F41AC1C8010E94F50897FD1C
:1022200015C1F80182859385A485B5854F96A11DBA
:10223000B11D82879387A487B587F0E26F9EC001A6
:102240001124BC016A537D4F6115710509F4FEC06C
:10225000DB012C91222319F0253EC1F427C0711017
:102260000EC0F701628A4091000150910101609116
:1022700002017091030146875787608B718BFC01C7
:10228000EA53FD4F8081811113C015C04BE050E02F
:10229000C6010E94D221892B09F09FCF8B2D80731C
:1022A000803309F4D3C04B2D662DCCC07720C9F202
:1022B0007724739492CF772473948B2D827182311B
:1022C00009F0C4C07720D1F0D7011E966D917D91A1
:1022D0008D919C91519741E00E94AF0E882309F4A3
:1022E000B5C0F7016289F0E26F9FB00111246A5313
:1022F0007D4F6115710509F079C0A8C0D801159608
:102300008C91823009F4A2C0C8010E94A2058823E2
:1023100009F49CC0D8015B96ED91FC915C971696F0
:102320004D905D906D907C901997B2E04B1A5108DA
:1023300061087108058404C0440C551C661C771C98
:102340000A94D2F786859785A089B189480E591ECF
:102350006A1E7B1EA480E1E04E1A510861087108D4
:10236000AA2009F10E948C0C882309F46FC0E6ECC6
:10237000F2E0119224E0E63CF207D9F7D301C20162
:102380008A0D911DA11DB11D809300019093010143
:10239000A0930201B09303018091B8028160809301
:1023A000B802AA94DDCFD8015B96ED91FC915C97C1
:1023B00080E092E0A0E0B0E0058404C0880F991F9F
:1023C000AA1FBB1F0A94D2F7F80143895489658973
:1023D0007689840F951FA61FB71F838B948BA58BBF
:1023E000B68BD70152961C9266EC72E080E2FB013C
:1023F00011928A95E9F78BE0F601DB0101900D92CD
:102400008A95E1F781E298E2DB0151969C938E93E5
:10241000509720E038E01F963C932E931E975396DA
:102420009C938E93529759969C938E935897579658
:102430003C932E9356970E948C0C882339F04B2D99
:10244000F7016289C7010E948E0401C080E02B96CB
:102450000FB6F894DEBF0FBECDBFDF91CF911F91B5
:102460000F91FF90EF90DF90CF90BF90AF907F9053
:102470006F905F904F900895CF93DF93EC018D8123
:102480008823A1F18C8187FF2DC06E857F85888987
:10249000998941E00E94AF0E882341F1EA8980E2E8
:1024A000E89FF0011124DF01AA53BD4F1097F1F00E
:1024B0008D81823050F44B895C896D897E895C9670
:1024C0004D935D936D937C935F978F89988DA98DC4
:1024D000BA8DEA53FD4F938F828FB58BA48B8C817D
:1024E0008F778C83DF91CF910C948C0C80E0DF91FF
:1024F000CF9108952F923F924F925F926F927F9269
:102500008F929F92AF92BF92CF92DF92EF92FF9203
:102510000F931F93CF93DF9300D000D0CDB7DEB7DA
:102520008C015B011A01DC0115968C9115978130A5
:10253000C9F414968C9181FF15C082FF1BC0F8016D
:10254000438954896589768982859385A485B58573
:1025500084179507A607B70769F0C8010E94F8031A
:10256000811108C081E090E0F8019383828380E0CC
:1025700090E039C1610183C0D8015B968D919C9137
:102580005C97FC01248121502A013B0139E07694BB
:102590006794579447943A95D1F7722E74207A0134
:1025A000F1E0FF22772009F476C080E092E08E19F6
:1025B0009F0946018C159D0508F44C01D8015B96D6
:1025C0002D913C915C9716968D919D910D90BC91AB
:1025D000A02D0297A109B109F901058404C0880F53
:1025E000991FAA1FBB1F0A94D2F746855785608999
:1025F0007189840F951FA61FB71F9C01AD01270D80
:10260000311D411D511D29013A01811432E093060B
:1026100009F088C08091000190910101A091020110
:10262000B091030184159505A605B70559F48FEF00
:102630009FEFDC018093000190930101A0930201C0
:10264000B09303019501B301A2018091C60490915A
:10265000C7040E940408882309F484CF9EEFB91AA6
:10266000C818D908F80182859385A485B585880D99
:10267000991DA11DB11D82879387A487B587D801B5
:102680001A964D915D916D917C911D97C114D10465
:1026900009F072CF87C0E114F10409F086CF1696D5
:1026A0004D915D916D917C91199741155105610591
:1026B000710559F457968D919D910D90BC91A02D67
:1026C0000097A105B10541F521C09E012F5F3F4F45
:1026D0000E94980F882309F44BCF89819A81AB819E
:1026E000BC81F801238D348DF9012789203129F02F
:1026F00048EF5FEF6FEF7FE004C048EF5FEF60E00F
:1027000070E084179507A607B70730F0C8010E944C
:10271000A20581114ACF26CFF80186839783A0872F
:10272000B18743CFE114F10429F5D8011A964D91F0
:102730005D916D917C911D9753968D919D910D901A
:10274000BC91A02D481759076A077B0798F00E9493
:102750008C0C882309F406CF4092000150920101AD
:1027600060920201709203018091B80281608093AF
:10277000B80208C041E0C301B2010E94AF0E882335
:1027800009F4F0CED501F701EA53FD4FCF01880DD2
:10279000991DE817F90719F02D912193FACFA80C8C
:1027A000B91C5ECF53968D919D910D90BC91A02D3B
:1027B00084179507A607B70740F4F801438B548B9D
:1027C000658B768B848180688483D80114968C9184
:1027D00083FD02C0C10107C0C8010E943C128823CA
:1027E00009F4C0CEF7CF0F900F900F900F90DF91AC
:1027F000CF911F910F91FF90EF90DF90CF90BF90FE
:10280000AF909F908F907F906F905F904F903F9090
:102810002F900895CF93DF931F92CDB7DEB76983D2
:1028200041E050E0BE016F5F7F4F0E947A120F902F
:10283000DF91CF9108951092140510921305109214
:102840001205109211051092100581E080930F057A
:1028500010920E0561E082E10E94480D61E083E183
:102860000E94480DE9EBF0E080818E7F80838081BB
:102870008D7F808388E48093B80085E48093BC00DA
:102880000895382F2091110590910D05213208F0FF
:1028900049C0809110058111FCCF42E040931005A2
:1028A00030930F053FEF3093EB041092EA0420932E
:1028B000E904ADEEB4E049EC54E0FA013E2F341BDC
:1028C000321718F43D913193F9CF1092C80420913A
:1028D000C804990F922B9093C80490910E059130E3
:1028E00061F410920E059091C8049093BB009091F2
:1028F000BC0093FDF8CF95EC01C095EE9093BC0021
:10290000909110059230E1F39091EB049F3F79F0A4
:102910008091EB04803241F08091EB04803331F000
:1029200084E005C081E003C082E001C083E0109232
:102930001205109211051092EC0408958F929F9247
:10294000AF92BF92CF92DF92EF92FF92CF93DF933D
:10295000C82F84EB95E09093C7048093C604CC23E2
:1029600069F1C53010F080E00DC140E060E070E03A
:10297000CB010E94AF0E8823B1F320E1C29FC001BA
:1029800011248A549D4FFC01E254FE4F20812F7781
:1029900051F73C96408151816281738144365105E3
:1029A0006105710500F33497C080D180E280F38027
:1029B000C114D104E104F10421F4D5CFC12CD12CF0
:1029C000760140E0C701B6010E94AF0E882359F29C
:1029D0008091D1029091D2028115924021F6A0916E
:1029E000D602AA2309F4BFCF6091D4027091D50218
:1029F0006115710509F4B7CF2091D302222309F4A0
:102A0000B2CFA093D2052093C40580E030E0E1E08E
:102A1000F0E0C82FAF01082E02C0440F551F0A94E2
:102A2000E2F72417350741F0982F8F5F983089F728
:102A300089E08093CD0597CF8093CD052091DC026E
:102A40003091DD022115310519F040E050E008C059
:102A50002091EA023091EB024091EC025091ED029C
:102A60002093C5053093C6054093C7055093C8050C
:102A700046015701860E971EA11CB11C8092D305FA
:102A80009092D405A092D505B092D605E091D702D8
:102A9000F091D802F093D905E093D805B0E00E94F8
:102AA0002A20860E971EA81EB91E8092DA059092E3
:102AB000DB05A092DC05B092DD0585E0EE0FFF1F7F
:102AC0008A95E1F7E150FE4FEF2FFF27E6958E0E36
:102AD0009F1EA11CB11C8092CE059092CF05A092A2
:102AE000D005B092D1052091D9023091DA0221159A
:102AF000310521F0A90160E070E008C04091E602D4
:102B00005091E7026091E8027091E902D701C60195
:102B100088199909AA09BB09840F951FA61FB71F19
:102B200004C0B695A79597958795CA95D2F78093D7
:102B3000C9059093CA05A093CB05B093CC05853FFA
:102B40002FE09207A105B10510F48CE018C0853F75
:102B50009F4FA105B10510F480E111C08091F202F0
:102B60009091F302A091F402B091F5028093DA05FE
:102B70009093DB05A093DC05B093DD0580E28093A4
:102B8000D70581E0DF91CF91FF90EF90DF90CF905C
:102B9000BF90AF909F908F900895CF92DF92EF9269
:102BA000FF920F931F93CF93DF93C82FD62F042F3D
:102BB00011E080912F06821310E00E94050EC09054
:102BC0003006D0903106E0903206F0903306A7012F
:102BD00096010E946420F694E794D794C7946C15EC
:102BE0007D058E059F0508F442C0D23009F442C02D
:102BF00028F4DD2351F0D13011F115C1D33009F49F
:102C000067C0D43009F4B1C00EC1E0912006F09144
:102C10002106E00FF11D111105C0C73008F0C6E014
:102C2000C05D01C0C0E2C083FEC0D33008F04CC01C
:102C3000DD2309F4EEC0D13009F0F5C010E0C43650
:102C400008F0C3E6202F30E0E0912006F091210645
:102C5000E20FF31F111106C08C2F6AE00E9444207E
:102C6000805D01C080E280832F5F3F4FC1C0D230C2
:102C7000E1F610E0C73008F0C6E0202F30E0E09128
:102C80002006F0912106E20FF31F111108C0A09158
:102C90002406B0912506AC0FB11D8C9101C080E2D5
:102CA00080832F5F3F4FE0912006F0912106E20FD5
:102CB000F31F111153C0A0912406B0912506AC0F4B
:102CC000B11D11968C914BC0D33009F04AC010E071
:102CD000C73308F0C6E3E02FF0E0A0912006B091E2
:102CE00021069D012E0F3F1F111109C0809126065C
:102CF000909127068C0F911DDC018C9101C080E220
:102D0000D9018C93A0912006B0912106CF010196A4
:102D10009D01280F391F11110AC08091260690913C
:102D200027068C0F911DDC0111968C9101C080E269
:102D3000D9018C939F012E5F3F4FE0912006F091C7
:102D40002106E20FF31F111109C0A0912606B091D0
:102D50002706AC0FB11D12968C9101C080E28083D2
:102D600062C0D43009F05FC010E0C43608F0C3E69A
:102D7000202F30E0E0912006F0912106E20FF31FB2
:102D800011110AC08091340690E001976AE070E06A
:102D90000E945020605D01C060E26083E0912006E7
:102DA000F0912106C9010196E80FF91F11110AC01F
:102DB0008091340690E001976AE070E00E94502014
:102DC000805D01C080E28083E0912006F0912106C1
:102DD000C9010296E80FF91F111106C08C2F6AE095
:102DE0000E944420805D01C080E280832D5F3F4FC0
:102DF000E0912006F0912106E20FF31F111106C0A9
:102E00008C2F6AE00E944420905D01C090E2908384
:102E10000AC0C73008F0C6E0E0912006F091210614
:102E2000E00FF11DFDCEDF91CF911F910F91FF902B
:102E3000EF90DF90CF900895CF93DF93C5E1D6E078
:102E400089859A85DC01ED91FC910280F381E02D6A
:102E500060E00995982F9695969596959E71292FE5
:102E6000220F220F920F8F70890F8B8B8883898599
:102E70009A85DC01ED91FC910280F381E02D61E007
:102E80000995982F9695969596959E71292F220FC4
:102E9000220F920F8F70890F8C8B898389859A8579
:102EA000DC01ED91FC910280F381E02D62E0099557
:102EB000982F9695969596959E71292F220F220F01
:102EC000920F8F70890F8D8B8B8389859A85DC019A
:102ED000ED91FC910280F381E02D63E00995982F3C
:102EE0009695969596959E71292F220F220F920FF7
:102EF0008F70890F8E8B8D8389859A85DC01ED918A
:102F0000FC910280F381E02D64E00995982F96955D
:102F1000969596959E71292F220F220F920F8F70F2
:102F2000890F8F8B8F8389859A85DC01ED91FC91C8
:102F30000280F381E02D65E00995982F969596958E
:102F400096959E71292F220F220F920F8F70890F55
:102F5000888F888789859A85DC01ED91FC910280B4
:102F6000F381E02D66E00995282F2F70215086957A
:102F7000869586958E71982F990F990F890F820FDC
:102F8000898F8E830E94050E6AA37BA38CA39DA3C9
:102F9000DF91CF910895CF92DF92EF92FF920F933E
:102FA0001F93CF93DF936C017A018B01C0E0D0E0D7
:102FB000CE15DF0589F0D8016D918D01D601ED9117
:102FC000FC910190F081E02DC6010995892B11F447
:102FD0007E0102C02196ECCFC701DF91CF911F91F6
:102FE0000F91FF90EF90DF90CF9008954F925F92F6
:102FF0006F927F928F929F92AF92BF92CF92DF9209
:10300000EF92FF920F931F93CF93DF938C01C090A9
:103010003706D0903806E0903906F0903A060E94C4
:10302000050E6C157D058E059F0540F41092370640
:10303000109238061092390610923A062091350601
:10304000309136062115310519F40E941C17B1C0C4
:103050008091370690913806A0913906B0913A06D2
:103060000097A105B10589F36C017D01C20ED31E45
:10307000E11CF11C0E94050E6C157D058E059F0557
:1030800020F70E94050EC0903706D0903806E090D9
:103090003906F0903A066C197D098E099F0928EED1
:1030A00033E040E050E00E946420C0912C06D091B3
:1030B0002D06C23009F0A2C18D2F90E083709927B0
:1030C000892B09F495C17CE1F72E8091280629010E
:1030D0003A01480E511C611C711CC301B2012CE362
:1030E000822E912CA12CB12CA50194010E94642068
:1030F000609315068091290629013A01480E511C5A
:10310000611C711CC301B201A50194010E946420DD
:103110006093160680912A0659016A01A80EB11C17
:10312000C11CD11CC601B50128E130E040E050E0EF
:103130000E9464206093180680912E06820F8730CB
:1031400008F059C180931B0680912B0629013A0192
:10315000480E511C611C711CC301B2014F2D50E07F
:103160009A012F5F3F4F032E000C440B550B0E941A
:103170006420620F60931A06CA01B9016C0F711DB9
:10318000811D911D2DE030E040E050E00E94642060
:10319000620F60931C06CA01B9016D0F711D811D7C
:1031A000911D24E630E040E050E00E9464206093EE
:1031B0001D0620911806822F6CE00E944420911178
:1031C00001C09CE09093170691E02C3008F490E049
:1031D00090931906F80101900020E9F731979F01BB
:1031E000201B310BC1E0C20FA0912206B091230633
:1031F00090E0492F50E04217530738F5FD01019048
:103200000020E9F731977F01EA1AFB0A80E0400FBE
:10321000511F682F70E06E157F05A8F46A0F7B1FA1
:10322000FA01D081FB016081D6130BC0882349F0DD
:103230008A3010F4CF5F05C08C3010F4CE5F01C02F
:10324000CD5F8F5FE6CF9F5FD4CF809120069091B6
:1032500021060E9435218C2F90E00E94A02090939F
:10326000210680932006C0E0D0E08D2F90E0F80189
:1032700001900020E9F73197E01BF10B8E179F07B3
:1032800008F09AC0F801E80FF91F9081E09122063A
:10329000F09123068081981308C027E04C2F60E04E
:1032A00080911B060E94CD1584C08181981307C0B0
:1032B0008091190628E04C2F62E0880F0AC08281B5
:1032C00098130BC080911906880F28E04C2F62E0FC
:1032D0008C5F0E94CD15CE5F6DC08381981306C0B0
:1032E00024E04C2F61E080911A06F3CF848198137B
:1032F00006C023E04C2F61E080911706EACF85815C
:10330000981306C023E04C2F61E080911806E1CFAE
:103310008681981306C022E04C2F61E0809116064A
:10332000D8CF8781981306C025E04C2F61E08091AB
:103330001C06CFCF8085981306C021E04C2F61E09A
:1033400080911506C6CF8185981306C026E04C2FC4
:1033500061E080911D06BDCF8285981308C08091E1
:103360001C0690E00696982F990F25E008C08385EB
:1033700098130CC080911B06982F990F27E04C2FB3
:1033800063E0890F0E94CD15CD5F14C0848598132A
:1033900009C026E04C2F64E080911D060E94CD15E7
:1033A000CC5F08C0E0912006F0912106EC0FF11DE2
:1033B0009083CF5FDF5F59CFE0912006F091210627
:1033C000EC0FF11D10828091200690912106DF9173
:1033D000CF911F910F91FF90EF90DF90CF90BF9012
:1033E000AF909F908F907F906F905F904F900895D7
:1033F0006DE1F62E6ACE10921B06A6CE8C2F90E0C1
:1034000061E070E0C83010F460E070E0860F971F54
:10341000817099279EE1F92EF80E57CE90911005F4
:103420009111FCCF91E09093100590930F052FEF31
:103430002093EB041092EA04260F2093E904909362
:10344000C8049091C804880F892B8093C804809188
:103450000E05813061F410920E058091C8048093AE
:10346000BB008091BC0083FDF8CF85EC01C085EEE8
:103470008093BC00809110058130E1F38091EA04D3
:10348000861710F46091EA04A9ECB4E026E536E072
:10349000F9018E2F821B861718F48D918193F9CF35
:1034A000862F08956115710579F0FB0101900020C8
:1034B000E9F73197AF01461B570BDC01ED91FC9109
:1034C0000280F381E02D099480E090E008954F920E
:1034D0005F926F927F92EF92FF920F931F93CF9321
:1034E000DF93CDB7DEB7A1970FB6F894DEBF0FBE5E
:1034F000CDBF7C01FA01CB0119A2223008F42AE0E9
:103500008E010F5D1F4F422E512C612C712CBF017B
:10351000A30192010E946420F901CA01015011091E
:103520006A3014F4605D01C0695CD8016C93232B90
:10353000242B252B61F7B801C7010E94521AA196CE
:103540000FB6F894DEBF0FBECDBFDF91CF911F91B4
:103550000F91FF90EF907F906F905F904F90089544
:10356000CF92DF92EF92FF920F931F93CF93DF934F
:10357000EC016A017B01E881F9810190F081E02D85
:103580006DE209958C0144275527BA014C195D0954
:103590006E097F092AE0CE010E94671A800F911FF1
:1035A000DF91CF911F910F91FF90EF90DF90CF901F
:1035B0000895CF93DF93AC01990F660B770B77FFDC
:1035C00005C085E195E00E94B01A05C02AE085E1BA
:1035D00095E00E94671AEC016DE572E085E195E0E7
:1035E0000E94521A8C0F9D1FDF91CF910895AB015D
:1035F000770F660B770B77FD0C94B01A2AE00C94CA
:10360000671A0F931F93CF93DF93EC010E94521A16
:103610008C016DE572E0CE010E94521A800F911F5D
:10362000DF91CF911F910F910895CF93DF93CDB785
:10363000DEB7C257D1090FB6F894DEBF0FBECDBFBB
:10364000789484B5826084BD84B5816084BD85B57D
:10365000826085BD85B5816085BD80916E00816089
:1036600080936E001092810080918100826080932F
:103670008100809181008160809381008091800031
:103680008160809380008091B10084608093B1005C
:103690008091B00081608093B00080917A00846056
:1036A00080937A0080917A00826080937A00809182
:1036B0007A00816080937A0080917A00806880939C
:1036C0007A001092C10080911E0690911F06DC01C5
:1036D000ED91FC910190F081E02D09958FE592E04C
:1036E0000E94F6170E941B1460E083E00E94780D90
:1036F00060E084E00E94780D61E085E00E94780D32
:1037000061E086E00E94780D61E087E00E94780D1C
:10371000E0912505F091260582E08083E091210566
:10372000F09122051082E0912305F09124058FECA1
:10373000808310922D05E0912905F0912A0586E0FD
:103740008083E0912705F091280580818061808346
:10375000E0912705F0912805808188608083E091C1
:103760002705F0912805808180688083E0912705F6
:10377000F091280580818F7D80836AEB71E085E17F
:1037800095E00E94011B1092BF051092BD0510929A
:10379000BA051092B9058AE08093B8050E94050E1B
:1037A0008B0161E08091B8050E94780D61E0809105
:1037B000B8050E94480DFFB6F8948091A9028111C6
:1037C00027C0E0E9F0E08491ECE7F0E09491E82F85
:1037D000F0E0EE0FFF1FE859FF4FA591B491EC9177
:1037E000E92321F461E08AE00E94480D61E08AE06B
:1037F0000E94780D8CB580618CBD8CB580648CBDC9
:1038000061E08DE00E94780D61E08BE00E94780D10
:103810008091A9028F5F8093A902FFBE82E5809309
:10382000B2051092B3058091B2059091B3050E9444
:10383000F506EAE0FE2E8FEF0E94B606FA94F1102C
:10384000FACF84EB95E00E94F80620E030E0A90171
:1038500060E084EB95E00E940E07F82E8093BE0591
:1038600081E0F81649F00E94050E601B710B613D66
:10387000774058F381E056C02AEA31E040E050E05A
:1038800068E084EB95E00E940E0782FF03C0F0928F
:10389000BF0510C074E0F72E0E94BD068093BE05E0
:1038A000FA94F110F9CF8A3A11F082E03BC082E03D
:1038B0008093BF058091BF05823021F0C12CD12CAF
:1038C000760105C0C12CD12CE12C60E4F62E20E05D
:1038D00030E0A90167E384EB95E00E940E07A701A1
:1038E000960169E284EB95E00E940E078093BE0585
:1038F000882349F00E94050E601B710B613D7740E3
:1039000030F388E00FC08091BF05823001F520E0E0
:1039100030E0A9016AE384EB95E00E940E0788235A
:1039200041F086E08093B90584EB95E00E94AB06F8
:103930008FC00E94BD06807C803C19F483E0809398
:10394000BF050E94BD060E94BD060E94BD0684EB15
:1039500095E00E94AB0680E58093B2051092B30516
:1039600081E00E949E14882329F08091E30588233A
:1039700041F06EC080E00E949E14882309F468C064
:10398000F4CF8091D705803109F582E08093E3057B
:103990001092F5051092F6051092F7051092F805B1
:1039A0008091D8059091D905A0E0B0E055E0880F4E
:1039B000991FAA1FBB1F5A95D1F78093F1059093C9
:1039C000F205A093F305B093F4051EC0803209F010
:1039D0003FC083E08093E3054091DA055091DB0519
:1039E0006091DC057091DD054093F5055093F60577
:1039F0006093F7057093F80521EF35E080EC95E0D2
:103A00000E941C10882321F180EC95E09093FA0528
:103A10008093F90581E08093E2051092E40510920D
:103A2000E5051092E6051092E7051092E805109260
:103A3000E9051092EA051092EB051092EC05109240
:103A4000ED051092EE051092EF051092F0050CC0F6
:103A500067EC71E08BE396E00E94011B67EC71E07C
:103A600085E195E00E94011B8EE2A82E81E0B82E30
:103A700098EE292E93E0392E412C512CA8E5B0E088
:103A8000AC0FBD1F1C964D012BE4E22E26E4F22E56
:103A900033E5632E32E0732E4BE3C42E4FE1D42E78
:103AA0006EED75E0CE0101960E946F08BE016F5F5A
:103AB0007F4FCE01CB960E946F0819A218A2BF8E2D
:103AC000AE8E1BA221968FAD2197811112C06C96EC
:103AD0001FAE1EAE6C97A0962CAE3DAE4EAE5FAE46
:103AE000A097E3961FAE1EAEE397A5961FAEA597CF
:103AF00035C0825023E149ED51E0823048F46EED4B
:103B000075E0CE014E960E94851081110EC0DFCF68
:103B1000BE01655C7F4FCE014E960E9485108823C2
:103B2000B1F2CE01CB960E94960549A95AA96BA97C
:103B30007CA9CE014E960E94F803BE01625E7F4FC3
:103B4000CE0101960E946F0849ED51E0BE016F5F02
:103B50007F4FCE01885A9F4F0E94C0086C968EAD51
:103B60009FAD6C9790933E0680933D06A0968CADDA
:103B70009DADAEADBFADA09780933F06909340063C
:103B8000A0934106B0934206A4968CAD9DADAEAD18
:103B9000BFADA4978093430690934406A093450637
:103BA000B0934606F401A7E4B6E08DE001900D92D3
:103BB0008A95E1F7E3968EAD9FADE3979093550616
:103BC0008093540683E00E941F0D9093B702809368
:103BD000B6020197D9F466EE71E085E195E00E94A6
:103BE000011B84EF91E00E94F617BC018BE396E085
:103BF0000E94521A66EE71E08BE396E00E94011B70
:103C000064EF71E080E090E00E94CB0D84E00E94C0
:103C10001F0D9093B5028093B402019709F08CC0F8
:103C20000091B2021091B3020F5F1F4F1093B302C5
:103C30000093B2021092140660E089E096E00E94C0
:103C40005B0EC8010E94D91A0E941B1410920E0626
:103C500080911306823018F098E090930E068093BE
:103C6000110662E370E080E090E00E94CB0D60916D
:103C7000140689E096E00E945B0E68EE73E080E037
:103C800090E00E94CB0D60E389E096E00E946F0E09
:103C9000C7010197F1F760E389E096E00E946F0E9B
:103CA000C7010197F1F760E389E096E00E946F0E8B
:103CB000C3010197F1F760E289E096E00E946F0E80
:103CC00060910E06606240E089E096E00E94880EF6
:103CD00084E080930F0640E06CE089E096E00E946B
:103CE000880E40E061E089E096E00E94880EC601FF
:103CF0000197F1F7B2E0B093100640E066E089E08A
:103D000096E00E94880E40E062E089E096E00E9422
:103D1000880EC6010197F1F788E08093140660E0F1
:103D200089E096E00E945B0E6091B2027091B3024E
:103D300089E096E00E94F71A8091B2029091B30256
:103D4000039721F41092B3021092B2028FEF91E028
:103D50000E94F617BC0185E195E00E94011B64EF0B
:103D600071E080E090E00E94CB0D8FE592E00E9430
:103D7000F6178091150690E09093B1028093B002FF
:103D8000892B09F081C061E072E085E195E00E9435
:103D9000011B61E085E00E94480D61E086E00E9421
:103DA000480D61E087E00E94480D64E670E080E025
:103DB00090E00E94CB0D80E00E94B40D9093AF0282
:103DC0008093AE0281E00E94B40D9093AD02809387
:103DD000AC0282E00E94B40D9093AB028093AA02E1
:103DE00084EF91E00E94F617BC0185E195E00E9406
:103DF000011B8091AE029091AF020E94D91A84EF0C
:103E000091E00E94F617BC018BE396E00E94521AE3
:103E100069E072E08BE396E00E94521A6091AE0274
:103E20007091AF028BE396E00E94F71A69E072E0AE
:103E30008BE396E00E94521A6091AC027091AD0241
:103E40008BE396E00E94F71A69E072E08BE396E05C
:103E50000E94521A6091AA027091AB028BE396E025
:103E60000E94F71A69E072E08BE396E00E94011B62
:103E700060E085E00E94480D60E086E00E94480D09
:103E800060E087E00E94480D8091540690915506AD
:103E9000009761F00E949605809154069091550616
:103EA0000E94352110925506109254060E94320C41
:103EB000F7CDCF92DF92EF92FF92CF93DF93E5E1C0
:103EC000F5E01382128288EEC82E83E0D82EE12C12
:103ED000F12CC482D582E682F7828CE191E0918355
:103EE000808385EC90E09587848784EC90E09787C9
:103EF000868780EC90E0918B808B81EC90E0938BB7
:103F0000828B82EC90E0958B848B86EC90E0978B93
:103F1000868B118E128E138E148EE2EBF5E080E507
:103F200080831182E4EBF5E01582168211861386F8
:103F300082E090E0A0E0B0E084879587A687B7870D
:103F400013A215A614A68EE291E093A782A717A646
:103F5000EDEFF5E013821282C482D582E682F78209
:103F60008AE391E091838083EBE3F6E0138212828F
:103F7000C482D582E682F7828EE891E091838083C5
:103F8000128E118E1486C5E1D6E01882198281E066
:103F90008A831B821C828D831E828F83188681E018
:103FA00090E00E94A0209C878B878CE092E09E8707
:103FB0008D878AE192E0988B8F8783E292E09A8BDB
:103FC000898B1A8ECB8EDC8EED8EFE8E85E18F8FE7
:103FD00019A218A21AA21BA21CA21DA286E290E09E
:103FE0000E94A02024E831E0FC013183208328E5F1
:103FF00031E0338322832FEF2483258328E6268B29
:1040000027E0EAE0F1E0DC01579601900D922A9555
:10401000E1F727E0E1E1F1E0DC015E9601900D922D
:104020002A95E1F79A878987E9E0F6E01382128200
:104030008CE491E0918380838FE3848380E18187A6
:1040400082E082871386DF91CF91FF90EF90DF901F
:10405000CF9008950E943520A59F900DB49F900D9C
:10406000A49F800D911D11240895A29FB001B39FBC
:10407000C001A39F700D811D1124911DB29F700D71
:10408000811D1124911D0895991B79E004C0991F89
:10409000961708F0961B881F7A95C9F780950895A2
:1040A00097FB072E16F4009407D077FD09D00E94E5
:1040B000862007FC05D03EF4909581959F4F08958A
:1040C000709561957F4F0895A1E21A2EAA1BBB1B24
:1040D000FD010DC0AA1FBB1FEE1FFF1FA217B307D4
:1040E000E407F50720F0A21BB30BE40BF50B661FEA
:1040F000771F881F991F1A9469F7609570958095AE
:1041000090959B01AC01BD01CF010895AA1BBB1B7B
:1041100051E107C0AA1FBB1FA617B70710F0A61BC7
:10412000B70B881F991F5A95A9F780959095BC01E8
:10413000CD010895EE0FFF1F0590F491E02D099435
:10414000CF93DF938230910510F482E090E0E0910C
:104150007806F091790620E030E0C0E0D0E03097BA
:1041600011F14081518148175907C0F0481759078C
:1041700061F482819381209719F09B838A832BC0FD
:10418000909379068093780626C02115310519F0A1
:104190004217530718F49A01BE01DF01EF010280B4
:1041A000F381E02DDCCF2115310509F1281B390BF6
:1041B0002430310590F412968D919C9113976115DE
:1041C000710521F0FB019383828304C090937906EB
:1041D00080937806FD01329644C0FD01E20FF31F83
:1041E00081939193225031092D933C933AC02091B1
:1041F000760630917706232B41F420910601309109
:1042000007013093770620937606209104013091C0
:1042100005012115310541F42DB73EB74091080144
:1042200050910901241B350BE0917606F091770639
:10423000E217F307A0F42E1B3F0B2817390778F07D
:10424000AC014E5F5F4F2417350748F04E0F5F1FDC
:1042500050937706409376068193919302C0E0E0F5
:10426000F0E0CF01DF91CF9108950F931F93CF938B
:10427000DF93009709F48CC0FC01329713821282FD
:1042800000917806109179060115110581F42081BD
:104290003181820F931F209176063091770628177F
:1042A000390779F5F0937706E093760671C0D80167
:1042B00040E050E0AE17BF0750F412962D913C91AC
:1042C0001397AD012115310509F1D901F3CF9D01F6
:1042D000DA013383228360817181860F971F8217F1
:1042E000930769F4EC0128813981260F371F2E5F6F
:1042F0003F4F318320838A819B8193838283452B27
:1043000029F4F0937906E093780642C01396FC9363
:10431000EE931297ED01499159919E01240F351F9B
:10432000E217F30771F480819181840F951F029643
:1043300011969C938E938281938113969C938E9376
:104340001297E0E0F0E0D80112968D919C911397BE
:10435000009719F0F8018C01F6CF8D919C9198018E
:104360002E5F3F4F820F931F209176063091770684
:104370002817390769F4309729F4109279061092BA
:10438000780602C013821282109377060093760695
:10439000DF91CF911F910F91089581E090E0F89403
:1043A0000C94EE21FB01DC0104C08D910190801979
:1043B00021F441505040C8F7881B990B0895FB0128
:1043C000DC014150504048F001900D920020C9F7A7
:1043D00001C01D9241505040E0F70895F894FFCF7E
:1043E000FFFFFFFF00007A068000000102040506BF
:1043F000037F7F3F3F1FFF0700000000C90BCB1763
:10440000610B100C920B700B840B000000000A145F
:10441000CB17890188010000000059012901890199
:10442000FD0021010D01FE0000000000A90ECB17C8
:1044300089018801000000009403550205023F0233
:10444000F001FD02D9024C03C002EE01B002EC0102
:10445000EA01E901E701E501E301B4019A018C01F8
:1044600000000000AF0391021C0200000000B50034
:10447000750289016D029400FF09090A000000001D
:104480008A0CCB17890188018A0C8A0C8A0C0000DF
:1044900000008A0CCB17890188016F70656E206D52
:1044A0007920706F72740053442D63617264206EC2
:1044B0006F7420666F756E64006961726475696EF1
:1044C0006F2E747874003B3B3B20576174657269B2
:1044D0006E673B00642D6D2D593B20483A693A7355
:1044E000006F6B2074696D65003B2000776141644B
:1044F0006848696D73794D445900616D706D414D27
:10450000504D0053756E4D6F6E547565576564540C
:1045100068754672695361744A616E4665624D61A1
:10452000724170724D61794A756E4A756C4175675A
:104530005365704F63744E6F76446563000D0A00D7
:107E0000112484B714BE81FFF0D085E080938100F7
:107E100082E08093C00088E18093C10086E0809377
:107E2000C20080E18093C4008EE0C9D0259A86E02C
:107E300020E33CEF91E0309385002093840096BBD3
:107E4000B09BFECF1D9AA8958150A9F7CC24DD24C4
:107E500088248394B5E0AB2EA1E19A2EF3E0BF2EE7
:107E6000A2D0813461F49FD0082FAFD0023811F036
:107E7000013811F484E001C083E08DD089C08234E0
:107E800011F484E103C0853419F485E0A6D080C0E4
:107E9000853579F488D0E82EFF2485D0082F10E0AE
:107EA000102F00270E291F29000F111F8ED06801E7
:107EB0006FC0863521F484E090D080E0DECF843638
:107EC00009F040C070D06FD0082F6DD080E0C81688
:107ED00080E7D80618F4F601B7BEE895C0E0D1E017
:107EE00062D089930C17E1F7F0E0CF16F0E7DF06D8
:107EF00018F0F601B7BEE89568D007B600FCFDCFD4
:107F0000A601A0E0B1E02C9130E011968C91119780
:107F100090E0982F8827822B932B1296FA010C0160
:107F200087BEE89511244E5F5F4FF1E0A038BF0790
:107F300051F7F601A7BEE89507B600FCFDCF97BE46
:107F4000E89526C08437B1F42ED02DD0F82E2BD052
:107F50003CD0F601EF2C8F010F5F1F4F84911BD097
:107F6000EA94F801C1F70894C11CD11CFA94CF0C13
:107F7000D11C0EC0853739F428D08EE10CD085E9AC
:107F80000AD08FE07ACF813511F488E018D01DD067
:107F900080E101D065CF982F8091C00085FFFCCF94
:107FA0009093C60008958091C00087FFFCCF809118
:107FB000C00084FD01C0A8958091C6000895E0E648
:107FC000F0E098E1908380830895EDDF803219F02E
:107FD00088E0F5DFFFCF84E1DECF1F93182FE3DFCA
:107FE0001150E9F7F2DF1F91089580E0E8DFEE27F6
:047FF000FF270994CA
:027FFE00040479
:0400000300007E007B
:00000001FF