:100000000C946A000C9492000C9492000C94920050
:100010000C9492000C9492000C9492000C94920018
:100020000C9492000C9492000C9492000C94920008
:100030000C9492000C9492000C9492000C949200F8
:100040000C946C110C9492000C9448100C94221097
:100050000C9492000C9492000C9492000C949200D8
:100060000C94C90D0C94920000000000240027009D
:100070002A00010204081020408001020408102018
:10008000010204081020040404040404040402020D
:10009000020202020303030303037C3C3E5E2B3D8A
:1000A0003F2F5B5D3B2C2A225C00000000002500F6
:1000B00028002B000000000023002600290000007B
:1000C0000008000201000003040700000000000017
:1000D00000006B1F11241FBECFEFD8E0DEBFCDBFE5
:1000E00026E0A4E8B2E001C01D92AC39B207E1F706
:1000F00012E0A0E0B1E0E4E0F4E402C005900D926B
:10010000A438B107D9F710E0CAE6D0E004C02197BF
:10011000FE010E94AC20C936D107C9F70E94FC1A23
:100120000C9400220C940000DC015996ED91FC9196
:100130005A973097B9F083899489A589B689428501
:10014000538564857585841B950BA60BB70B8115AC
:1001500020E89207A105B10538F08FEF9FE7A0E0F6
:10016000B0E0089580E090E00895FC01818D928DCB
:10017000009711F00C94BF0C8FEF9FEF0895CF9371
:10018000DF93EC018D818823A1F18C8187FF2DC045
:100190006E857F858889998941E00E944512882370
:1001A00041F1EA8980E2E89FF0011124DF01A851C2
:1001B000BD4F1097F1F08D81823050F44B895C89EE
:1001C0006D897E895C964D935D936D937C935F976B
:1001D0008F89988DA98DBA8DE851FD4F938F828FAD
:1001E000B58BA48B8C818F778C83DF91CF910C940E
:1001F0000A1280E0DF91CF910895FC01818D928DEC
:10020000009711F00C94BF0008953F924F925F92B7
:100210006F927F928F929F92AF92BF92CF92DF9216
:10022000EF92FF920F931F93CF93DF93CDB7DEB77B
:100230002C970FB6F894DEBF0FBECDBF5C01DC017A
:100240005B968D909C905C971696CD90DD90ED908E
:10025000FC901997C114D104E104F10439F0BFEF07
:10026000CB1ADB0AEB0AFB0A312C07C0F401C08071
:10027000D180E280F38033243394F4018185928528
:10028000A385B4859C01AD012F5F3F4F4F4F5F4F5A
:1002900029873A874B875C87260137011D821E829A
:1002A0001F821886F40181859285A385B4852D81EE
:1002B0003E814F815885281739074A075B0708F0A8
:1002C00063C089859A85AB85BC858C159D05AE0577
:1002D000BF0550F482E0C82ED12CE12CF12C92E025
:1002E000492E512C612C712C9E012F5F3F4FB7017D
:1002F000A601C4010E942E13882309F445C08981F8
:100300009A81AB81BC81892B8A2B8B2B41F02601F2
:1003100037019FEF491A590A690A790A05C0C414BE
:10032000D504E604F70491F02D813E814F81588574
:100330002F5F3F4F4F4F5F4F2D833E834F83588733
:100340003FEFC31AD30AE30AF30AACCF0FEF1FEF54
:100350002FEF3FE0B301A201C4010E948E12882357
:1003600099F0D50116964D915D916D917C911997FB
:10037000411551056105710549F093018201C401E0
:100380000E948E12811102C080E02AC0D50116960B
:100390004D925D926D927C921997332051F0D3016A
:1003A000C2010196A11DB11DF40180839183A28336
:1003B000B383F5018789908DA18DB28D892B8A2B0E
:1003C0008B2B69F4D50157964D925D926D927C927C
:1003D0005A9714968C911497806814968C9381E0A8
:1003E0002C960FB6F894DEBF0FBECDBFDF91CF9134
:1003F0001F910F91FF90EF90DF90CF90BF90AF9043
:100400009F908F907F906F905F904F903F90089556
:100410008F929F92AF92BF92CF92DF92EF92FF9214
:100420000F931F93CF93DF93EC018D81811102C055
:1004300080E077C00B891C892D893E890417150738
:1004400026073707A8F36A017B01823029F4CA86A0
:10045000DB86EC86FD860DC0C114D104E104F104F5
:1004600051F41E821F82188619861A861B861C86E6
:100470001D8681E056C08A849B84AC84BD84EB8D4C
:10048000FC8D258530E0275F3F4FB501A401415029
:10049000510961097109022E04C076956795579537
:1004A00047950A94D2F7D701C6010197A109B1096E
:1004B00004C0B695A795979587952A95D2F7841786
:1004C0009507A607B70720F089288A288B2849F4C2
:1004D0004F89588D698D7A8D4E835F8368877987C0
:1004E00004C0841B950BA60BB70B4C015D018E015C
:1004F0000A5F1F4F81149104A104B10409F4A7CF2E
:100500004E815F816885798598018B8D9C8D0E94D5
:100510002E1391E0891A9108A108B1088111EACF40
:1005200087CFDF91CF911F910F91FF90EF90DF90D8
:10053000CF90BF90AF909F908F9008958F929F9291
:10054000AF92BF92CF92DF92EF92FF920F931F93E1
:10055000CF93DF9300D000D0CDB7DEB77C0180E22F
:10056000689F60011124960128513D4FD9011B96C7
:100570009C91917121F0842F827409F097C0142FFF
:10058000F701628B8091000190910101A09102011D
:10059000B091030186879787A08BB18BF601E85154
:1005A000FD4F4489558960E070E0BA015527442722
:1005B000D70157964D935D936D937C935A97828D97
:1005C000938DA0E0B0E0482B592B6A2B7B2BD701F1
:1005D00057964D935D936D937C935A97D9011B96D3
:1005E0008C91887159F4848D958DA68DB78DF70106
:1005F000838B948BA58BB68B81E012C0803109F080
:1006000055C097012D5E3F4FD7015B968D919C9110
:100610005C970E94B213882309F448C084E0F70174
:100620008583812F8F70D70114968C931497F701CF
:1006300016821782108611861A961D921D921D929F
:100640001C921D9716FF34C015968C91813071F560
:1006500011FF2CC0F7014389548965897689452BA0
:10066000462B472B09F461C040E050E0BA01C701B6
:100670000E9408028823D1F0F7018788908CA18C12
:10068000B28CC38CD48C82E090E0A0E0B0E0F601A4
:1006900080839183A283B3839E012F5F3F4FB50177
:1006A000A401C6010E942E13811104C080E03DC048
:1006B00081E03BC000E010E09801B501A401C60153
:1006C0000E948E12882391F389809A80AB80BC802F
:1006D000D60157968C91803129F088EF9FEFAFEFCC
:1006E000BFE004C088EF9FEFA0E0B0E08816990655
:1006F000AA06BB0688F2D70157961D921D921D923D
:100700001C925A97F701138A148A158A168A8481D3
:1007100080688483C7010E94BF00882339F240E0CB
:1007200050E0BA01C7010E9408020F900F900F908D
:100730000F90DF91CF911F910F91FF90EF90DF907D
:10074000CF90BF90AF909F908F9008954F925F92FF
:100750006F927F92AF92BF92CF92DF92EF92FF9211
:100760000F931F93CF93DF93CDB7DEB72B970FB6C1
:10077000F894DEBF0FBECDBF7C01CE0101966C01A7
:10078000FC0190E28BE08C0D91938E13FDCFDA018A
:1007900030E047E09D91992339F19E3219F0EAE962
:1007A000F0E00AC04A3009F472C138E04AE0F2CF02
:1007B0003196891709F46BC184918111F9CF4317E0
:1007C00008F465C18FED890F8E3508F060C181E0B6
:1007D000830FF601E30FF11D3FE9390F3A3108F4B9
:1007E00090529083382FD6CF8981803209F44FC13F
:1007F000B22E8B01DB015B968D919C915C97F7018A
:10080000948F838F16961D921D921D921C9219979C
:10081000FB011286138614861586712CF8018285D9
:100820009385A485B585438954896589768984171C
:100830009507A607B70708F061C025E0B695A7950C
:10084000979587952A95D1F7F82FFF706F2ED801CD
:1008500015968C91823008F41AC1C8010E94BF0C11
:1008600097FD15C1F80182859385A485B5854F96BE
:10087000A11DB11D82879387A487B587F0E26F9E83
:10088000C0011124BC0168517D4F6115710509F447
:10089000FEC0DB012C91222319F0253EC1F427C0B4
:1008A00071100EC0F701628A409100015091010160
:1008B000609102017091030146875787608B718BAD
:1008C000FC01E851FD4F8081811113C015C04BE040
:1008D00050E0C6010E94E421892B09F09FCF8B2DA7
:1008E0008073803309F4D3C04B2D662DCCC07720A4
:1008F000C9F27724739492CF772473948B2D8271ED
:10090000823109F0C4C07720D1F0D7011E966D91D5
:100910007D918D919C91519741E00E9445128823D1
:1009200009F4B5C0F7016289F0E26F9FB0011124AC
:1009300068517D4F6115710509F079C0A8C0D801D3
:1009400015968C91823009F4A2C0C8010E9405015D
:10095000882309F49CC0D8015B96ED91FC915C97CB
:1009600016964D905D906D907C901997B2E04B1A61
:10097000510861087108058404C0440C551C661CAC
:10098000771C0A94D2F786859785A089B189480E8D
:10099000591E6A1E7B1EA480E1E04E1A51086108B0
:1009A0007108AA2009F10E940A12882309F46FC075
:1009B000E8EEF2E0119224E0E83EF207D9F7D30125
:1009C000C2018A0D911DA11DB11D8093000190935C
:1009D0000101A0930201B09303018091DA028160CA
:1009E0008093DA02AA94DDCFD8015B96ED91FC9159
:1009F0005C9780E092E0A0E0B0E0058404C0880F3E
:100A0000991FAA1FBB1F0A94D2F7F8014389548982
:100A100065897689840F951FA61FB71F838B948BDA
:100A2000A58BB68BD70152961C9268EE72E080E2DD
:100A3000FB0111928A95E9F78BE0F601DB01019049
:100A40000D928A95E1F781E298E2DB0151969C9341
:100A50008E93509720E038E01F963C932E931E977C
:100A600053969C938E93529759969C938E93589736
:100A700057963C932E9356970E940A12882339F07A
:100A80004B2DF7016289C7010E949E0201C080E0E0
:100A90002B960FB6F894DEBF0FBECDBFDF91CF917E
:100AA0001F910F91FF90EF90DF90CF90BF90AF908C
:100AB0007F906F905F904F9008950F931F93CF9307
:100AC000DF93FC01818D928D0097B9F0EF010E94B8
:100AD000BF0C8C010F3F8FEF180791F0898D9A8D15
:100AE000FC01428553856485758541505109610932
:100AF00071090E940802C80105C080E090E002C0B0
:100B00008FEF9FEFDF91CF911F910F910895CF93BA
:100B1000DF93EC010E94BF00882311F01D8281E069
:100B2000DF91CF9108958FB7F894809192028FBF93
:100B3000089561E0FC0184810E94A31080919102DC
:100B400081111092910208958EBD00000DB407FE30
:100B5000FDCF8EB508958FEF0C94A4050F931F93CE
:100B6000CF93DF93EB010E9460118B010E94AB05D4
:100B70008F3F49F00E946011601B710B6C177D075D
:100B8000A8F380E001C081E0DF91CF911F910F9128
:100B90000895CF93DF93EC018E81882389F08F81B4
:100BA00098859C012F5F3F4F38872F83823092407A
:100BB00018F40E94AB05F3CFCE010E9499051E8266
:100BC000DF91CF9108958CBD9DBD0895CF93DF93A4
:100BD000EC0180919102811109C081E08093910222
:100BE0008091D4059091D5050E94E30560E08C8149
:100BF000DF91CF910C94A310CF92DF92FF920F93CD
:100C00001F93CF93DF9300D000D0CDB7DEB76C0138
:100C1000F62E29833A834B835C830E94C905C60163
:100C20000E94E6056CE271E0C6010E94AE058F2DC0
:100C300080640E94A40508E110E05C814B813A8148
:100C40002981DA01C901002E04C0B695A7959795B0
:100C500087950A94D2F729833A834B835C830E9459
:100C6000A4050850110929813A814B815C81083F14
:100C70008FEF180731F7FF2029F0E8E0FE1204C0DB
:100C800087E803C085E901C08FEF0E94A40510E04A
:100C90000E94AB05F601828787FF04C01F3F11F059
:100CA0001F5FF6CF0F900F900F900F90DF91CF91B5
:100CB0001F910F91FF90DF90CF900895AF92BF9258
:100CC000CF92DF92EF92FF920F931F93CF93DF9318
:100CD000EC016901C801820F931F8130924008F036
:100CE00070C08E81882371F088819981AA81BB812F
:100CF000481759076A077B0729F48F819885C8161A
:100D0000D906B0F5488359836A837B838B8583300A
:100D100039F089E0440F551F661F771F8A95D1F778
:100D20009A01AB0161E1CE010E94FC05882319F014
:100D300083E08D8346C00E9460115B010E94AB0579
:100D40008A878F3F49F40E9460116A197B096D32CE
:100D50007140A0F38FE003C08E3F31F08DE08D83B2
:100D6000CE010E9499052DC018861F8281E08E83D6
:100D70008F8198858C159D0540F40E94AB058F816D
:100D80009885019698878F83F3CF6701E00EF11E57
:100D9000CE14DF0431F00E94AB05F60181936F01A0
:100DA000F7CF8F819885080F191F18870F838985C2
:100DB000882319F00115124048F0CE010E94C905A0
:100DC00005C0CE010E94990580E001C081E0DF915D
:100DD000CF911F910F91FF90EF90DF90CF90BF9038
:100DE000AF900895EF92FF920F931F93CF93DF93ED
:100DF000EC017901411551056105710511F482E19C
:100E00003CC08B85833039F089E0440F551F661F45
:100E1000771F8A95D1F79A01AB0168E1CE010E9454
:100E2000FC05882311F084E028C08EEF0E94A40501
:100E300087018EEFF81AF80181918F010E94A405B5
:100E40000E151F05C1F78FEF0E94A4058FEF0E94BA
:100E5000A4050E94AB058A878F71853031F081E14E
:100E60008D83CE010E94990509C068E572E0CE012C
:100E70000E94AE05811107C085E18D83CE010E94DD
:100E8000990580E013C020E030E0A9016DE0CE01BB
:100E90000E94FC05811104C00E94AB05882311F05B
:100EA00084E1EBCFCE010E94990581E0DF91CF91E3
:100EB0001F910F91FF90EF9008952F923F924F92C4
:100EC0005F926F927F928F929F92AF92BF92CF92DA
:100ED000DF92EF92FF920F931F93CF93DF9300D097
:100EE00000D0CDB7DEB78C015B011A01DC0115968D
:100EF0008C9115978130C9F414968C9181FF15C09F
:100F000082FF1BC0F80143895489658976898285EF
:100F10009385A485B58584179507A607B70769F05B
:100F2000C8010E940802811108C081E090E0F80128
:100F30009383828380E090E039C1610183C0D8014E
:100F40005B968D919C915C97FC01248121502A0134
:100F50003B0139E076946794579447943A95D1F7DA
:100F6000722E74207A01F1E0FF22772009F476C016
:100F700080E092E08E199F0946018C159D0508F4CA
:100F80004C01D8015B962D913C915C9716968D9102
:100F90009D910D90BC91A02D0297A109B109F90175
:100FA000058404C0880F991FAA1FBB1F0A94D2F79B
:100FB0004685578560897189840F951FA61FB71FC5
:100FC0009C01AD01270D311D411D511D29013A0123
:100FD000811432E0930609F088C08091000190915D
:100FE0000101A0910201B091030184159505A605A8
:100FF000B70559F48FEF9FEFDC01809300019093C8
:101000000101A0930201B09303019501B301A20174
:101010008091E8049091E9040E94F206882309F483
:1010200084CF9EEFB91AC818D908F8018285938534
:10103000A485B585880D991DA11DB11D8287938753
:10104000A487B587D8011A964D915D916D917C91D9
:101050001D97C114D10409F072CF87C0E114F104C7
:1010600009F086CF16964D915D916D917C911997FF
:10107000411551056105710559F457968D919D9162
:101080000D90BC91A02D0097A105B10541F521C09F
:101090009E012F5F3F4F0E942E13882309F44BCFF0
:1010A00089819A81AB81BC81F801238D348DF9014E
:1010B0002789203129F048EF5FEF6FEF7FE004C010
:1010C00048EF5FEF60E070E084179507A607B70769
:1010D00030F0C8010E94050181114ACF26CFF801E6
:1010E00086839783A087B18743CFE114F10429F564
:1010F000D8011A964D915D916D917C911D975396F3
:101100008D919D910D90BC91A02D481759076A07AC
:101110007B0798F00E940A12882309F406CF4092B8
:1011200000015092010160920201709203018091CE
:10113000DA0281608093DA0208C041E0C301B201A3
:101140000E944512882309F4F0CED501F701E85139
:10115000FD4FCF01880D991DE817F90719F02D9162
:101160002193FACFA80CB91C5ECF53968D919D9117
:101170000D90BC91A02D84179507A607B70740F4E2
:10118000F801438B548B658B768B848180688483D4
:10119000D80114968C9183FD02C0C10107C0C8011B
:1011A0000E94BF00882309F4C0CEF7CF0F900F90A4
:1011B0000F900F90DF91CF911F910F91FF90EF90C3
:1011C000DF90CF90BF90AF909F908F907F906F9067
:1011D0005F904F903F902F900895CF93DF931F9291
:1011E000CDB7DEB7698341E050E0BE016F5F7F4F4E
:1011F0000E945D070F90DF91CF910895FC01DB0104
:1012000012968D919C9113979383828387E391E04B
:101210009183808314968C911497848315968C9176
:101220001597858316964D915D916D917C911997D7
:1012300046835783608771871A964D915D916D91B2
:101240007C911D9742875387648775871E964D91C1
:101250005D916D917C91519746875787608B718B1B
:1012600052968C915297828B53964D915D916D91D0
:101270007C915697438B548B658B768B57964D910B
:101280005D916D917C915A97478B508F618F728FD2
:101290005B968D919C915C97948F838F0895CF93EB
:1012A000DF931F92CDB7DEB76983DC01ED91FC912E
:1012B0000280F381E02D41E050E0BE016F5F7F4F7F
:1012C00009950F90DF91CF91089585ED8093BC0033
:1012D0008091BC0084FDFCCF1092320508954091AE
:1012E000B502262F30E0240F311D21323105DCF408
:1012F000209132052430C9F4FC0180E090E086178B
:1013000058F43091B5022191DC01AD56BD4FA30FC9
:10131000B11D2C930196F3CF8091B502680F6093B5
:10132000B50280E0089581E0089582E0089508956F
:10133000E091360580913505E81730F4F0E0E85883
:10134000F94F808190E008958FEF9FEF089590917D
:10135000360580913505981750F4E92FF0E0E858EC
:10136000F94F208130E09F5F9093360502C02FEF48
:101370003FEFC90108958091350590E02091360531
:10138000821B91090895CF92DF92EF92FF920F9303
:101390001F93CF93DF937C01262F972F8A01809193
:1013A0000E05882391F0C62FD72F6E01C40ED51ECF
:1013B000CC15DD0571F06991D701ED91FC9101909B
:1013C000F081E02DC7010995F3CF642F822F0E9491
:1013D0006F09C801DF91CF911F910F91FF90EF909E
:1013E000DF90CF900895CF93DF931F92CDB7DEB7F4
:1013F000698320910E052223D1F0209133052032FC
:1014000040F021E030E0FC013383228380E090E073
:1014100015C080913405E82FF0E0E15FFA4F998123
:1014200090838F5F809334058093330505C061E01E
:10143000CE0101960E946F0981E090E00F90DF914C
:10144000CF910895089580E090E00895DC011C9606
:10145000ED91FC911D97208116968C91922F9823E7
:1014600081E009F480E00895FC01A085B1858681C2
:101470009C91611109C0892B8C93A089B1899C91A1
:1014800086818095892308C0809589238C93A089C3
:10149000B1899C918681892B8C930895FC01A2854A
:1014A000B38587819C9161110CC0892B8C93A28993
:1014B000B3899C918781809589238C9320E63AEEAD
:1014C00017C0809589238C93A289B3899C918781C9
:1014D000892B8C93A685B785978120E63AEE8C916F
:1014E000892331F42115310519F021503109F7CF45
:1014F00081E0232B09F480E0089580E0089580E0E6
:10150000089580E00895089580E0089580E00895AA
:1015100084E00895CF93DF931F92CDB7DEB7498360
:10152000DC01ED91FC910088F189E02D21E0AE0114
:101530004F5F5F4F09950F90DF91CF9108950F9303
:10154000CF93DF931F92CDB7DEB72983DC01ED91F6
:10155000FC910484F585E02D01E09E012F5F3F4F53
:1015600009950F90DF91CF910F9108950F931F93DD
:10157000CF93DF93EC01062F142FE881F9810280CD
:10158000F381E02D09958DA3FE01E00FF11D968DED
:10159000292F20952823122B982B212F2923478987
:1015A0006E89CE010296DF91CF911F910F910C941D
:1015B0009F0ACF93DF931F92CDB7DEB71982DC016C
:1015C000ED91FC910684F785E02D21E0AE014F5F9F
:1015D0005F4F099589810F90DF91CF9108950F9307
:1015E000CF93DF931F92CDB7DEB71982DC01ED9167
:1015F000FC910284F385E02D01E09E012F5F3F4FB7
:10160000099589810F90DF91CF910F910895CF9324
:10161000DF93EC01898D9A8D009739F481E090E099
:101620009B838A8380E090E00BC0FC0113821282CE
:101630000E945D07E98DFA8D22813381232B71F79A
:10164000DF91CF9108950F931F93CF93DF93EC0118
:10165000162F61E070E080E090E00E942611CE013C
:10166000810F911D8C01FC0147896E89CE01029684
:101670000E94EF0AF801968D8923DF91CF911F9187
:101680000F91089581E080930E0560932F051092CD
:101690003405109233050E94411491E0811190E0CD
:1016A000892F0895CA0131E030930E0560932F050C
:1016B0001092340510923305422F50E0BC018FE1A7
:1016C00096E00E94C30981E00E94411491E08111DB
:1016D00090E0892F08950F93CF93DF93E90181E084
:1016E00080930E0560932F051092340510923305F8
:1016F000642F8FE196E00E94F309402F50E0BE0175
:101700008FE196E00E94C30981E00E94411491E0BC
:10171000811190E0892FDF91CF910F910895EF9281
:10172000FF920F931F93CF93DF93C62F122FE32EB9
:1017300081E080930E0560932F051092340510927E
:101740003305642F8FE196E00E94F30980E00E9448
:101750004114602F013208F060E28C2F0E940E1AB3
:101760001092360580933505882301F1F12EC12FA3
:10177000DE2D1C2F1F199091350580913605981785
:1017800041F0101730F48FE196E00E94A709899389
:10179000F0CF9091350580913605981729F08FE1AB
:1017A00096E00E94A709F5CF81E0101380E0DF9159
:1017B000CF911F910F91FF90EF900895CF92DF92FC
:1017C000FF920F931F93CF93DF9300D0CDB7DEB777
:1017D000862F122F622F213208F060E249835A834C
:1017E0000E940E1A109236058093350549815A8160
:1017F000882309F1F42E6A010C2D0F1990913505FB
:1018000080913605981751F0011740F48FE196E06A
:101810000E94A709F60181936F01EECF90913505E3
:1018200080913605981729F08FE196E00E94A7096C
:10183000F5CF81E0011380E00F900F90DF91CF9101
:101840001F910F91FF90DF90CF900895A8EEB3E025
:101850009A01AB010E943C209B01AC0160E074E264
:1018600084EF90E00E947620DA01C9014097A10937
:10187000B109B695A795979587958093B8000C9474
:101880001B140F931F93CF93DF93EC018C010E5F1A
:101890001F4F44E650E060E070E0C8010E94260C53
:1018A00042E06E89C8010E94EF0A8DA386FF07C03F
:1018B000282F2F7B42E06E89C8010E949F0A4EE0CC
:1018C0006E89C8010E94EF0A8DA3982F9F7D39F081
:1018D000282F20724EE06E89C8010E949F0A4FE0B7
:1018E0006E89C8010E94EF0A282F8DA3837811F416
:1018F00023FD0BC0247728604FE06E89C801DF917B
:10190000CF911F910F910C949F0ADF91CF911F915E
:101910000F910895EF92FF920F931F93CF93DF9350
:10192000EC017B018A011B821A8288EE93E0A0E021
:10193000B0E08C839D83AE83BF8387E991E0998378
:1019400088838DE190E00E94B2209A8F898F009762
:1019500079F02DE1F701DC0101900D922A95E1F774
:101960004CE050E0B801CE010C960E94F121188E97
:10197000DF91CF911F910F91FF90EF9008952F92DB
:101980003F924F925F926F927F928F929F92AF920F
:10199000BF92CF92DF92EF92FF920F931F93CF935C
:1019A000DF9300D0CDB7DEB7FC018581882309F431
:1019B000D9C0848180FFD6C021E02A83438954891D
:1019C0006589768982859385A485B58548175907E9
:1019D0006A077B0709F41A826F013A81832F90E02E
:1019E000DE0111964D013F01B6E06B0E711C892B93
:1019F00009F47DC0D6011A964D915D916D917C914F
:101A00001D975A01B1E0BB22F60125811A012B0175
:101A100089E056944794379427948A95D1F7838D1B
:101A2000948D223061F4FC01828D938DA48DB58D4F
:101A3000BC01CD01620D731D841D951D45C0DC01E7
:101A400014961C9111501221A114B104D1F411115A
:101A500018C0452B462B472B51F4F6018789908DF2
:101A6000A18DB28D86839783A087B1870AC04681F6
:101A700057816085718593010E942E13882309F494
:101A800071C0F601238D348D86819781A085B18543
:101A90000297A109B109AC01BD01F901058404C097
:101AA000440F551F661F771F0A94D2F786859785C6
:101AB000A089B189840F951FA61FB71FBC01CD0156
:101AC000610F711D811D911DD60114962C9126FF69
:101AD00014C0009100011091010120910201309188
:101AE0000301601771078207930751F506C0FA8159
:101AF000FF23C1F1898190E037C040E00E94451288
:101B0000882381F1F501E851FD4FD401CF01019601
:101B1000E817F90719F021912D93FACFEFEF8E1AFC
:101B20009E0AF60182859385A485B5850196A11D3F
:101B3000B11D82879387A487B58780E090E057CF57
:101B4000740101E010E09501AB01BC018091E80453
:101B50009091E9040E945E06882321F0BFEF8B1A62
:101B60009B0ADFCF8FEF9FEF0F900F90DF91CF9108
:101B70001F910F91FF90EF90DF90CF90BF90AF90AB
:101B80009F908F907F906F905F904F903F902F909D
:101B900008951F920F920FB60F9211242F933F9327
:101BA0004F935F936F937F938F939F93AF93BF9365
:101BB000EF93FF938091B900887F803609F49CC031
:101BC00068F5883209F45BC090F4803109F454C0A0
:101BD00038F4882309F4F6C0883009F44DC0F6C003
:101BE000883109F44CC0803209F45DC0EFC0803404
:101BF00009F468C048F4803309F455C0883309F00B
:101C0000E5C080930D05D8C0803509F44FC08835F4
:101C100009F45DC0883409F0D9C0D6C0883909F408
:101C2000C7C0A8F4883709F467C038F4883609F4C7
:101C300063C0803709F460C0C9C0883809F4B8C0EF
:101C4000803909F45FC0803809F0C0C05BC0803BB8
:101C500009F486C038F4803A09F466C0883A09F479
:101C60007FC0B4C0803C09F4A7C0883C09F4A4C07C
:101C7000883B09F48AC0AAC08091EA0410C0909100
:101C80000C0580910B05981770F5E0910C0581E02B
:101C90008E0F80930C05F0E0E551FB4F808180931F
:101CA000BB0085EC86C080930D058EC0E0910C05CD
:101CB00081E08E0F80930C058091BB00F0E0E55130
:101CC000FB4F808390910C0580910B056EC0E091D5
:101CD0000C0581E08E0F80930C058091BB00F0E035
:101CE000E551FB4F80838091310581116DC081E00A
:101CF0008093300584EA61C083E0809332051092BE
:101D0000D902CFCF8091D902803208F051C0E09142
:101D1000D90281E08E0F8093D9028091BB00F0E060
:101D2000E754FD4F8083BDCF85EC8093BC001092BB
:101D300032058091D902803230F4E091D902F0E08E
:101D4000E754FD4F10826091D90270E0E091B70234
:101D5000F091B80289EB92E009951092D90236C051
:101D600084E0809332051092B6021092B502E091A1
:101D7000B302F091B40209958091B502811105C0BA
:101D800081E08093B50210929302E091B60281E067
:101D90008E0F8093B602F0E0ED56FD4F8081809368
:101DA000BB009091B6028091B502981708F479CFE4
:101DB00085E88093BC000AC085EC8093BC0010923B
:101DC000320504C010920D050E946509FF91EF9144
:101DD000BF91AF919F918F917F916F915F914F9143
:101DE0003F912F910F900FBE0F901F901895FC01FF
:101DF000538D448D252F30E0842F90E0821B930B70
:101E0000541710F0CF96089501970895FC01918D15
:101E1000828D981761F0828DDF01A80FB11D5D964C
:101E20008C91928D9F5F9F73928F90E008958FEFBA
:101E30009FEF0895FC01918D828D981731F0828D6E
:101E4000E80FF11D858D90E008958FEF9FEF0895C5
:101E5000FC01918D228D892F90E0805C9F4F821B29
:101E600091098F739927089587E395E00E94280FC1
:101E700021E0892B09F420E0822F0895FC01848D54
:101E8000DF01A80FB11DA35ABF4F2C91848D90E0A4
:101E900001968F739927848FA689B7892C93A0897F
:101EA000B1898C9180648C93938D848D981306C036
:101EB0000288F389E02D80818F7D80830895EF92E1
:101EC000FF920F931F93CF93DF93EC0181E0888FF4
:101ED0009B8D8C8D981305C0E889F989808185FDDB
:101EE00024C0F62E0B8D10E00F5F1F4F0F731127CC
:101EF000E02E8C8DE8120CC00FB607FCFACFE889F3
:101F0000F989808185FFF5CFCE010E943E0FF1CF88
:101F10008B8DFE01E80FF11DE35AFF4FF0820B8F0E
:101F2000EA89FB898081806207C0EE89FF8960832E
:101F3000E889F98980818064808381E090E0DF9185
:101F4000CF911F910F91FF90EF900895CF93DF9362
:101F5000EC01888D8823C9F0EA89FB89808185FDA1
:101F600005C0A889B9898C9186FD0FC00FB607FC02
:101F7000F5CF808185FFF2CFA889B9898C9185FF43
:101F8000EDCFCE010E943E0FE7CFDF91CF910895B4
:101F900080E090E0892B29F00E94340F81110C948D
:101FA00000000895833081F028F4813099F0823068
:101FB000A1F008958730A9F08830B9F08430D1F4C9
:101FC000809180008F7D03C0809180008F77809307
:101FD0008000089584B58F7702C084B58F7D84BD5D
:101FE00008958091B0008F7703C08091B0008F7DFD
:101FF0008093B00008953FB7F8948091E4029091E7
:10200000E502A091E602B091E70226B5A89B05C0C3
:102010002F3F19F00196A11DB11D3FBFBA2FA92F67
:10202000982F8827820F911DA11DB11DBC01CD01E4
:1020300042E0660F771F881F991F4A95D1F70895D0
:102040000E94DF211F920F920FB60F9211242F933F
:102050003F934F935F936F937F938F939F93AF9330
:10206000BF93EF93FF9387E395E00E943E0FFF91AC
:10207000EF91BF91AF919F918F917F916F915F9100
:102080004F913F912F910F900FBE0F901F90189579
:102090001F920F920FB60F9211242F938F939F933D
:1020A000EF93FF93E0914705F09148058081E0911F
:1020B0004D05F0914E0582FD12C090818091500532
:1020C0008F5F8F7320915105821751F0E091500579
:1020D000F0E0E95CFA4F958F8093500501C0808154
:1020E000FF91EF919F918F912F910F900FBE0F90C5
:1020F0001F901895CF93DF93282F30E0F901E25419
:10210000FF4F8491F901EE58FF4FD491F901EA573E
:10211000FF4FC491CC2391F081110E94D20FEC2F7C
:10212000F0E0EE0FFF1FEC54FF4FA591B491EC913E
:10213000ED2381E090E021F480E002C080E090E0B7
:10214000DF91CF9108951F93CF93DF93282F30E035
:10215000F901E254FF4F8491F901EE58FF4FD491F9
:10216000F901EA57FF4FC491CC23C9F0162F811112
:102170000E94D20FEC2FF0E0EE0FFF1FE655FF4F4D
:10218000A591B4918FB7F894111105C09C91ED2FD2
:10219000E095E92302C0EC91ED2BEC938FBFDF912A
:1021A000CF911F910895CF93DF9390E0FC01EE58FB
:1021B000FF4F2491FC01EA57FF4F8491882361F17E
:1021C00090E0880F991FFC01E859FF4FC591D49109
:1021D000FC01E655FF4FA591B491611109C09FB76D
:1021E000F8948881209582238883EC912E230BC05C
:1021F000623061F49FB7F8943881822F80958323F1
:102200008883EC912E2B2C939FBF06C08FB7F89438
:10221000E8812E2B28838FBFDF91CF9108958E30D8
:1022200008F08E508770806480937C0080917A00E3
:10223000806480937A0080917A0086FDFCCF809143
:1022400078002091790090E0922B08958F929F92D0
:10225000AF92BF92CF92DF92EF92FF926B017C011F
:102260000E94FB0F4B015C01C114D104E104F10495
:10227000F1F00E94FB0FDC01CB0188199909AA0932
:10228000BB09883E9340A105B10570F321E0C21A55
:10229000D108E108F10888EE880E83E0981EA11CA1
:1022A000B11CC114D104E104F10419F7DDCFFF9092
:1022B000EF90DF90CF90BF90AF909F908F90089558
:1022C0002FB7F8946091E0027091E1028091E202F0
:1022D0009091E3022FBF08951F920F920FB60F92B5
:1022E00011242F933F938F939F93AF93BF9380912C
:1022F000E0029091E102A091E202B091E3023091FC
:10230000DF0223E0230F2D3720F40196A11DB11D1C
:1023100005C026E8230F0296A11DB11D2093DF0200
:102320008093E0029093E102A093E202B093E30273
:102330008091E4029091E502A091E602B091E7025B
:102340000196A11DB11D8093E4029093E502A09334
:10235000E602B093E702BF91AF919F918F913F91B9
:102360002F910F900FBE0F901F901895FC012481A4
:1023700031E030930E0520932F0510923405109212
:1023800033058385682B8FE196E00E94F30981E095
:102390000C9441140F931F93CF938C01C62F0E946E
:1023A000B6116C2F6460C8010E94B6116C2F6B7F50
:1023B000C8010E94B61183EC90E00197F1F7CF912C
:1023C0001F910F910895FF920F931F93CF93DF9367
:1023D0001F92CDB7DEB78C01F62E962F907F692F16
:1023E000642BC80149830E94CA1180E1F89EB001A4
:1023F00011244981642BC8010F90DF91CF911F9167
:102400000F91FF900C94CA1141E00E94E31181E00A
:1024100090E008958091DA028823A9F140910001AB
:1024200050910101609102017091030128EE32E0A8
:102430008091E8049091E9040E94F206811102C0A3
:1024400080E008954091DB025091DC026091DD0252
:102450007091DE02411551056105710591F028EE7C
:1024600032E08091E8049091E9040E94F20688230A
:1024700039F31092DB021092DC021092DD0210920E
:10248000DE021092DA0281E008958F929F92AF925D
:10249000BF92EF92FF920F931F93CF934B015C017A
:1024A000C42F8091000190910101A0910201B0918F
:1024B000030188159905AA05BB0501F10E940A12BE
:1024C000811102C080E020C088EEE82E82E0F82E64
:1024D00000E012E020E030E0B501A4018091E804C2
:1024E0009091E9040E945E06882361F380920001C6
:1024F00090920101A0920201B09203018091DA0250
:10250000C82BC093DA0281E0CF911F910F91FF9009
:10251000EF90BF90AF909F908F9008954F925F92F1
:102520006F927F928F929F92AF92BF92CF92DF92E3
:10253000EF92FF920F931F93CF93DF93EC016A0109
:102540007B0128013901423051056105710510F404
:1025500080E073C089859A85AB85BC850196A11DF5
:10256000B11D84179507A607B70790F38B889C8841
:10257000AD88BE888F89803129F4BB27AF2D9E2D71
:102580008D2D09C0DB01CA0147E0B695A795979547
:1025900087954A95D1F7880E991EAA1EBB1E809179
:1025A000000190910101A0910201B09103018816F0
:1025B0009906AA06BB0679F48F898031A1F4DD243F
:1025C000EE24FF24C601880F991FFC01E851FD4F3E
:1025D0005182408219C040E0C501B4010E944512F9
:1025E0008111EACFB5CFE894C7F8DD24EE24FF24AB
:1025F000C601880F991F880F991FFC01E851FD4FF4
:1026000040825182628273828091DA02816080937B
:10261000DA028A89823080F08D819E81AF81B8850F
:10262000880E991EAA1EBB1E8092DB029092DC02CD
:10263000A092DD02B092DE0281E0DF91CF911F9186
:102640000F91FF90EF90DF90CF90BF90AF909F9051
:102650008F907F906F905F904F9008958F929F9290
:10266000AF92BF92CF92DF92EF92FF920F931F93A0
:10267000CF93DF93FC0181859285A385B485019674
:10268000A11DB11D84179507A607B70710F480E0B8
:102690005CC083899489A589B689C789C03129F42A
:1026A000852E962EA72EBB2409C04A015B01C7E0E8
:1026B000B694A79497948794CA95D1F7E9016A01D3
:1026C0007B018F01BC01CD01680D791D8A1D9B1D09
:1026D0008090000190900101A0900201B090030150
:1026E000681579058A059B0599F4F8018789803179
:1026F000A9F4B701A601552766277727440F551F70
:10270000FA01E851FD4F80819181A0E0B0E018C04E
:1027100040E00E9445128111E8CFB9CFB701A60170
:102720004F77552766277727440F551F440F551FAE
:10273000FA01E851FD4F80819181A281B381BF7080
:1027400088839983AA83BB8381E0DF91CF911F9116
:102750000F91FF90EF90DF90CF90BF90AF909F9040
:102760008F9008954F925F926F927F92AF92BF9237
:10277000CF92DF92EF92FF920F931F93CF93DF934D
:1027800000D000D0CDB7DEB78C0149835A836B836C
:102790007C835901C12CD12C7601412C82E0582E2A
:1027A000612C712C49815A816B817C819E012F5F44
:1027B0003F4FC8010E942E13882351F1D301C2015B
:1027C000F801058404C0880F991FAA1FBB1F0A9433
:1027D000D2F7C80ED91EEA1EFB1E49815A816B81B1
:1027E0007C818789803129F088EF9FEFAFEFBFE0D0
:1027F00004C088EF9FEFA0E0B0E0481759076A07D0
:102800007B0780F2F501C082D182E282F38281E00F
:102810000F900F900F900F90DF91CF911F910F911C
:10282000FF90EF90DF90CF90BF90AF907F906F9030
:102830005F904F90089510923605109235051092D2
:102840003405109233051092320581E080933105F2
:102850001092300561E082E10E94A31061E083E103
:102860000E94A310E9EBF0E080818E7F808380815D
:102870008D7F808388E48093B80085E48093BC00DA
:102880000895382F2091330590912F05213208F0BB
:1028900049C0809132058111FCCF42E0409332055E
:1028A000309331053FEF30930D0510920C052093C6
:1028B0000B05AFE0B5E04BEE54E0FA013E2F341BC0
:1028C000321718F43D913193F9CF1092EA04209118
:1028D000EA04990F922B9093EA049091300591307D
:1028E00061F4109230059091EA049093BB009091AE
:1028F000BC0093FDF8CF95EC01C095EE9093BC0021
:10290000909132059230E1F390910D059F3F79F05F
:1029100080910D05803241F080910D05803331F0BA
:1029200084E005C081E003C082E001C083E0109232
:1029300034051092330510920E0508958F929F92E0
:10294000AF92BF92CF92DF92EF92FF92CF93DF933D
:10295000C82F86ED95E09093E9048093E804CC239A
:1029600069F1C53010F080E00DC140E060E070E03A
:10297000CB010E9445128823B1F320E1C29FC00120
:10298000112488529D4FFC01E254FE4F20812F7785
:1029900051F73C96408151816281738144365105E3
:1029A0006105710500F33497C080D180E280F38027
:1029B000C114D104E104F10421F4D5CFC12CD12CF0
:1029C000760140E0C701B6010E944512882359F202
:1029D0008091F3029091F4028115924021F6A0912A
:1029E000F802AA2309F4BFCF6091F6027091F702B2
:1029F0006115710509F4B7CF2091F502222309F47E
:102A0000B2CFA093F4052093E60580E030E0E1E04A
:102A1000F0E0C82FAF01082E02C0440F551F0A94E2
:102A2000E2F72417350741F0982F8F5F983089F728
:102A300089E08093EF0597CF8093EF052091FE0208
:102A40003091FF022115310519F040E050E008C037
:102A500020910C0330910D0340910E0350910F0310
:102A60002093E7053093E8054093E9055093EA0584
:102A700046015701860E971EA11CB11C8092F505D8
:102A80009092F605A092F705B092F805E091F90250
:102A9000F091FA02F093FB05E093FA05B0E00E9492
:102AA0003C20860E971EA81EB91E8092FC059092AF
:102AB000FD05A092FE05B092FF0585E0EE0FFF1F19
:102AC0008A95E1F7E150FE4FEF2FFF27E6958E0E36
:102AD0009F1EA11CB11C8092F0059092F105A0925E
:102AE000F205B092F3052091FB023091FC02211512
:102AF000310521F0A90160E070E008C040910803B1
:102B00005091090360910A0370910B03D701C6012C
:102B100088199909AA09BB09840F951FA61FB71F19
:102B200004C0B695A79597958795CA95D2F78093D7
:102B3000EB059093EC05A093ED05B093EE05853F72
:102B40002FE09207A105B10510F48CE018C0853F75
:102B50009F4FA105B10510F480E111C080911403CD
:102B600090911503A0911603B09117038093FC0573
:102B70009093FD05A093FE05B093FF0580E280933E
:102B8000F90581E0DF91CF91FF90EF90DF90CF903A
:102B9000BF90AF909F908F900895CF92DF92EF9269
:102BA000FF920F931F93CF93DF93C82FD62F042F3D
:102BB00011E080915106821310E00E946011C090D4
:102BC0005206D0905306E0905406F0905506A701A7
:102BD00096010E947620F694E794D794C7946C15DA
:102BE0007D058E059F0508F442C0D23009F442C02D
:102BF00028F4DD2351F0D13011F115C1D33009F49F
:102C000067C0D43009F4B1C00EC1E0914206F09122
:102C10004306E00FF11D111105C0C73008F0C6E0F2
:102C2000C05D01C0C0E2C083FEC0D33008F04CC01C
:102C3000DD2309F4EEC0D13009F0F5C010E0C43650
:102C400008F0C3E6202F30E0E0914206F091430601
:102C5000E20FF31F111106C08C2F6AE00E9456206C
:102C6000805D01C080E280832F5F3F4FC1C0D230C2
:102C7000E1F610E0C73008F0C6E0202F30E0E09128
:102C80004206F0914306E20FF31F111108C0A09114
:102C90004606B0914706AC0FB11D8C9101C080E291
:102CA00080832F5F3F4FE0914206F0914306E20F91
:102CB000F31F111153C0A0914606B0914706AC0F07
:102CC000B11D11968C914BC0D33009F04AC010E071
:102CD000C73308F0C6E3E02FF0E0A0914206B091C0
:102CE00043069D012E0F3F1F111109C08091480618
:102CF000909149068C0F911DDC018C9101C080E2FE
:102D0000D9018C93A0914206B0914306CF01019660
:102D10009D01280F391F11110AC08091480690911A
:102D200049068C0F911DDC0111968C9101C080E247
:102D3000D9018C939F012E5F3F4FE0914206F091A5
:102D40004306E20FF31F111109C0A0914806B0918C
:102D50004906AC0FB11D12968C9101C080E28083B0
:102D600062C0D43009F05FC010E0C43608F0C3E69A
:102D7000202F30E0E0914206F0914306E20FF31F6E
:102D800011110AC08091560690E001976AE070E048
:102D90000E946220605D01C060E26083E0914206B3
:102DA000F0914306C9010196E80FF91F11110AC0FD
:102DB0008091560690E001976AE070E00E946220E0
:102DC000805D01C080E28083E0914206F09143067D
:102DD000C9010296E80FF91F111106C08C2F6AE095
:102DE0000E945620805D01C080E280832D5F3F4FAE
:102DF000E0914206F0914306E20FF31F111106C065
:102E00008C2F6AE00E945620905D01C090E2908372
:102E10000AC0C73008F0C6E0E0914206F0914306D0
:102E2000E00FF11DFDCEDF91CF911F910F91FF902B
:102E3000EF90DF90CF900895CF93DF93C7E3D6E074
:102E400089859A85DC01ED91FC910280F381E02D6A
:102E500060E00995982F9695969596959E71292FE5
:102E6000220F220F920F8F70890F8B8B8883898599
:102E70009A85DC01ED91FC910280F381E02D61E007
:102E80000995982F9695969596959E71292F220FC4
:102E9000220F920F8F70890F8C8B898389859A8579
:102EA000DC01ED91FC910280F381E02D62E0099557
:102EB000982F9695969596959E71292F220F220F01
:102EC000920F8F70890F8D8B8B8389859A85DC019A
:102ED000ED91FC910280F381E02D63E00995982F3C
:102EE0009695969596959E71292F220F220F920FF7
:102EF0008F70890F8E8B8D8389859A85DC01ED918A
:102F0000FC910280F381E02D64E00995982F96955D
:102F1000969596959E71292F220F220F920F8F70F2
:102F2000890F8F8B8F8389859A85DC01ED91FC91C8
:102F30000280F381E02D65E00995982F969596958E
:102F400096959E71292F220F220F920F8F70890F55
:102F5000888F888789859A85DC01ED91FC910280B4
:102F6000F381E02D66E00995282F2F70215086957A
:102F7000869586958E71982F990F990F890F820FDC
:102F8000898F8E830E9460116AA37BA38CA39DA36B
:102F9000DF91CF910895CF92DF92EF92FF920F933E
:102FA0001F93CF93DF936C017A018B01C0E0D0E0D7
:102FB000CE15DF0589F0D8016D918D01D601ED9117
:102FC000FC910190F081E02DC6010995892B11F447
:102FD0007E0102C02196ECCFC701DF91CF911F91F6
:102FE0000F91FF90EF90DF90CF9008954F925F92F6
:102FF0006F927F928F929F92AF92BF92CF92DF9209
:10300000EF92FF920F931F93CF93DF938C01C090A9
:103010005906D0905A06E0905B06F0905C060E943C
:1030200060116C157D058E059F0540F410925906C0
:1030300010925A0610925B0610925C062091570679
:10304000309158062115310519F40E941C17B1C0A2
:103050008091590690915A06A0915B06B0915C064A
:103060000097A105B10589F36C017D01C20ED31E45
:10307000E11CF11C0E9460116C157D058E059F05F9
:1030800020F70E946011C0905906D0905A06E09037
:103090005B06F0905C066C197D098E099F0928EE8D
:1030A00033E040E050E00E947620C0914E06D0917F
:1030B0004F06C23009F0A2C18D2F90E0837099278E
:1030C000892B09F495C17CE1F72E80914A062901EC
:1030D0003A01480E511C611C711CC301B2012CE362
:1030E000822E912CA12CB12CA50194010E94762056
:1030F0006093370680914B0629013A01480E511C16
:10310000611C711CC301B201A50194010E947620CB
:103110006093380680914C0659016A01A80EB11CD3
:10312000C11CD11CC601B50128E130E040E050E0EF
:103130000E94762060933A0680915006820F873075
:1031400008F059C180933D0680914D0629013A014E
:10315000480E511C611C711CC301B2014F2D50E07F
:103160009A012F5F3F4F032E000C440B550B0E941A
:103170007620620F60933C06CA01B9016C0F711D85
:10318000811D911D2DE030E040E050E00E9476204E
:10319000620F60933E06CA01B9016D0F711D811D5A
:1031A000911D24E630E040E050E00E9476206093DC
:1031B0003F0620913A06822F6CE00E945620911122
:1031C00001C09CE09093390691E02C3008F490E027
:1031D00090933B06F80101900020E9F731979F0199
:1031E000201B310BC1E0C20FA0914406B0914506EF
:1031F00090E0492F50E04217530738F5FD01019048
:103200000020E9F731977F01EA1AFB0A80E0400FBE
:10321000511F682F70E06E157F05A8F46A0F7B1FA1
:10322000FA01D081FB016081D6130BC0882349F0DD
:103230008A3010F4CF5F05C08C3010F4CE5F01C02F
:10324000CD5F8F5FE6CF9F5FD4CF80914206909194
:1032500043060E9447218C2F90E00E94B220909359
:10326000430680934206C0E0D0E08D2F90E0F80145
:1032700001900020E9F73197E01BF10B8E179F07B3
:1032800008F09AC0F801E80FF91F9081E091440618
:10329000F09145068081981308C027E04C2F60E02C
:1032A00080913D060E94CD1584C08181981307C08E
:1032B00080913B0628E04C2F62E0880F0AC0828193
:1032C00098130BC080913B06880F28E04C2F62E0DA
:1032D0008C5F0E94CD15CE5F6DC08381981306C0B0
:1032E00024E04C2F61E080913C06F3CF8481981359
:1032F00006C023E04C2F61E080913906EACF85813A
:10330000981306C023E04C2F61E080913A06E1CF8C
:103310008681981306C022E04C2F61E08091380628
:10332000D8CF8781981306C025E04C2F61E08091AB
:103330003E06CFCF8085981306C021E04C2F61E078
:1033400080913706C6CF8185981306C026E04C2FA2
:1033500061E080913F06BDCF8285981308C08091BF
:103360003E0690E00696982F990F25E008C08385C9
:1033700098130CC080913D06982F990F27E04C2F91
:1033800063E0890F0E94CD15CD5F14C0848598132A
:1033900009C026E04C2F64E080913F060E94CD15C5
:1033A000CC5F08C0E0914206F0914306EC0FF11D9E
:1033B0009083CF5FDF5F59CFE0914206F0914306E3
:1033C000EC0FF11D10828091420690914306DF912F
:1033D000CF911F910F91FF90EF90DF90CF90BF9012
:1033E000AF909F908F907F906F905F904F900895D7
:1033F0006DE1F62E6ACE10923D06A6CE8C2F90E09F
:1034000061E070E0C83010F460E070E0860F971F54
:10341000817099279EE1F92EF80E57CE90913205D2
:103420009111FCCF91E090933205909331052FEFED
:1034300020930D0510920C05260F20930B059093F9
:10344000EA049091EA04880F892B8093EA04809122
:103450003005813061F4109230058091EA04809348
:10346000BB008091BC0083FDF8CF85EC01C085EEE8
:103470008093BC00809132058130E1F380910C058E
:10348000861710F460910C05ABEEB4E028E736E047
:10349000F9018E2F821B861718F48D918193F9CF35
:1034A000862F08956115710579F0FB0101900020C8
:1034B000E9F73197AF01461B570BDC01ED91FC9109
:1034C0000280F381E02D099480E090E008954F920E
:1034D0005F926F927F92EF92FF920F931F93CF9321
:1034E000DF93CDB7DEB7A1970FB6F894DEBF0FBE5E
:1034F000CDBF7C01FA01CB0119A2223008F42AE0E9
:103500008E010F5D1F4F422E512C612C712CBF017B
:10351000A30192010E947620F901CA01015011090C
:103520006A3014F4605D01C0695CD8016C93232B90
:10353000242B252B61F7B801C7010E94521AA196CE
:103540000FB6F894DEBF0FBECDBFDF91CF911F91B4
:103550000F91FF90EF907F906F905F904F90089544
:10356000CF92DF92EF92FF920F931F93CF93DF934F
:10357000EC016A017B01E881F9810190F081E02D85
:103580006DE209958C0144275527BA014C195D0954
:103590006E097F092AE0CE010E94671A800F911FF1
:1035A000DF91CF911F910F91FF90EF90DF90CF901F
:1035B0000895AC01990F660B770B77FF04C08DE57A
:1035C00096E00C94B01A2AE08DE596E00C94671A08
:1035D0000F931F93CF93DF93EC010E94521A8C013B
:1035E0006CE272E0CE010E94521A800F911FDF91AF
:1035F000CF911F910F910895CF93DF93CDB7DEB791
:10360000C357D1090FB6F894DEBF0FBECDBF789473
:1036100084B5826084BD84B5816084BD85B58260D7
:1036200085BD85B5816085BD80916E008160809388
:103630006E001092810080918100826080938100F1
:103640008091810081608093810080918000816001
:10365000809380008091B10084608093B10080915C
:10366000B00081608093B00080917A008460809384
:103670007A0080917A00826080937A0080917A004B
:10368000816080937A0080917A00806880937A00CC
:103690001092C1008091400690914106DC01ED91AD
:1036A000FC910190F081E02D09958EE292E00E945C
:1036B000F6170E941B1460E083E00E94D31060E0C4
:1036C00084E00E94D31061E085E00E94D31061E0A5
:1036D00086E00E94D31061E087E00E94D310E09161
:1036E0004705F091480582E08083E0914305F09121
:1036F00044051082E0914505F09146058FEC8083EA
:1037000010924F05E0914B05F0914C0586E08083C7
:10371000E0914905F0914A05808180618083E091C4
:103720004905F0914A05808188608083E0914905D0
:10373000F0914A05808180688083E0914905F0918D
:103740004A0580818F7D808363EC71E087E395E09B
:103750000E94E81A1092E1051092DF051092DC0534
:103760001092DB058AE08093DA050E9460118B01DC
:1037700061E08091DA050E94D31061E08091DA0562
:103780000E94A310FFB6F89480918402811127C093
:10379000E0E9F0E08491ECE7F0E09491E82FF0E0CC
:1037A000EE0FFF1FE859FF4FA591B491EC91E9236B
:1037B00021F461E08AE00E94A31061E08AE00E94A7
:1037C000D3108CB580618CBD8CB580648CBD61E0FC
:1037D0008DE00E94D31061E08BE00E94D3108091B5
:1037E00084028F5F80938402FFBE82E58093D405BC
:1037F0001092D5058091D4059091D5050E94E305DE
:10380000FAE0FF2E8FEF0E94A405FA94F110FACF90
:1038100086ED95E00E94E60520E030E0A90160E039
:1038200086ED95E00E94FC05F82E8093E00581E08E
:10383000F81649F00E946011601B710B613D7740E2
:1038400058F381E056C02AEA31E040E050E068E0F9
:1038500086ED95E00E94FC0582FF03C0F092E10531
:1038600010C0E4E0FE2E0E94AB058093E005FA94C0
:10387000F110F9CF8A3A11F082E03BC082E08093E8
:10388000E1058091E105823021F0C12CD12C760137
:1038900005C0C12CD12CE12C70E4F72E20E030E0E3
:1038A000A90167E386ED95E00E94FC05A70196015A
:1038B00069E286ED95E00E94FC058093E00588238F
:1038C00049F00E946011601B710B613D774030F33D
:1038D00088E00FC08091E105823001F520E030E002
:1038E000A9016AE386ED95E00E94FC05882341F07A
:1038F00086E08093DB0586ED95E00E9499058FC0F8
:103900000E94AB05807C803C19F483E08093E10544
:103910000E94AB050E94AB050E94AB0586ED95E0C9
:103920000E94990580E58093D4051092D50581E029
:103930000E949E14882329F080910506882341F077
:103940006EC080E00E949E14882309F468C0F4CF02
:103950008091F905803109F582E080930506109287
:103960001706109218061092190610921A068091E6
:10397000FA059091FB05A0E0B0E065E0880F991F83
:10398000AA1FBB1F6A95D1F7809313069093140664
:10399000A0931506B09316061EC0803209F03FC0F2
:1039A00083E0809305064091FC055091FD056091F0
:1039B000FE057091FF05409317065093180660931B
:1039C000190670931A0623E136E082EE95E00E9414
:1039D000B213882321F182EE95E090931C06809328
:1039E0001B0681E0809304061092060610920706DB
:1039F000109208061092090610920A0610920B0601
:103A000010920C0610920D0610920E0610920F06E0
:103A10001092100610921106109212060CC060ED62
:103A200071E08DE596E00E94E81A60ED71E087E3B1
:103A300095E00E94E81A87E3C82E81E0D82E98EE20
:103A4000492E93E0592E612C712C2DE0322EA8E5E1
:103A5000B0E0AC0FBD1F1C965D010BE416E433E52E
:103A6000832E32E0932E4BE3E42E4FE1F42E52E00E
:103A7000252E60E076E0CE0101960E94FE08BE0190
:103A80006F5F7F4FCE01CB960E94FE0819A218A24D
:103A9000DF8ECE8E1BA221968FAD2197811112C091
:103AA0006C961FAE1EAE6C97A0964CAE5DAE6EAE21
:103AB0007FAEA097E3961FAE1EAEE397A5961FAE0E
:103AC000A59735C0825023E142EE51E0823048F4A0
:103AD00060E076E0CE014E960E94A60381110EC0F2
:103AE000DFCFBE01655C7F4FCE014E960E94A603DC
:103AF0008823B1F2CE01CB960E94870549A95AA925
:103B00006BA97CA9CE014E960E940802BE01625E9E
:103B10007F4FCE0101960E94FE0842EE51E0BE01A9
:103B20006F5F7F4FCE01885A9F4F0E948A0C6C9620
:103B30008EAD9FAD6C979093600680935F06A096C4
:103B40008CAD9DADAEADBFADA09780936106909357
:103B50006206A0936306B0936406A4968CAD9DADF7
:103B6000AEADBFADA4978093650690936606A09313
:103B70006706B0936806F501A9E6B6E0832D0190CB
:103B80000D928A95E1F7E3968EAD9FADE397909302
:103B900077068093760683E00E947A1090939002D5
:103BA00080938F020197D9F46FEE71E087E395E07F
:103BB0000E94E81A8DEF91E00E94F617BC018DE596
:103BC00096E00E94521A6FEE71E08DE596E00E9439
:103BD000E81A64EF71E080E090E00E94261184E032
:103BE0000E947A1090938E0280938D02019709F0C3
:103BF000B1C01092360660E08BE296E00E94B611EA
:103C00006AE072E087E395E00E94E81A0E941B14C4
:103C10001092300680913506823018F098E090932B
:103C200030068093330662E370E080E090E00E940B
:103C30002611609136068BE296E00E94B61168EE7E
:103C400073E080E090E00E94261160E38BE296E052
:103C50000E94CA11C8010197F1F760E38BE296E078
:103C60000E94CA11C8010197F1F760E38BE296E068
:103C70000E94CA11C4010197F1F760E28BE296E05D
:103C80000E94CA1160913006606240E08BE296E0CB
:103C90000E94E31184E08093310640E06CE08BE207
:103CA00096E00E94E31140E061E08BE296E00E9422
:103CB000E311C7010197F1F72092320640E066E078
:103CC0008BE296E00E94E31140E062E08BE296E036
:103CD0000E94E311C7010197F1F728E0209336060F
:103CE00060E08BE296E0E4962FAFE4970E94B61175
:103CF0006FE072E08BE296E00E94521AEAE0F1E097
:103D0000DE011196E4962FADE49701900D922A956D
:103D1000E1F780913306811102C08FEF01C081E08D
:103D2000FE013196E80FF11DE80FF11D6081685F1B
:103D3000606840E08BE296E00E94E3116BE172E084
:103D40008BE296E00E94521A64EF71E080E090E00E
:103D50000E94261188E092E00E94F617BC0187E3DA
:103D600095E00E94E81A64EF71E080E090E00E9424
:103D700026118EE292E00E94F6178091370690E0BD
:103D800090938C0280938B02892B09F08FC064E2A0
:103D900072E087E395E00E94E81A61E085E00E9406
:103DA000A31061E086E00E94A31061E087E00E941A
:103DB000A31064E670E080E090E00E94261180E0AD
:103DC0000E940F1190938A028093890281E00E94E1
:103DD0000F11909388028093870282E00E940F1156
:103DE00090938602809385028DEF91E00E94F617F2
:103DF000BC0187E395E00E94E81A40918902509146
:103E00008A02052E000C660B770B77FF05C087E34F
:103E100095E00E94B01A05C02AE087E395E00E9471
:103E2000671A6CE272E087E395E00E94521A8DEF08
:103E300091E00E94F617BC018DE596E00E94521AAF
:103E40006FE272E08DE596E00E94521A809189023D
:103E500090918A020E94D91A6FE272E08DE596E095
:103E60000E94521A80918702909188020E94D91A6A
:103E70006FE272E08DE596E00E94521A8091850211
:103E8000909186020E94D91A6FE272E08DE596E069
:103E90000E94E81A60E085E00E94A31060E086E0DE
:103EA0000E94A31060E087E00E94A3108091760634
:103EB00090917706009761F00E94870580917606C1
:103EC000909177060E94472110927706109276060D
:103ED0000E94C80FCECDCF92DF92EF92FF92CF9388
:103EE000DF93E7E3F5E01382128288EEC82E83E0C9
:103EF000D82EE12CF12CC482D582E682F78285E2AD
:103F000091E09183808385EC90E09587848784ECB1
:103F100090E09787868780EC90E0918B808B81EC96
:103F200090E0938B828B82EC90E0958B848B86EC77
:103F300090E0978B868B118E128E138E148EE4ED8B
:103F4000F5E080E580831182E6EDF5E015821682CA
:103F50001186138682E090E0A0E0B0E08487958728
:103F6000A687B78713A215A614A687E391E093A7A7
:103F700082A717A6EFE1F6E013821282C482D582EF
:103F8000E682F78283E491E091838083EDE5F6E0B9
:103F900013821282C482D582E682F78287E991E099
:103FA00091838083128E118E1486C7E3D6E0188227
:103FB000198281E08A831B821C828D831E828F83FB
:103FC000188681E090E00E94B2209C878B8782E374
:103FD00092E09E878D8780E492E0988B8F8789E4BA
:103FE00092E09A8B898B1A8ECB8EDC8EED8EFE8EB4
:103FF00085E18F8F19A218A21AA21BA21CA21DA2D2
:1040000086E290E00E94B2202DE831E0FC0131838D
:10401000208321E631E0338322832FEF248325831D
:1040200028E6268B27E0E3E1F1E0DC0157960190DA
:104030000D922A95E1F727E0EAE1F1E0DC015E96D6
:1040400001900D922A95E1F79A878987EBE2F6E0D5
:104050001382128285E591E0918380838FE38483CC
:1040600080E1818782E082871386DF91CF91FF9084
:10407000EF90DF90CF9008950E944720A59F900D6C
:10408000B49F900DA49F800D911D11240895A29FAF
:10409000B001B39FC001A39F700D811D1124911D1C
:1040A000B29F700D811D1124911D0895991B79E017
:1040B00004C0991F961708F0961B881F7A95C9F7B8
:1040C0008095089597FB072E16F4009407D077FD8E
:1040D00009D00E94982007FC05D03EF49095819568
:1040E0009F4F0895709561957F4F0895A1E21A2E14
:1040F000AA1BBB1BFD010DC0AA1FBB1FEE1FFF1F8C
:10410000A217B307E407F50720F0A21BB30BE40BDB
:10411000F50B661F771F881F991F1A9469F7609522
:104120007095809590959B01AC01BD01CF010895DC
:10413000AA1BBB1B51E107C0AA1FBB1FA617B707CD
:1041400010F0A61BB70B881F991F5A95A9F78095E9
:104150009095BC01CD010895EE0FFF1F0590F491DD
:10416000E02D0994CF93DF938230910510F482E023
:1041700090E0E0919A06F0919B0620E030E0C0E0EC
:10418000D0E0309711F14081518148175907C0F0B4
:104190004817590761F482819381209719F09B8316
:1041A0008A832BC090939B0680939A0626C0211584
:1041B000310519F04217530718F49A01BE01DF01C7
:1041C000EF010280F381E02DDCCF2115310509F1EB
:1041D000281B390B2430310590F412968D919C9157
:1041E00013976115710521F0FB019383828304C04D
:1041F00090939B0680939A06FD01329644C0FD0180
:10420000E20FF31F81939193225031092D933C9338
:104210003AC02091980630919906232B41F42091C1
:10422000060130910701309399062093980620915A
:104230000401309105012115310541F42DB73EB738
:104240004091080150910901241B350BE09198061B
:10425000F0919906E217F307A0F42E1B3F0B2817E5
:10426000390778F0AC014E5F5F4F2417350748F0EF
:104270004E0F5F1F50939906409398068193919338
:1042800002C0E0E0F0E0CF01DF91CF9108950F93FD
:104290001F93CF93DF93009709F48CC0FC013297F2
:1042A0001382128200919A0610919B060115110546
:1042B00081F420813181820F931F209198063091E3
:1042C00099062817390779F5F0939906E09398062F
:1042D00071C0D80140E050E0AE17BF0750F412960D
:1042E0002D913C911397AD012115310509F1D901AB
:1042F000F3CF9D01DA013383228360817181860FC0
:10430000971F8217930769F4EC0128813981260FE2
:10431000371F2E5F3F4F318320838A819B81938398
:104320008283452B29F4F0939B06E0939A0642C0C2
:104330001396FC93EE931297ED01499159919E01CA
:10434000240F351FE217F30771F480819181840FE8
:10435000951F029611969C938E938281938113965A
:104360009C938E931297E0E0F0E0D80112968D9125
:104370009C911397009719F0F8018C01F6CF8D915D
:104380009C9198012E5F3F4F820F931F20919806BA
:10439000309199062817390769F4309729F410925B
:1043A0009B0610929A0602C01382128210939906FD
:1043B00000939806DF91CF911F910F91089581E0AE
:1043C00090E0F8940C940022FB01DC0104C08D9174
:1043D0000190801921F441505040C8F7881B990B77
:1043E0000895FB01DC014150504048F001900D92CE
:1043F0000020C9F701C01D9241505040E0F70895D8
:04440000F894FFCF5E
:10440400FFFFFFFF00009C06800000004000140036
:10441400540000000102040506037F7F3F3F1FFF95
:1044240007000000005F0FCB17F70EA60F280F063A
:104434000F1A0F00000000ED08CB17230A220A0010
:10444400000000F309C309230A9709BB09A70998C7
:1044540009000000000412CB17230A220A000000FE
:1044640000260CEF0A9F0AD90A8A0A8F0B6B0BDE0F
:104474000B520B880A420B860A840A830A810A7F3C
:104484000A7D0A4E0A340A260A00000000410C2361
:104494000BB60A000000004F09070B230AFD009425
:1044A40000B5005D05000000002010CB17230A2290
:1044B4000A201020102010000000002010CB172329
:1044C4000A220A6F70656E206D7920706F72740015
:1044D40053442D63617264206E6F7420666F756E31
:1044E40064006961726475696E6F2E747874003B40
:1044F4003B3B205761746572696E673B00642D6DA8
:104504002D593B20483A693A73007669657700690A
:1045140061726475696E6F2E7275004C434420316C
:10452400363032006F6B2074696D65000D0A003BF4
:104534002000776141646848696D73794D4459007E
:10454400616D706D414D504D0053756E4D6F6E54DD
:1045540075655765645468754672695361744A6138
:104564006E4665624D61724170724D61794A756E35
:104574004A756C4175675365704F63744E6F76442A
:04458400656300006B
:107E0000112484B714BE81FFF0D085E080938100F7
:107E100082E08093C00088E18093C10086E0809377
:107E2000C20080E18093C4008EE0C9D0259A86E02C
:107E300020E33CEF91E0309385002093840096BBD3
:107E4000B09BFECF1D9AA8958150A9F7CC24DD24C4
:107E500088248394B5E0AB2EA1E19A2EF3E0BF2EE7
:107E6000A2D0813461F49FD0082FAFD0023811F036
:107E7000013811F484E001C083E08DD089C08234E0
:107E800011F484E103C0853419F485E0A6D080C0E4
:107E9000853579F488D0E82EFF2485D0082F10E0AE
:107EA000102F00270E291F29000F111F8ED06801E7
:107EB0006FC0863521F484E090D080E0DECF843638
:107EC00009F040C070D06FD0082F6DD080E0C81688
:107ED00080E7D80618F4F601B7BEE895C0E0D1E017
:107EE00062D089930C17E1F7F0E0CF16F0E7DF06D8
:107EF00018F0F601B7BEE89568D007B600FCFDCFD4
:107F0000A601A0E0B1E02C9130E011968C91119780
:107F100090E0982F8827822B932B1296FA010C0160
:107F200087BEE89511244E5F5F4FF1E0A038BF0790
:107F300051F7F601A7BEE89507B600FCFDCF97BE46
:107F4000E89526C08437B1F42ED02DD0F82E2BD052
:107F50003CD0F601EF2C8F010F5F1F4F84911BD097
:107F6000EA94F801C1F70894C11CD11CFA94CF0C13
:107F7000D11C0EC0853739F428D08EE10CD085E9AC
:107F80000AD08FE07ACF813511F488E018D01DD067
:107F900080E101D065CF982F8091C00085FFFCCF94
:107FA0009093C60008958091C00087FFFCCF809118
:107FB000C00084FD01C0A8958091C6000895E0E648
:107FC000F0E098E1908380830895EDDF803219F02E
:107FD00088E0F5DFFFCF84E1DECF1F93182FE3DFCA
:107FE0001150E9F7F2DF1F91089580E0E8DFEE27F6
:047FF000FF270994CA
:027FFE00040479
:0400000300007E007B
:00000001FF